:100000000C9470010C9482010C9482010C94182EB3
:100010000C94DE2A0C9482010C9482010C948201CF
:100020000C9482010C9482010C9482010C942E2B6E
:100030000C9482010C9482010C9482010C94820134
:100040000C94182B0C9482010C944E2D0C94EE2DD4
:100050000C9482010C9482010C9482010C94820114
:100060000C9482010C948201084AD73B3BCE016E6E
:1000700084BCBFFDC12F3D6C74319ABD56833DDAFF
:100080003D00C77F11BED9E4BB4C3E916BAAAABE0E
:10009000000000803F05A84CCDB2D44EB93836A937
:1000A000020C50B9918688083CA6AAAA2ABE000074
:1000B00000803F000D0A4772626C20453320536573
:1000C0007269657320312E3168205B2724272066F2
:1000D0006F722068656C705D0D0A00244E005B4FE6
:1000E00050543A005B5645523A4533205365726985
:1000F000657320312E31682E323032323032303258
:100100003A005B544C4F3A005B4739323A00333087
:10011000003238005B4700204700204D0020460099
:1001200020540033382E005B47433A47005B484C6D
:10013000503A242420242320244720244920244EDC
:100140002024783D76616C20244E783D6C696E6584
:1001500020244A3D6C696E652024534C5020244372
:10016000202458202448207E2021203F20637472C0
:100170006C2D785D0D0A00414C41524D3A007C4196
:100180003A007C4F763A007C57434F3A007C506EE1
:100190003A007C463A007C42663A007C57506F73C6
:1001A0003A007C4D506F733A00536C6565700044A3
:1001B0006F6F723A00436865636B00416C61726DEA
:1001C00000486F6D65004A6F6700486F6C643A00C5
:1001D00052756E0049646C65000D0A005B50524216
:1001E0003A006572726F723A000000A0420000A0EF
:1001F0004279BB0D4500401C4600401C460000FAF9
:100200004300C82F4A00C82F4A00D683490000E1A6
:10021000C30000C3C30000AAC205000019010AD729
:10022000233C6F12033B00007A440000000070037F
:100230000000FA430000FA45FA000000A0406F6B8E
:100240000D0A00536C656570696E670052657374C2
:100250006F72696E67207370696E646C65005265B9
:1002600073746F72696E672064656661756C747310
:100270000050676D20456E6400436865636B204CD9
:10028000696D69747300436865636B20446F6F72B6
:100290000044697361626C656400456E61626C65FF
:1002A000640043617574696F6E3A20556E6C6F63BC
:1002B0006B656400272448277C2724582720746F07
:1002C00020756E6C6F636B00526573657420746F7C
:1002D00020636F6E74696E7565005B4D53473A001D
:1002E00011241FBECFEFD8E0DEBFCDBF27E0A0E0D6
:1002F000B1E001C01D92A730B207E1F70E94472E7E
:100300000C9474380C9400008F929F92AF92BF921D
:10031000CF92DF92EF92FF920F931F93CF93DF93D1
:100320007C016B01DC01EC91F0E0E954F94F808134
:10033000EF018D3229F52296818101E0912CF0E0C8
:1003400010E020E030E0A9015E01E0EDE80FEA30C6
:1003500018F5FF5FF930E0F491101150A5E0B0E01E
:100360000E944D389B01AC01220F331F441F551FC3
:100370002E0F311D411D511D2196D5018C91E4CFC9
:100380008B3219F0219600E0D9CF22968181FBCFE4
:100390009110F2CF1F5FF0CFEE3F29F4911003C010
:1003A00099249394E9CFFF23F9F0CA01B9010E947F
:1003B0004C354B015C0120E030E0A9010E949A34E9
:1003C00081112BC0002309F445C0B7FAB094B7F8E7
:1003D000B094F60180829182A282B382C75BD6403C
:1003E000C150F701C083F1E08F2FDF91CF911F91B2
:1003F0000F91FF90EF90DF90CF90BF90AF909F90C4
:100400008F9008952AE037ED43E25CE3C501B40123
:100410000E94FC364B015C011E5F1F3F9CF31F3F97
:1004200059F42DEC3CEC4CEC5DE3C501B4010E94A9
:10043000FC364B015C01C6CF112321F220E030E0F5
:1004400040E251E4C501B4010E94FC364B015C015D
:100450001150F2CFD6018D929D92AD92BC9213971E
:10046000BDCF2FB7F8949091C005892B8093C0051C
:100470002FBF08952FB7F8949091BF05892B8093D3
:10048000BF052FBF08959FB7F8948093BE059FBF07
:1004900008959FB7F8942091BD058095822380939D
:1004A000BD059FBF08952FB7F8949091BD05892B86
:1004B0008093BD052FBF08958F929F92AF92BF92F8
:1004C000CF92DF92EF92FF920F931F93CF93DF9320
:1004D000E0902E06F12C6C0108EE15E0D0E0C0E0B3
:1004E000F60181909190A190B1906F01C7010C2EFF
:1004F00002C0959587950A94E2F720E030E0A901C3
:1005000080FF14C0C501B4010E949A3487FD0CC05D
:10051000F80164A175A186A197A19058A501940145
:100520000E949A3487FF13C081E018C0C501B4014E
:100530000E94BC361816C4F3A5019401F80164A109
:1005400075A186A197A10E94BC3618166CF321965E
:100550000C5F1F4FC330D10519F680E0DF91CF91BA
:100560001F910F91FF90EF90DF90CF90BF90AF90D1
:100570009F908F9008958F929F92AF92BF92CF924B
:10058000DF92EF92FF920F931F93CF93DF93EB01D4
:1005900028EEE22E25E0F22E8C016B018CE0C80ED5
:1005A000D11C6991799189919991F70181909190EC
:1005B000A190B1907F010E944E35A50194010E9447
:1005C000A434F80161937193819391938F01CC15B9
:1005D000DD0539F7DF91CF911F910F91FF90EF90DB
:1005E000DF90CF90BF90AF909F908F90089596B17D
:1005F0009095892F877039F082E091FF80E090FD1F
:10060000816092FD84600895CF93DF93C091BB0514
:10061000D091BC052097C9F08091910581608093AD
:1006200091056091A7057091A8058091A905909109
:10063000AA059B01AC010E94FC366A8B7B8B8C8BDC
:100640009D8B1092BC051092BB05DF91CF91089550
:1006500090911906492F80911A06282F90FF11C0FA
:1006600094E080FF10C080E241FD986021FD80642D
:1006700042FD906122FD806890930B0280930C02F2
:10068000089590E0EECF80E0EFCF80912D0682FFBD
:1006900013C0289A80910B0280931C028091180647
:1006A0008250990B880F819580931B0280916F0077
:1006B000826080936F0008952898ECCF9091DC05BC
:1006C000911105C0811104C02C981092E60508957F
:1006D000803119F42D982C9AF8CF2D9AFCCF249ABA
:1006E000259A2C980895E0911D0191E09E0F99366E
:1006F00009F490E020918701291761F0F0E0E25EB3
:10070000FE4F808390931D018091C1008062809391
:10071000C10004C02091BD0524FFECCF0895CF9304
:10072000DF93C7EBD6E08991811103C0DF91CF91B0
:1007300008950E947303F7CF1092C10590912D0682
:1007400097FD03C090E29093C105882331F080911A
:10075000C10590E289278093C10508958F929F92E9
:10076000AF92BF92CF92DF92EF92FF920F931F93BF
:10077000CF93DF93CDB7DEB72D970FB6F894DEBFDA
:100780000FBECDBF6B017C01042F20E030E0A9013A
:100790000E949A3487FF07C08DE20E947303F7FA24
:1007A000F094F7F8F094102F123008F054C000FFC6
:1007B0000AC020E030E040E251E4C701B6010E94E7
:1007C000FC366B017C0120E030E040E05FE3C701D4
:1007D000B6010E94A5330E94163510E03AE0832E40
:1007E000912CA12CB12CE12FF0E061157105810550
:1007F0009105E9F581E090E08C0F9D1FE80FF91F4E
:1008000080E3101708F445C0101309C0E1E0F0E0E0
:10081000EC0FFD1FE10FF11D80E380831F5FEE24CD
:10082000E394F12CEC0EFD1EE10EF11C111134C00D
:100830002D960FB6F894DEBF0FBECDBFDF91CF91DE
:100840001F910F91FF90EF90DF90CF90BF90AF90EE
:100850009F908F90089520E030E048EC52E4C7016B
:10086000B6010E94FC366B017C0112509DCFEE2434
:10087000E394F12CEC0EFD1EEE0EFF1EA50194017B
:100880000E942538605DF7016083B901CA011F5FCE
:10089000AACF1F5F8193B5CF101303C08EE20E94D1
:1008A0007303F70182917F010E9473031150BECF41
:1008B00020912D0640E020FF07C02BE832E441E202
:1008C0005DE30E94FC3641E00C94AE0320912D06BE
:1008D00043E020FF07C02BE832E441E25DE30E94E1
:1008E000FC3644E00C94AE030F931F93CF938C011E
:1008F000C0E0F80161917191819191918F010E9405
:100900006604C23019F08CE20E947303CF5FC330DB
:1009100081F7CF911F910F910895CF93DF93843684
:1009200058F06AE00E940538C0E3C90F6AE00E94EF
:100930000538D0E3D90F04C0C0E0D0E08A30B0F76A
:10094000805D0E947303DD2319F08D2F0E947303D5
:10095000CC2329F08C2FDF91CF910C947303DF917E
:10096000CF910895CF93DF93EC01FE0184912196FE
:10097000811103C0DF91CF9108950E947303F5CFD9
:1009800089ED91E00C94B204CF93C82F82EE91E0F0
:100990000E94B2048C2F0E948D04CF910C94C0044D
:1009A000811104C08EE392E00C94B2040C94C40450
:1009B000CF92DF92EF92FF92CF93DF93D82F6A010D
:1009C0007B01C22F84E20E9473038D2F0E948D044D
:1009D0008DE30E9473034C2FC701B6010E94AE0342
:1009E000DF91CF91FF90EF90DF90CF900C94C004F7
:1009F000CF93DF93D82FC62F84E20E9473038D2FED
:100A00000E948D048DE30E9473038C2F0E948D043D
:100A1000DF91CF910C94C004EF92FF920F931F933C
:100A2000CF93DF936091180670E080E00E94F80495
:100A300060911B0670E081E00E94F8046091190645
:100A400070E082E00E94F80460911A0670E083E092
:100A50000E94F80460912D0662FB662760F970E041
:100A600084E00E94F80460912D0666FB662760F919
:100A700070E085E00E94F80480912D06082E000C9D
:100A8000990B692F661F6627661F70E086E00E943B
:100A9000F80460911C0670E08AE00E94F80440911E
:100AA0001D0650911E0660911F067091200623E0DE
:100AB0008BE00E94D804409121065091220660915B
:100AC00023067091240623E08CE00E94D8046091F4
:100AD0002D06617070E08DE00E94F80460912D0693
:100AE00065FB662760F970E084E10E94F80460917C
:100AF0002D0663FB662760F970E085E10E94F8042B
:100B000060912D066295617070E086E10E94F804A4
:100B100060912E0670E087E10E94F80440912F0654
:100B200050913006609131067091320623E088E1E1
:100B30000E94D804409133065091340660913506E6
:100B40007091360623E089E10E94D804609137064F
:100B5000709138068AE10E94F8044091390650915C
:100B60003A0660913B0670913C0623E08BE10E94BF
:100B7000D804409125065091260660912706709171
:100B8000280620E08EE10E94D80440912906509169
:100B90002A0660912B0670912C0620E08FE10E94BE
:100BA000D80470E060E080E20E94F80484E6F82E49
:100BB00010E0C8EED5E000E0E02EEF0C123011F1AD
:100BC000133069F11130C9F0488159816A817B8104
:100BD00023E08E2D0E94D8040F5F2496033061F726
:100BE0008AE0F80E1F5F8CE8F812E3CFDF91CF9117
:100BF0001F910F91FF90EF9008954C855D856E8554
:100C00007F85E6CF20E030E041E655E4688D798DC0
:100C10008A8D9B8D0E94A434AB01BC01D9CF4CA11D
:100C20005DA16EA17FA17058D3CF8DE50E947303A3
:100C30000C94C004CF93DF93CDB7DEB72C970FB6DB
:100C4000F894DEBF0FBECDBF8CED91E00E94B204E0
:100C50006EEC75E0CE0101960E94BB02CE010196BA
:100C60000E9474048AE30E9473038091E0050E944D
:100C70008D040E9415062C960FB6F894DEBF0FBEA9
:100C8000CDBFDF91CF910895E1E0F1E0A2ECB5E0B6
:100C90004D915D916D917C91139740835183628357
:100CA000738314964D915D916D917C911797448358
:100CB00055836683778318968D919D910D90BC9195
:100CC000A02D80879187A287B3870895BF92CF9286
:100CD000DF92EF92FF920F931F93CF93DF937C01EC
:100CE000FC0102A513A5D4A5C5A5818980FF33C049
:100CF0006091E30570E090E080E00E944E352AE0CC
:100D000037ED43E25CE30E94FC369B01AC01B80185
:100D10008D2F9C2F0E94FC368B01D82FC92F20E0ED
:100D200030E040E85FE3B8018D2F9C2F0E94BC3675
:100D3000181624F000E010E0D0E8CFE3B8018D2FC2
:100D40009C2FDF91CF911F910F91FF90EF90DF903B
:100D5000CF90BF90089582FD17C06091E20570E0CA
:100D600090E080E00E944E352AE037ED43E25CE3FC
:100D70000E94FC369B01AC01B8018D2F9C2F0E9474
:100D8000FC368B01D82FC92FF701B6A0C7A0D0A47D
:100D9000F1A498014D2F5C2F6B2D7C2D8D2D9F2D57
:100DA0000E949A3487FFBBCF0B2D1C2DDD2DCF2D3C
:100DB000B6CF8091320290911305981739F02EE248
:100DC000829FC00111248D5C9D4F089590E080E0CA
:100DD00008950E94D906892B19F082E00C945302E1
:100DE00008952F923F924F925F926F927F928F92CF
:100DF0009F92AF92BF92CF92DF92EF92FF920F93AA
:100E00001F93CF93DF9300D000D0CDB7DEB7009112
:100E10001305002309F486C00983398131503983D1
:100E200010913102131709F466C0C32ED12CEEE2E3
:100E30003E9FC00111249C012D5C3D4F7901F901B9
:100E400076888788908CA18C628D738D848D958D2A
:100E50009B01AC010E94A533F701268D378D40A17F
:100E600051A10E94FC36B62EE72EF82E9B83262F2A
:100E7000372F482F592F672D782D892D9A2D0E94B5
:100E80009A3487FF03C0B72C7401AB828EE28C9D2D
:100E9000F0018D9DF00D1124ED5CFD4F8B2D9E2DED
:100EA000AF2DBB81828B938BA48BB58BF9818F2F58
:100EB000F11101C080E1FF24FA94F80E3090320263
:100EC0001F1133C0131102C00E940403EEE21E9FE3
:100ED000C00111248D5C9D4F9A8389833324339400
:100EE000310EF0E13F1201C0312C8EE2282E0311A9
:100EF00085C0109331020F900F900F900F90DF91EB
:100F0000CF911F910F91FF90EF90DF90CF90BF9006
:100F1000AF909F908F907F906F905F904F903F9099
:100F20002F90089520E1298378CF29818EE2289F90
:100F3000900111242D5C3D4F3C832B832EE2E22E49
:100F40008F2C912CFE9CC0011124FC01ED5CFD4F07
:100F5000FA83E983F11002C090E1F92EFA94F310BC
:100F600002C00E940403E89CC001E99C900D11247A
:100F70009C012D5C3D4F6901F90146885788608CC2
:100F8000718CA301920162897389848995890E9479
:100F90009A34882339F1F601628D738D848D958D95
:100FA0009B01AC010E94A533F601268D378D40A12F
:100FB00051A10E94FC36EB81FC812289338944894E
:100FC00055890E94A5334B015C01AC019B01C30113
:100FD000B2010E94BC36F60118165CF4828A938A2C
:100FE000A48AB58A29813A813C832B831F11A8CF1B
:100FF0006DCF428A538A648A758AF4CFC32CD12C70
:10100000329CC00111249C012D5C3D4F7901E98186
:10101000FA814288538864887588F90182889388A8
:10102000A488B588A5019401C301B2010E949A3435
:1010300087FF26C0E981FA81628D738D848D958D3D
:101040009B01AC010E94A533E981FA81268D378D81
:1010500040A151A10E94FC36A30192010E94A53338
:101060002B013C01AC019B01C501B4010E94BC36BF
:10107000181634F4F701428A538A648A758A132D4C
:101080002C9CF0012D9CF00D1124ED5CFD4F268968
:101090003789408D518D62897389848995890E9431
:1010A0009A34811101C0132D3394F0E13F1201C035
:1010B000312CFA82E9821BCF6F927F928F929F929E
:1010C000AF92BF92CF92DF92EF92FF920F931F9356
:1010D000CF93DF93EB018C015B018CE0A80EB11C78
:1010E00089E9682E96E7792E26E9822E3EE7932E2F
:1010F000C990D990E990F99020E030E0A901C701AA
:10110000B6010E949A348823B9F0A7019601F8012C
:1011100060817181828193810E94A4346B017C0182
:10112000E894F7F89301A401C701B6010E94BC3608
:10113000181614F0360147010C5F1F4FCA15DB0566
:10114000B9F6B301C401DF91CF911F910F91FF90C8
:10115000EF90DF90CF90BF90AF909F908F907F9057
:101160006F90089593B180912D0686FF0BC09E70FD
:1011700059F091FB882780F992FD8260987029F0E0
:10118000846008959095F3CF80E00895EBE6F0E059
:101190008081817F8083E8E6F0E080818E7F80839C
:1011A000089584B1817F84B985B18E6085B98091BD
:1011B0002D0683FF0BC080916B008E6080936B00C7
:1011C0008091680081608093680008950C94C6083F
:1011D00062EC75E085E596E00C94BB02F894F99911
:1011E000FECF92BD81BD81E08FBB20B5862F8227C7
:1011F000082E000C990B50E086239523892B49F08B
:1012000084E16F3F11F060BD84E08FBBF99A789460
:1012100008952617E1F360BD84E2F7CF9F92AF9265
:10122000BF92CF92DF92EF92FF920F931F93CF93D3
:10123000DF935C018A017B01E40EF51EEB01912C2A
:101240006C01C61AD70ACE018C0D9D1D21E09110AC
:1012500007C0292D990C330B232F221F2227221F71
:101260006991962E920E0E94EE08CE15DF0559F771
:10127000692DC501800F911FDF91CF911F910F91B3
:10128000FF90EF90DF90CF90BF90AF909F900C9425
:10129000EE086AE090E080E00E94EE0845E550E04C
:1012A00068EE75E081E090E00C940E09F999FECFAC
:1012B00092BD81BD81E08FBB80B508959F92AF92B2
:1012C000BF92CF92DF92EF92FF920F931F93CF9333
:1012D000DF935B018A017C01E40EF51EEC01912C89
:1012E0006B01C81AD90AC6018C0F9D1F0E945609AE
:1012F00021E0911007C0292D990C330B232F221FB9
:101300002227221F982E920E8993CE15DF0559F7BA
:10131000C501800F911F0E94560921E030E0891518
:1013200011F030E020E0C901DF91CF911F910F91C2
:10133000FF90EF90DF90CF90BF90AF909F90089577
:101340009091DC05911105C086FF04C0439A10926C
:10135000E60508954398FBCFE1E0F1E08CE1DF0181
:101360001D928A95E9F7109232021092130581E0DE
:10137000809300011092310208954F925F926F9214
:101380007F92AF92BF92CF92DF92EF92FF920F9334
:101390001F93CF93DF93EC015C012CE0A20EB11CF4
:1013A0008C01C12CD12C7601F801419051906190B3
:1013B00071908F0120E030E0A901C301B2010E94C9
:1013C0009A34882371F0A3019201C301B2010E94F3
:1013D000FC369B01AC01C701B6010E94A5336B012D
:1013E0007C010A151B0501F7C701B6010E949B3756
:1013F0006B017C01AC019B0160E070E080E89FE341
:101400000E94A4342B013C016991799189919991B1
:101410005E01F4E0AF1AB108A30192010E94FC360C
:10142000F5016083718382839383C017D10761F7CD
:10143000C701B601DF91CF911F910F91FF90EF90FF
:10144000DF90CF90BF90AF907F906F905F904F9064
:1014500008952F923F924F925F926F927F928F9258
:101460009F92AF92BF92CF92DF92EF92FF920F9333
:101470001F93CF93DF93CDB7DEB7C654D1090FB614
:10148000F894DEBF0FBECDBF2091DF052AA320FD5B
:10149000E1C624702BAB3091130539AF4EE2349F77
:1014A000C0011124DC01AD5CBD4F2396BFAFAEAFD0
:1014B0002397BAA1B270BCAB409132024AAF4F5FE2
:1014C0004D8F403109F458C74BAF5EE2ABAD5A9F28
:1014D000C0011124FC01EB5BFD4F2596FFAFEEAF81
:1014E00025979091140580911505981709F4B2C6B7
:1014F0008091BB059091BC05892B09F079C0EBA9BF
:10150000EE2309F40FC223962EAD3FAD23973093FF
:10151000BC052093BB054091BB055091BC055A8783
:101520004987452B09F496C61091910510FF01C219
:10153000109291051092A3051092A4051092A50592
:101540001092A605A985BA855A962D913D914D9187
:101550005C915D9729833A834B835C8360E070E004
:1015600080E09FE30E94A4346D837E838F839887FD
:10157000E985FA85468C578C60A071A08288938893
:10158000A488B588FCA9FF2309F4A1C222E0209316
:10159000A205A50194010E94FC369B01AC01C30188
:1015A000B2010E94A4336B017C0120E030E0A9016C
:1015B0000E949A3487FF7AC229813A814B815C81EB
:1015C000CA01B9010E94A533A30192010E94FC3611
:1015D0009B01AC01C501B4010E94A4330E949B375A
:1015E0006093AF057093B0058093B1059093B205F9
:1015F00080913A05482F50E05A8B498B86E0849FB2
:10160000F001859FF00D1124EA5EFA4F809190055C
:101610008483A091BB05B091BC05BE87AD875E9663
:10162000BC91BFA3ED85FE85F78DF8A7AD85BE857E
:101630009096BC91B9A7ED85FE85F1A1FAA72091FE
:101640009E0530919F054091A0055091A1056FA185
:1016500078A58B2F9F2F0E94A4336DAB7EAB8FABF1
:1016600098AF20E030E0A9010E949A3487FF04C0BF
:101670001DAA1EAA1FAA18AE2091AB052D8B309172
:10168000AC053E8B4091AD054F8B5091AE05588F08
:101690008091B3058E8F9091B4059F8FA091B50571
:1016A000A8A3B091B605B9A3E091B705EBA7F09157
:1016B000B805FCA72091B9052DA73091BA053EA722
:1016C0003090A7052090A8054091A90527964FAF17
:1016D00027975091AA0526965FAF26978091A2057D
:1016E00089879091A3059FA7A091A405A8ABB0916D
:1016F000A505B9ABE091A605EAABF091AF05FDAF4A
:101700002091B0052EAF3091B1053FAF4091B205A9
:1017100021964FAF21972BA53CA54DA55EA56E8DBB
:101720007F8D88A199A10E949A34811159C352E0FA
:101730005CAF9FA1998FA8A5AA8FB9A5BB8FEAA579
:10174000EC8F8EE3C82E83ECD82E8EE2E82E89E350
:10175000F82E412C512C3201A70196012BA33CA35A
:101760004DA35EA35985513009F4F7C3AD85BE85FD
:10177000513008F46FC3533009F025C45A962D91A7
:101780003D914D915C915D97C701B6010E94FC3679
:101790004B015C012D893E894F89588D632D722D37
:1017A00027968FAD279726969FAD26970E94A43344
:1017B0009B01AC01C501B4010E94BC3687FD1AC370
:1017C0002E8D3F8D48A159A16FA178A589A59AA515
:1017D0000E94A4339B01AC010E94A5336B017C01E4
:1017E0002D893E894F89588D632D722D27968FAD97
:1017F000279726969FAD26970E94A5339B01AC01A3
:10180000C701B6010E94A4346B017C013D882E887B
:10181000BF892796BFAF2797E88D2696EFAF26970B
:101820000E8D1F8DF8A1F98329A12D8331E0398711
:10183000A7019601C301B2010E94A5332B013C010F
:101840002BA13CA14DA15EA10E949A3487FF3CC40C
:10185000A30192016BA17CA18DA19EA10E94A43342
:101860006B017C01980149815D816FA578A989A9E7
:101870009AA90E949A3487FDB6C2832D922D27968D
:10188000AFAD27972696BFAD26978093A705909377
:10189000A805A093A905B093AA0539853093A205A0
:1018A00020919A0530919B0540919C0550919D0592
:1018B000B80189819D810E94FC3669877A878B8770
:1018C0009C870E9483346B017C0160919605709126
:1018D000970580919805909199050E9483344B015A
:1018E0005C01A70196010E94A4330E941D356D87FB
:1018F0007E878F87988BA6E089899A89A89FF001B7
:10190000A99FF00D1124EA5EFA4F2D853E853183A3
:101910002083232B09F008C45CA9552309F404C4CF
:101920008AA195C40E94D9069093BC058093BB05FB
:10193000F2CD809190058F5F853009F480E080932F
:101940009005482F50E091E1949FF001959FF00D94
:101950001124E55CFA4FA985BA8550969C91509761
:10196000908BE1E18E9FC001112430E020E0CD900A
:10197000DD90ED90FD90FC01E20FF31FE55CFA4F66
:1019800063E0CC0CDD1CEE1CFF1C6A95D1F7C08215
:10199000D182E282F3822C5F3F4F2C30310539F740
:1019A000A985BA851C966D917D918D919C911F970B
:1019B000B1E1B49F9001B59F300D1124F901E55CB0
:1019C000FA4F6B017C0123E0CC0CDD1CEE1CFF1CEC
:1019D0002A95D1F7C486D586E686F7860E944C35CF
:1019E0006093960570939705809398059093990559
:1019F000E985FA85268D378D40A151A10E94A43436
:101A00009B01AC0120939A0530939B0540939C0564
:101A100050939D0560E070E080EA9FE30E94A4344B
:101A200060939E0570939F058093A0059093A105F8
:101A300010929205109293051092940510929505BC
:101A4000FCA9F11102C013FF20C06091AF05709195
:101A5000B0058091B1059091B2056093A705709390
:101A6000A8058093A9059093AA059B01AC010E944B
:101A7000FC36A985BA8552966D937D938D939C9380
:101A80005597177F1093910555CDE985FA856289A1
:101A90007389848995890E949B376093A705709309
:101AA000A8058093A9059093AA0544CDC092A305EB
:101AB000D092A405E092A505F092A6051092AF057C
:101AC0001092B0051092B1051092B20591CD10920E
:101AD000A2054092B3055092B4056092B50570928C
:101AE000B6053BA9332309F46AC01092AF051092E2
:101AF000B0051092B1051092B205C12CD12C76011F
:101B000089859A850E9466066D877E878F87988B68
:101B10009B01AC010E94FC3669877A878B879C8782
:101B2000A50194010E949A3487FF8BC029853A85CC
:101B30004B855C85C501B4010E94A4332D813E8193
:101B40004F8158850E94FC369B01AC01C301B20154
:101B50000E94A4336093B3057093B4058093B505D8
:101B60009093B60520E030E0A9010E949A3418163F
:101B70000CF441C0B2E0B093A20529813A814B81B7
:101B80005C81CA01B9010E94A533A30192010E94A0
:101B9000FC369B01AC01C501B4010E94A4330E9434
:101BA0009B376093AF057093B0058093B105909318
:101BB000B2058091910588608093910519CD49AD5A
:101BC0005BADC12CD12C7601451741F02596AEAD09
:101BD000BFAD2597CD90DD90ED90FC90C701B6018B
:101BE0000E949B376093AF057093B0058093B10559
:101BF0009093B20585CFA701960169857A858B857B
:101C00009C850E94A4332D813E814F8158850E947E
:101C1000FC366093B7057093B8058093B90590932F
:101C2000BA052D853E854F8558892093AB053093A5
:101C3000AC054093AD055093AE0533E03093A2055B
:101C4000D7CCA7019601C501B4010E94A4332D8110
:101C50003E814F8158850E94FC36A30192010E946B
:101C6000A53320E030E040E05FE30E94FC36698B62
:101C70007A8B8B8B9C8B20E030E0A9010E94BC36D4
:101C800018160CF094C0A301920169897A898B8996
:101C90009C890E949A3487FF88C0A70196016985B4
:101CA0007A858B859C850E94A4332D813E814F814E
:101CB00058850E94FC369B01AC012093B7053093F8
:101CC000B8054093B9055093BA0569897A898B891B
:101CD0009C890E94BC361816BCF58D859E85AF8503
:101CE000B8898093AB059093AC05A093AD05B093F4
:101CF000AE05A501940169857A858B859C850E9436
:101D00009A34811104C091E09093A20571CCA50191
:101D1000940169857A858B859C850E94A4332D81E9
:101D20003E814F8158850E94FC369B01AC01C30166
:101D3000B2010E94A4336093B3057093B4058093FD
:101D4000B5059093B60554CC29893A894B895C89AD
:101D50002093B3053093B4054093B5055093B60571
:101D60002093B7053093B8054093B9055093BA0551
:101D700029813A814B815C81CA01B9010E94A53356
:101D800029893A894B895C890E94FC36A701960112
:101D90000E94A5330E949B376093AB057093AC05FE
:101DA0008093AD059093AE0523CC32E047CF809170
:101DB000AF059091B005A091B105B091B205109218
:101DC000B3051092B4051092B5051092B605809334
:101DD000AB059093AC05A093AD05B093AE0508CCD0
:101DE00081E08CAFA6CC098F1A8F39813B8F4D8152
:101DF0004C8FB8CC20E030E040E05FE3C501B40197
:101E00000E94FC369B01AC01632D722D27968FAD8D
:101E1000279726969FAD26970E94A433A701960187
:101E20000E94FC369B01AC01698D7A8D8B8D9C8D57
:101E30000E94A4338B0189839D83A5019401632DA6
:101E4000722D27968FAD279726969FAD26970E94D5
:101E5000A4337AC05A962D913D914D915C915D9736
:101E6000C701B6010E94FC364B015C0120E030E066
:101E700040E05FE30E94FC36232D322D27964FADC4
:101E8000279726965FAD26970E94A533A701960156
:101E90000E94FC369B01AC01698D7A8D8B8D9C8DE7
:101EA0000E94A4338B0189839D839B01AC016E8DBD
:101EB0007F8D88A199A10E94BC361816CCF52E8D75
:101EC0003F8D48A159A16FA178A589A59AA50E9427
:101ED000A4339B01AC010E94A5336B017C012D89C9
:101EE0003E894F89588D632D722D27968FAD279788
:101EF00026969FAD26970E94A5339B01AC01C70192
:101F0000B6010E94A4346B017C01BCADB9873D8849
:101F10002E88EF892796EFAF2797F88D2696FFAF8B
:101F200026970E8D1F8D28A1298339A13D8380CC52
:101F3000A5019401632D722D27968FAD27972696C4
:101F40009FAD26970E94A533362E272E27968FAF5A
:101F5000279726969FAF26976BCC2D893E894F8970
:101F6000588DC701B6010E94FC369B01AC01698DFA
:101F70007A8D8B8D9C8D0E94A4338B0189839D83E8
:101F80002BA53CA54DA55EA50E949A3487FF50CC99
:101F90002BA53CA54DA55EA5698D7A8D8B8D9C8D5D
:101FA0000E94A4332D893E894F89588D0E94A43404
:101FB0006B017C010BA51CA54DA549835EA55D8326
:101FC00082E0898735CC5A962D913D914D915C9157
:101FD0005D97C701B6010E94FC364B015C01AC0164
:101FE0009B01632D722D27968FAD279726969FAD67
:101FF00026970E94BC36181664F520E030E040E0D9
:102000005FE3C501B4010E94FC369B01AC01632D66
:10201000722D27968FAD279726969FAD26970E9403
:10202000A433A70196010E94FC369B01AC01698D87
:102030007A8D8B8D9C8D0E94A4338B0189839D8327
:102040002FA538A949A95AA90E94BC3618160CF424
:10205000F4CE2FA538A949A95AA9698D7A8D8B8DFF
:102060009C8D0E94A4339B01AC010E94A5336B019F
:102070007C012DAD3EAD4FAD21965FAD2197632D17
:10208000722D27968FAD279726969FAD26970E9493
:10209000A5339B01AC01C701B6010E94A4346B01BA
:1020A0007C013DAC2EACBFAD2796BFAF27972196E4
:1020B000EFAD21972696EFAF26970FA518A9F9A99E
:1020C000F9832AA92D83B4CB2DA93EA94FA958ADD8
:1020D000B80189819D810E94BC3618168CF42EE3CC
:1020E00033EC4EE259E36BA17CA18DA19EA10E942D
:1020F000A5336BA37CA38DA39EA3A3019201AECBBA
:10210000832D922D2796AFAD27972696BFAD2697A4
:102110008093A7059093A805A093A905B093AA055D
:1021200049854093A205BCCB20919205309193053F
:102130004091940550919505C301B2010E94A533C9
:102140002B013C0129853A854B855C85C501B4018D
:102150000E94A4339B01AC01C301B2010E94A434CC
:102160004B015C0120EC31EE44E65EE40E94FC365B
:102170000E9483340E941D35603DA7E07A078105E7
:10218000910508F081C046E029893A89429FF00113
:10219000439FF00D1124EA5EFA4F158246E029892B
:1021A0003A89429FF001439FF00D1124EA5EFA4FF5
:1021B000738362838091150580933A058F5F863023
:1021C00009F4BBC080931505E091BB05F091BC05F7
:1021D000C801A981BD81868F978FA0A3B1A3C092AA
:1021E0009605D0929705E0929805F0929905298579
:1021F0003A854B855C85C701B6010E94A433A501D1
:1022000094010E94FC36609392057093930580932D
:102210009405909395052091A3053091A4054091D4
:10222000A5055091A605B80189819D810E949A3427
:10223000811157C920E030E0A901B80189819D8151
:102240000E94BC3618160CF07BC08091DF058160BF
:102250008093DF05CA5BDF4F0FB6F894DEBF0FBE79
:10226000CDBFDF91CF911F910F91FF90EF90DF9045
:10227000CF90BF90AF909F908F907F906F905F9026
:102280004F903F902F900895603A5FE07507810569
:102290009105A0F526E0A989BA892A9FF0012B9F14
:1022A000F00D1124EA5EFA4F31E0358346E02989CA
:1022B0003A89429FF001439FF00D1124EA5EFA4FE4
:1022C0002581022E04C096958795779567950A9487
:1022D000D2F7AD85BE8502C0AA0FBB1F2A95E2F7D3
:1022E000B183A08361157105B1E08B07910508F4F6
:1022F00055CF8FEF9FEF938382835CCF60344FE1A4
:1023000074078105910560F426E0A989BA892A9F9E
:10231000F0012B9FF00D1124EA5EFA4F32E0C5CF99
:10232000A6E049895A89A49FF001A59FF00D1124C8
:10233000EA5EFA4FB3E0B583B9CF1092150544CFEA
:102340009BA99111EDCA1092BC051092BB05A9ADD5
:10235000BAADAB1709F4C5C8ED8DE03109F41D8E97
:1023600080913102FAADF81303C02D8D2093310214
:102370003D8D30933202A0C81BAEA7C880916F007C
:102380008D7F80936F0080918100887F8160809332
:10239000810010920D0280911B069091DB058F3F0A
:1023A000A1F42091BE05211110C0903881F490E075
:1023B000019778F481E090912D0692FF02C091E0A0
:1023C0008927882369F0289A0895943081F780E05E
:1023D000F2CFEFE9FFE03197F1F700C00000E8CF5E
:1023E00028980895CF93DF930E94BE11E0E9F5E0AD
:1023F0008BE2DF011D928A95E9F7CEE0D2E083E21D
:10240000FE0111928A95E9F71092BC051092BB0566
:102410001092140510923A0581E0809315051092F0
:102420000D020E94280380910C028F878BB1837E5E
:1024300090910B02892B8BB98BB18F7190910C020B
:10244000892B8BB9DF91CF9108958091BD0584FDD3
:102450001BC080E10E9453022C9843989091DB05A9
:10246000892F8C7221F48091DF05867069F0943099
:1024700049F48091BE05811103C086E00E944302A9
:102480000C94BE1183E0FACF08952F923F924F92A1
:102490005F926F927F928F929F92AF92BF92CF92F4
:1024A000DF92EF92FF920F931F93CF93DF93CDB7FD
:1024B000DEB7A4970FB6F894DEBF0FBECDBF109164
:1024C000BE05112349F181E08093DB0587E791E0A8
:1024D0000E94B204812F0E948D040E94C00485EFE7
:1024E00091E00197E1F51150123088F48AED92E005
:1024F0000E94B20488EC92E00E94B2040E94150689
:1025000080E10E9449028091BD0584FFFCCF8FB716
:10251000F8941092BE058FBF1091BD05112309F4E8
:102520009AC214FF23C081E08093DC05A4960FB605
:10253000F894DEBF0FBECDBFDF91CF911F910F91F9
:10254000FF90EF90DF90CF90BF90AF909F908F90D3
:102550007F906F905F904F903F902F900895EFE99C
:10256000FFE03197F1F700C00000BBCF10FFBFC004
:102570008CE0E2ECF5E0DE01599601900D928A952F
:10258000E1F7BE01675E7F4FCE010D960E94BB0250
:102590008CE30E9473038091DB05883009F421C12C
:1025A00008F0FCC0813009F425C108F415C182305F
:1025B00009F423C1843009F41AC180911C06F82F54
:1025C000F1709F2E80FF2EC18091E705882309F4CA
:1025D00029C182EA91E00E94B204CE010D960E94C8
:1025E000740480911C0681FF1DC086E991E00E9461
:1025F000B2049091130580913202981708F461C1DA
:10260000815F891B0E948D048CE20E94730380917C
:10261000090290910A02981708F455C18058891B45
:102620000E948D0482E991E00E94B2048091DB0552
:102630008C7709F44AC16091A7057091A805809133
:10264000A9059091AA050E9458040E94B208E82E9C
:102650000E94F702F82E06B100728091C10508278A
:102660008E2D8F29802B59F18DE891E00E94B204C4
:10267000002319F080E50E947303EE2079F0E0FE5C
:1026800003C088E50E947303E1FE03C089E50E9450
:102690007303E2FE03C08AE50E947303FF2079F012
:1026A000F0FE03C082E50E947303F1FE03C088E4DC
:1026B0000E947303F2FE03C083E50E9473038091BE
:1026C000E705882309F405C181508093E70500914F
:1026D000E605002309F416C101500093E6058EE3D8
:1026E0000E9473030E94C00481E00E944902812F6E
:1026F000887E09F460C18091DB05982F937009F002
:1027000049C18872A9F08091DD05807C89F40E941E
:10271000040382E08093DF058091DB05803241F481
:1027200080E217FD0CC08091DD0580688093DD0597
:102730008091DB05811103C091E09093DD0516FFC8
:1027400007C085FD05C09091DD0590649093DD057F
:1027500013FF05C0807E19F480E18093DB0515FF2F
:1027600019C18AED92E00E94B20486E892E00E94CC
:10277000B2040E9415068091DD0587FD06C1909187
:10278000DB05903409F0FEC083FF04C0837E8260C5
:102790008093DD0580E48093DB05F7C0803221F172
:1027A00098F4803109F009CF8091DD0587FD1CC0C8
:1027B0008AEC91E00E94B2048091DD0580FF2EC07A
:1027C00080E30E947303F9CE8034D1F0803809F0A1
:1027D000F4CE89EA91E002C084ED91E00E94B20457
:1027E000ECCE80ED91E0FACF86EC91E0F7CF81EC72
:1027F00091E0F4CF8BEB91E0F1CF85EB91E0EECF60
:102800008FEA91E00E94B2048091DD0583FF02C04F
:1028100083E3D7CF82FF04C085FFD2CF81E3D1CF3E
:1028200082E3CFCF4090790650907A0660907B0685
:1028300070907C0661E6A62E66E0B62E9E012F5FA4
:102840003F4F6901CE010D967C0100E0F5016191D9
:102850007191819191915F012085318542855385E8
:102860000E94A533F60161937193819391936F0157
:10287000023041F4A30192010E94A53369877A874F
:102880008B879C87911012C0F6013497208131818B
:1028900042815381F70160817181828193810E941D
:1028A000A433F70160837183828393830F5FF4E025
:1028B000EF0EF11C033051F691108BCE8BE991E0B5
:1028C0008ACE81509ECE8150AACE60E070E0CB01CE
:1028D000BACE8091DB058C7799F08DE18093E70586
:1028E0008091E605811103C081E08093E60587E8C9
:1028F00091E00E94B204CE0101960E947404E7CEDA
:1029000089E0ECCF8091DB058C77A9F183E180939E
:10291000E60582E891E00E94B2048091E2050E94FF
:102920008D048CE20E9473038091E3050E948D0464
:102930008CE20E9473038091E4050E948D042C9B1D
:102940001CC02D9B1CC052E0F52E439BC7C100E468
:102950008EE791E00E94B204FF2031F021E083E590
:10296000F21283E40E947303002309F4B8CE86E4D4
:102970000E947303B4CE89E0CACFF12CE6CFFF24C6
:10298000F394E3CF903809F005CF8091DD058062A4
:102990008093DD0517FF0CC08091DB05813029F4A1
:1029A0008091DD0585608093DD0580E88093DB05FF
:1029B00088EE0E94490211FF28C0812F887611F508
:1029C0008091DB05803441F48091DD0585FD04C0F4
:1029D00084FFE2C01092DB058091DB05882309F4B7
:1029E000E1C084FF0FC09091DD0590FF0BC08031E6
:1029F00009F0D8C08091E505882309F4D3C0886028
:102A00008093E50582E00E94490212FF24C0909164
:102A1000DD058091DB05807D09F4DDC08091DE0558
:102A20008111D9C097FDD9C00E9404038091320260
:102A3000809331020E94F1068091DF0581FF05C07D
:102A40009091DD0591609093DD05897F8093DF058E
:102A500084E00E9449029091BF05992309F44CC07B
:102A60008FB7F8941092BF058FBF4091E205842F75
:102A700090FD84E691FD865F92FD8A5093FD8F5F05
:102A800094FD8150893C08F088EC8A3008F48AE093
:102A90003091E305232F95FD24E696FD22E397FD73
:102AA00029E1481302C0231739F18093E2052093EE
:102AB000E3051092E6057090320260901305172D21
:102AC00089E9282E96E7392E26E9422E3EE7532E35
:102AD0004EE2842E16119CC0C101D20180931901CF
:102AE00090931A01A0931B01B0931C010E94040350
:102AF000709231020E94F1061091C005112309F471
:102B000043C08FB7F8941092C0058FBF9091E40531
:102B1000892F10FD84E611FD865F12FD8A5013FD9A
:102B20008F5F14FD8150893C08F088EC8A3008F4EE
:102B30008AE0981761F09091DB058093E40591118C
:102B4000C1C0809146060E945E031092E605809106
:102B5000DB0515FF09C0803139F49091E50591112D
:102B6000B7C092E09093E505107C71F0882311F0D6
:102B7000887351F01091450616FFAEC01F7B812F60
:102B80000E94A009109345068091DB058C7F09F413
:102B9000CDCC0E94290ACACC82FF1ECF88608093C8
:102BA000DD051ACF1092DF050E94D906892B71F03E
:102BB0008091DD0586FD0AC01092DD0588E08093D6
:102BC000DB050E94290A0E9445031CCF1092DD05F7
:102BD0001092DB0517CF97FF0AC01092DF050E9405
:102BE000AC090E94F2110E94E8080E9444068091FC
:102BF000DD0585FF08C08F7781608093DD0580E467
:102C00008093DB0525CF1092DD051092DB0520CFE8
:102C1000A12EB12C189DC00111248D5C9D4F0E94E6
:102C20006606962EC72ED82E092F9101A2010E946A
:102C3000BC368A9C70018B9CF00C11241816ACF5E4
:102C4000C7018D5C9D4F7C019101A201B101C201C0
:102C50000E94FC36F701668B778B808F918F8A9C60
:102C6000C0018B9C900D11249C012D5C3D4F79017E
:102C7000F90122A033A044A055A0A20191016689C8
:102C80007789808D918D0E94BC3618162CF4F7013F
:102C9000268A378A408E518E1F5F103109F410E06A
:102CA000292C3C2C4D2C502E15CF97012D5C3D4FDF
:102CB0007901292D3C2D4D2D502F692D7C2D8D2DE9
:102CC000902FC6CF8091DF0588608093DF053DCFD0
:102CD00090FF4ACF946046CF106451CFF11038CEA8
:102CE000FECC1F93CF93DF93142F20E030E040EA17
:102CF00051E40E94FC360E9483340E941D35EB0192
:102D00002097C9F08091DC05811115C011110DC00B
:102D10000E949F162FEF80E792E021508040904064
:102D2000E1F700C000002197EBCF0E94451280918F
:102D3000DD0581FFEFCFDF91CF911F9108951F93A4
:102D4000CF93DF930E9445128091DD05882309F41B
:102D500053C00E94D906009771F580914606909164
:102D60004506892BD82FD07311E0C82FC07C8091E5
:102D7000DD05882309F440C09091DC0591113CC029
:102D800080FF16C09091DB05292F207C09F47BC0C1
:102D900082FD1AC01092E50580E00E945E0380E08B
:102DA0000E94A0098091DD058D7F84608093DD0500
:102DB0000E944512DCCFFC0191899073439902C0B7
:102DC00080E0CFCF80E4CDCF9038E9F48AED92E077
:102DD0000E94B20483E492E00E94B2040E941506AD
:102DE00080E00E945E0380E00E94A0090E94BE1164
:102DF0008091DC05882321F0DF91CF911F91089508
:102E00000E944512F5CF903419F48F7D8093DD0533
:102E10008091DD0583FFCCCF90914606992359F030
:102E200081FD09C080912D0681FF22C08091DF05C0
:102E300088608093DF0580914506882371F080913A
:102E4000DD0581FD0AC08C2F0E94A00941E060E0F1
:102E500070E080E89FE30E9471168091DD0581FD9E
:102E6000A7CF80618093DD0582E00E945302A0CF4E
:102E70008D2F0E945E0341E060E070E080E890E406
:102E80000E947116D8CF8091E5058823A1F181FFBA
:102E90000AC080914606882339F180E00E945E03D3
:102EA0001093E50585CF8C7009F482CF809146069A
:102EB000882399F08AED92E00E94B2048CE492E0BB
:102EC0000E94B2040E94150680912D0681FF0FC05A
:102ED0008091DF0588608093DF058091E50583FFA1
:102EE00003C082E00E9453021092E50561CF8D2F4E
:102EF0000E945E03F2CF8091DF0583FF59CF8D2FB3
:102F00000E945E038091DF05877F8093DF0550CFAD
:102F10000E94E9060E949F168091DC05811108C07D
:102F20000E94D906892BB1F78091DB05883091F397
:102F30000895CF93DF9391E5899FE0011124DD5F30
:102F400040E550E0BE0187EB96E00E945E09892BC8
:102F500079F41092B7060E94881740E550E067EBBD
:102F600076E0CE010E940E0980E0DF91CF910895B6
:102F700081E0FBCF0E9488171092E7050895CF9358
:102F80009091DB05923039F0C82F0E9488178C2F62
:102F9000CF910C945E03CF9108950F931F93CF931D
:102FA000C82F8B010E9488172DE0C29FC0011124F9
:102FB0004CE050E0B8019E5FCF911F910F910C94AF
:102FC0000E091F93CF93DF93182FEB018DE0189F0D
:102FD000B00111247E5F4CE050E0CE010E945E09FA
:102FE000892B71F48CE0FE0111928A95E9F7BE01FC
:102FF000812F0E94CD1780E0DF91CF911F9108951E
:1030000081E0FACFEF92FF920F931F93CF93DF935C
:10301000CDB7DEB72C970FB6F894DEBF0FBECDBF8D
:10302000182F80FF0BC085E5E9EEF1E0A8EEB5E0D2
:1030300005900D928A95E1F70E94490911FF10C091
:10304000CE0101967C018CE0F70111928A95E9F797
:1030500000E0B701802F0E94CD170F5F0830C9F73D
:1030600012FF14C060E080E093E00E94EE0860E090
:1030700081E093E00E94EE0860E081E593E00E9429
:10308000EE0860E082E593E00E94EE0813FF0AC0BC
:1030900060E08EEA93E00E94EE0860E08FEA93E041
:1030A0000E94EE082C960FB6F894DEBF0FBECDBF7F
:1030B000DF91CF911F910F91FF90EF9008952F9284
:1030C0003F924F925F926F927F928F929F92AF92B8
:1030D000BF92CF92DF92EF92FF920F931F93CF9305
:1030E000DF93CDB7DEB7C254D1090FB6F894DEBF77
:1030F0000FBECDBF3B0100911305202E312C2EE2D7
:10310000029FA0011124BA016D5C7D4F7AAF69AFB7
:10311000FB0111922A95E9F7F3012085FB01218B30
:1031200021FFF0C02CE0E2ECF5E0DE0159960190C1
:103130000D922A95E1F789AB9AAB28EE35E02196FE
:103140003FAF2EAF2197BE01635F7F4F7EAF6DAF64
:10315000CE0149969CAF8BAFE9ADFAADF8AFEFABBE
:103160009E012B5D3F4F3CAB2BAB3EAB2DAB10E03C
:103170008EE2829D2001839D500C1124B2016D5C72
:103180007D4F2B01CB010C9623969FAF8EAF2397DB
:1031900090E1490E511CE9A9FAA9619171918191BF
:1031A0009191FAABE9AB2196EEADFFAD21978190FD
:1031B0009190A190B1902196FFAFEEAF2197A5011C
:1031C00094010E94FC360E94C936EDADFEAD6193BC
:1031D000719381939193FEAFEDAFEBADFCADC190D8
:1031E000D190E190F190FCAFEBAF6C197D098E09A5
:1031F0009F099B01AC0197FF07C022273327A90134
:10320000261B370B480B590BEFA9F8AD21933193CF
:1032100041935193F8AFEFAB2396EEADFFAD2397FB
:10322000C080D180E280F380C216D306E406F506A2
:1032300010F469017A012396EEADFFAD2397C082A9
:10324000D182E282F3820E944E35A50194010E9450
:10325000A434EDA9FEA96193719381939193FEAB80
:10326000EDAB20E030E0A9010E949A3487FF0BC04B
:1032700090E2112321F090E8113009F490E4F2017A
:103280008081892B80831F5F133009F084CF80E019
:10329000CD28CE28CF2809F4CBC0CE0185960E9438
:1032A000BD094B015C012EE2229DC001239D900DC2
:1032B00011249C012D5C3D4F7901F901868E978E7A
:1032C000A0A2B1A2BE016B5D7F4F80E096E00E949C
:1032D0005C08F701628F738F848F958FBE016B5DE1
:1032E0007F4F84EF95E00E945C08F70166A377A307
:1032F00080A791A7118910FF09C062A773A784A7AF
:1033000095A710C02CE0E1E0F1E00FCFF3012081A0
:1033100031814281538113FDA5C0F70122A733A754
:1033200044A755A780913202081711F011FFA0C0E1
:103330008EE2829DF001839DF00D1124ED5CFD4F26
:10334000128A138A148A158A12A213A214A215A231
:103350008EE2829D8001839D100D11240D5C1D4F16
:10336000F801818981FD63C089AD9AAD0E9466062E
:103370006B017C018090190190901A01A0901B01B3
:10338000B0901C01AC019B01C501B4010E949A34AC
:1033900087FF36C1A5019401C501B4010E94FC3626
:1033A000F801668B778B808F918F8EE2829D8001F2
:1033B000839D100D11240D5C1D4FF80182A093A078
:1033C000A4A0B5A0A501940166897789808D918D0F
:1033D0000E94BC3618162CF4F801868A978AA08EB3
:1033E000B18EC0921901D0921A01E0921B01F092A5
:1033F0001C018CE0FE01B596ADE0B1E001900D92AC
:103400008A95E1F78CE0FE013D96A1E0B1E00190E4
:103410000D928A95E1F780910001809313058F5FEB
:10342000803109F480E0809300010E94F10681E080
:10343000CE5BDF4F0FB6F894DEBF0FBECDBFDF917E
:10344000CF911F910F91FF90EF90DF90CF90BF90A1
:10345000AF909F908F907F906F905F904F903F9034
:103460002F900895C501B4010E94FC36F70145CFA5
:103470002DE031E03AAB29AB8E010F5F1F4F6BA9F6
:103480007CA9645F7F4F7CAF6BAFC12CD12C7601E0
:103490000DAB1FABE9A9FAA981909190A190B190D1
:1034A000FAABE9ABEBA9FCA9419051906190719006
:1034B000FCABEBABA3019201C501B4010E94FC3649
:1034C0009B01AC01C701B6010E94A4336B017C01D2
:1034D000A5019401C301B2010E94A433F8016193D4
:1034E0007193819391938F012BAD3CAD6BA97CA916
:1034F0002617370779F62FEE3FEF4FE75FE3C70157
:10350000B6010E94BC3618164CF48EE2829DF00182
:10351000839DF00D1124ED5CFD4F16CF2FEE3FEF94
:103520004FE75FEBC701B6010E949A3487FF11C0D5
:103530008EE2829DF001839DF00D1124ED5CFD4F24
:1035400089E996E7A6E9BEE782A393A3A4A3B5A35E
:10355000FFCE8DA99FA90E94BD096DA97FA980E01A
:1035600096E00E945C084B015C01A701960160E0B7
:1035700070E080E89FE30E94A43320E030E040E068
:103580005FE30E94FC360E949B376B017C01209117
:103590001D0630911E0640911F0650912006C50160
:1035A000B4010E94FC36A70196010E94FC364B0133
:1035B0005C01A701960160E070E080E89FE30E9453
:1035C000A4339B01AC01C501B4010E94A4346B017A
:1035D0007C0120E030E0A9010E949A3487FF03C0FB
:1035E000C12CD12C76018EE2829DF001839DF00DDD
:1035F0001124ED5CFD4FC2A2D3A2E4A2F5A2A8CE95
:10360000A7019601C701B601C9CEFF920F931F9380
:10361000CF93DF938C01EB0180912D0685FF23C0B2
:10362000F090DB0580E2F81611F1C8010E945C02FF
:103630008823C9F081E08093DE0588E0F8120CC091
:103640000E9453020E949F168091DC0581110BC0DD
:103650008091DB058111F6CF0E94251282E00E9445
:1036600043020E949F168091DB05823021F10E9467
:103670009F168091DC0581111EC0909132028091CD
:103680000001981303C00E94E906F1CFBE01C801F2
:103690000E945F1881110FC080912D0681FF0BC021
:1036A000888584FF08C080E1DF91CF911F910F9141
:1036B000FF900C94BF17DF91CF911F910F91FF9056
:1036C00008952F923F924F925F926F927F928F92C6
:1036D0009F92AF92BF92CF92DF92EF92FF920F93A1
:1036E0001F93CF93DF93CDB7DEB7CC54D1090FB67C
:1036F000F894DEBF0FBECDBFEDE7F6E08AE3DF0151
:103700001D928A95E9F78BE0EDE3F6E0AEE7B6E0CF
:1037100001900D928A95E1F78091B7068432A1F06D
:103720001A8E1BA2312C212C1EA61DA610E01B8E6A
:103730001F8EEE24E394F12CAAE0AA2EB12CB1E660
:103740008B2EB3E09B2E4EC181E080937E061092BB
:103750007F0683E08A8FB1E0BBA3E4CF9FEB9D0D92
:103760009A3110F00C94D8288F5F8A8FBE016A5E60
:103770007F4FCE014A960E948401882311F40C9455
:10378000DB284E885F88688C798CC301B2010E9467
:10379000DF370E941D35062F70E090E080E00E9428
:1037A0004E359B01AC01C301B2010E94A43320E05D
:1037B00030E048EC52E40E94FC360E9469370E94D7
:1037C0001D35CB01E7E4DE1629F1FDE4DF1609F42F
:1037D00065C1EAEBED0DE53108F02CC00E2E000CB2
:1037E000FF0BEB50F44E0C944738971D1A1C1A1C13
:1037F000C41DCF1DDA1DE51D1A1CE91D1A1CF71D7D
:103800001A1C011E0B1E151E1A1C1A1C1A1C251E22
:10381000321E3F1E083209F4DDC030F5043160F479
:10382000013108F098C0043009F474C0B0F00A30D7
:1038300009F468C084E196C00C3109F463C040F417
:103840000631C0F725E1201B2093800626E087C0C3
:103850000E3109F457C0063269F74F8D41110C94AF
:10386000DE28A2E0AF8F28C00D3309F4AEC0E0F42B
:10387000053309F44FC088F40B3211F00133D1F64F
:10388000BF8DB1110C94DE28013309F095C0109260
:103890008306E3E0EF8F28E04FC00C3358F6065361
:1038A0000093840629E05BC00C3508F50A3508F062
:1038B00073C0003509F0BECF00937E0621E00632CA
:1038C00009F04DC08431910551F08E31910539F0E8
:1038D0008832910521F08233910509F0ABCFB50113
:1038E0000E941138665760937E0621E025C00C3592
:1038F00049F00F3508F09ECF2EE5201B20937F0660
:1039000025E02DC0009731F42F8D21110C94DE2875
:1039100031E03F8F00937D06202F2D7F2C3119F051
:1039200020E00C35E1F4009719F00A9709F082CFF6
:10393000600F60937D0620E0C70102C0880F991FC9
:103940002A95E2F72DA53EA528233923232B09F438
:1039500043C085E107C001510093820622E0892B14
:1039600059F387E1C45BDF4F0FB6F894DEBF0FBE9B
:10397000CDBFDF91CF911F910F91FF90EF90DF901E
:10398000CF90BF90AF909F908F907F906F905F90FF
:103990004F903F902F900895892B29F40A5500935A
:1039A000810623E0C9CF6A30710509F043CF0A359B
:1039B00009F440CF24E0C0CF0A9709F03BCFF1E0F3
:1039C000F093830623E02F8F66CF892B09F032CF47
:1039D0002AE0B2CF27E0C3CFADA5BEA5A82BB92B57
:1039E000BEA7ADA78A8DE82FF0E0E954F94FD0804B
:1039F000D110B4CEBB8DBB2329F0EF8DE11102C0F5
:103A0000F2E0FF8F25FE0FC080919A0690919B06F1
:103A1000A0919C06B0919D0681389649A849B105B0
:103A200014F00C94EA283BA1332309F435C120FE9D
:103A300045C1809180068130B1F423E333E34BEC40
:103A400051E46091890670918A0680918B0690916D
:103A50008C060E94FC366093890670938A068093D8
:103A60008B0690938C0630FC10C080914806909194
:103A70004906A0914A06B0914B068093A606909302
:103A8000A706A093A806B093A90680917D0684306E
:103A900009F02FC126FC2BC18CE164CF892B09F0E2
:103AA00060CF063050F4033098F00430D9F080E154
:103AB0000530C9F41092870618C0083008F4BACE51
:103AC0000A3048F10E3109F0B5CE0093850604C0E6
:103AD000002321F00130C9F78BE008C0B3E0B093B8
:103AE0008506FACF80E2809387068CE0F70102C05A
:103AF000EE0FFF1F8A95E2F7CF012DA53EA52E23DD
:103B00003923232B09F025CF2DA53EA52E2B392BAC
:103B10003EA72DA767CF093039F0809186068064D3
:103B2000809386068DE0E2CF10928606FBCF40920E
:103B3000890650928A0660928B0670928C0680E00D
:103B40006701082E02C0CC0CDD1C0A94E2F7960136
:103B500022213321232B11F00C94E428D40102C03C
:103B6000B595A7958A95E2F7A0FF0BC020E030E05D
:103B7000A901C301B2010E949A3487FF02C00C94CC
:103B8000E7282C283D282ECF40928D0650928E0695
:103B900060928F0670929006116081E0D1CF4092C2
:103BA000910650929206609293067092940612606B
:103BB00082E0C6CF40929506509296066092970694
:103BC00070929806146083E0BBCF0093990684E05E
:103BD000B7CFC301B2010E94163560939A06709365
:103BE0009B0680939C0690939D0685E0A9CF40920A
:103BF0009E0650929F066092A0067092A10686E0F3
:103C00009FCF4092A2065092A3066092A4067092A3
:103C1000A50687E095CF4092A6065092A70660922F
:103C2000A8067092A90688E08BCF20E030E04FE72D
:103C300053E4C301B2010E94BC36181614F40C946C
:103C4000E1280093AA0689E07BCF4092AB06509210
:103C5000AC066092AD067092AE063B8D31603B8F34
:103C60008AE06ECF4092AF065092B0066092B106E5
:103C70007092B2064B8D42604B8F8BE061CF4092C9
:103C8000B3065092B4066092B5067092B6068B8D5C
:103C900084608B8F8CE054CF80917F06813081F4DB
:103CA0004F8D423009F0DFCE80917E06803509F4D9
:103CB000DACE882309F4D7CE20FCD5CE86E152CEC9
:103CC00080913E068111CFCE20FCB3CE80914C0670
:103CD00090914D06A0914E06B0914F0680938906B3
:103CE00090938A06A0938B06B0938C06BCCEE89482
:103CF00026F880918206882359F0813009F4BBC0F0
:103D000022961FAE2297A2E0ABAFB1E0B9AF07C0D9
:103D100082E022968FAF229791E09BAF19AE8091FF
:103D20008006813071F5EDE7CE2EE6E0DE2EF12C37
:103D3000E12C2B8DA22EB12CC5010E2C02C0959525
:103D400087950A94E2F780FF12C023E333E34BEC3C
:103D500051E4D6019E966D917D918D919C91D19764
:103D60000E94FC36F60166A777A780AB91ABFFEF08
:103D7000EF1AFF0A24E0C20ED11C33E0E316F1046F
:103D8000D9F64F8D433049F480918306813029F470
:103D90008B8D843011F00C94ED288CE0E1E6F6E098
:103DA000DE01119601900D928A95E1F7ADA5BEA5B1
:103DB000B1FD69C000917D060A3009F478C00C3568
:103DC00009F419C19F8D933009F43FC0AB8DAA232C
:103DD000E1F1B0918106BFA38091790690917A06B6
:103DE000A0917B06B0917C0689A79AA7ABA7BCA738
:103DF0009DE3A92E96E0B92E2DE7C22E26E0D22E05
:103E0000F12CE12C9B8D892E912CC4010E2C02C02B
:103E1000959587950A94E2F780FD5DC1F501808D47
:103E2000918DA28DB38DF60186A797A7A0ABB1ABFC
:103E3000FFEFEF1AFF0A24E0A20EB11C34E0C30E1C
:103E4000D11C43E0E416F10401F70E3109F494C1EA
:103E5000053309F4B8C16DE876E086E00C3109F06D
:103E60002DC10E94E117882301F18B8D811188C13A
:103E700019A61F8EA9C0E1E02296EFAF22971BAED4
:103E8000F2E0F9AF4CCF80918406873010F08DE1DD
:103E900069CD90914306891709F48CCFBE016F5FFD
:103EA0007F4F0E94E117811185CF87E05BCDBB8DED
:103EB000B11102C08AE156CDC10180759927892BC5
:103EC00009F4EACD60919E0670919F068091A0064C
:103ED0009091A1060E94DF370E941D356730B8F629
:103EE00080919906843129F0823009F0A3CC27FC17
:103EF000A1CC662309F474C0615069A76DE876E02F
:103F000089A50E94E117882381F2009199064090CB
:103F1000790650907A0660907B0670907C067DE76B
:103F2000C72E76E0D72EF12CE12C3B8D232F30E0ED
:103F300038A72FA38FA198A50E2C02C09595879521
:103F40000A94E2F780FF33C0D6019E968D909D9033
:103F5000AD90BC90D197043109F046C0F701EE0F47
:103F6000FF1FEE0FFF1FE35CF94F20A931A942A903
:103F700053A9608D718D828D938D0E94A433A5010C
:103F800094010E94A433F601608B718B828B938B1A
:103F9000F2E0EF120CC0A30192010E94A4336093DF
:103FA0009506709396068093970690939806BFEFB8
:103FB000EB1AFB0AE4E0CE0ED11CF3E0EF16F1049D
:103FC00009F0B8CF2FEA222280917E068FA3803598
:103FD00009F000C19B8D992309F406C18FE1C2CC81
:103FE000E0918406E9A78ACF50968D929D92AD927A
:103FF000BC925397DCCF3B8D332309F45BCF4090C9
:10400000790650907A0660907B0670907C064DE3AE
:10401000842E46E0942ECE0101967C015DE7A52E0C
:1040200056E0B52ED12CC12CA32FB0E0B8A7AFA37A
:104030008FA198A50C2C02C0959587950A94E2F75C
:1040400080FF3EC0F7012081318142815381D4013C
:1040500058966D917D918D919C915B970E94A433B0
:10406000F50126A537A540A951A90E94A433D50181
:104070009E966D937D938D939C93D197B2E0CB12D6
:104080000CC0A30192010E94A4336093B306709305
:10409000B4068093B5069093B606FFEFCF1ADF0AF9
:1040A00024E0820E911C34E0E30EF11C44E0A40EE7
:1040B000B11C83E0C816D10409F0BACF19A684CF89
:1040C000F40180A991A9A2A9B3A9F50186A797A790
:1040D000A0ABB1ABE2CF053309F4AACED6019E96D0
:1040E0004D905D906D907C90D197BFA1B11133C080
:1040F000F701EE0FFF1FEE0FFF1F21E030E02C0F46
:104100003D1FE20FF31FD501D0962D913D914D91AA
:104110005C91D39760817181828193810E94A533E4
:10412000A30192010E94A533F60166A777A780AB91
:1041300091ABF2E0EF127CCE29A53AA54BA55CA588
:104140000E94A5336093B3067093B4068093B506BE
:104150009093B6066DCEA3019201D50158966D914C
:104160007D918D919C915B970E94A533F60166A786
:1041700077A780AB91AB5CCE6DE876E087E071CE3F
:10418000ADE3B6E0EDE7F6E090E080E04B8D242F64
:1041900030E0A901082E02C0559547950A94E2F730
:1041A00040FD0AC058964D915D916D917C915B9751
:1041B000408B518B628B738B0196149634968330AF
:1041C000910539F77BCF80917E06823008F476CF57
:1041D0008EE1C8CBAF8DA23039F4BFA1B11171C04F
:1041E000EB8DEE2309F48BC02BA12170EBA1C10153
:1041F000E0FFD6C28E7DFF8DF111937E892B11F0E9
:104200000C94F6288E01035F1F4F89E0D8011D92A0
:104210008A95E9F7222309F4C6C28DA59EA5867B5F
:10422000892B09F0E6C780917D06853311F0811155
:10423000E0C78091480690914906A0914A06B09146
:104240004B06898B9A8BAB8BBC8B809146069091E9
:104250004506892B4091890650918A0660918B060C
:1042600070918C064D875E876F87788B84608D8B0D
:1042700080912D0685FF06C08BEA96E00E945C02C5
:104280008111BAC7B8018BEA96E00E94051B8091A4
:10429000DB0581110BC00E94D906892B39F080E221
:1042A0008093DB050E94290A0E9445038CE0EBEA1B
:1042B000F6E0A5E5B6E001900D928A95E1F780E081
:1042C00051CB20E030E0A9016091890670918A0607
:1042D00080918B0690918C060E949A34882309F471
:1042E000EDCCFFA1FC38B9F060F4F23059F1F330B5
:1042F00061F1F13009F078CF3B8D311175CF1F8E10
:1043000073CF2FA12E3839F018F02F3809F06CCF69
:104310009BA190619BA38FA18E58823018F4ABA112
:10432000A860ABA3BB8DBB2309F4C4CD4CE050E027
:104330006BEA76E085E596E00E946738892B09F004
:1043400053CF6DC04BA144604BA38B8D882309F4E0
:10435000B1CDB9ADAB2FB0E0BAABA9ABFBADEF2F90
:10436000F0E0FEABEDAB81E090E07C0109AC02C077
:10437000EE0CFF1C0A94E2F70BAC02C0880F991FE9
:104380000A94E2F7E82AF92A2B8D822F90E08E21F9
:104390009F21892B09F424C7FD01EE0FFF1FEE0FAB
:1043A000FF1FE358F94FAA0FBB1FAA0FBB1FAB5A41
:1043B000B94F2D913D914D915C9166A577A580A94E
:1043C00091A90E94A4332B013C01EDA9FEA9EE0F97
:1043D000FF1FEE0FFF1FE358F94FADA9BEA9AA0FAB
:1043E000BB1FAA0FBB1FAB5AB94F2D913D914D91E9
:1043F0005C9166A577A580A991A90E94A4334B0181
:104400005C0127FEFFC0E89427F84CE050E06BEA1F
:1044100076E085E596E00E946738892B11F481E209
:10442000A1CA6091A2067091A3068091A406909102
:10443000A50620918006213071F423E333E34BEC91
:1044400051E40E94FC366093A2067093A306809309
:10445000A4069093A5068091A2069091A306A09130
:10446000A406B091A50621968CAF9DAFAEAFBFAFAD
:104470002197A3019201C301B2010E94FC36299643
:104480006CAF7DAF8EAF9FAF2997A5019401C50199
:10449000B4010E94FC362D966CAF7DAF8EAF9FAFFE
:1044A0002D9720E030E040E850E421966CAD7DADE2
:1044B0008EAD9FAD21970E94FC3621962CAD3DAD6F
:1044C0004EAD5FAD21970E94FC3629962CAD3DADD7
:1044D0004EAD5FAD29970E94A4332D962CAD3DAD16
:1044E0004EAD5FAD2D970E94A4336B017C0120E09F
:1044F00030E0A9010E949A3487FD75C6C701B60154
:104500000E949B376B017C012D962CAD3DAD4EADCD
:104510005FAD2D9729966CAD7DAD8EAD9FAD299782
:104520000E94A5330E949B379B01AC01C701B601D5
:1045300090580E94A4346B017C019FA1933021F418
:10454000F7FAF094F7F8F09420E030E0A901219612
:104550006CAD7DAD8EAD9FAD21970E949A3487FFE3
:1045600013C0F7FAF094F7F8F09421968CAD9DAD56
:10457000AEADBFAD2197B0588093A2069093A3062D
:10458000A093A406B093A50609A91AA9000F111FAC
:10459000000F111F0357194FA7019601C501B40160
:1045A0000E94FC369B01AC01C301B2010E94A433FE
:1045B00020E030E040E05FE30E94FC36D8016D93DC
:1045C0007D938D939C9313970DA91EA9000F111F26
:1045D000000F111F0357194FA7019601C301B20124
:1045E0000E94FC36A50194010E94A53320E030E032
:1045F00040E05FE30E94FC36F801608371838283B0
:104600009383F2CDC12ED12CE122FD2083E2EF284D
:1046100009F4A8C9F1EF2F2280918006813041F57D
:104620000DE716E0F12CE12CC6010E2C02C0959589
:1046300087950A94E2F780FF12C023E333E34BEC43
:1046400051E4D80150966D917D918D919C91539735
:104650000E94FC36F801608B718B828B938BFFEF8D
:10466000EF1AFF0A0C5F1F4F23E0E216F104E1F698
:10467000E9A9FAA9EE0FFF1FEE0FFF1FE357F94F4D
:10468000C080D180E280F380A7019601C301B2010E
:104690000E94A4332B013C01EDA9FEA9EE0FFF1FE0
:1046A000EE0FFF1FE357F94F80819181A281B38103
:1046B00089AB9AABABABBCAB9C01AD01C501B401FE
:1046C0000E94A4334B015C01A3019201C301B2011A
:1046D0000E94FC362B013C01A5019401C501B401E7
:1046E0000E94FC369B01AC01C301B2010E94A533BC
:1046F0000E949B374B015C01A7019601C701B601DF
:104700000E94FC366B017C0129A93AA94BA95CA93E
:10471000CA01B9010E94FC369B01AC01C701B60178
:104720000E94A5330E949B376B017C01C092A206B8
:10473000D092A306E092A406F092A506AC019B01DC
:10474000C501B4010E94A4334B015C01E894B7F8A1
:104750002AE037ED43EA5BE3C501B4010E94BC36B1
:1047600018160CF041CD20E030E040E05FE3C501D9
:10477000B4010E94BC3618160CF451CE2FE632E17B
:1047800043E85AE3C701B6010E94FC369B01AC0125
:10479000C501B4010E94BC3618160CF025CD3FCEE1
:1047A0008E7D9C7F28CD80912D06F090460681FF5E
:1047B00012C08FA18150833018F0BBA1B064BBA39D
:1047C000EB8DEE2309F431C1FF8DF23009F02DC1DC
:1047D0002BA120682BA380919A0690919B06A09113
:1047E0009C06B0919D068093510690935206A0932B
:1047F0005306B093540680917F0680933E0688232B
:1048000011F088E08D8B8091890690918A06A091A5
:104810008B06B0918C0680934C0690934D06A09326
:104820004E06B0934F068D879E87AF87B88B209139
:10483000A6063091A7064091A8065091A90660915E
:1048400048067091490680914A0690914B060E9455
:104850009A34811103C09BA195FF15C0FF2019F068
:104860008F2D0E94BF178091A6069091A706A09158
:10487000A806B091A9068093480690934906A09394
:104880004A06B0934B06ABA1A6FD0CC0809148062A
:1048900090914906A0914A06B0914B06898B9A8B5C
:1048A000AB8BBC8B8091AA068093500680918706C3
:1048B00090914606981731F00E94BF1780918706A5
:1048C000809346068D8990914606892B8D8BF090BA
:1048D0008606809145068F1569F08091DB05823050
:1048E00029F00E9488178F2D0E94A00980918606CA
:1048F000809345068D8990914506892B8D8B8091FB
:104900007D06843099F48091DB05823079F0C09087
:104910009E06D0909F06E090A006F090A1060E940F
:10492000881740E0C701B6010E9471168091820687
:10493000809341068091800680933F06BF8DB330FF
:1049400071F58091830680934206811108C0109210
:10495000B3061092B4061092B5061092B606C09037
:10496000B306D090B406E090B506F090B606A70165
:1049700096016091790670917A0680917B069091FC
:104980007C060E949A34882351F0C0927906D09216
:104990007A06E0927B06F0927C060E94BA1780911C
:1049A000840690914306981769F0809343068CE043
:1049B000FE013196A1E6B6E001900D928A95E1F7ED
:1049C0000E94BA17809181068093400680917D06EF
:1049D000863209F47EC008F03FC08C3109F45FC014
:1049E0008E3109F45CC08A3009F443C080917E06A0
:1049F00080933D06803509F449C3BF8DB23009F07C
:104A000045C3813009F079C0BE01635F7F4F8BEAF7
:104A100096E00E94051B8CE0EBEAF6E0A5E5B6E027
:104A200001900D928A95E1F731C330E1F312D3CEB4
:104A30009BA1907480913D068150833038F4992376
:104A400009F4C9CE4BA140624BA3C5CE9111C3CE90
:104A50008BA180628BA3BFCE8C3509F440C0863613
:104A600009F443C0883209F0C1CF65E576E087E0FC
:104A700033C06DE876E089A50E94CD17809143068A
:104A8000E9A5E813B3CF8CE0EDE8F6E0A1E6B6E0E7
:104A900001900D928A95E1F70E94BA17A7CF8D89F0
:104AA00081608D8BFF8DFF2329F0B8018BEA96E0A2
:104AB0000E94051BB8018DE896E00E94051B8CE062
:104AC000EDE8F6E0A5E5B6E001900D928A95E1F7F4
:104AD0008DCF65E576E086E00E94CD1787CF8CE02C
:104AE000EBEAF6E0ADE6B6E0D3CFEDE6F6E08CE03B
:104AF000DF011D928A95E9F7CFCF811105C08D891D
:104B000081608D8BB80183CF8250823008F097C2CC
:104B10008091A2069091A306A091A406B091A5064B
:104B20008F8F98A3A9A3BAA3A9AD94E0A99F700100
:104B30001124F701EB5AF94FF8A7EFA39701235778
:104B4000394F3AA729A7D9014D905D906D907C907F
:104B50002081318142815381C301B2010E94A5337A
:104B60006DA77EA78FA798ABEBADB4E0EB9F80015C
:104B7000112498012B5A394F3AAF29AFC8018357F6
:104B8000994F9CAF8BAFDC018D909D90AD90BC9008
:104B9000F9012081318142815381C501B4010E9414
:104BA000A53369AB7AAB8BAB9CAB77FA709477F893
:104BB0007094D501C401B0588B8F9C8FAD8FBE8F80
:104BC000F701E555F94F2DA53EA54FA558A96081E0
:104BD0007181828193810E94A4336B017C01F80171
:104BE000E555F94F29A93AA94BA95CA960817181C2
:104BF000828193810E94A4334B015C01A70196013D
:104C0000C301B2010E94FC366DAB7EAB8FAB98AF97
:104C1000A50194016B8D7C8D8D8D9E8D0E94FC363F
:104C20009B01AC016DA97EA98FA998AD0E94A53307
:104C30006DAB7EAB8FAB98AFA5019401C301B20100
:104C40000E94FC364B015C01A70196016B8D7C8DA7
:104C50008D8D9E8D0E94FC369B01AC01C501B40177
:104C60000E94A4332DA93EA94FA958AD0E94243417
:104C70006B017C019BA192FF68C12DEB37E346E0FD
:104C800055EBC701B6010E94BC3687FD0AC02BED6B
:104C90003FE049EC50E4C701B6010E94A4336B0128
:104CA0007C018090210690902206A0902306B0906F
:104CB00024062F8D38A149A15AA1CA01B9010E9429
:104CC000A533A50194010E94A433A50194010E947B
:104CD000FC360E949B374B015C0120E030E040E055
:104CE0005FE3C701B6010E94FC362F8D38A149A1B0
:104CF0005AA10E94FC369F77A50194010E94A4341A
:104D00000E9489350E941D357EAB6DABDB01AB2B5C
:104D100009F47ACE1D8990E080E00E944C354B0169
:104D20005C0113FF0EC0AC019B016D857E858F85F4
:104D300098890E94FC366D877E878F87988B177FB6
:104D40001D8BA5019401C701B6010E94A4346BA379
:104D50007CA38DA39EA32296EFAD2297B4E0EB9F98
:104D6000C00111248C010B5A194F8555994FD80158
:104D70002D913D914D915C91FC0160817181828109
:104D800093810E94A433A50194010E94A434299622
:104D90006CAF7DAF8EAF9FAF29972BA13CA14DA1EA
:104DA0005EA1CA01B9010E94FC369B01AC0160E022
:104DB00070E080E090E40E94A4336B017C012BEA58
:104DC0003AEA4AE25EE36BA17CA18DA19EA10E941A
:104DD000FC364B015C0120E030E040E850E4C701C4
:104DE000B6010E94A5339B01AC01C501B4010E942C
:104DF000FC3621966CAF7DAF8EAF9FAF219720E040
:104E000030E040E05FE3C701B6010E94FC36259622
:104E10006CAF7DAF8EAF9FAF25971F8E222423945A
:104E2000312CEDA9FEA9E215F30509F4EDCDFF8DB6
:104E3000FC3008F09EC0A301920121966CAD7DADBF
:104E40008EAD9FAD21970E94FC366B017C012B8DAE
:104E50003C8D4D8D5E8D25966CAD7DAD8EAD9FAD3F
:104E600025970E94FC369B01AC01C701B6010E9448
:104E7000A5337B016C01A301920125966CAD7DAD3C
:104E80008EAD9FAD25970E94FC364B015C012B8DAA
:104E90003C8D4D8D5E8D21966CAD7DAD8EAD9FAD03
:104EA00021970E94FC369B01AC01C501B4010E9410
:104EB000A4332B013C012F8D2F5F2F8F470156010B
:104EC0008B8E9C8EAD8EBE8EA30192016DA57EA5AC
:104ED0008FA598A90E94A533EFA1F8A560837183DF
:104EE000828393832B8D3C8D4D8D5E8D69A97AA92C
:104EF0008BA99CA90E94A533A9ADBAAD6D937D93F2
:104F00008D939C93139729962CAD3DAD4EAD5FAD1F
:104F10002997F80160817181828193810E94A53374
:104F2000D8016D937D938D939C931397BE01635F1E
:104F30007F4F85E596E00E94051B8091DC0581117D
:104F40006ACDBFEF2B1A3B0A6CCF2DEB37E346E05F
:104F500055E3C701B6010E949A3418160CF4A1CE8D
:104F60002BED3FE049EC50E4C701B6010E94A533A8
:104F700096CEB10190E080E00E944C352BA13CA17F
:104F80004DA15EA10E94FC366B017C010E949F3402
:104F90006B8F7C8F8D8F9E8FC701B6010E948D37DE
:104FA0004B015C01A9A5BAA5CD90DD90ED90FC90D8
:104FB000F7FAF094F7F8F094ABADBCAD8D919D91FC
:104FC0000D90BC91A02D8F8F98A3A9A3BAA3A70180
:104FD00096016B8D7C8D8D8D9E8D0E94FC362B01F4
:104FE0003C012F8D38A149A15AA1C501B4010E94ED
:104FF000FC369B01AC01C301B2010E94A5332B0119
:105000003C01A7019601C501B4010E94FC366B0169
:105010007C012F8D38A149A15AA16B8D7C8D8D8D7E
:105020009E8D0E94FC369B01AC01C701B6010E9417
:10503000A4336B8F7C8F8D8F9E8F1F8E45CF8D8974
:1050400084608D8B8091DB05823009F4E4CC0E9472
:1050500088178091DC05811119C0FBA1F071FF2E2A
:105060001092E0052BA123FB882780F90E949C0366
:1050700086B180729091C105891719F184E00E9470
:1050800043020E949F1680E00E949C038091850647
:1050900080934406882311F40C94B21C0E94881754
:1050A000809144069091DB05833009F04DC0923029
:1050B00029F088E00E9453020E949F161092440635
:1050C000FEC8B8018BEA96E00E94051B81E0809340
:1050D000DA0582E00E9453020E949F168091DC054F
:1050E0008111D4CF8091DB058111F6CF8091DA0553
:1050F000813031F5FF2001F18CE0E2ECF5E0AEEC1F
:10510000B5E001900D928A95E1F71092DA0580E002
:105110000E949C030E949F160E94F2110E94AC09FB
:105120000E9444060E941A068091E005882309F433
:1051300072CC0E94E808AACF85E00E944302E5CF26
:1051400081E08093E005E1CF81E080933D061092FD
:1051500041061092400610923E06109243061092AD
:1051600046061092450684E68093E2058093E305A7
:105170008093E405923089F061E676E080E00E9459
:10518000E117882311F40C94551F0E94BA1780E090
:105190000E945E0380E00E94A0098AED92E00E94D6
:1051A000B20481E792E00E94B2040E94150686CF05
:1051B00081E00C94B21C82E00C94B21C88E10C9447
:1051C000B21C86E20C94B21C89E10C94B21C84E0FF
:1051D0000C94B21C8BE10C94B21C85E20C94B21CB2
:1051E00080E20C94B21C82E20C94B21C84E20C9417
:1051F000B21C80E10C94B21C8FE00C94B21CCF93D3
:10520000DF93C0E08C2F0E949917811114C0109277
:10521000B7068EE30E9473030E948F038AE30E9405
:10522000730387E00E94C404C13019F4DF91CF9169
:105230000895C1E0E7CF8091B7068823A9F30E94C3
:10524000611BD82F8EE30E9473030E948F038AE3B1
:105250000E9473038D2F0E94D004E6CF2F923F92BD
:105260004F925F926F927F928F929F92AF92BF9276
:10527000CF92DF92EF92FF920F931F93CF93DF9322
:10528000CDB7DEB76F970FB6F894DEBF0FBECDBFB8
:105290009091DC05911118C18B8F9E01235F3F4FC8
:1052A0003A8F298F89E0D9011D928A95E9F786E026
:1052B0008D8B28EEA22E25E0B22EFE0176964F01B0
:1052C00010E000E0C12CD12C7601FB8D2F2E312C6B
:1052D000802F94E0002321F090E1013009F498E060
:1052E000D4019D934D01F10102C0F595E7958A9592
:1052F000E2F7E0FF1BC020E030E040EC5FEBD501BF
:1053000094966D917D918D919C9197970E94FC361A
:10531000762E472E582E692EA70196010E949A34A8
:1053200087FD04C0C72CD42CE52CF62C0F5F1F4F33
:10533000B4E0AB0EB11C0330110551F6809033067A
:1053400090903406A0903506B090360694E0692E11
:1053500001E062EC75E0CE0101960E94BB028091F3
:105360002E06E82FF0E0FD8FEC8FFE01319682ECE7
:10537000482E85E0582E5F8E4E8E712C10E030E066
:1053800020E0B701A6017058C101022E02C0959518
:1053900087950A94E2F780FF28C07394AE8DBF8D85
:1053A0001D921D921D921C9213978C8D9D8D022E25
:1053B00002C0959587950A94E2F780FF07C0002305
:1053C00039F0408351836283738306C00023C9F39D
:1053D000C082D182E282F38286E190E08C0F9D1F31
:1053E000820F931FDC018C91182B2F5F3F4F349657
:1053F0008E8D9F8D04969F8F8E8F2330310521F6E1
:10540000672D70E090E080E00E944C350E949B3751
:105410001093E105A50194010E94FC366D877E87FB
:105420008F87988BBE01635F7F4FCE0101960E94EC
:105430005F1894E09093DF050E94290A0E944503BB
:105440000023E9F00E94B208FE01769630E020E0E9
:1054500090E06191462F412359F0AC01022E02C029
:10546000559547950A94E2F740FF02C060951623D0
:105470002F5F3F4F2330310561F71093E1050E9404
:10548000290A8091BD05847309F47FC01091BD0580
:1054900014FF03C086E00E94430215FF03C087E0AB
:1054A0000E944302011186C00E94B208AB8D8A237C
:1054B00019F088E00E9443028091BE058823E9F03C
:1054C0000E9425120E949F166F960FB6F894DEBFB9
:1054D0000FBECDBFDF91CF911F910F91FF90EF9045
:1054E000DF90CF90BF90AF909F908F907F906F9004
:1054F0005F904F903F902F90089584E00E94490262
:105500000E94F2118091370690913806019708F0B9
:1055100041C021E00227C0903906D0903A06E090C1
:105520003B06F0903C060023E1F120E030E040EA49
:1055300050E4C701B6010E94FC366B017C018090EB
:105540002F0690903006A0903106B09032066A94F3
:105550006110FFCE90E080E09101082E02C03595E9
:1055600027950A94E2F720FF06C0D2011D921D92F2
:105570001D921C9213970196B4E04B0E511C833080
:10558000910551F71092DF059FCF812F8C7109F0A3
:1055900057CFB6CFEFE9FFE03197F1F700C0000039
:1055A000B5CF8090330690903406A0903506B09029
:1055B0003606CDCF12FF80CF89E07CCF1F920F92AD
:1055C0000FB60F9211242F933F934F935F936F93D6
:1055D0007F938F939F93AF93BF93CF93EF93FF935B
:1055E0000E94F702C82F882389F080FD0E942512AF
:1055F000C2FF05C08091BD0582608093BD05C1FFDB
:1056000005C08091BD0588608093BD05FF91EF9135
:10561000CF91BF91AF919F918F917F916F915F914A
:105620004F913F912F910F900FBE0F901F901895A3
:105630001F920F920FB60F9211248F939F939BB1DD
:1056400080910B028C71937E892B8BB915BC9F9135
:105650008F910F900FBE0F901F9018951F920F9271
:105660000FB60F9211240F931F932F933F934F93D5
:105670005F936F937F938F939F93AF93BF93EF93BA
:10568000FF9380910D028111EAC19BB180911D02AF
:10569000807E9F71892B8BB98BB1837E90911C0288
:1056A000892B8BB980911B0286BD82E085BD81E08C
:1056B00080930D02789480912F0290913002892B73
:1056C00009F0A1C08091140590913A05981709F44A
:1056D000C1C1E09114052E2F30E086E0E89FF00173
:1056E0001124EA5EFA4FF0933002E0932F02828198
:1056F0009381909389008093880080819181909319
:105700002B0280932A02E48180912C028E1761F192
:10571000E0932C0281E1E89FF0011124E55CFA4F4F
:10572000F0932E02E0932D0284859585A685B7859A
:10573000B695A79597958795809316029093170233
:10574000A0931802B093190280931202909313024F
:10575000A0931402B093150280930E0290930F024F
:10576000A0931002B0931102E0912D02F0912E024D
:10577000808990910C02892780931D0286E0829F88
:10578000D001839FB00D1124AA5EBA4F15962C91BB
:1057900080819181A281B381022E04C0B695A79524
:1057A000979587950A94D2F780931E0290931F02D3
:1057B000A0932002B093210284819581A681B781B4
:1057C000022E04C0B695A795979587950A94D2F7AF
:1057D0008093220290932302A0932402B093250287
:1057E00080859185A285B38504C0B695A7959795C8
:1057F00087952A95D2F78093260290932702A0934B
:105800002802B09329028091DA058130B1F486B183
:1058100080729091C105891781F01092DA058CE0B1
:10582000E2ECF5E0AEECB5E001900D928A95E1F77F
:105830008091BD0580648093BD0510921C0280910B
:105840000E0290910F02A0911002B09111024091AE
:105850001E0250911F026091200270912102840F5C
:10586000951FA61FB71F80930E0290930F02A0935F
:105870001002B0931102E0912D02F0912E024485A6
:10588000558566857785481759076A077B0728F588
:1058900024E020931C02841B950BA60BB70B80936E
:1058A0000E0290930F02A0931002B0931102809108
:1058B000C2059091C305A091C405B091C50520898A
:1058C00025FFE0C00197A109B1098093C20590931B
:1058D000C305A093C405B093C505809112029091B1
:1058E0001302A0911402B0911502009122021091AE
:1058F00023022091240230912502800F911FA21FC4
:10590000B31F8093120290931302A0931402B093DA
:105910001502481759076A077B0738F520911C02C2
:10592000286020931C02841B950BA60BB70B809359
:10593000120290931302A0931402B0931502809167
:10594000C6059091C705A091C805B091C9052089E9
:1059500026FF9CC00197A109B1098093C6059093C9
:10596000C705A093C805B093C90580911602909110
:105970001702A0911802B09119020091260210910D
:1059800027022091280230912902800F911FA21F27
:10599000B31F8093160290931702A0931802B0933E
:1059A0001902481759076A077B0738F520911C022E
:1059B000206120931C02841B950BA60BB70B8093D0
:1059C000160290931702A0931802B09319028091C7
:1059D000CA059091CB05A091CC05B091CD05208949
:1059E00027FF58C00197A109B1098093CA05909378
:1059F000CB05A093CC05B093CD058091DB05843019
:105A000039F48091E10590911C02892380931C0256
:105A100080912A0290912B02019790932B02809300
:105A20002A02892B69F41092300210922F02809181
:105A300014058F5F80931405863011F410921405BD
:105A400080911C0290910B02892780931C02109276
:105A50000D0205C00E94BE1184E00E945302FF9116
:105A6000EF91BF91AF919F918F917F916F915F91D6
:105A70004F913F912F911F910F910F900FBE0F905B
:105A80001F9018950196A11DB11D1FCF0196A11D54
:105A9000B11D63CF0196A11DB11DA7CF1F920F921B
:105AA0000FB60F9211242F933F934F935F936F93F1
:105AB0007F938F939F93AF93BF93EF93FF93E09167
:105AC000C600E13209F44BC008F02BC0E83109F4FC
:105AD00031C0E7FF70C0E458ED3108F02DC0F0E0B0
