:100000000C9491010C94A3010C94A3010C942E2F39
:100010000C94202C0C94A3010C94A3010C94A30128
:100020000C94A3010C94A3010C94A3010C94EC3246
:100030000C94A3010C94A3010C94A3010C94A301B0
:100040000C94A0320C94A3010C9459030C94E90174
:100050000C94A3010C94A3010C94A3010C94A30190
:100060000C94A3010C94A3018F039103CA03CA0348
:10007000CA03CA03CA03CA03CA03CA03CA03CA0318
:10008000970399039B039D039F03A103A303A50368
:10009000CA03A903AB03AD03AF03B103B303CA03A0
:1000A000B503BD08C308C608C908CE08D608DE08CF
:1000B000790979097909EB08EE08F7080009790947
:1000C000790979097909790979090C091609220947
:1000D0002A092D0936093F094509790979094E0987
:1000E00057096209910B2C172C179B0BA60BB10B10
:1000F000BC0B2C17C00B2C17CE0B2C17D80BE20BFC
:10010000EC0B2C172C172C17FC0B090C160C084A9F
:10011000D73B3BCE016E84BCBFFDC12F3D6C74311B
:100120009ABD56833DDA3D00C77F11BED9E4BB4C72
:100130003E916BAAAABE000000803F05A84CCDB23C
:10014000D44EB93836A9020C50B9918688083CA61D
:10015000AAAA2ABE000000803F000D0A4772626C06
:1001600020312E3166205B27242720666F7220689D
:10017000656C705D0D0A00244E005B4F50543A00D0
:100180005B5645523A312E31662E3230313730339C
:1001900030323A005B544C4F3A005B4739323A00F8
:1001A0003330003238005B4700204700204D0020EC
:1001B000530020460020540033382E005B47433A5A
:1001C00047005B484C503A24242024232024472015
:1001D000244920244E2024783D76616C20244E78DA
:1001E0003D6C696E6520244A3D6C696E6520245320
:1001F0004C50202443202458202448207E202120B5
:100200003F206374726C2D785D0D0A00536C656538
:1002100070696E6700526573746F72696E672073E0
:1002200070696E646C6500526573746F72696E6795
:100230002064656661756C74730050676D20456E4F
:100240006400436865636B204C696D697473004397
:100250006865636B20446F6F720044697361626C00
:10026000656400456E61626C656400436175746924
:100270006F6E3A20556E6C6F636B6564002724487F
:10028000277C2724582720746F20756E6C6F636B52
:1002900000526573657420746F20636F6E74696EAD
:1002A0007565005B4D53473A00414C41524D3A0051
:1002B0007C413A007C4F763A007C57434F3A007CB1
:1002C000506E3A007C46533A007C42663A007C57B6
:1002D000506F733A007C4D506F733A00536C6565F4
:1002E0007000446F6F723A00436865636B00416C45
:1002F00061726D00486F6D65004A6F6700486F6CF2
:10030000643A0052756E0049646C65000D0A005B2A
:100310005052423A006572726F723A006F6B0D0A6A
:10032000000011241FBECFEFD8E0DEBFCDBF27E015
:10033000A0E0B1E001C01D92A136B207E1F70E9432
:100340003E040C94D03A0C940000CF93DF93239A90
:10035000C0EBD0E083E0888387E08093B100259AEA
:1003600020915C0230915D0240915E0250915F02EB
:10037000609158027091590280915A0290915B02EB
:100380000E9400369B01AC0160E070E088EF91E4D0
:100390000E94003760930001709301018093020175
:1003A0009093030188818F778883DF91CF9108959F
:1003B0000E942B2B0E94192A80910B02811108C0E8
:1003C0000E940318892BB1F780910A02883091F3BB
:1003D00008951F920F920FB60F9211248F939F933F
:1003E000EF93FF9380916E01E82FF0E0EB5FFE4FFB
:1003F00090819093C6008F5F893609F480E08093E6
:100400006E0190910401891305C08091C1008F7D18
:100410008093C100FF91EF919F918F910F900FBE3C
:100420000F901F901895E091040191E09E0F99366E
:1004300031F490E004C020910D0724FD0FC02091FD
:100440006E012917C1F3F0E0EB5FFE4F80839093BC
:1004500004018091C10080628093C1000895909151
:100460000B02911108C0811102C0439802C086FDA1
:10047000439A1092150208954F925F926F927F9265
:100480008F929F92AF92BF92CF92DF92EF92FF92A4
:100490006B017C0180905C0290905D02A0905E02F6
:1004A000B0905F02409058025090590260905A02FA
:1004B00070905B02A3019201C501B4010E9418393A
:1004C00087FF08C0A7019601C301B2010E94F6365A
:1004D000181654F0409217025092180260921902B6
:1004E00070921A0286E23CC0A7019601C501B401D0
:1004F0000E94183987FD11C020E030E0A901C70132
:10050000B6010E94F6368092170290921802A092CD
:100510001902B0921A0287E023C0C0921702D0924B
:100520001802E0921902F0921A02A5019401C70183
:10053000B6010E94003620910001309101014091E6
:100540000201509103010E9458390E94E53720E0D2
:1005500030E040EE50E40E9401360E947937862F49
:10056000FF90EF90DF90CF90BF90AF909F908F90D3
:100570007F906F905F904F9008958093B3008111AA
:1005800004C08091B0008F7703C08091B000806874
:100590008093B000089590910B02911127C08111B2
:1005A0000FC080E090E0A0EEB0E48093170290933B
:1005B0001802A0931902B0931A02BC01CD0110C019
:1005C000803111F42D9801C02D9A9091600291FF15
:1005D00005C0803219F440E050E0BA01CB01BA0105
:1005E0000E943C020E94BD02109215020895CF9213
:1005F000DF92EF92FF92CF9390910A02923079F0BE
:100600006A017B01C82F0E94D801B701A6018C2F77
:10061000CF91FF90EF90DF90CF900C94CB02CF91D1
:10062000FF90EF90DF90CF90089561EF71E088E840
:1006300092E00C94CB2BCF93C82F0E946631CC2331
:1006400011F08C2F01C083E00E94722F0E94192AA2
:1006500080910B02811107C00E9415030E94743221
:10066000CF910C947131CF91089580910D0784FD45
:100670001FC080E10E94842B8091B0008F7780930F
:10068000B000439890910A02892F8C7221F48091D6
:100690000E02867069F0943031F480910E0781115A
:1006A00005C086E001C083E00E94742B0C94B63232
:1006B00008951F920F920FB60F9211242F933F931C
:1006C0004F935F936F937F938F939F93AF93BF935A
:1006D000EF93FF93E091C600E13271F028F4E83126
:1006E00079F40E94350356C0EF3321F0EE3741F420
:1006F00082E003C081E001C088E00E94842B4AC0F0
:10070000E7FF37C08E2F90E0FC01E458F109ED318E
:10071000F10508F03FC0EC5CFF4F0C94A33A80E277
:10072000ECCF80910A0285FF35C080E4E6CF81E0FE
:100730000DC082E00BC084E009C088E007C080E102
:1007400005C080E203C080E401C080E80E946B2BFA
:1007500021C081E00BC082E009C084E007C088E0CE
:1007600005C080E103C080E201C080E40E94622BEA
:1007700011C0A091EF0681E08A0F813809F480E072
:100780009091F006891731F0B0E0A159BE4FEC937B
:100790008093EF06FF91EF91BF91AF919F918F9161
:1007A0007F916F915F914F913F912F910F900FBE6D
:1007B0000F901F901895FF920F931F93CF93DF9385
:1007C0008C01EB018091600285FF26C0F0900A0247
:1007D00080E2F81629F1C8010E948D2B8823E1F0F0
:1007E00081E080930D0288E0F81641F00E94350305
:1007F00082E00E94742B0E94192A0EC088E00E9499
:10080000842B0E94192A80910B02811105C08091CE
:100810000A028111F6CFEACF80910A02823041F1BB
:100820000E94192A80910B02811122C09091C80365
:100830008091C703981303C00E942B2BF1CFBE01F8
:10084000C8010E94F022811113C08091600281FFD3
:100850000FC0888584FF0CC04C815D816E817F81D3
:1008600080E1DF91CF911F910F91FF900C94F702DF
:10087000DF91CF911F910F91FF900895CF93DF9358
:10088000CDB7DEB761970FB6F894DEBF0FBECDBF10
:100890008091C00082608093C0001092C50080E10A
:1008A0008093C4008091C10088698093C10080E07A
:1008B00090E00E94AA198A3009F056C545E550E03B
:1008C00061E070E08BE192E00E94B219892B09F49B
:1008D0004BC58AB18C618AB9209A8AB1806E8AB977
:1008E000809181008F7E809381008091810088605B
:1008F00080938100809180008C7F80938000809124
:1009000080008F708093800080916E00887F80933C
:100910006E0014BC15BC80916E00816080936E00E7
:1009200087B1887F87B988B1876088B980916C006A
:10093000876080936C00809168008260809368007B
:100940008CE0E1EFF1E0DF011D928A95E9F7789400
:1009500010920A028091600284FF03C081E08093BC
:100960000A02BAE02B2EB2E03B2E99249394809198
:100970000A0291E1F10111929A95E9F780930A0236
:1009800084E68093110280931202809313028CE01C
:10099000ADEFB1E01D928A95E9F71092090210922D
:1009A0000D0710920E0710920F07109210078091FA
:1009B000EF068093F00680E4E0E7F2E011928A957A
:1009C000E9F764E972E080E00E94F619811103C042
:1009D00087E00E94772D0E94A5013B9A43980E94D0
:1009E00071313D98459A80E00E94582C0E9413185E
:1009F0000E94B0250E9474320E9415038AE591E09E
:100A00000E94642D8091600283FF10C00E945D2FC0
:100A1000882361F090920A0283EA92E00E94642D9A
:100A200082E492E00E94642D0E94FF2E80910A02CF
:100A3000817899F083EA92E00E94642D8DE792E03C
:100A40000E94642D0E94FF2E90920A0210E000E0A6
:100A5000F2E0EF2EA4E08A2E34C010920A020E9427
:100A60000C2C80FF07C080910D07806280930D07DA
:100A70000E94192A0E948B2DE9CFE92FF0E0E1595D
:100A8000FE4F80819F5F913809F490E09093F006CB
:100A90008F3FE9F08A3021F50E94192A80910B02DC
:100AA000811165CFE12FF0E0EF5EF84F1082F02F5B
:100AB000F170FF2E00FF18C08BE00E94772D10E030
:100AC00000E09091F0068091EF069813D6CF0E9437
:100AD0002B2B0E94192A80910B02882391F347CF78
:100AE0008D3009F01BC4D8CF80911107882309F4F9
:100AF00012C4843209F007C4998A809112078334A2
:100B000009F134F4882361F0843209F010C11AC06D
:100B10008A3459F08835B1F0873409F008C112C021
:100B200082EC91E00E94642DECC380910A028F7DDB
:100B300009F0D7C3809113078D3309F0DAC30E94FF
:100B4000BD09D2C3909113079111D3C3833409F423
:100B5000B2C01CF4843239F0D4C3873469F08835CC
:100B600009F4C9C0CEC380910A028871F82E09F039
:100B7000B8C30E94ED2DC5C38CEB91E00E94642D9B
:100B8000809170028C3838F088EB91E00E94642DDF
:100B9000809170028A580E943E2D89EA91E00E945D
:100BA000642D809176028A5C0E943E2D89EA91E054
:100BB0000E94642D809174028F5E0E943E2D89EA0E
:100BC00091E00E94642D8091720225E1281B822F02
:100BD0000E943E2D89EA91E00E94642D809173026B
:100BE000865A0E943E2D89EA91E00E94642D8091F0
:100BF00071029EE5981B892F0E943E2D80917702FD
:100C0000882399F08CEA91E00E94642D809177020C
:100C1000833029F08E3139F0823039F404C080E31A
:100C20000E94130202C00E943E2D8CEA91E00E94B5
:100C3000642D80917902803131F0803231F0811160
:100C400007C085E303C083E301C084E30E9413026D
:100C50008CEA91E00E94642D80917802882311F043
:100C600088E301C089E30E94130285EB91E00E94B2
:100C7000642D809183020E943E2D82EB91E00E94C0
:100C8000642D60917F027091800280918102909129
:100C900082020E94072D8FEA91E00E94642D6091EC
:100CA0007B0270917C0280917D0290917E0240E0F7
:100CB0000E946A2C0EC080910A02823069F40E9460
:100CC000350383EA92E00E94642D8AE592E00E9457
:100CD000642D0E94FF2E15C3811103C3E0920A0206
:100CE00083EA92E00E94642D83E692E00E94642DE4
:100CF0000E94FF2E45C080910A02813009F001C395
:100D00000E940C2CA82FA170FA2E80FF03C0EDE0EA
:100D1000FE2EF7C283EA92E00E94642D8BE692E0F9
:100D20000E94642D0E94FF2E10920A02EAC2909146
:100D30000A02923008F0D5C2893409F4A1C034F413
:100D4000833271F0883409F45AC049C1823509F4FC
:100D5000F0C0833509F482C08E3409F040C119C156
:100D6000809113078111C5C210E0BE016F5F7F4FF4
:100D7000812F0E94F619811105C087E00E94772D0E
:100D8000F12CBFC286EA91E00E94642D163029F052
:100D9000173041F480EA91E002C083EA91E00E94BA
:100DA000642D04C086E3810F0E943E2D8AE30E94D9
:100DB0001302CE0101960E94252D0E94FF2E1F5F77
:100DC000183099F68AE991E00E94642D80EA92E059
:100DD0000E94252D0E94FF2E84E991E00E94642D3F
:100DE0006091AC027091AD028091AE029091AF0221
:100DF0000E94162D0E94FF2E0E94042F82C2809115
:100E0000600284FF6BC20E940C2C80FD80CF809218
:100E10000A0280911307882381F0909114079111A1
:100E200068C2893539F08A3539F0883509F061C2F0
:100E300081E003C082E001C084E00E941B03809136
:100E40000B0281115EC210920A020E94B63280919A
:100E50001307811156C20E948B2D92CF80911307E8
:100E60008C3409F046C280911407803509F041C2E4
:100E70008091150781113DC280E80E94842B41C2F8
:100E8000E98A80911307811136C040E550E06EEA8F
:100E900073E081E197E00E94B219892B51F410921E
:100EA000110740E550E061E177E08EEA93E00E94AF
:100EB000241880E891E00E94642D0E94332B0E9448
:100EC000FF2E8AE791E00E94642D81E50E941302C3
:100ED00086E50E94130288E40E9413028CE20E94BD
:100EE00013028FE00E943E2D8CE20E94130280E8E4
:100EF0000E943E2DEECEB3E0B98B8D3309F0F9C1DF
:100F000083E0282F30E0F901EF5EF84F9081D9019E
:100F1000A25FB84F9C938F5F90819111F2CF898B24
:100F200040E550E061E177E08EEA93E00E9424180A
:100F3000E8C180911307833509F0DBC18091140764
:100F4000843509F0D6C1809115078D3309F0D1C1E0
:100F5000809117078111CDC180911607843239F035
:100F60008A3239F0833209F0C4C182E003C081E0E3
:100F700001C08FEF0E94821883EA92E00E94642DE4
:100F800087E292E00E94642D0E94FF2E0E943503AA
:100F9000B8C1E98A8091130781111DC010E0812F2B
:100FA0000E94402B811104C087E00E94772D0EC063
:100FB00087E791E00E94642D812F0E943E2D8DE3F2
:100FC0000E9413020E94332B0E94732D1F5F123068
:100FD00009F497C1E4CF911184C111E001C010E080
:100FE000BE01635F7F4FCE0141960E944C35811157
:100FF00003C072E0F72E85C1E98981E08E0F898BED
:10100000F0E0EF5EF84F90819D3309F072C111233B
:1010100071F1482F50E0282F30E0F901EF5EF84FD2
:101020009081241B350BD901AF5EB84F9C938F5F25
:1010300090819111F0CF898B0E94BD09811154C11B
:101040006D857E858F8598890E943B3A0E9479370D
:10105000162F0E94D801E1E51E9FC001112440E532
:1010600050E061E177E09D5F0E94241889CEBE01C7
:101070006F5F7F4FCE0141960E944C35882309F463
:10108000B8CFE989F0E0EF5EF84F8081811131C17E
:10109000AD84BE84CF84D88820E030E04FE753E4AD
:1010A000C601B5010E94183918160CF422C14980F6
:1010B0005A806B807C80C601B5010E947937062F6B
:1010C00020E030E0A901C301B2010E94F63687FD9D
:1010D0000DC1043608F441C0045680E00330A0F589
:1010E00010E0000F111F000F111F823079F0F8017E
:1010F000833019F1813019F0E55EFD4F02C0E95DE2
:10110000FD4F4082518262827382E5C00D5C1D4FAB
:1011100020E030E040E752E4C301B2010E945839B8
:1011200020E030E040E752E40E945839D8016D9346
:101130007D938D939C931397CEC0E15CFD4F77FA1E
:10114000709477F87094DDCF8F5F0A3008F4D1C0C7
:10115000843009F4CEC00A50C1CFC301B2010E944D
:101160003B3A0E94793710E00132110508F0C1C006
:10117000F801EF5AFF4F0C94A33A633008F4BCC057
:1011800060934B02A8C060934E02A5C060934C02CE
:1011900002C060934D020E9485329DC08091600222
:1011A000662311F0846095C08B7F93C080916002AC
:1011B000662311F080648DC08F7B8BC080916002AC
:1011C000662311F0806801C08F778093600280E011
:1011D0000E94582C80C060934F027DC04092500204
:1011E00050925102609252027092530274C0409227
:1011F00054025092550260925602709257026BC090
:1012000080916002662311F0816001C08E7F80931F
:1012100060020E94072C5FC080916002662321F06B
:1012200084FF6DC0806255C08F7D53C08091600285
:10123000662311F0886001C0877F809360020E945E
:10124000713149C080916002662311F0806141C014
:101250008F7C3FC0609361023EC040926202509218
:101260006302609264027092650235C04092660229
:101270005092670260926802709269022CC070E01E
:1012800070936B0260936A0226C040926C02509287
:101290006D0260926E0270926F021DC04092580201
:1012A0005092590260925A0270925B0208C04092BA
:1012B0005C0250925D0260925E0270925F020E9438
:1012C000A50109C080916002662311F0826001C00F
:1012D0008D7F809360020E94611813C055E0F52E47
:1012E00010C048E0F42E0DC0F82E0BC034E0F32EF1
:1012F00008C023E0F22E05C096E0F92E02C08AE075
:10130000F82E8F2D08C080910A02817211F089E0B9
:10131000D4CB0E94BD090E94832DD1CB002329F09C
:10132000893209F0CECB0D7FCCCB813208F4C9CB0A
:101330008F3209F4C6CB883289F08B3389F01F34A1
:1013400088F4212F30E01F5F9FE9980FF901EF5ECD
:10135000F84F9A3108F480528083B3CB02E0B1CBCE
:1013600004E0AFCB01E0ADCB87E00E94772D8FEF9B
:101370000E9482180E94ED2DACCA2F923F924F928C
:101380005F926F927F928F929F92AF92BF92CF9215
:10139000DF92EF92FF920F931F93CF93DF93CDB71E
:1013A000DEB7CA54D1090FB6F894DEBF0FBECDBF69
:1013B0008AE3E0EBF2E0DF011D928A95E9F78BE02A
:1013C000E0E7F2E0A1EBB2E001900D928A95E1F73F
:1013D00080911107843211F00C944D1781E08093B5
:1013E000B1021092B20283E08A8FB1E0BBA3212C3C
:1013F000312C1CA61BA610E01B8E1F8EEE24E3943E
:10140000F12CEAE0AE2EB12CF1E68F2EF3E09F2E08
:101410008A8DE82FF0E0EF5EF84FD080DD2009F4F0
:1014200035C29FEB9D0D9A3110F00C941C178F5F05
:101430008A8FBE016A5E7F4FCE014A960E944C356C
:10144000882311F40C941E174E885F88688C798C61
:10145000C301B2010E943B3A0E947937062F70E027
:1014600080E090E00E94AA379B01AC01C301B20169
:101470000E94003620E030E048EC52E40E945839E7
:101480000E94C5390E947937CB01E7E4DE1629F0C6
:10149000FDE4DF1609F4EAC033C1083209F4C6C01E
:1014A00020F5043168F4013108F08AC0043009F4F1
:1014B00052C008F464C00A3009F445C00C942C17DB
:1014C0000C3109F440C050F4063110F00C942C1784
:1014D00025E1201B2093B30226E0ADC00E3199F127
:1014E000063209F44CC00C942C170D3309F498C043
:1014F000A8F4053381F140F40B3209F47AC00133CA
:1015000009F477C00C942C170C3310F00C942C17A2
:101510006AEC600F6093B70229E08DC00C3538F497
:101520000A3508F053C0003581F10C942C170C35A6
:1015300051F00F3510F00C942C172EE5201B209342
:10154000B20225E078C0009731F42F8D21110C9460
:10155000201731E03F8F0093B002202F2D7F2C31D8
:1015600019F00C3509F064C0009721F00A9711F0CA
:101570000C942C17600F6093B00220E061C04F8D77
:1015800041110C942017A2E0AF8F0093B1020632F4
:1015900009F050C08431910559F08E31910541F028
:1015A0008832910529F08233910511F00C942C17A3
:1015B000B5010E946D3A66576093B10221E040C0C8
:1015C0006FEE600F6093B50222E035C0892B31F4D5
:1015D00066EA600F6093B40223E032C06A3071059E
:1015E00011F00C942C170A3511F40C942C1724E0EC
:1015F00027C0BF8DB1110C942017013331F4109224
:10160000B60228E0E3E0EF8F1BC00A9711F00C94BC
:101610002C17F1E0F093B60228E033E03F8F10C0C2
:10162000892B11F00C942C172AE00AC027E003C084
:1016300020E001C021E0892B19F087E10C945417B8
:10164000C70102C0880F991F2A95E2F72BA53CA578
:1016500028233923232B19F085E10C945417ABA5CB
:10166000BCA5A82BB92BBCA7ABA7D2CE892B29F739
:10167000063018F4033058F016C0083010F40C94FB
:101680002C170A30F0F00E3159F00C942C1700236F
:1016900019F0013001F104C0B3E0B093B8021BC0EF
:1016A0000093B80218C0043021F0053031F080E119
:1016B00001C080E28093BA0202C01092BA028CE0AC
:1016C0000BC0093021F080E48093B90202C010926F
:1016D000B9028DE001C08BE0F70102C0EE0FFF1FE1
:1016E0008A95E2F72BA53CA52E233F23232B09F057
:1016F000B3CF2BA53CA52E2B3F2B3CA72BA788CEE9
:101700008D2DDD0C990BAA0BBB0BFC01E654F109E6
:10171000E531F10510F00C942C17EE58FF4F0C94A6
:10172000A33A4092BC025092BD026092BE027092F7
:10173000BF0280E087C04092C0025092C102609216
:10174000C2027092C302116081E07CC04092C40268
:101750005092C5026092C6027092C702126082E087
:1017600071C04092C8025092C9026092CA0270923F
:10177000CB02146083E066C00093CC0284E062C0B8
:10178000C301B2010E9472376093CD027093CE0202
:101790008093CF029093D00285E054C04092D10252
:1017A0005092D2026092D3027092D40286E04AC074
:1017B0004092D5025092D6026092D7027092D8021F
:1017C00087E040C04092D9025092DA026092DB0278
:1017D0007092DC0288E036C020E030E04FE753E44E
:1017E000C301B2010E941839181614F40C94221780
:1017F0000093DD0289E026C04092DE025092DF02B3
:101800006092E0027092E1023B8D31603B8F8AE092
:1018100019C04092E2025092E3026092E402709298
:10182000E5024B8D42604B8F8BE00CC04092E6028C
:101830005092E7026092E8027092E9028B8D846018
:101840008B8F8CE06701082E02C0CC0CDD1C0A9443
:10185000E2F7960122213321232B11F00C94241757
:10186000D40102C0B595A7958A95E2F7A0FF0BC0F9
:1018700020E030E0A901C301B2010E94F63687FFE3
:1018800002C00C9426172C283D28C2CDBB8DBB234B
:1018900029F0EF8DE11102C0F2E0FF8F25FE0FC0AD
:1018A0008091CD029091CE02A091CF02B091D00252
:1018B00081389649A849B10514F00C9428173BA12A
:1018C000332329F020FC02C00C94321718C08091F9
:1018D000B202813071F44F8D4230E1F58091B10256
:1018E0008035C1F18823B1F120FC02C00C9432177D
:1018F00031C08091710281112DC020FE1BC08091EA
:10190000B302813039F523E333E34BEC51E46091CA
:10191000BC027091BD028091BE029091BF020E94F4
:1019200058396093BC027093BD028093BE029093BD
:10193000BF0210C080917F0290918002A09181022D
:10194000B09182028093BC029093BD02A093BE022C
:10195000B093BF0230FC10C080917B0290917C025A
:10196000A0917D02B0917E028093D9029093DA0219
:10197000A093DB02B093DC028091B002843039F492
:1019800026FC03C08CE10C945417E89426F880914F
:10199000B502882369F0813029F48FAF1DAE92E043
:1019A0009BAF0BC01FAEA2E0ADAFB1E0BBAF05C0B7
:1019B000E2E0EFAFF1E0FDAF1BAE8091B30281300A
:1019C00021F02F8D2330C9F52FC060EBC62E62E0C9
:1019D000D62EE12CF12C3B8DA32EB12CC5010E2C63
:1019E00002C0959587950A94E2F780FF12C023E321
:1019F00033E34BEC51E4D6019E966D917D918D9130
:101A00009C91D1970E945839F60166A777A780ABC1
:101A100091ABFFEFEF1AFF0A24E0C20ED11C33E0B6
:101A2000E316F104D9F6CDCF8091B602813029F4C6
:101A30004B8D443011F00C942A178CE0E4E9F2E06D
:101A4000DE01119601900D928A95E1F78BA59CA578
:101A500091FD08C00091B0020A30C9F00C3509F4BC
:101A6000B3C01EC18091B702873018F08DE10C948D
:101A7000541790917602891769F3BE016F5F7F4F0B
:101A80000E94F619882311F40C944017E3CF9B8D24
:101A9000911103C08AE10C945417C10180759927F4
:101AA000892B09F46FCF6091D1027091D20280919D
:101AB000D3029091D4020E943B3A0E94793767305A
:101AC000A8F68091CC02843141F0823011F00C9460
:101AD0002C1727FE02C00C942C17AFEA2A2266238B
:101AE00019F0615069A703C0B091B702B9A760ECC3
:101AF00072E089A50E94F619882311F40C9440170E
:101B00000091CC024090AC025090AD026090AE02C9
:101B10007090AF0240EBE42E42E0F42E50E7A52E89
:101B200052E0B52EC12CD12CEB8D8E2E912CC40100
:101B30000C2C02C0959587950A94E2F780FF35C07A
:101B4000043151F5D501D0962D913D914D915C9187
:101B5000D39758966D917D918D919C915B970E9442
:101B60000036F70126A537A540A951A90E940036E5
:101B7000D70150966D937D938D939C935397B2E0CC
:101B8000CB1213C0A30192010E940036F701608BB3
:101B9000718B828B938B09C0F70186A597A5A0A9AD
:101BA000B1A9808B918BA28BB38BFFEFCF1ADF0A89
:101BB00024E0E20EF11C34E0A30EB11C43E0C41695
:101BC000D10409F0B4CF3FC18B8D882309F462CFD3
:101BD0004090AC025090AD026090AE027090AF02A7
:101BE00020E7822E22E0922EDE0111967D0130EB5D
:101BF000C32E32E0D32EA12CB12CE82FF0E0F8A7B1
:101C0000EFA38FA198A50A2C02C0959587950A94F9
:101C1000E2F780FF29C0D7012D913D914D915C9154
:101C2000F401608D718D828D938D0E940036D601F6
:101C30009E962D913D914D915C91D1970E940036D9
:101C4000F60166A777A780AB91ABF2E0AF1216C0A2
:101C5000A30192010E940036D6019E966D937D935A
:101C60008D939C93D1970AC0F40180A991A9A2A950
:101C7000B3A9F60186A797A7A0ABB1ABFFEFAF1A48
:101C8000BF0A24E0820E911C34E0E30EF11C44E014
:101C9000C40ED11C83E0A816B10409F0B2CFD2C0A3
:101CA0009F8D933069F40E3109F494C0053309F423
:101CB000C3C00C3109F0C6C060EC72E086E08DC094
:101CC000AB8DAA2381F3B091B402BFA34090AC02C4
:101CD0005090AD026090AE027090AF0280E7A82EE7
:101CE00082E0B82E90EBE92E92E0F92EFE013196BB
:101CF0004F01C12CD12C2A2F30E03AA729A789A562
:101D00009AA50C2C02C0959587950A94E2F780FD60
:101D10000BC0F501808D918DA28DB38DF70186A743
:101D200097A7A0ABB1AB44C0053309F441C0FFA1F4
:101D3000F1112BC0D501D0962D913D914D915C9123
:101D4000D397F40160817181828193810E94013671
:101D5000D7019E962D913D914D915C91D1970E9416
:101D60000136F70166A777A780AB91ABF2E0CF12FF
:101D70001FC0A30192010E940136D7019E966D9368
:101D80007D938D939C93D19713C0F501208D318D58
:101D9000428D538DD7019E966D917D918D919C9131
:101DA000D1970E940136F70166A777A780AB91AB68
:101DB000FFEFCF1ADF0A24E0A20EB11C34E0E30EDD
:101DC000F11C44E0840E911C83E0C816D10409F094
:101DD00096CF69CF60EC72E087E00E94F619882305
:101DE00011F40C9440179B8D911103C019A61F8EFE
:101DF0002AC0A0E7B2E0E0EBF2E080E090E04B8D9B
:101E0000242F30E0A901082E02C0559547950A9469
:101E1000E2F740FD0AC058964D915D916D917C911D
:101E20005B97408B518B628B738B01961496349623
:101E30008330910539F706C08091B102823010F0ED
:101E40000C942E1719A68091B1028FA3803529F426
:101E50009B8D91110C9430177AC2AF8DA23009F08E
:101E600076C2BFA1B11104C0EB8DE11170C22AC0CE
:101E700020E030E0A9016091BC027091BD02809128
:101E8000BE029091BF020E94F636882309F4EAC789
:101E9000FFA1FC3809F445C240F4F230A9F0F33058
:101EA000B1F0F13009F053C20AC02FA12E3809F465
:101EB00038C208F433C22F3809F430C248C23B8D0F
:101EC000311145C21F8E43C24BA144604BA38B8D81
:101ED000882309F4DFCDBBADAB2FB0E0B8ABAFA723
:101EE000FDADEF2FF0E0FCABEBAB81E090E07C01CF
:101EF0000BAC02C0EE0CFF1C0A94E2F70DAC02C062
:101F0000880F991F0A94E2F7E82AF92A2B8D822F6D
:101F100090E08E219F21892B09F4A6C7FD01EE0FC9
:101F2000FF1FEE0FFF1FE055FD4FAA0FBB1FAA0FAB
:101F3000BB1FA857BD4F2D913D914D915C9166A55A
:101F400077A580A991A90E9400362B013C01EBA93D
:101F5000FCA9EE0FFF1FEE0FFF1FE055FD4FABA9D1
:101F6000BCA9AA0FBB1FAA0FBB1FA857BD4F2D911D
:101F70003D914D915C9166A577A580A991A90E949C
:101F800000364B015C01610130E8C322DD2427FEED
:101F9000F5C0E89427F84CE050E06EED72E088E878
:101FA00092E00E94C33A892B11F481E27DC78091AF
:101FB000B3028130B1F423E333E34BEC51E460919D
:101FC000D5027091D6028091D7029091D8020E94DA
:101FD00058396093D5027093D6028093D7029093BC
:101FE000D8028091D5029091D602A091D702B091EB
:101FF000D8028FAB98AFA9AFBAAFA3019201C301CA
:10200000B2010E94583927966CAF7DAF8EAF9FAF5B
:102010002797A5019401C501B4010E9458392B9658
:102020006CAF7DAF8EAF9FAF2B9720E030E040E8E4
:1020300050E46FA978AD89AD9AAD0E9458392FA9A7
:1020400038AD49AD5AAD0E94583927962CAD3DADFB
:102050004EAD5FAD27970E9400362B962CAD3DAD5F
:102060004EAD5FAD2B970E9400366B017C0120E0E6
:1020700030E0A9010E94F63687FDF8C6C701B60117
:102080000E94F7396B017C012B962CAD3DAD4EAD16
:102090005FAD2B9727966CAD7DAD8EAD9FAD27972D
:1020A0000E9401360E94F7399B01AC01C701B601BD
:1020B00090580E9400376B017C019FA1933021F45E
:1020C000F7FAF094F7F8F09420E030E0A9016FA956
:1020D00078AD89AD9AAD0E94F63687FF11C0F7FA48
:1020E000F094F7F8F0948FA998ADA9ADBAADB058B7
:1020F0008093D5029093D602A093D702B093D802D2
:102100000FA518A9000F111F000F111F00541D4F1C
:10211000A7019601C501B4010E9458399B01AC0189
:10212000C301B2010E94003620E030E040E05FE3EE
:102130000E945839D8016D937D938D939C9313978A
:102140000BA91CA9000F111F000F111F00541D4FD8
:10215000A7019601C301B2010E945839A50194015B
:102160000E94013620E030E040E05FE30E945839F1
:10217000F8016083718382839383E9C0212F30E06B
:1021800038AF2FABE222F322EF2809F471C631EF0A
:1021900023228091B302813009F47BC0EFA5F8A916
:1021A000EE0FFF1FEE0FFF1FE054FD4FC080D180E8
:1021B000E280F380A7019601C301B2010E940036BC
:1021C0002B013C01EBA9FCA9EE0FFF1FEE0FFF1F37
:1021D000E054FD4F80819181A281B3818FA798AB9C
:1021E000A9ABBAAB9C01AD01C501B4010E94003698
:1021F0004B015C01A3019201C301B2010E94583955
:102200002B013C01A5019401C501B4010E9458397C
:102210009B01AC01C301B2010E9401360E94F73953
:102220004B015C01A7019601C701B6010E94583914
:102230006B017C012FA538A949A95AA9CA01B90186
:102240000E9458399B01AC01C701B6010E940136BA
:102250000E94F7396B017C016093D5027093D6021E
:102260008093D7029093D8029B01AC01C501B401C1
:102270000E9400364B015C01E894B7F82AE037ED84
:1022800043EA5BE3C501B4010E94183918164CF10A
:102290005EC000EB12E08FA998AD0C2C02C09595A2
:1022A00087950A94E2F780FF12C023E333E34BECF7
:1022B00051E4D80150966D917D918D919C915397E9
:1022C0000E945839F801608B718B828B938BFFEFE2
:1022D000CF1ADF0A0C5F1F4F23E0C216D104D9F6D4
:1022E0005DCF20E030E040E05FE3C501B4010E9433
:1022F000183918160CF459CE2FE632E143E85AE3A8
:10230000C701B6010E9458399B01AC01C501B40157
:102310000E94183918160CF448CE19C03BA1306140
:102320003BA38FA18E58823018F44BA148604BA379
:102330008B8D882309F4AECB4CE050E06EED72E05B
:1023400088E892E00E94C33A892B09F42ECE2BA193
:1023500021709BA190FF03C0C1018E7D03C0C1010C
:102360008E7D9C7FAF8DA111937E892B09F082C554
:102370008E01035F1F4F89E0F80111928A95E9F7FA
:10238000222309F44BC08BA59CA5867B892B09F0E1
:1023900073C58091B002853311F081116DC58091B4
:1023A0007B0290917C02A0917D02B0917E02898B8C
:1023B0009A8BAB8BBC8B9091790280917802892BA0
:1023C0004091BC025091BD026091BE027091BF026B
:1023D0004D875E876F87788B84608D8B80916002DC
:1023E00085FF06C08EED92E00E948D2B811146C5BF
:1023F000B8018EED92E00E94DB0380910A02811108
:1024000041C50E940318892B09F43CC580E28093E2
:102410000A020E94171A0E94343534C58091600266
:10242000F090790281FF26C08FA18150833018F08F
:10243000FBA1F064FBA32B8D222339F03F8D3230BA
:1024400021F44BA140684BA315C080E1F81212C0E3
:102450008091700281509BA19074833030F4992355
:1024600049F09BA190629BA305C0911103C0ABA151
:10247000A062ABA38091CD029091CE02A091CF0239
:10248000B091D0028093840290938502A09386023B
:10249000B09387028091B20280937102882311F079
:1024A00088E08D8B8091BC029091BD02A091BE020C
:1024B000B091BF0280937F0290938002A09381022B
:1024C000B09382028D879E87AF87B88B8090D902A8
:1024D0009090DA02A090DB02B090DC02A50194019A
:1024E00060917B0270917C0280917D0290917E02CE
:1024F0000E94F636BBA1B074EB2E811103C0EBA194
:10250000E5FF20C0FF2071F0FBA1F7FD0BC0EE201E
:1025100021F040E050E0BA0102C0B501A4018F2DC6
:102520000E94F7028091D9029091DA02A091DB0219
:10253000B091DC0280937B0290937C02A0937D0299
:10254000B0937E02E1100CC080917B0290917C02DE
:10255000A0917D02B0917E02898B9A8BAB8BBC8B54
:102560008091DD02809383028091BA02909179027A
:10257000981751F049895A896B897C890E94F70222
:102580008091BA02809379029D8980917902892B8A
:102590008D8BF090B902809178028F15A9F080910F
:1025A0000A02823029F00E94D8018F2D0E942F024A
:1025B0008091B902811103C01092780205C09091F8
:1025C0007802892B809378029D8980917802892BEB
:1025D0008D8B8091B002843099F4C090D102D0905C
:1025E000D202E090D302F090D40280910A028230AD
:1025F00039F00E94D80140E0C701B6010E9445327F
:102600008091B502809374028091B302809372022C
:102610002F8D233071F58091B60280937502811160
:1026200008C01092E6021092E7021092E80210929F
:10263000E902C090E602D090E702E090E802F09054
:10264000E902A70196016091AC027091AD02809100
:10265000AE029091AF020E94F636882351F0C092EC
:10266000AC02D092AD02E092AE02F092AF020E94B4
:10267000072C8091B70290917602981769F08093A9
:1026800076028CE0FE013196A4E9B2E001900D9251
:102690008A95E1F70E94072C8091B402809373021F
:1026A0008091B0028632F1F138F48C3109F18E312B
:1026B000F9F08A3069F04FC08C35D1F1863609F4D3
:1026C00041C0883209F047C068E872E087E02DC059
:1026D00060EC72E089A50E946E188091760239A59F
:1026E000381339C08CE0E0ECF2E0A4E9B2E025C098
:1026F0008D8981608D8B4F8D442329F0B8018EED3B
:1027000092E00E94DB03B80180EC92E00E94DB03C0
:102710008CE0E0ECF2E0A8E8B2E001900D928A953E
:10272000E1F719C068E872E086E00E946E1813C0F5
:102730008CE0EEEDF2E0A0EAB2E001900D928A9515
:10274000E1F707C08CE0E0EAF2E0DF011D928A9534
:10275000E9F70E94072C8091B102809370028035C6
:1027600009F41CC3BF8DB23009F018C3813021F4C5
:10277000BE01635F7F4F06C0811109C08D898160F2
:102780008D8BB8018EED92E00E94DB03FEC2825079
:10279000823008F093C28091D5029091D602A09128
:1027A000D702B091D8028F8F98A3A9A3BAA3ABADDB
:1027B00094E0A99F70011124F701E857FD4FF8A795
:1027C000EFA3970120543D4F3AA729A7D9014D9077
:1027D0005D906D907C902081318142815381C30155
:1027E000B2010E9401366BA77CA78DA79EA7EDAD15
:1027F000B4E0EB9F80011124980128573D4F3CAF76
:102800002BAFC80180549D4F9EAF8DAFDC018D90E2
:102810009D90AD90BC90F90120813181428153811E
:10282000C501B4010E9401366FA778AB89AB9AABA2
:1028300077FA709477F87094D501C401B0588B8FF3
:102840009C8FAD8FBE8FF701E252FD4F2BA53CA5AB
:102850004DA55EA560817181828193810E940036C1
:102860006B017C01F801E252FD4F2FA538A949A95F
:102870005AA960817181828193810E9400364B0147
:102880005C01A7019601C301B2010E9458396BABEC
:102890007CAB8DAB9EABA50194016B8D7C8D8D8D3A
:1028A0009E8D0E9458399B01AC016BA97CA98DA912
:1028B0009EA90E9401366BAB7CAB8DAB9EABA50194
:1028C0009401C301B2010E9458394B015C01A70178
:1028D00096016B8D7C8D8D8D9E8D0E9458399B014C
:1028E000AC01C501B4010E9400362BA93CA94DA939
:1028F0005EA90E9480366B017C019BA192FF13C0F0
:102900002DEB37E346E055EBC701B6010E941839BD
:1029100087FD1DC02BED3FE049EC50E4C701B60137
:102920000E94003612C02DEB37E346E055E3C701A5
:10293000B6010E94F636181654F02BED3FE049EC34
:1029400050E4C701B6010E9401366B017C01809002
:10295000540290905502A0905602B09057022F8DCD
:1029600038A149A15AA1CA01B9010E940136A501A5
:1029700094010E940036A50194010E9458390E94DA
:10298000F7394B015C0120E030E040E05FE3C70134
:10299000B6010E9458392F8D38A149A15AA10E9431
:1029A00058399F77A50194010E9400370E94E537AE
:1029B0000E9479377CAB6BABDB01AB2B09F4D8CE33
:1029C0001D894B01A12CB12C13FF12C0C501B4010C
:1029D0000E94A8379B01AC016D857E858F85988903
:1029E0000E9458396D877E878F87988B177F1D8B44
:1029F000C501B4010E94A8374B015C019B01AC01E9
:102A0000C701B6010E9400376BA37CA38DA39EA3D0
:102A1000EFADB4E0EB9FC00111248C0108571D4FAE
:102A2000FC01E252FD4FD8012D913D914D915C91F9
:102A300060817181828193810E940036A501940199
:102A40000E94003727966CAF7DAF8EAF9FAF279760
:102A50002BA13CA14DA15EA1CA01B9010E94583928
:102A60009B01AC0160E070E080E090E40E940036E1
:102A70006B017C012BEA3AEA4AE25EE36BA17CA19E
:102A80008DA19EA10E9458394B015C0120E030E0ED
:102A900040E850E4C701B6010E9401369B01AC0139
:102AA000C501B4010E9458396FAB78AF89AF9AAFB6
:102AB00020E030E040E05FE3C701B6010E945839F2
:102AC00023966CAF7DAF8EAF9FAF23971F8E2224CE
:102AD0002394312CEBA9FCA9E215F30509F448CEA7
:102AE000BF8DBC3008F044C02B8D3C8D4D8D5E8D6C
:102AF00023966CAD7DAD8EAD9FAD23970E94583966
:102B00006B017C01A30192016FA978AD89AD9AADEB
:102B10000E945839A70196010E9401367B016C0181
:102B2000A301920123966CAD7DAD8EAD9FAD239731
:102B30000E9458394B015C012B8D3C8D4D8D5E8D73
:102B40006FA978AD89AD9AAD0E9458399B01AC014F
:102B5000C501B4010E9400362B013C01EF8DEF5FEF
:102B6000EF8F470156018B8E9C8EAD8EBE8E65C059
:102B7000B10180E090E00E94A8372BA13CA14DA1BB
:102B80005EA10E9458396B017C010E94FB366B8F5D
:102B90007C8F8D8F9E8FC701B6010E94E9394B0152
:102BA0005C01A9A5BAA5CD90DD90ED90FC90F7FA57
:102BB000F094F7F8F094ADADBEAD8D919D910D9070
:102BC000BC91A02D8F8F98A3A9A3BAA3A7019601AA
:102BD0006B8D7C8D8D8D9E8D0E9458392B013C0113
:102BE0002F8D38A149A15AA1C501B4010E945839BD
:102BF0009B01AC01C301B2010E9401362B013C01D3
:102C0000A7019601C501B4010E9458396B017C01EE
:102C10002F8D38A149A15AA16B8D7C8D8D8D9E8DF4
:102C20000E9458399B01AC01C701B6010E940036D1
:102C30006B8F7C8F8D8F9E8F1F8EA30192016BA552
:102C40007CA58DA59EA50E940136EFA1F8A5608305
:102C50007183828393832B8D3C8D4D8D5E8D6FA50B
:102C600078A989A99AA90E940136ABADBCAD6D9334
:102C70007D938D939C93139727962CAD3DAD4EADD0
:102C80005FAD2797F80160817181828193810E94F5
:102C90000136D8016D937D938D939C931397BE015C
:102CA000635F7F4F88E892E00E94DB0380910B0214
:102CB00081116BC0BFEF2B1A3B0A0CCF8D8984604A
:102CC0008D8B80910A02823009F45FC00E94D80186
:102CD00080910B02811162C0FBA1F071FF2E109256
:102CE0000F022BA123FB882780F90E94582C86B164
:102CF00080729091F001891749F084E00E94742B52
:102D00000E94192A80E00E94582C48C0B8018EED1C
:102D100092E00E94DB0381E08093090282E00E943E
:102D2000842B0E94192A80910B02811137C0809157
:102D30000A028111F6CF80910902813081F4FF20CF
:102D400051F08CE0E1EFF1E0ADEFB1E001900D92D8
:102D50008A95E1F707C085E00E94742B03C081E0EB
:102D600080930F021092090280E00E94582C0E946A
:102D7000192A0E94B0250E9413180E9474320E94E2
:102D8000042F80910F0281118CC08CE0EEEDF2E0F7
:102D9000A8E8B2E001900D928A95E1F78091B8021F
:102DA00080937702882309F47FC00E94D801809124
:102DB000770290910A02833041F49230D1F188E099
:102DC0000E94842B0E94192A34C081E080937002F3
:102DD0001092740210927302109271021092760295
:102DE000109279021092780284E680931102809307
:102DF000120280931302923091F064E972E080E055
:102E00000E94F6198823E1F10E94072C40E050E06F
:102E1000BA0180E00E94CB0280E00E942F0283EA88
:102E200092E00E94642D8AE392E00E94642D0E9449
:102E3000FF2E109277022FC081E036C082E034C0AE
:102E400088E132C086E230C089E12EC084E02CC027
:102E50008BE12AC085E228C084E126C08EE124C02F
:102E60008FE122C086E120C080E21EC082E21CC049
:102E700083E21AC084E218C080E116C08FE014C05B
:102E800087E012C08CE0EEEDF2E0A8E8B2E001903D
:102E90000D928A95E1F780E007C01A8E1BA20C9470
:102EA000F7090E9415037ACFC65BDF4F0FB6F8947F
:102EB000DEBF0FBECDBFDF91CF911F910F91FF906D
:102EC000EF90DF90CF90BF90AF909F908F907F90CA
:102ED0006F905F904F903F902F900895F894F999DC
:102EE000FECF92BD81BD81E08FBB80B58627482F84
:102EF000082E000C550B262F30E024233523232BDE
:102F000039F06F3F19F060BD84E006C084E104C071
:102F1000882321F060BD84E28FBBF99A78940895EC
:102F2000BF92CF92DF92EF92FF920F931F93CF93B6
:102F3000DF937C01FC0102A513A5D4A5C5A5818959
:102F400080FF18C06091120270E080E090E00E9463
:102F5000AA372AE037ED43E25CE30E9458399B012F
:102F6000AC01B8018D2F9C2F0E9458398B01D82FAE
:102F7000C92F2DC082FD17C06091110270E080E062
:102F800090E00E94AA372AE037ED43E25CE30E941A
:102F900058399B01AC01B8018D2F9C2F0E945839E4
:102FA0008B01D82FC92FF701B6A0C7A0D0A4F1A4D8
:102FB0002B2D3C2D4D2D5F2DB8018D2F9C2F0E9468
:102FC0001839181624F40B2D1C2DDD2DCF2D20E0E3
:102FD00030E040E85FE3B8018D2F9C2F0E94183944
:102FE000181624F000E010E0D0E8CFE3B8018D2FF0
:102FF0009C2FDF91CF911F910F91FF90EF90DF9069
:10300000CF90BF9008958091C8039091E9069817DA
:1030100039F022E3829FC001112487539C4F089509
:1030200080E090E008958CE1E1EFF6E0DF011D9291
:103030008A95E9F71092C8031092E90681E080931F
:10304000C7031092C60308959F92AF92BF92CF928A
:10305000DF92EF92FF920F931F93CF93DF935C0168
:103060008A017B01E40EF51EEB01912C6C01C61A5E
:10307000D70ACE018C0D9D1DCE15DF0589F091106C
:1030800008C0292D990C330B232F221F2227221F22
:1030900001C021E06991922E960E0E946E17E9CF31
:1030A000692DC501800F911FDF91CF911F910F9165
:1030B000FF90EF90DF90CF90BF90AF909F900C94D7
:1030C0006E176AE080E090E00E946E1745E550E0E0
:1030D0006BE172E081E090E00C9424180F931F9351
:1030E000CF93C82F8B010E94D8012DE0C29FC00151
:1030F00011244CE050E0B8019E5FCF911F910F91D9
:103100000C942418EF92FF920F931F93CF93DF93A9
:10311000CDB7DEB72C970FB6F894DEBF0FBECDBF8C
:10312000182F80FFD6C08AE080934B028FEF8093E8
:103130004E0210924C0210924D0281E080934F0299
:103140008AE097EDA3E2BCE3809350029093510292
:10315000A0935202B09353028FE692E1A3E0BBE347
:103160008093540290935502A0935602B093570255
:1031700080E090E0AAE7B4E480935802909359026B
:10318000A0935A02B0935B0210925C0210925D020F
:1031900010925E0210925F021092610280E090E055
:1031A000A8ECB1E48093620290936302A09364025E
:1031B000B093650280E090E0AAEFB3E480936602EA
:1031C00090936702A0936802B09369022AEF30E0FF
:1031D00030936B0220936A0240E050E060E87FE3A6
:1031E00040936C0250936D0260936E0270936F0275
:1031F00024E02093600240E050E06AE773E44093EB
:103200001B0250931C0260931D0270931E02409398
:103210001F02509320026093210270932202409378
:103220002302509324026093250270932602809318
:10323000270290932802A0932902B0932A02809338
:103240002B0290932C02A0932D02B0932E02809318
:103250002F0290933002A0933102B093320280E0AB
:1032600090EAACE0B7E48093330290933402A093E9
:103270003502B09336028093370290933802A093C0
:103280003902B0933A0280933B0290933C02A093A0
:103290003D02B0933E0280E090E0A8E4B3EC80935E
:1032A0003F0290934002A0934102B0934202809368
:1032B000430290934402A0934502B0934602809348
:1032C000470290934802A0934902B0934A020E9499
:1032D000611811FF10C0CE0101967C018CE0F7014E
:1032E00011928A95E9F700E0B701802F0E946E18CD
:1032F0000F5F0830C9F712FF14C060E080E093E070
:103300000E946E1760E081E093E00E946E1760E01B
:1033100081E593E00E946E1760E082E593E00E94F1
:103320006E1713FF0AC060E08EEA93E00E946E17EA
:1033300060E08FEA93E00E946E172C960FB6F89427
:10334000DEBF0FBECDBFDF91CF911F910F91FF90D8
:10335000EF900895F999FECF92BD81BD81E08FBBBA
:1033600080B508959F92AF92BF92CF92DF92EF9275
:10337000FF920F931F93CF93DF935B018A017C0130
:10338000E40EF51EEC01912C6B01C81AD90AC60196
:103390008C0F9D1FCE15DF0589F00E94AA19911090
:1033A00008C0292D990C330B232F221F2227221FFF
:1033B00001C021E0982E920E8993E9CFC501800FBC
:1033C000911F0E94AA1921E030E0981611F020E028
:1033D00030E0C901DF91CF911F910F91FF90EF90E5
:1033E000DF90CF90BF90AF909F9008951F93CF93A1
:1033F000DF93182FEB018DE0189FB00111247E5F41
:103400004CE050E0CE010E94B219892B59F48CE0B7
:10341000FE0111928A95E9F7BE01812F0E946E1874
:1034200080E001C081E0DF91CF911F9108952F923C
:103430003F924F925F926F927F928F929F92AF9244
:10344000BF92CF92DF92EF92FF920F931F93CF9391
:10345000DF93CDB7DEB7EF970FB6F894DEBF0FBEA0
:10346000CDBF80910E0280FD36C7909110038091F0
:10347000EA06981709F42FC78091ED069091EE06A1
:10348000892B09F015C310910E0212FF09C080911B
:10349000E90622E3289FC001112487539C4F02C0F4
:1034A0000E9403189093EE068093ED062090ED069F
:1034B0003090EE062114310409F40DC700919703F2
:1034C000802F817000FF03C010929703EAC0909193
:1034D00096039F5F953009F0892F80939603E82E1D
:1034E000F12C32E13E9DF0013F9DF00D1124E45C92
:1034F000FC4FF093EC06E093EB06D10150969C91C3
:103500005097908BE2E18E9FC001112420E030E0C3
:103510004D915D916D917D91F901E80FF91FE45C8A
:10352000FC4F689412F8440F551F661F771F1694BE
:10353000D1F740835183628373832C5F3F4F2C30DC
:10354000310531F722E12E9DF0012F9DF00D112460
:103550009F01245C3C4FF10184859585A685B78544
:1035600043E0880F991FAA1FBB1F4A95D1F7F901A5
:1035700084879587A687B787D1011C966D917D9129
:103580008D919C911F970E94A83760939C03709324
:103590009D0380939E0390939F03F101268D378DA9
:1035A00040A151A10E9400379B01AC016093A00390
:1035B0007093A1038093A2039093A30360E070E053
:1035C00080EA9FE30E9400376093A4037093A503F1
:1035D0008093A6039093A7031092980310929903E7
:1035E00010929A0310929B0311FD02C003FF1FC0AB
:1035F0006091B5037091B6038091B7039091B803C1
:103600006093AD037093AE038093AF039093B003C8
:103610009B01AC010E945839D10152966D937D9364
:103620008D939C935597077F009397030FC0F101EB
:1036300062897389848995890E94F7396093AD0303
:103640007093AE038093AF039093B003F2E1FE9DBD
:10365000C001FF9D900D11249C01245C3C4F790119
:10366000D90151961C928091600281FF1AC0F1012C
:10367000818985FF16C022A533A544A555A560E024
:1036800070E080E89FE30E9400376093C10370936D
:10369000C2038093C3039093C403E1E0D701519622
:1036A000EC931092A9031092AA031092AB0310920C
:1036B000AC03D1015A962D913D914D915C915D974E
:1036C0002D833E834F83588760E070E080E09FE366
:1036D0000E9400374B015C01F101468C578C60A0C1
:1036E00071A011FF4BC0F2E0F093A803D1015296F4
:1036F000CD90DD90ED90FC905597A70196010E942A
:1037000058399B01AC01C301B2010E9400364B0144
:103710005C0120E030E0A9010E94F63687FF1DC061
:103720002D813E814F815885CA01B9010E94013621
:10373000A30192010E9458399B01AC01C701B60157
:103740000E9400360E94F7396093B5037093B60368
:103750008093B7039093B803A8C18092A903909275
:10376000AA03A092AB03B092AC031092B5031092DF
:10377000B6031092B7031092B80397C11092A80332
:103780004092B9035092BA036092BB037092BC039B
:1037900012FF0CC01092B5031092B6031092B7033B
:1037A0001092B803C12CD12C760124C0E091C8033B
:1037B000EF5FE03109F4E0E08091E9068E1759F0FF
:1037C000B2E3BE9FF0011124E753FC4FC288D388B7
:1037D000E488F58803C0C12CD12C7601C701B6015D
:1037E0000E94F7396093B5037093B6038093B703D3
:1037F0009093B803C1010E949017698B7A8B8B8BD1
:103800009C8B9B01AC010E94583969877A878B8712
:103810009C87D10152962D913D914D915C91559788
:1038200029833A834B835C830E94F63687FF6CC002
:1038300029853A854B855C8569817A818B819C815C
:103840000E940036A50194010E9458399B01AC01E9
:10385000C301B2010E9400366093B9037093BA03AA
:103860008093BB039093BC0320E030E0A9010E9449
:10387000F63618163CF1B2E0B093A8032D813E81D4
:103880004F815885CA01B9010E940136A3019201F6
:103890000E9458399B01AC0169817A818B819C819E
:1038A0000E9400360E94F7396093B5037093B60307
:1038B0008093B7039093B8038091970388608093B7
:1038C0009703F3C0A701960169857A858B859C854E
:1038D0000E940036A50194010E9458396093BD03EF
:1038E0007093BE038093BF039093C00329893A89E4
:1038F0004B895C892093B1033093B2034093B303A7
:103900005093B40333E0B6C0A701960169817A8170
:103910008B819C810E940036A50194010E94583938
:10392000A30192010E94013620E030E040E05FE315
:103930000E9458396D877E878F87988B20E030E012
:10394000A9010E94183918160CF097C02D853E85E4
:103950004F855889C301B2010E94183918160CF01E
:1039600088C0A701960169857A858B859C850E9410
:103970000036A50194010E9458399B01AC01609367
:10398000BD037093BE038093BF039093C0036D8506
:103990007E858F8598890E9418391816CCF58989FB
:1039A0009A89AB89BC898093B1039093B203A093A9
:1039B000B303B093B40329813A814B815C8169855B
:1039C0007A858B859C850E94F636811104C091E032
:1039D0009093A8036AC029813A814B815C816985F3
:1039E0007A858B859C850E940036A50194010E94F2
:1039F00058399B01AC01C301B2010E9400366093AB
:103A0000B9037093BA038093BB039093BC034DC07A
:103A10002D853E854F8558892093B9033093BA038D
:103A20004093BB035093BC032093BD033093BE036C
:103A30004093BF035093C0032D813E814F81588531
:103A4000CA01B9010E9401362D853E854F855889EE
:103A50000E945839A70196010E9401360E94F73949
:103A60006093B1037093B2038093B3039093B40354
:103A70001CC032E03093A80318C01092B903109212
:103A8000BA031092BB031092BC038091B5039091CE
:103A9000B603A091B703B091B8038093B10390939C
:103AA000B203A093B303B093B403186010930E0253
:103AB00080913B03482F50E05E834D8387E0849FD5
:103AC000F001859FF00D1124EF5EFC4F809196036D
:103AD0008483A091ED06B091EE06BFAFAEAF5E96C7
:103AE000BC91BEA3EEADFFADF78DFFA3AEADBFADF4
:103AF0009096BC91B8A7EEADFFADF1A1F9A72091CA
:103B0000A4033091A5034091A6035091A7036EA191
:103B10007FA18B2F9F2F0E9400366AAB7BAB8CABB3
:103B20009DAB20E030E0A9010E94F63687FF04C07B
:103B30001AAA1BAA1CAA1DAA2091B9032987309191
:103B4000BA033D874091BB03498B5091BC035D8B09
:103B50008091B1038A8F9091B2039B8FA091B303A0
:103B6000AC8FB091B403BD8F6090AD037090AE0385
:103B70004090AF035090B003E091BD03EAA7F091ED
:103B8000BE03FBA72091BF032CA73091C0033DA724
:103B90004091A80349835091A9035EA78091AA038D
:103BA0008FA79091AB0398ABA091AC03A9ABB09158
:103BB000B503BFABE091B603E8AFF091B703F9AF3F
:103BC0002091B8032AAF2AA53BA54CA55DA5698520
:103BD0007D8589899D890E94F636811103C032E076
:103BE0003EAB02C041E04EAB2EA03FA008A519A5F8
:103BF0008EE3C82E83ECD82E8EE2E82E89E3F82ED1
:103C00001E8A1F8A188E198ECE8EDF8EE8A2F9A228
:103C10009981913009F4D4C008F472C0AEADBFAD43
:103C20005A962D913D914D915C915D97933009F09D
:103C3000F9C0C701B6010E9458394B015C0120E070
:103C400030E040E05FE30E9458399B01AC01B301D2
:103C5000C2010E940036A70196010E9458396AA34A
:103C60007BA38CA39DA39B01AC01B101C8010E9461
:103C700000361B018C0129853D8549895D890E949B
:103C8000F63687FD0BC020E030E0A9016AA17BA1D8
:103C90008CA19DA10E94F63618165CF129853D8500
:103CA00049895D896EA17FA188A599A50E940036EA
:103CB0009B01AC010E9401366B017C019301A201C2
:103CC0006A8D7B8D8C8D9D8D0E9401369B01AC0190
:103CD000C701B6010E9400376B017C016A8C7B8CA6
:103CE0004C8C5D8C29843D8409891D89B1E0B983A0
:103CF000FFC0A5019401B301C2010E9400365DC05E
:103D0000EEADFFAD228D338D448D558DC701B601CB
:103D10000E9458394B015C0120E030E040E05FE355
:103D20000E9458399301A2010E940136A701960111
:103D30000E9458399B01AC01B101C8010E940036B4
:103D40001B018C019B01AC0169857D8589899D8959
:103D50000E94183918165CF529853D8549895D89C9
:103D60006EA17FA188A599A50E9400369B01AC0198
:103D70000E9401366B017C019301A2016A8D7B8D4B
:103D80008C8D9D8D0E9401369B01AC01C701B6014F
:103D90000E9400376B017C016A8C7B8C4C8C5D8CA3
:103DA000FEA9F98329843D8409891D89A1C0A50143
:103DB0009401B301C2010E9401363B012C0198C05D
:103DC0002A8D3B8D4C8D5D8DC701B6010E945839FF
:103DD0009B01AC01B101C8010E9400365B014C019E
:103DE0009B01AC016AA57BA58CA59DA50E941839F5
:103DF00018160CF07BC02AA53BA54CA55DA5B1010A
:103E0000C8010E9400362A8D3B8D4C8D5D8D0E942D
:103E100000376B017C012AA43BA40CA51DA522E060
:103E2000298366C0C701B6010E9458394B015C0165
:103E30009301A2010E94F63687FF31C020E030E0F6
:103E400040E05FE3C501B4010E9458399B01AC0119
:103E5000B301C2010E940036A70196010E945839A1
:103E60009B01AC01B101C8010E9400366AA37BAF7F
:103E70008CAF9DAF2EA53FA548A959A90E9418391E
:103E800018166CF4A5019401B301C2010E9400361A
:103E90003B012C012AA03BAC0CAD1DAD29C02EA5C9
:103EA0003FA548A959A9B101C8010E9400369B014C
:103EB000AC010E9401366B017C019301A2016FA944
:103EC00078AD89AD9AAD0E9401369B01AC01C70166
:103ED000B6010E9400376B017C016FA878AC49AC39
:103EE0005AAC2EA43FA408A919A902C01501840147
:103EF000A70196016E897F89888D998D0E94013670
:103F00006E8B7F8B888F998F2E8D3F8D48A159A105
:103F10000E94F63687FF09C02E893F89488D598D4A
:103F20006E8D7F8D88A199A11CC02AA93BA94CA99F
:103F30005DA9B101C8010E941839181624F52EE3B5
:103F400033EC4EE259E36E8D7F8D88A199A10E94DA
:103F500001366E8F7F8F88A399A32E893F89488D64
:103F6000598D0E9400366B017C019101A8016EA55C
:103F70007FA588A999A90E94F63687FD49CEB98107
:103F8000B093A80303C0E981E093A803C301D20161
:103F90008093AD039093AE03A093AF03B093B003AF
:103FA000E091EB06F091EC069189911104C08091AB
:103FB0000E0283FF3FC0AEADBFAD51968C915197BD
:103FC000807349F19E96CD90DD90ED90FC90D19755
:103FD0009923D1F02091C1033091C2034091C303D2
:103FE0005091C4036091AD037091AE038091AF0313
:103FF0009091B0030E9458399B01AC01C701B601F2
:104000000E9458396B017C01C701B6010E943C0235
:104010008093C5030AC010921702109218021092E2
:10402000190210921A021092C50380910E02877F26
:1040300080930E0247E02D813E81429FF001439F15
:10404000F00D1124EF5EFC4FFA87E9878091C503DC
:1040500086832091A0033091A1034091A203509147
:10406000A303B101C8010E9458392B013C010E94F1
:10407000DF366B017C0160919C0370919D03809100
:104080009E0390919F030E94DF364B015C01A701C4
:1040900096010E9400360E94793769837A838B8368
:1040A0009C83E981FA81A985BA85ED93FC93EF2B76
:1040B00041F480910E0281FF04C0816080930E0262
:1040C0000AC1209198033091990340919A0350912D
:1040D0009B036E897F89888D998D0E94013669873F
:1040E0007A878B879C87A3019201C501B4010E9446
:1040F00000369B01AC0169857A858B859C850E9481
:1041000000374B015C0120EC31EE44E65EE40E9496
:1041100058390E94DF360E947937603D37E07307D7
:104120008105910560F4A7E04D815E81A49FF001B7
:10413000A59FF00D1124EF5EFC4F158253C0603A2D
:10414000BFE07B078105910560F447E02D813E814A
:10415000429FF001439FF00D1124EF5EFC4F51E0B0
:1041600011C06034AFE17A078105910568F447E03A
:104170002D813E81429FF001439FF00D1124EF5E9F
:10418000FC4F52E055830CC027E0AD81BE812A9FD1
:10419000F0012B9FF00D1124EF5EFC4F33E03583CF
:1041A000A7E04D815E81A49FF001A59FF00D112431
:1041B000EF5EFC4F2581022E04C09695879577957A
:1041C00067950A94D2F749815A8102C0440F551F5E
:1041D0002A95E2F7518340836115710551E0850707
:1041E000910568F427E0AD81BE812A9FF0012B9FE5
:1041F000F00D1124EF5EFC4F7383628304C04FEF18
:104200005FEF538342838091EA0680933B038F5F85
:10421000863019F08093EA0602C01092EA06E09117
:10422000ED06F091EE06C101D801868F978FA0A30D
:10423000B1A3C0929C03D0929D03E0929E03F092A2
:104240009F03A3019201C701B6010E940036A50198
:1042500094010E9458396093980370939903809356
:104260009A0390939B032091A9033091AA03409154
:10427000AB035091AC03B101C8010E94F636811125
:10428000F4C820E030E0A901B101C8010E9418394A
:1042900090910E02181614F092FF04C09160909352
:1042A0000E0219C01092EE061092ED069091C8030E
:1042B0008091E906891709F4D8C881E0890F803117
:1042C00009F480E02091C603921302C08093C603D4
:1042D0008093C803CAC8EF960FB6F894DEBF0FBE2E
:1042E000CDBFDF91CF911F910F91FF90EF90DF90A5
:1042F000CF90BF90AF909F908F907F906F905F9086
:104300004F903F902F900895CF93DF93C091ED068B
:10431000D091EE062097C9F0809197038160809339
:1043200097036091AD037091AE038091AF039091BC
:10433000B0039B01AC010E9458396A8B7B8B8C8B3C
:104340009D8B1092EE061092ED06DF91CF910895AD
:104350002F923F924F925F926F927F928F929F9295
:10436000AF92BF92CF92DF92EF92FF920F931F9383
:10437000CF93DF933090E906311002C0D0E101C045
:10438000D32DD150C091C603CD1709F416C1ED2E1F
:10439000F12C22E3D29F8001112407531C4FF80116
:1043A000A688B788C08CD18C628D738D848D958DD5
:1043B0009B01AC010E940136F801268D378D40A18A
:1043C00051A10E9458394B018C019B01AC01B501F0
:1043D000C6010E94F63687FD02C05401680182E3DF
:1043E0008E9DF0018F9DF00D1124E753FC4FC50108
:1043F000D601828B938BA48BB58BD11101C0D0E1F8
:10440000D150CD1307C08091C803C81368C00E9463
:10441000842165C022E32E9DC0012F9D900D1124A3
:104420009C0127533C4F790192E3292EAD2EB12CEC
:104430002A9CC0012B9C900D1124FC01E753FC4FDA
:104440006F01D11101C0D0E1D1508091C8038D130B
:1044500002C00E9484212A9C80012B9C100D1124F3
:1044600007531C4FF80186889788A08CB18CA50152
:10447000940162897389848995890E94F63688231C
:1044800059F1F801628D738D848D958D9B01AC017E
:104490000E940136F801268D378D40A151A10E945E
:1044A0005839F70122893389448955890E94013698
:1044B0002B013C019B01AC01C501B4010E941839DC
:1044C000F80118162CF4428A538A648A758A04C04B
:1044D000828A938AA48AB58A7601CD13A7CFF2E3A4
:1044E000CF9F8001112407531C4FCF5FC03109F4C7
:1044F000C0E0D091C60382E3282EC31509F45BC047
:10450000CC2ED12C2C9CC0012D9C900D11249C01F3
:1045100027533C4F7901F801428853886488758895
:10452000F90182889388A488B588A5019401C30104
:10453000B2010E94F63687FF24C0F801628D738DA8
:10454000848D958D9B01AC010E940136F801268D6A
:10455000378D40A151A10E945839A30192010E94B8
:1045600001362B013C019B01AC01C501B4010E9445
:104570001839181634F4F701428A538A648A758A06
:10458000DC2F2C9CF0012D9CF00D1124E753FC4FE7
:1045900026893789408D518D6289738984899589EF
:1045A0000E94F636811101C0DC2FCF5FC03109F4C3
:1045B000C0E08701A2CFD093C603DF91CF911F91B6
:1045C0000F91FF90EF90DF90CF90BF90AF909F90B2
:1045D0008F907F906F905F904F903F902F900895B5
:1045E0002F923F924F925F926F927F928F929F9203
:1045F000AF92BF92CF92DF92EF92FF920F931F93F1
:10460000CF93DF93CDB7DEB7C454D1090FB6F8947A
:10461000DEBF0FBECDBF3B010091E906202E312C3D
:1046200022E3229DA001239D500D1124BA0167535E
:104630007C4F7AAF69AFFB0111922A95E9F7F3013C
:104640002085FB01218BF3014481558166817781AF
:10465000E9ADFAAD46A757A760AB71AB21FF40C0EB
:104660002CE0E1EFF1E0DE01599601900D922A95E0
:10467000E1F78BAB9CAB2BE132E03EAB2DABBE0147
:10468000635F7F4F23967FAF6EAF2397CE0149962E
:1046900021969FAF8EAF2197E2E30E9FC0011124B8
:1046A0009C0127533C4F3EAF2DAF685E7F4F7CAFE0
:1046B0006BAF78AF6FAB10E082E3829D9001839D7A
:1046C000300D1124C90187539C4FFC013C9625965F
:1046D000FFAFEEAF25972C01F0E14F0E511C3CC00F
:1046E0002CE0E1EFF6E0BFCFEDADFEAD21933193CD
:1046F00041935193FEAFEDAF2596EEADFFAD2597FB
:10470000C080D180E280F380C216D306E406F506AD
:1047100010F469017A012596EEADFFAD2597C082B0
:10472000D182E282F3820E94AA37A50194010E94FD
:104730000037EFA9F8AD6193719381939193F8AF2E
:10474000EFAB20E030E0A9010E94F63687FD42C0C1
:104750001F5F133009F44CC0EBA9FCA96191719162
:1047600081919191FCABEBABEDA9FEA98190919069
:10477000A190B190FEABEDABA50194010E94583918
:104780000E9425392396EEADFFAD23976193719377
:10479000819391932396FFAFEEAF23972196EEADD1
:1047A000FFAD2197C190D190E190F1902196FFAF9C
:1047B000EEAF21976C197D098E099F099B01AC0111
:1047C00097FF92CF22273327A901261B370B480BCF
:1047D000590B8ACF112321F0113021F080E803C05A
:1047E00080E201C080E4F2019081892B8083B0CF08
:1047F000CD28CE28CF2809F496C1CE0185960E94F7
:10480000DE314B015C0122E3229DC001239D900D0E
:1048100011249C0127533C4F7901F901868E978E14
:10482000A0A2B1A2BE016B5D7F4F83E392E00E9424
:104830008831F701628F738F848F958FBE016B5D16
:104840007F4F87E292E00E948831F70166A377A349
:1048500080A791A7118910FD12C0F3012081318139
:104860004281538113FD06C0F70122A733A744A755
:1048700055A709C0C501B4010E945839F70162A7C4
:1048800073A784A795A78091C803081711F011FF9B
:104890000DC082E3829DF001839DF00D1124E7534A
:1048A000FC4F128A138A148A158A54C02DEF36E001
:1048B0003CAB2BAB8E010F5F1F4FBE016F5C7F4F78
:1048C0007AAB69ABC12CD12C76010DAB1FABEBA938
:1048D000FCA981909190A190B190FCABEBABEBADBA
:1048E000FCAD4190519061907190FCAFEBAFA30192
:1048F0009201C501B4010E9458399B01AC01C70166
:10490000B6010E9400366B017C01A5019401C30130
:10491000B2010E940036F8016193719381939193E3
:104920008F0129A93AA96BAD7CAD2617370779F617
:104930002FEE3FEF4FE75FE3C701B6010E94183942
:1049400018166CF482E3829DF001839DF00D112412
:10495000E753FC4F12A213A214A215A271C02FEEAE
:104960003FEF4FE75FEBC701B6010E94F63687FFC6
:1049700011C082E3829DF001839DF00D1124E75365
:10498000FC4F89E996E7A6E9BEE782A393A3A4A317
:10499000B5A356C08DA99FA90E94DE316DA97FA93C
:1049A00083E392E00E9488314B015C01A7019601EC
:1049B00060E070E080E89FE30E94003620E030E095
:1049C00040E05FE30E9458390E94F7396B017C0197
:1049D0002091500230915102409152025091530265
:1049E000C501B4010E945839A70196010E945839A7
:1049F0004B015C01A701960160E070E080E89FE355
:104A00000E9400369B01AC01C501B4010E94003731
:104A10006B017C0120E030E0A9010E94F63687FF9F
:104A200003C0C12CD12C760182E3829DF001839DCD
:104A3000F00D1124E753FC4FC2A2D3A2E4A2F5A2C9
:104A400082E3829D8001839D100D112407531C4F2A
:104A5000F801818981FD69C089AD9AAD0E949017E6
:104A60006B017C018090090790900A07A0900B07CA
:104A7000B0900C07A50194010E94183918162CF467
:104A8000A5019401C501B40104C0A7019601C701A5
:104A9000B6010E945839F801668B778B808F918F11
:104AA00082E3829D8001839D100D112407531C4FCA
:104AB000F80182A093A0A4A0B5A0A50194016689E5
:104AC0007789808D918D0E94183918162CF4F80181
:104AD000868A978AA08EB18EC0920907D0920A0763
:104AE000E0920B07F0920C078CE0FE01B596ADEF5B
:104AF000B6E001900D928A95E1F78CE0FE013D96BB
:104B0000A1EFB6E001900D928A95E1F78091C7037D
:104B10008093E9068F5F803109F480E08093C703BA
:104B20000E94A82102C080E001C081E0CC5BDF4F81
:104B30000FB6F894DEBF0FBECDBFDF91CF911F91AE
:104B40000F91FF90EF90DF90CF90BF90AF909F902C
:104B50008F907F906F905F904F903F902F9008952F
:104B6000CF93DF930E94B63280E3E6E9F3E0DF0102
:104B70001D928A95E9F7CDEED2E083E2FE01119213
:104B80008A95E9F71092EE061092ED061092100346
:104B900010923B0381E08093EA061092EC020E949F
:104BA00085328091EB028F878BB1837E9091EA02F0
:104BB000892B8BB98BB18F719091EB02892B8BB9BB
:104BC000DF91CF9108953F924F925F926F927F92C3
:104BD0008F929F92AF92BF92CF92DF92EF92FF920D
:104BE0000F931F93CF93DF93CDB7DEB7A4970FB684
:104BF000F894DEBF0FBECDBF10910E07112391F1C7
:104C000081E080930A0289EA92E00E94642D812F5C
:104C10000E943E2D0E94732D85EF91E0019739F09F
:104C2000EFE9FFE03197F1F700C00000F7CF115036
:104C3000123030F08FB7F89410920E078FBF12C069
:104C400083EA92E00E94642D81E992E00E94642D43
:104C50000E94FF2E80E10E947A2B80910D0784FF35
:104C6000FCCFE8CF10910D07112309F4C0C214FF47
:104C700004C081E080930B02C4C310FFC4C18CE068
:104C8000E1EFF1E0DE01599601900D928A95E1F78E
:104C9000BE01675E7F4FCE010D960E94CB2B8CE349
:104CA0000E94130280910A028830E1F058F48130AA
:104CB00099F1A8F0823099F1843009F043C084EF73
:104CC00092E03EC0803229F118F4803171F03AC090
:104CD000803441F18038B1F58CED92E031C087E04D
:104CE00093E02EC083E093E02BC080910C0287FDFF
:104CF00010C08DEF92E00E94642D80910C0280FF25
:104D000006C080E31AC082FF17C085FFFACF81E397
:104D100014C089EF92E014C08EEE92E011C088EECC
:104D200092E00EC082EE92E00E94642D80910C020F
:104D300083FFE9CF83E301C082E30E94130202C034
:104D40000E94642D80914F02F82FF170BF2E80FFDA
:104D500007C080911602882319F085ED92E053C0B8
:104D60004090AC025090AD026090AE027090AF02E5
:104D700044E9842E42E0942E9E012F5F3F4F79013B
:104D8000CE010D966C0100E0F40161917191819169
:104D900091914F0120853185428553850E940136CE
:104DA000F7016083718382839383023061F4A301EE
:104DB00092010E940136F70160837183828393839D
:104DC000BB2019F0CACFB11011C0F7012081318189
:104DD00042815381F60160817181828193810E94B9
:104DE0000036F60160837183828393830F5FF4E062
:104DF000EF0EF11C24E0C20ED11C033029F6B110D5
:104E0000ACCF8EEC92E00E94642DCE010D960E94F4
:104E1000252D80914F0281FF1FC089EC92E00E94F6
:104E2000642D9091E9068091C803981710F0815F76
:104E300001C08150891B0E943E2D8CE20E9413020A
:104E40008091F0069091EF06981710F0805801C0FD
:104E50008150891B0E943E2D84EC92E00E94642DBB
:104E600080910A028C7749F06091AD037091AE0396
:104E70008091AF039091B00303C060E070E0CB017C
:104E80000E94072D8CE20E9413026091170270911C
:104E900018028091190290911A0240E00E946A2C37
:104EA0000E945D2FF82E0E940C2C082F86B1982F9F
:104EB00090728091F001E92EE8268F2D802B8E29AB
:104EC00081F18FEB92E00E94642DEE2019F080E5D5
:104ED0000E941302FF2079F0F0FE03C088E50E94D3
:104EE0001302F1FE03C089E50E941302F2FE03C023
:104EF0008AE50E9413020023A1F000FF03C084E4AE
:104F00000E94130201FF03C082E50E94130202FF08
:104F100003C088E40E94130203FF03C083E50E94DC
:104F2000130280911602882321F08150809316028B
:104F300018C080910A028C7711F08DE101C089E0E0
:104F40008093160280911502811103C081E0809345
:104F5000150289EB92E00E94642DCE0101960E9419
:104F6000252D00911502002321F001500093150218
:104F700042C080910A028C7711F083E101C089E080
:104F80008093150284EB92E00E94642D80911102BF
:104F90000E943E2D8CE20E941302809112020E9418
:104FA0003E2D8CE20E941302809113020E943E2D3E
:104FB0008091B00087FF05C02D9B02C002E001C0B8
:104FC00001E0439B03C0FF24F39403C0002399F046
:104FD000F12C80EB92E00E94642D002339F0013027
:104FE00011F483E501C083E40E941302FF2019F04D
:104FF00086E40E9413028EE30E9413020E94732D26
:1050000081E00E947A2B812F887E09F467C080910D
:105010000A02982F937009F050C08872A1F0809115
:105020000C02807C81F40E94842182E080930E0235
:1050300080910A02803239F417FDE1C180910C029F
:10504000806880930C0280910A02811103C091E074
:1050500090930C0216FF07C085FD05C090910C02CD
:10506000906490930C0213FF05C0807E19F480E1D8
:1050700080930A0215FF21C083EA92E00E94642D0A
:105080008FE492E00E94642D0E94FF2E80910C021A
:1050900087FD0EC090910A02903439F483FFABC1B2
:1050A000837E826080930C02A6C1903809F0A3C170
:1050B00080910C02806280930C0217FF0CC08091DB
:1050C0000A02813029F480910C02856080930C02E1
:1050D00080E880930A0288EE0E947A2B11FF44C078
:1050E000812F8876F1F580910A02803471F48091E5
:1050F0000C0285FD0AC084FF03C010920A0205C09D
:1051000082FF03C0886080930C0280910A0288238A
:1051100081F084FF26C090910C0290FF22C0803164
:1051200041F480911402882321F088608093140256
:1051300018C010920E020E940318892B71F0809102
:105140000C0286FD0AC010920C0288E080930A02CD
:105150000E94171A0E94343504C010920C0210925B
:105160000A0282E00E947A2B12FF41C080910A025B
:10517000807D90910C028823D9F080910D028111DD
:1051800017C097FD15C00E9484218091C8038093A9
:10519000C6030E94A82180910E0281FF05C0909154
:1051A0000C02916090930C02897F80930E021CC0C8
:1051B00097FF0AC010920E020E9413180E94B02599
:1051C0000E9415030E94743280910C0285FF08C072
:1051D0008F77816080930C0280E480930A0204C080
:1051E00010920C0210920A0284E00E947A2B909195
:1051F0000F07992309F4ABC08FB7F89410920F07EB
:105200008FBF4091110290FD02C0842F01C084E63F
:1052100091FD865F92FD8A5093FD8F5F94FD8150D2
:10522000893C08F088EC8A3008F48AE03091120258
:1052300095FD02C0232F01C024E696FD22E397FDD1
:1052400029E1481303C0231709F481C08093110298
:1052500020931202109215021091C8033090E906B3
:1052600089E9D82E96E7E92E26E9F22E0EE732E3F9
:10527000432E131509F457C0812E912C489CC00170
:10528000499C900D1124FC01E753FC4F5F01CF01B5
:105290000E949017562E672E782EC92E2D2D3E2D4A
:1052A0004F2D502F0E94183918164CF42D2D3E2DDD
:1052B0004F2D502F6D2D7E2D8F2D902F08C0252D19
:1052C000362D472D5C2D652D762D872D9C2D0E942A
:1052D0005839F501668B778B808F918F489CC00180
:1052E000499C900D11249C0127533C4F7901F901F1
:1052F00082A093A0A4A0B5A0A50194016689778996
:10530000808D918D0E94183918162CF4F701868A29
:10531000978AA08EB18E1F5F103109F410E0D52C52
:1053200073010C2DA6CF8D2D9E2DAF2DB02F809308
:10533000090790930A07A0930B07B0930C070E94EC
:1053400084218091C8038093C6030E94A821909174
:105350001007992309F448C08FB7F89410921007EA
:105360008FBF2091130290FD02C0822F01C084E6FE
:1053700091FD865F92FD8A5093FD8F5F94FD815071
:10538000893C08F088EC8A3008F48AE0281749F054
:1053900020910E02286020930E0280931302109237
:1053A000150280910A0295FF0DC0803159F42091B9
:1053B0001402211102C022E003C020FF03C02460B8
:1053C00020931402907C81F0882311F0887161F0A1
:1053D0001091780216FF02C01F7B01C01064812F5C
:1053E0000E942F021093780280910A028C7F49F06C
:1053F0000E94171A06C080E480930A0259CE80E208
:1054000029CEA4960FB6F894DEBF0FBECDBFDF91B4
:10541000CF911F910F91FF90EF90DF90CF90BF90B1
:10542000AF909F908F907F906F905F904F903F9044
:105430000895CF92DF92EF92FF921F93CF93DF9365
:105440000E94E32580910C02882309F4FCC00E948D
:105450000318009771F4C091790280917802C82BEB
:10546000C0907B02D0907C02E0907D02F0907E02A2
:1054700006C0FC01C189C6A4D7A4E0A8F1A8809108
:10548000600281FF03C080E20E94622BDC2FD07398
:1054900011E0C07480910C02882309F4D4C090916B
:1054A0000B029111D0C080FFCBC090910A02292F2E
:1054B000207C09F47AC082FD12C01092140240E0F0
:1054C00050E0BA0180E00E94CB0280E00E942F02EF
:1054D00080910C028D7F846080930C02B1C0903863
:1054E000E1F483EA92E00E94642D8CE092E00E9455
:1054F000642D0E94FF2E40E050E0BA0180E00E943F
:10550000CB0280E00E942F020E94B63280910B02F3
:10551000811199C00E94E325F9CF903449F40E948B
:105520000C2C80FD05C080910C028F7D80930C02B5
:1055300080910C0283FF84C0909179029923C1F07D
:1055400081FD16C08091600281FF06C080910E022D
:10555000886080930E020CC0B701A6018D2F0E94B7
:10556000CB0241E060E070E080E890E40E944532C8
:1055700080917802882371F080910C0281FD0AC02D
:105580008C2F0E942F0241E060E070E080E89FE3F2
:105590000E94453280910C0281FD52C0806180934F
:1055A0000C0282E00E94842B4BC08091140288235D
:1055B000C9F181FF0DC0809179028823B1F040E0EC
:1055C00050E0BA0180E00E94CB021093140238C070
:1055D0008C70B1F18091790281110AC0809114021E
:1055E00083FF03C082E00E94842B1092140228C023
:1055F00083EA92E00E94642D85E192E00E94642D8E
:105600000E94FF2E8091600281FF06C080910E02F1
:10561000886080930E02E2CFB701A6018D2F0E9411
:10562000CB02DCCF80910E0283FF0AC0B701A60136
:105630008D2F0E94CB0280910E02877F80930E02F5
:105640000E94E32527CFDF91CF911F91FF90EF902C
:10565000DF90CF9008950E940318892B19F082E003
:105660000C94842B0895CF93DF93C1E1D7E0899107
:10567000882319F00E941302FACFDF91CF91089589
:10568000CF93DF9321E5829FC0011124EC01DD5F00
:1056900040E550E0BE0181E197E00E94B219892BFC
:1056A00069F4109211070E94D80140E550E061E1D1
:1056B00077E0CE010E94241880E001C081E0DF91F4
:1056C000CF9108959FB7F89420911007822B809373
:1056D00010079FBF08959FB7F89420910F07822B62
:1056E00080930F079FBF08959FB7F89480930E078C
:1056F0009FBF08952FB7F89490910D078095892347
:1057000080930D072FBF08959FB7F89420910D0740
:10571000822B80930D079FBF08958F929F92AF9227
:10572000BF92EF92FF920F931F93CF93DF93EC0101
:105730000FE312E07C018CE0E80EF11C8990999057
:10574000A990B99020E030E0A901C501B4010E9400
:10575000F63687FD14C0F80181919191A191B19124
:105760008F019C01AD015058C501B4010E94183948
:1057700018162CF0CE15DF0509F780E001C081E096
:10578000DF91CF911F910F91FF90EF90BF90AF905D
:105790009F908F9008958F929F92AF92BF92CF92D9
:1057A000DF92EF92FF920F931F93CF93DF93EB0162
:1057B0002BE1E22E22E0F22E8C016B018CE0C80E70
:1057C000D11C6991799189919991F701819091907A
:1057D000A190B1907F010E94AA37A50194010E9477
:1057E0000037F80161937193819391938F01CC15E8
:1057F000DD0539F7DF91CF911F910F91FF90EF9069
:10580000DF90CF90BF90AF909F908F9008950E94AF
:10581000D80110921602089596B1892F877071F001
:1058200081E0292F227091FD80E090FF826021119C
:1058300001C0846092FD03C08860089580E00895EF
:105840001F920F920FB60F9211242F933F934F93F5
:105850005F936F937F938F939F93AF93BF93EF93D8
:10586000FF930E940C2C882391F081FF03C00E94BB
:1058700035030DC083FF04C080910D07826005C011
:1058800080FF05C080910D07806280930D07FF9116
:10589000EF91BF91AF919F918F917F916F915F91A8
:1058A0004F913F912F910F900FBE0F901F90189521
:1058B0001092F0019091600297FD03C090E29093E6
:1058C000F001882331F09091F00180E289278093E4
:1058D000F00108958F929F92AF92BF92CF92DF9284
:1058E000EF92FF920F931F93CF93DF93CDB7DEB765
:1058F0002D970FB6F894DEBF0FBECDBF6B017C01B4
:10590000042F20E030E0A9010E94F63687FF07C08F
:105910008DE20E941302F7FAF094F7F8F094102F3A
:10592000123060F020E030E048EC52E4C701B601EC
:105930000E9458396B017C011250F2CF00FF0AC05F
:1059400020E030E040E251E4C701B6010E9458393E
:105950006B017C0120E030E040E05FE3C701B6016D
:105960000E9401360E94723710E03AE0832E912C9B
:10597000A12CB12C611571058105910591F0EE24E2
:10598000E394F12CEC0EFD1EE10EF11CA501940137
:105990000E94813A605DF7016083B901CA011F5F0F
:1059A000E9CF80E3101748F4E1E0F0E0EC0FFD1FD1
:1059B000E10FF11D80831F5FF5CF101313C0FE01AF
:1059C000E10FF11D80E381831F5F0CC0101303C042
:1059D0008EE20E941302FE01E10FF11D80810E9400
:1059E000130211501111F2CF2D960FB6F894DEBFAD
:1059F0000FBECDBFDF91CF911F910F91FF90EF9020
:105A0000DF90CF90BF90AF909F908F90089520919E
:105A1000600220FF08C02BE832E441E25DE30E940F
:105A2000583941E001C040E00C946A2C209160029A
:105A300020FF08C02BE832E441E25DE30E945839C0
:105A400044E001C043E00C946A2C0F931F93CF9362
:105A50008C01C0E0F80161917191819191918F0168
:105A60000E94162DC23019F08CE20E941302CF5F03
:105A7000C33081F7CF911F910F910895CF93DF939A
:105A8000843630F06AE00E94613AC0E3C90F03C077
:105A9000C0E08A3030F06AE00E94613AD0E3D90F6A
:105AA00001C0D0E0805D0E941302DD2319F08D2F2C
:105AB0000E941302CC2329F08C2FDF91CF910C94FC
:105AC0001302DF91CF910895CF93DF93FC0184916E
:105AD000EF012196882321F00E941302FE01F7CFE7
