:100000000C9491010C94A3010C94A3010C94AD01E8
:100010000C94F51D0C94A3010C94A3010C94A30162
:100020000C94A3010C94A3010C94A3010C948A16C4
:100030000C94A3010C94A3010C94A3010C94A301B0
:100040000C943E160C94A3010C94341B0C94B61B18
:100050000C94A3010C94A3010C94A3010C94A30190
:100060000C94A3010C94A301533059305C305F30E1
:1000700064306C3074300F310F310F318130843087
:100080008D3096300F310F310F310F310F310F316D
:10009000A230AC30B830C030C330CC30D530DB30DB
:1000A0000F310F31E430ED30F8309D043810381046
:1000B000A704B204BD04C8043810CC043810DA0414
:1000C0003810E404EE04F80438103810381008052D
:1000D000150522056A1B6C1BA51BA51BA51BA51BD3
:1000E000A51BA51BA51BA51BA51BA51B721B741B74
:1000F000761B781B7A1B7C1B7E1B801BA51B841B1D
:10010000861B881B8A1B8C1B8E1BA51B901B084AF9
:10011000D73B3BCE016E84BCBFFDC12F3D6C74311B
:100120009ABD56833DDA3D00C77F11BED9E4BB4C72
:100130003E916BAAAABE000000803F05A84CCDB23C
:10014000D44EB93836A9020C50B9918688083CA61D
:10015000AAAA2ABE000000803F000D0A4772626C06
:1001600020312E3166205B27242720666F7220689D
:10017000656C705D0D0A00244E005B4F50543A00D0
:100180005B5645523A312E31662E3230313730339C
:1001900030323A005B544C4F3A005B4739323A00F8
:1001A0003330003238005B4700204700204D0020EC
:1001B000530020460020540033382E005B47433A5A
:1001C00047005B484C503A24242024232024472015
:1001D000244920244E2024783D76616C20244E78DA
:1001E0003D6C696E6520244A3D6C696E6520245320
:1001F0004C50202443202458202448207E202120B5
:100200003F206374726C2D785D0D0A00536C656538
:1002100070696E6700526573746F72696E672073E0
:1002200070696E646C6500526573746F72696E6795
:100230002064656661756C74730050676D20456E4F
:100240006400436865636B204C696D697473004397
:100250006865636B20446F6F720044697361626C00
:10026000656400456E61626C656400436175746924
:100270006F6E3A20556E6C6F636B6564002724487F
:10028000277C2724582720746F20756E6C6F636B52
:1002900000526573657420746F20636F6E74696EAD
:1002A0007565005B4D53473A00414C41524D3A0051
:1002B0007C413A007C4F763A007C57434F3A007CB1
:1002C000506E3A007C46533A007C42663A007C57B6
:1002D000506F733A007C4D506F733A00536C6565F4
:1002E0007000446F6F723A00436865636B00416C45
:1002F00061726D00486F6D65004A6F6700486F6CF2
:10030000643A0052756E0049646C65000D0A005B2A
:100310005052423A006572726F723A006F6B0D0A6A
:10032000000011241FBECFEFD8E0DEBFCDBF27E015
:10033000A0E0B1E001C01D92A136B207E1F70E9432
:10034000F12B0C94A83A0C940000F999FECF92BDC1
:1003500081BD81E08FBB80B508951F920F920FB6CB
:100360000F9211242F933F934F935F936F937F933B
:100370008F939F93AF93BF93EF93FF9380911A0155
:10038000813049F080910807811105C00E9425291C
:1003900081E00E94911DFF91EF91BF91AF919F91DC
:1003A0008F917F916F915F914F913F912F910F901E
:1003B0000FBE0F901F90189593B1967180917001A8
:1003C00086FD02C086E19827992349F091FB882792
:1003D00080F992FD8260907119F08460089580E048
:1003E0000895EBE6F0E08081897E8083E8E6F0E026
:1003F00080818E7F8083089584B1897E84B985B1A0
:10040000866185B98091700183FF0BC080916B007C
:10041000866180936B0080916800816080936800A2
:1004200008950C94F10161E071E088E991E00C9489
:10043000AA1D9F92AF92BF92CF92DF92EF92FF924E
:100440000F931F93CF93DF935B018A017C01E40E2E
:10045000F51EEC01912C6B01C81AD90AC6018C0F4C
:100460009D1FCE15DF0589F00E94A501911008C0DF
:10047000292D990C330B232F221F2227221F01C065
:1004800021E0982E920E8993E9CFC501800F911F2C
:100490000E94A50121E030E0981611F020E030E044
:1004A000C901DF91CF911F910F91FF90EF90DF90E5
:1004B000CF90BF90AF909F900895F894F999FECF98
:1004C00092BD81BD81E08FBB80B58627482F082E65
:1004D000000C550B262F30E024233523232B39F035
:1004E0006F3F19F060BD84E006C084E104C088233A
:1004F00021F060BD84E28FBBF99A789408959F92B1
:10050000AF92BF92CF92DF92EF92FF920F931F9321
:10051000CF93DF935C018A017B01E40EF51EEB01B2
:10052000912C6C01C61AD70ACE018C0D9D1DCE15DB
:10053000DF0589F0911008C0292D990C330B232F6A
:10054000221F2227221F01C021E06991922E960EC0
:100550000E945D02E9CF692DC501800F911FDF91D7
:10056000CF911F910F91FF90EF90DF90CF90BF90B0
:10057000AF909F900C945D0290911B01911108C067
:10058000811102C0439802C086FD439A1092250152
:1005900008952F923F924F925F926F927F928F9227
:1005A0009F92AF92BF92CF92DF92EF92FF920F9302
:1005B0001F93CF93DF93CDB7DEB7CA54D1090FB6DF
:1005C000F894DEBF0FBECDBF8AE3E0ECF1E0DF01BF
:1005D0001D928A95E9F78BE0E0E8F1E0A1ECB1E04B
:1005E00001900D928A95E1F780911107843211F004
:1005F0000C94591081E08093C1011092C20183E0F4
:100600008A8FB1E0BBA3212C312C1CA61BA610E0C5
:100610001B8E1F8EEE24E394F12CEAE0AE2EB12C5B
:10062000F1E68F2EF3E09F2E8A8DE82FF0E0EF5E4B
:10063000F84FD080DD2009F435C29FEB9D0D9A3133
:1006400010F00C9428108F5F8A8FBE016A5E7F4F76
:10065000CE014A960E944929882311F40C942A104D
:100660004E885F88688C798CC301B2010E94133A6E
:100670000E945137062F70E080E090E00E948237A0
:100680009B01AC01C301B2010E94D83520E030E0EB
:1006900048EC52E40E9430390E949D390E94513743
:1006A000CB01E7E4DE1629F0FDE4DF1609F4EAC029
:1006B00033C1083209F4C6C020F5043168F40131B1
:1006C00008F08AC0043009F452C008F464C00A304B
:1006D00009F445C00C9438100C3109F440C050F4B2
:1006E000063110F00C94381025E1201B2093C30133
:1006F00026E0ADC00E3199F1063209F44CC00C94DD
:1007000038100D3309F498C0A8F4053381F140F492
:100710000B3209F47AC0013309F477C00C94381015
:100720000C3310F00C9438106AEC600F6093C70122
:1007300029E08DC00C3538F40A3508F053C0003577
:1007400081F10C9438100C3551F00F3510F00C94E9
:1007500038102EE5201B2093C20125E078C00097B9
:1007600031F42F8D21110C942C1031E03F8F009328
:10077000C001202F2D7F2C3119F00C3509F064C0F9
:10078000009721F00A9711F00C943810600F6093D5
:10079000C00120E061C04F8D41110C942C10A2E0EB
:1007A000AF8F0093C101063209F050C0843191052A
:1007B00059F08E31910541F08832910529F082334C
:1007C000910511F00C943810B5010E94453A665716
:1007D0006093C10121E040C06FEE600F6093C501DE
:1007E00022E035C0892B31F466EA600F6093C401C2
:1007F00023E032C06A30710511F00C9438100A35CC
:1008000011F40C94381024E027C0BF8DB1110C9462
:100810002C10013331F41092C60128E0E3E0EF8F91
:100820001BC00A9711F00C943810F1E0F093C60148
:1008300028E033E03F8F10C0892B11F00C94381062
:100840002AE00AC027E003C020E001C021E0892B94
:1008500019F087E10C946010C70102C0880F991F3E
:100860002A95E2F72BA53CA528233923232B19F041
:1008700085E10C946010ABA5BCA5A82BB92BBCA737
:10088000ABA7D2CE892B29F7063018F4033058F0E5
:1008900016C0083010F40C9438100A30F0F00E3105
:1008A00059F00C943810002319F0013001F104C004
:1008B000B3E0B093C8011BC00093C80118C0043056
:1008C00021F0053031F080E101C080E28093CA015F
:1008D00002C01092CA018CE00BC0093021F080E404
:1008E0008093C90102C01092C9018DE001C08BE064
:1008F000F70102C0EE0FFF1F8A95E2F72BA53CA57A
:100900002E233F23232B09F0B3CF2BA53CA52E2B61
:100910003F2B3CA72BA788CE8D2DDD0C990BAA0B66
:10092000BB0BFC01E654F109E531F10510F00C9424
:100930003810EB5AFF4F0C947B3A4092CC01509206
:10094000CD016092CE017092CF0180E087C04092CD
:10095000D0015092D1016092D2017092D301116006
:1009600081E07CC04092D4015092D5016092D601C2
:100970007092D701126082E071C04092D80150920B
:10098000D9016092DA017092DB01146083E066C0E5
:100990000093DC0184E062C0C301B2010E944A37C7
:1009A0006093DD017093DE018093DF019093E0019D
:1009B00085E054C04092E1015092E2016092E3016F
:1009C0007092E40186E04AC04092E5015092E6014F
:1009D0006092E7017092E80187E040C04092E9012F
:1009E0005092EA016092EB017092EC0188E036C00F
:1009F00020E030E04FE753E4C301B2010E94F03839
:100A0000181614F40C942E100093ED0189E026C002
:100A10004092EE015092EF016092F0017092F1016C
:100A20003B8D31603B8F8AE019C04092F2015092B9
:100A3000F3016092F4017092F5014B8D42604B8F8F
:100A40008BE00CC04092F6015092F7016092F801E1
:100A50007092F9018B8D84608B8F8CE06701082E7A
:100A600002C0CC0CDD1C0A94E2F79601222133214E
:100A7000232B11F00C943010D40102C0B595A7952A
:100A80008A95E2F7A0FF0BC020E030E0A901C30186
:100A9000B2010E94CE3687FF02C00C9432102C287F
:100AA0003D28C2CDBB8DBB2329F0EF8DE11102C0E3
:100AB000F2E0FF8F25FE0FC08091DD019091DE01F5
:100AC000A091DF01B091E00181389649A849B105B4
:100AD00014F00C9434103BA1332329F020FC02C005
:100AE0000C943E1018C08091C201813071F44F8D7A
:100AF0004230E1F58091C1018035C1F18823B1F127
:100B000020FC02C00C943E1031C080918101811103
:100B10002DC020FE1BC08091C301813039F523E335
:100B200033E34BEC51E46091CC017091CD018091A5
:100B3000CE019091CF010E9430396093CC01709327
:100B4000CD018093CE019093CF0110C080918F0191
:100B500090919001A0919101B09192018093CC016C
:100B60009093CD01A093CE01B093CF0130FC10C083
:100B700080918B0190918C01A0918D01B0918E019B
:100B80008093E9019093EA01A093EB01B093EC010B
:100B90008091C001843039F426FC03C08CE10C94B0
:100BA0006010E89426F88091C501882369F08130AF
:100BB00029F48FAF1DAE92E09BAF0BC01FAEA2E039
:100BC000ADAFB1E0BBAF05C0E2E0EFAFF1E0FDAF2C
:100BD0001BAE8091C301813021F02F8D2330C9F5E8
:100BE0002FC060ECC62E61E0D62EE12CF12C3B8D9F
:100BF000A32EB12CC5010E2C02C0959587950A94A1
:100C0000E2F780FF12C023E333E34BEC51E4D6015B
:100C10009E966D917D918D919C91D1970E943039D6
:100C2000F60166A777A780AB91ABFFEFEF1AFF0A3B
:100C300024E0C20ED11C33E0E316F104D9F6CDCF87
:100C40008091C601813029F44B8D443011F00C9411
:100C500036108CE0E4EAF1E0DE01119601900D928D
:100C60008A95E1F78BA59CA591FD08C00091C00174
:100C70000A30C9F00C3509F4B3C01EC18091C70118
:100C8000873018F08DE10C946010909186018917DF
:100C900069F3BE016F5F7F4F0E94EB19882311F447
:100CA0000C944C10E3CF9B8D911103C08AE10C94FE
:100CB0006010C10180759927892B09F46FCF60916D
:100CC000E1017091E2018091E3019091E4010E94C1
:100CD000133A0E9451376730A8F68091DC018431C5
:100CE00041F0823011F00C94381027FE02C00C94B1
:100CF0003810AFEA2A22662319F0615069A703C0B1
:100D0000B091C701B9A760ED71E089A50E94EB1908
:100D1000882311F40C944C100091DC014090BC012C
:100D20005090BD016090BE017090BF0140ECE42E78
:100D300041E0F42E50E8A52E51E0B52EC12CD12C67
:100D4000EB8D8E2E912CC4010C2C02C095958795AD
:100D50000A94E2F780FF35C0043151F5D501D096F1
:100D60002D913D914D915C91D39758966D917D91C8
:100D70008D919C915B970E94D835F70126A537A5E8
:100D800040A951A90E94D835D70150966D937D9303
:100D90008D939C935397B2E0CB1213C0A3019201A1
:100DA0000E94D835F701608B718B828B938B09C0C1
:100DB000F70186A597A5A0A9B1A9808B918BA28BDD
:100DC000B38BFFEFCF1ADF0A24E0E20EF11C34E010
:100DD000A30EB11C43E0C416D10409F0B4CF3FC147
:100DE0008B8D882309F462CF4090BC015090BD01E7
:100DF0006090BE017090BF0120E8822E21E0922E0B
:100E0000DE0111967D0130ECC32E31E0D32EA12CF2
:100E1000B12CE82FF0E0F8A7EFA38FA198A50A2C3A
:100E200002C0959587950A94E2F780FF29C0D70103
:100E30002D913D914D915C91F401608D718D828D6C
:100E4000938D0E94D835D6019E962D913D914D915E
:100E50005C91D1970E94D835F60166A777A780AB41
:100E600091ABF2E0AF1216C0A30192010E94D835F7
:100E7000D6019E966D937D938D939C93D1970AC0D6
:100E8000F40180A991A9A2A9B3A9F60186A797A701
:100E9000A0ABB1ABFFEFAF1ABF0A24E0820E911CEA
:100EA00034E0E30EF11C44E0C40ED11C83E0A8162C
:100EB000B10409F0B2CFD2C09F8D933069F40E31E6
:100EC00009F494C0053309F4C3C00C3109F0C6C05D
:100ED00060ED71E086E08DC0AB8DAA2381F3B09107
:100EE000C401BFA34090BC015090BD016090BE0101
:100EF0007090BF0180E8A82E81E0B82E90ECE92E1A
:100F000091E0F92EFE0131964F01C12CD12C2A2FF0
:100F100030E03AA729A789A59AA50C2C02C095957F
:100F200087950A94E2F780FD0BC0F501808D918DC5
:100F3000A28DB38DF70186A797A7A0ABB1AB44C034
:100F4000053309F441C0FFA1F1112BC0D501D096A2
:100F50002D913D914D915C91D397F4016081718108
:100F6000828193810E94D935D7019E962D913D9122
:100F70004D915C91D1970E94D935F70166A777A76B
:100F800080AB91ABF2E0CF121FC0A30192010E948F
:100F9000D935D7019E966D937D938D939C93D19770
:100FA00013C0F501208D318D428D538DD7019E9652
:100FB0006D917D918D919C91D1970E94D935F701CA
:100FC00066A777A780AB91ABFFEFCF1ADF0A24E0CB
:100FD000A20EB11C34E0E30EF11C44E0840E911C1F
:100FE00083E0C816D10409F096CF69CF60ED71E0B7
:100FF00087E00E94EB19882311F40C944C109B8D10
:10100000911103C019A61F8E2AC0A0E8B1E0E0EC40
:10101000F1E080E090E04B8D242F30E0A901082E14
:1010200002C0559547950A94E2F740FD0AC05896CC
:101030004D915D916D917C915B97408B518B628B53
:10104000738B0196149634968330910539F706C058
:101050008091C101823010F00C943A1019A6809151
:10106000C1018FA3803529F49B8D91110C943C1004
:101070007AC2AF8DA23009F076C2BFA1B11104C00F
:10108000EB8DE11170C22AC020E030E0A90160912F
:10109000CC017091CD018091CE019091CF010E9441
:1010A000CE36882309F4EAC7FFA1FC3809F445C20B
:1010B00040F4F230A9F0F330B1F0F13009F053C24E
:1010C0000AC02FA12E3809F438C208F433C22F38D1
:1010D00009F430C248C23B8D311145C21F8E43C254
:1010E0004BA144604BA38B8D882309F4DFCDBBADAE
:1010F000AB2FB0E0B8ABAFA7FDADEF2FF0E0FCAB8E
:10110000EBAB81E090E07C010BAC02C0EE0CFF1C6D
:101110000A94E2F70DAC02C0880F991F0A94E2F717
:10112000E82AF92A2B8D822F90E08E219F21892B8E
:1011300009F4A6C7FD01EE0FFF1FEE0FFF1FE054DD
:10114000FE4FAA0FBB1FAA0FBB1FA856BE4F2D9163
:101150003D914D915C9166A577A580A991A90E94CA
:10116000D8352B013C01EBA9FCA9EE0FFF1FEE0FB8
:10117000FF1FE054FE4FABA9BCA9AA0FBB1FAA0FCB
:10118000BB1FA856BE4F2D913D914D915C9166A518
:1011900077A580A991A90E94D8354B015C01610116
:1011A00030E8C322DD2427FEF5C0E89427F84CE0A0
:1011B00050E06EEE71E088E991E00E949B3A892B45
:1011C00011F481E27DC78091C3018130B1F423E342
:1011D00033E34BEC51E46091E5017091E6018091BD
:1011E000E7019091E8010E9430396093E501709326
:1011F000E6018093E7019093E8018091E5019091E9
:10120000E601A091E701B091E8018FAB98AFA9AFDB
:10121000BAAFA3019201C301B2010E9430392796EF
:101220006CAF7DAF8EAF9FAF2797A5019401C5012D
:10123000B4010E9430392B966CAF7DAF8EAF9FAF5B
:101240002B9720E030E040E850E46FA978AD89ADFD
:101250009AAD0E9430392FA938AD49AD5AAD0E94E0
:10126000303927962CAD3DAD4EAD5FAD27970E942E
:10127000D8352B962CAD3DAD4EAD5FAD2B970E9472
:10128000D8356B017C0120E030E0A9010E94CE3608
:1012900087FDF8C6C701B6010E94CF396B017C01FA
:1012A0002B962CAD3DAD4EAD5FAD2B9727966CAD1B
:1012B0007DAD8EAD9FAD27970E94D9350E94CF3965
:1012C0009B01AC01C701B60190580E94D8366B0152
:1012D0007C019FA1933021F4F7FAF094F7F8F09491
:1012E00020E030E0A9016FA978AD89AD9AAD0E94E8
:1012F000CE3687FF11C0F7FAF094F7F8F0948FA973
:1013000098ADA9ADBAADB0588093E5019093E601D0
:10131000A093E701B093E8010FA518A9000F111FD2
:10132000000F111F00531E4FA7019601C501B40104
:101330000E9430399B01AC01C301B2010E94D83533
:1013400020E030E040E05FE30E943039D8016D9347
:101350007D938D939C9313970BA91CA9000F111FCC
:10136000000F111F00531E4FA7019601C301B201C8
:101370000E943039A50194010E94D93520E030E067
:1013800040E05FE30E943039F8016083718382831B
:101390009383E9C0212F30E038AF2FABE222F32254
:1013A000EF2809F471C631EF23228091C301813007
:1013B00009F47BC0EFA5F8A9EE0FFF1FEE0FFF1F8A
:1013C000E053FE4FC080D180E280F380A7019601F8
:1013D000C301B2010E94D8352B013C01EBA9FCA945
:1013E000EE0FFF1FEE0FFF1FE053FE4F8081918134
:1013F000A281B3818FA798ABA9ABBAAB9C01AD0119
:10140000C501B4010E94D8354B015C01A3019201D2
:10141000C301B2010E9430392B013C01A5019401A6
:10142000C501B4010E9430399B01AC01C301B20176
:101430000E94D9350E94CF394B015C01A70196016A
:10144000C701B6010E9430396B017C012FA538A974
:1014500049A95AA9CA01B9010E9430399B01AC01BE
:10146000C701B6010E94D9350E94CF396B017C01BA
:101470006093E5017093E6018093E7019093E801A2
:101480009B01AC01C501B4010E94D8354B015C0140
:10149000E894B7F82AE037ED43EA5BE3C501B4010D
:1014A0000E94F03818164CF15EC000EC11E08FA9D4
:1014B00098AD0C2C02C0959587950A94E2F780FFB1
:1014C00012C023E333E34BEC51E4D80150966D9105
:1014D0007D918D919C9153970E943039F801608BDA
:1014E000718B828B938BFFEFCF1ADF0A0C5F1F4F3C
:1014F00023E0C216D104D9F65DCF20E030E040E011
:101500005FE3C501B4010E94F03818160CF459CEFF
:101510002FE632E143E85AE3C701B6010E943039B1
:101520009B01AC01C501B4010E94F03818160CF4FF
:1015300048CE19C03BA130613BA38FA18E588230A9
:1015400018F44BA148604BA38B8D882309F4AECBD4
:101550004CE050E06EEE71E088E991E00E949B3A29
:10156000892B09F42ECE2BA121709BA190FF03C0E3
:10157000C1018E7D03C0C1018E7D9C7FAF8DA11105
:10158000937E892B09F082C58E01035F1F4F89E08E
:10159000F80111928A95E9F7222309F44BC08BA533
:1015A0009CA5867B892B09F073C58091C00185338A
:1015B00011F081116DC580918B0190918C01A091EA
:1015C0008D01B0918E01898B9A8BAB8BBC8B9091E6
:1015D000890180918801892B4091CC015091CD01E6
:1015E0006091CE017091CF014D875E876F87788BB8
:1015F00084608D8B8091700185FF06C08EEE91E036
:101600000E949B31811146C5B8018EEE91E00E9487
:10161000753580911A01811141C50E947727892B68
:1016200009F43CC580E280931A010E942D1E0E949D
:10163000D21834C580917001F090890181FF26C0D5
:101640008FA18150833018F0FBA1F064FBA32B8D98
:10165000222339F03F8D323021F44BA140684BA357
:1016600015C080E1F81212C08091800181509BA1C9
:101670009074833030F4992349F09BA190629BA32E
:1016800005C0911103C0ABA1A062ABA38091DD01A5
:101690009091DE01A091DF01B091E001809394016F
:1016A00090939501A0939601B09397018091C20108
:1016B00080938101882311F088E08D8B8091CC018B
:1016C0009091CD01A091CE01B091CF0180938F0177
:1016D00090939001A0939101B09392018D879E8782
:1016E000AF87B88B8090E9019090EA01A090EB0160
:1016F000B090EC01A501940160918B0170918C0177
:1017000080918D0190918E010E94CE36BBA1B07464
:10171000EB2E811103C0EBA1E5FF20C0FF2071F08B
:10172000FBA1F7FD0BC0EE2021F040E050E0BA0134
:1017300002C0B501A4018F2D0E9453318091E901AF
:101740009091EA01A091EB01B091EC0180938B01A3
:1017500090938C01A0938D01B0938E01E1100CC089
:1017600080918B0190918C01A0918D01B0918E019F
:10177000898B9A8BAB8BBC8B8091ED01809393010D
:101780008091CA0190918901981751F049895A892D
:101790006B897C890E9453318091CA0180938901B1
:1017A0009D8980918901892B8D8BF090C901809151
:1017B00088018F15A9F080911A01823029F00E94CA
:1017C00087278F2D0E94BC028091C901811103C01F
:1017D0001092880105C090918801892B809388011F
:1017E0009D8980918801892B8D8B8091C0018430E7
:1017F00099F4C090E101D090E201E090E301F09013
:10180000E40180911A01823039F00E94872740E07C
:10181000C701B6010E94F6288091C501809384011A
:101820008091C301809382012F8D233071F58091C7
:10183000C60180938501811108C01092F6011092B3
:10184000F7011092F8011092F901C090F601D090C2
:10185000F701E090F801F090F901A701960160917D
:10186000BC017091BD018091BE019091BF010E94A9
:10187000CE36882351F0C092BC01D092BD01E092D7
:10188000BE01F092BF010E94D9318091C7019091B1
:101890008601981769F0809386018CE0FE013196ED
:1018A000A4EAB1E001900D928A95E1F70E94D93146
:1018B0008091C401809383018091C0018632F1F14F
:1018C00038F48C3109F18E31F9F08A3069F04FC06B
:1018D0008C35D1F1863609F441C0883209F047C011
:1018E00068E971E087E02DC060ED71E089A50E9494
:1018F000D7198091860139A5381339C08CE0E0ED05
:10190000F1E0A4EAB1E025C08D8981608D8B4F8D17
:10191000442329F0B8018EEE91E00E947535B8019C
:1019200080ED91E00E9475358CE0E0EDF1E0A8E9F2
:10193000B1E001900D928A95E1F719C068E971E074
:1019400086E00E94D71913C08CE0EEEEF1E0A0EB28
:10195000B1E001900D928A95E1F707C08CE0E0EBD1
:10196000F1E0DF011D928A95E9F70E94D93180915B
:10197000C10180938001803509F41CC3BF8DB23052
:1019800009F018C3813021F4BE01635F7F4F06C0A8
:10199000811109C08D8981608D8BB8018EEE91E037
:1019A0000E947535FEC28250823008F093C2809149
:1019B000E5019091E601A091E701B091E8018F8FD8
:1019C00098A3A9A3BAA3ABAD94E0A99F7001112479
:1019D000F701E856FE4FF8A7EFA3970120533E4FBB
:1019E0003AA729A7D9014D905D906D907C902081F8
:1019F000318142815381C301B2010E94D9356BA765
:101A00007CA78DA79EA7EDADB4E0EB9F80011124CC
:101A1000980128563E4F3CAF2BAFC80180539E4FD4
:101A20009EAF8DAFDC018D909D90AD90BC90F90183
:101A30002081318142815381C501B4010E94D93591
:101A40006FA778AB89AB9AAB77FA709477F87094FC
:101A5000D501C401B0588B8F9C8FAD8FBE8FF7011D
:101A6000E251FE4F2BA53CA54DA55EA5608171817D
:101A7000828193810E94D8356B017C01F801E2518B
:101A8000FE4F2FA538A949A95AA960817181828189
:101A900093810E94D8354B015C01A7019601C301D7
:101AA000B2010E9430396BAB7CAB8DAB9EABA50114
:101AB00094016B8D7C8D8D8D9E8D0E9430399B01A4
:101AC000AC016BA97CA98DA99EA90E94D9356BABED
:101AD0007CAB8DAB9EABA5019401C301B2010E940A
:101AE00030394B015C01A70196016B8D7C8D8D8D8A
:101AF0009E8D0E9430399B01AC01C501B4010E944A
:101B0000D8352BA93CA94DA95EA90E9458366B0176
:101B10007C019BA192FF13C02DEB37E346E055EB10
:101B2000C701B6010E94F03887FD1DC02BED3FE0D4
:101B300049EC50E4C701B6010E94D83512C02DEB24
:101B400037E346E055E3C701B6010E94CE361816CA
:101B500054F02BED3FE049EC50E4C701B6010E9480
:101B6000D9356B017C018090640190906501A09053
:101B70006601B09067012F8D38A149A15AA1CA0111
:101B8000B9010E94D935A50194010E94D835A5015B
:101B900094010E9430390E94CF394B015C0120E052
:101BA00030E040E05FE3C701B6010E9430392F8D7D
:101BB00038A149A15AA10E9430399F77A50194010B
:101BC0000E94D8360E94BD370E9451377CAB6BAB68
:101BD000DB01AB2B09F4D8CE1D894B01A12CB12C14
:101BE00013FF12C0C501B4010E9480379B01AC01F4
:101BF0006D857E858F8598890E9430396D877E87B7
:101C00008F87988B177F1D8BC501B4010E94803789
:101C10004B015C019B01AC01C701B6010E94D836A3
:101C20006BA37CA38DA39EA3EFADB4E0EB9FC0019B
:101C300011248C0108561E4FFC01E251FE4FD801C1
:101C40002D913D914D915C91608171818281938153
:101C50000E94D835A50194010E94D83627966CAF12
:101C60007DAF8EAF9FAF27972BA13CA14DA15EA169
:101C7000CA01B9010E9430399B01AC0160E070E0FB
:101C800080E090E40E94D8356B017C012BEA3AEAAF
:101C90004AE25EE36BA17CA18DA19EA10E94303936
:101CA0004B015C0120E030E040E850E4C701B601A0
:101CB0000E94D9359B01AC01C501B4010E943039A5
:101CC0006FAB78AF89AF9AAF20E030E040E05FE3E0
:101CD000C701B6010E94303923966CAF7DAF8EAF3D
:101CE0009FAF23971F8E22242394312CEBA9FCA9AC
:101CF000E215F30509F448CEBF8DBC3008F044C0AE
:101D00002B8D3C8D4D8D5E8D23966CAD7DAD8EAD56
:101D10009FAD23970E9430396B017C01A301920192
:101D20006FA978AD89AD9AAD0E943039A7019601AF
:101D30000E94D9357B016C01A301920123966CAD01
:101D40007DAD8EAD9FAD23970E9430394B015C0174
:101D50002B8D3C8D4D8D5E8D6FA978AD89AD9AAD83
:101D60000E9430399B01AC01C501B4010E94D835F5
:101D70002B013C01EF8DEF5FEF8F470156018B8EFA
:101D80009C8EAD8EBE8E65C0B10180E090E00E9459
:101D900080372BA13CA14DA15EA10E9430396B017F
:101DA0007C010E94D3366B8F7C8F8D8F9E8FC701F5
:101DB000B6010E94C1394B015C01A9A5BAA5CD901D
:101DC000DD90ED90FC90F7FAF094F7F8F094ADAD5B
:101DD000BEAD8D919D910D90BC91A02D8F8F98A33C
:101DE000A9A3BAA3A70196016B8D7C8D8D8D9E8DC5
:101DF0000E9430392B013C012F8D38A149A15AA1F5
:101E0000C501B4010E9430399B01AC01C301B2018C
:101E10000E94D9352B013C01A7019601C501B401EF
:101E20000E9430396B017C012F8D38A149A15AA144
:101E30006B8D7C8D8D8D9E8D0E9430399B01AC0108
:101E4000C701B6010E94D8356B8F7C8F8D8F9E8F16
:101E50001F8EA30192016BA57CA58DA59EA50E9456
:101E6000D935EFA1F8A560837183828393832B8D8D
:101E70003C8D4D8D5E8D6FA578A989A99AA90E9488
:101E8000D935ABADBCAD6D937D938D939C9313977A
:101E900027962CAD3DAD4EAD5FAD2797F801608123
:101EA0007181828193810E94D935D8016D937D9390
:101EB0008D939C931397BE01635F7F4F88E991E0F8
:101EC0000E94753580911B0181116BC0BFEF2B1AE9
:101ED0003B0A0CCF8D8984608D8B80911A018230F2
:101EE00009F45FC00E94872780911B01811162C0A5
:101EF000FBA1F071FF2E10921F012BA123FB88275D
:101F000080F90E94F12586B18072909100018917B5
:101F100049F084E00E94911D0E94011580E00E941A
:101F2000F12548C0B8018EEE91E00E94753581E040
:101F30008093190182E00E94A11D0E9401158091E9
:101F40001B01811137C080911A018111F6CF809158
:101F50001901813081F4FF2051F08CE0E1E0F1E0E3
:101F6000ADE0B1E001900D928A95E1F707C085E000
:101F70000E94911D03C081E080931F0110921901FE
:101F800080E00E94F1250E9401150E94BE250E945A
:101F900098270E94F3260E94713180911F018111C0
:101FA0008CC08CE0EEEEF1E0A8E9B1E001900D927A
:101FB0008A95E1F78091C80180938701882309F40D
:101FC0007FC00E9487278091870190911A018330FA
:101FD00041F49230D1F188E00E94A11D0E940115C8
:101FE00034C081E0809380011092840110928301BB
:101FF000109281011092860110928901109288013D
:1020000084E6809321018093220180932301923002
:1020100091F064EA71E080E00E94EB198823E1F11D
:102020000E94D93140E050E0BA0180E00E946B1973
:1020300080E00E94BC0283EA92E00E94E4268AE3E8
:1020400092E00E94E4260E94CB10109287012FC0DC
:1020500081E036C082E034C088E132C086E230C020
:1020600089E12EC084E02CC08BE12AC085E228C023
:1020700084E126C08EE124C08FE122C086E120C029
:1020800080E21EC082E21CC083E21AC084E218C053
:1020900080E116C08FE014C087E012C08CE0EEEE45
:1020A000F1E0A8E9B1E001900D928A95E1F780E0B6
:1020B00007C01A8E1BA20C9403030E9413027ACF4E
:1020C000C65BDF4F0FB6F894DEBF0FBECDBFDF910A
:1020D000CF911F910F91FF90EF90DF90CF90BF9025
:1020E000AF909F908F907F906F905F904F903F90B8
:1020F0002F9008950F931F93CF938C01C0E0F801A8
:1021000061917191819191918F010E94AF26C230AE
:1021100019F08CE20E94E01BCF5FC33081F7CF91B2
:102120001F910F9108958CE093E00C94E426CF92D8
:10213000DF92EF92FF92CF93DF93D82F6A017B015A
:10214000C22F84E20E94E01B8D2F0E94BE268DE3E9
:102150000E94E01B4C2FC701B6010E940326DF91AD
:10216000CF91FF90EF90DF90CF900C949310CF938E
:10217000DF93D82FC62F84E20E94E01B8D2F0E9490
:10218000BE268DE30E94E01B8C2F0E94BE26DF91AD
:10219000CF910C9493108DE50E94E01B0C9493104A
:1021A0003F924F925F926F927F928F929F92AF92E7
:1021B000BF92CF92DF92EF92FF920F931F93CF9334
:1021C000DF93CDB7DEB7A4970FB6F894DEBF0FBE8E
:1021D000CDBF10910807112391F181E080931A017E
:1021E00089EA92E00E94E426812F0E94BE260E9486
:1021F000931085EF91E0019739F0EFE9FFE0319717
:10220000F1F700C00000F7CF1150123030F08FB757
:10221000F894109208078FBF12C083EA92E00E94E0
:10222000E42681E992E00E94E4260E94CB1080E13E
:102230000E94971D8091070784FFFCCFE8CF109183
:102240000707112309F4BBC214FF04C081E0809387
:102250001B01BFC310FFBFC18CE0E1E0F1E0DE0174
:10226000599601900D928A95E1F7BE01675E7F4F06
:10227000CE010D960E94AA1D8CE30E94E01B809166
:102280001A018830E1F058F4813099F1A8F08230D9
:1022900099F1843009F043C084EF92E03EC080326F
:1022A00029F118F4803171F03AC0803441F180385E
:1022B000B1F58CED92E031C087E093E02EC083E071
:1022C00093E02BC080911C0187FD10C08DEF92E040
:1022D0000E94E42680911C0180FF06C080E31AC0A2
:1022E00082FF17C085FFFACF81E314C089EF92E027
:1022F00014C08EEE92E011C088EE92E00EC082EE25
:1023000092E00E94E42680911C0183FFE9CF83E3E1
:1023100001C082E30E94E01B02C00E94E42680917B
:102320005F01F82FF170BF2E80FF07C0809126015A
:10233000882319F085ED92E053C04090BC01509085
:10234000BD016090BE017090BF0144EA842E41E05F
:10235000942E9E012F5F3F4F7901CE010D966C01A7
:1023600000E0F40161917191819191914F0120857B
:102370003185428553850E94D935F7016083718389
:1023800082839383023061F4A30192010E94D935C4
:10239000F7016083718382839383BB2019F0CACFD6
:1023A000B11011C0F7012081318142815381F601C2
:1023B00060817181828193810E94D835F6016083AA
:1023C0007183828393830F5FF4E0EF0EF11C24E0AE
:1023D000C20ED11C033029F6B110ACCF8EEC92E0C6
:1023E0000E94E426CE010D960E947A1080915F0132
:1023F00081FF1FC089EC92E00E94E4269091500674
:1024000080912F03981710F0815F01C08150891BC4
:102410000E94BE268CE20E94E01B80919702909160
:102420009802981710F0805801C08150891B0E94B3
:10243000BE2684EC92E00E94E42680911A018C77FB
:1024400049F06091EE067091EF068091F006909150
:10245000F10603C060E070E0CB010E94A0268CE290
:102460000E94E01B60912701709128018091290151
:1024700090912A0140E00E9403260E94DC01F82E80
:102480000E94E61D082F86B1982F9072809100015E
:10249000E92EE8268F2D802B8E2959F18FEB92E0C3
:1024A0000E94E426EE2019F080E50E94E01BFF2048
:1024B00079F0F0FE03C088E50E94E01BF1FE03C046
:1024C00089E50E94E01BF2FE03C08AE50E94E01B42
:1024D000002379F000FF03C082E50E94E01B01FFAA
:1024E00003C088E40E94E01B02FF03C083E50E9452
:1024F000E01B80912601882321F0815080932601E2
:1025000018C080911A018C7711F08DE101C089E02B
:102510008093260180912501811103C081E0809381
:10252000250189EB92E00E94E426CE0101960E94EB
:102530007A1000912501002321F00150009325011C
:1025400042C080911A018C7711F083E101C089E0CB
:102550008093250184EB92E00E94E4268091210182
:102560000E94BE268CE20E94E01B809122010E9404
:10257000BE268CE20E94E01B809123010E94BE26B1
:102580008091B00087FF05C02D9B02C002E001C012
:1025900001E0439B03C0FF24F39403C0002399F0A0
:1025A000F12C80EB92E00E94E426002339F0013008
:1025B00011F483E501C083E40E94E01BFF2019F0C1
:1025C00086E40E94E01B8EE30E94E01B0E949310B1
:1025D00081E00E94971D812F887E09F467C0809159
:1025E0001A01982F937009F050C08872A1F0809161
:1025F0001C01807C81F40E949A2582E080931E0158
:1026000080911A01803239F417FDE1C180911C01DB
:10261000806880931C0180911A01811103C091E0B0
:1026200090931C0116FF07C085FD05C090911C0109
:10263000906490931C0113FF05C0807E19F480E123
:1026400080931A0115FF21C083EA92E00E94E426DC
:102650008FE492E00E94E4260E94CB1080911C013E
:1026600087FD0EC090911A01903439F483FFABC1FD
:10267000837E826080931C01A6C1903809F0A3C1BB
:1026800080911C01806280931C0117FF0CC0809117
:102690001A01813029F480911C01856080931C010E
:1026A00080E880931A0188EE0E94971D11FF44C0B4
:1026B000812F8876F1F580911A01803471F4809130
:1026C0001C0185FD0AC084FF03C010921A0105C0D9
:1026D00082FF03C0886080931C0180911A018823C7
:1026E00081F084FF26C090911C0190FF22C08031B0
:1026F00041F480912401882321F088608093240193
:1027000018C010921E010E947727892B71F08091CA
:102710001C0186FD0AC010921C0188E080931A01FA
:102720000E942D1E0E94D21804C010921C0110920B
:102730001A0182E00E94971D12FF41C080911A0188
:10274000807D90911C018823D9F080911D01811119
:1027500017C097FD15C00E949A2580912F03809382
:102760002E030E94A92780911E0181FF05C0909130
:102770001C01916090931C01897F80931E011CC0F5
:1027800097FF0AC010921E010E9498270E94BE2542
:102790000E9413020E94F32680911C0185FF08C04D
:1027A0008F77816080931C0180E480931A0104C0BC
:1027B00010921C0110921A0184E00E94971D9091C2
:1027C0000907992309F4ABC08FB7F8941092090751
:1027D0008FBF4091210190FD02C0842F01C084E68B
:1027E00091FD865F92FD8A5093FD8F5F94FD81502D
:1027F000893C08F088EC8A3008F48AE030912201A4
:1028000095FD02C0232F01C024E696FD22E397FD2B
:1028100029E1481303C0231709F481C080932101E3
:10282000209322011092250110912F033090500621
:1028300089E9D82E96E7E92E26E9F22E0EE732E353
:10284000432E131509F457C0812E912C489CC001CA
:10285000499C900D1124FC01E05DFC4F5F01CF010C
:102860000E940427562E672E782EC92E2D2D3E2D20
:102870004F2D502F0E94F03818164CF42D2D3E2D60
:102880004F2D502F6D2D7E2D8F2D902F08C0252D73
:10289000362D472D5C2D652D762D872D9C2D0E9484
:1028A0003039F501668B778B808F918F489CC00102
:1028B000499C900D11249C01205D3C4F7901F90148
:1028C00082A093A0A4A0B5A0A501940166897789F0
:1028D000808D918D0E94F03818162CF4F701868AAD
:1028E000978AA08EB18E1F5F103109F410E0D52CAD
:1028F00073010C2DA6CF8D2D9E2DAF2DB02F809363
:10290000120290931302A0931402B09315020E9436
:102910009A2580912F0380932E030E94A9279091DE
:102920000A07992309F448C08FB7F89410920A0750
:102930008FBF2091230190FD02C0822F01C084E649
:1029400091FD865F92FD8A5093FD8F5F94FD8150CB
:10295000893C08F088EC8A3008F48AE0281749F0AE
:1029600020911E01286020931E0180932301109264
:10297000250180911A0195FF0DC0803159F42091F5
:102980002401211102C022E003C020FF03C0246003
:1029900020932401907C81F0882311F0887161F0EC
:1029A0001091880116FF02C01F7B01C01064812FA7
:1029B0000E94BC021093880180911A018C7F49F01B
:1029C0000E942D1E06C080E480931A0159CE80E239
:1029D00029CEA4960FB6F894DEBF0FBECDBFDF910F
:1029E000CF911F910F91FF90EF90DF90CF90BF900C
:1029F000AF909F908F907F906F905F904F903F909F
:102A00000895CF92DF92EF92FF921F93CF93DF93BF
:102A10000E94D01080911C01882309F4F6C00E9406
:102A20007727009771F4C091890180918801C82BA4
:102A3000C0908B01D0908C01E0908D01F0908E01C0
:102A400006C0FC01C189C6A4D7A4E0A8F1A8809162
:102A5000700181FF03C080E20E947F1DDC2FD073D4
:102A600011E0C07480911C01882309F4CEC09091BC
:102A70001B019111CAC080FFC5C090911A01292F76
:102A8000207C09F474C082FD12C01092240140E041
:102A900050E0BA0180E00E946B1980E00E94BC0205
:102AA00080911C018D7F846080931C01ABC09038A5
:102AB000E1F483EA92E00E94E4268CE092E00E9436
:102AC000E4260E94CB1040E050E0BA0180E00E9472
:102AD0006B1980E00E94BC020E94541680911B0179
:102AE000811193C00E94D010F9CF903419F48F7DDA
:102AF00080931C0180911C0183FF84C09091890107
:102B00009923C1F081FD16C08091700181FF06C03C
:102B100080911E01886080931E010CC0B701A60140
:102B20008D2F0E946B1941E060E070E080E890E436
:102B30000E94F62880918801882371F080911C0101
:102B400081FD0AC08C2F0E94BC0241E060E070E071
:102B500080E89FE30E94F62880911C0181FD52C00D
:102B6000806180931C0182E00E94A11D4BC0809176
:102B700024018823C9F181FF0DC080918901882338
:102B8000B1F040E050E0BA0180E00E946B19109370
:102B9000240138C08C70B1F18091890181110AC083
:102BA0008091240183FF03C082E00E94A11D109246
:102BB000240128C083EA92E00E94E42685E192E0A5
:102BC0000E94E4260E94CB108091700181FF06C014
:102BD00080911E01886080931E01E2CFB701A6019B
:102BE0008D2F0E946B19DCCF80911E0183FF0AC0DC
:102BF000B701A6018D2F0E946B1980911E01877F5E
:102C000080931E010E94D0102DCFDF91CF911F9194
:102C1000FF90EF90DF90CF9008950E947727892B47
:102C200019F082E00C94A11D08958093B3008111E6
:102C300004C08091B0008F7703C08091B00080689D
:102C40008093B000089580915C01682F20915D0110
:102C5000422F982F917080FD94E0822F817020FD8B
:102C600080E261FD986041FD806462FD906142FDFB
:102C70008068909308038093090308951F920F9230
:102C80000FB60F9211248F939F938BB190910803ED
:102C90009C71837E892B8BB915BC9F918F910F906E
:102CA0000FBE0F901F90189580916F008D7F8093BD
:102CB0006F0080918100887F8160809381001092F5
:102CC0000A0380915E0190911A018F3F39F420919F
:102CD0000807211103C0903881F402C0943069F0D4
:102CE00090E0009741F0EFE9FFE03197F1F700C085
:102CF00000000197F6CF81E001C080E09091700163
:102D000092FF02C091E08927882311F0289A089544
:102D1000289808951F920F920FB60F9211242F93A7
:102D20003F934F935F936F937F938F939F93AF9353
:102D3000BF93EF93FF9380910A03811122C28BB15D
:102D400090911A03907E8F71892B8BB98BB1837E02
:102D500090911903892B8BB98091180386BD82E06D
:102D600085BD81E080930A03789480912C03909133
:102D70002D03892B09F0BFC08091510690917C06EC
:102D8000981709F4A4C0E09151062E2F30E087E097
:102D9000E89FF0011124EE5AF94FF0932D03E093D0
:102DA0002C03828193819093890080938800808195
:102DB00091819093280380932703E48180912903D4
:102DC0008E1761F1E093290382E1E89FF00111245D
:102DD000E358F94FF0932B03E0932A0384859585FC
:102DE000A685B785B695A795979587958093130384
:102DF00090931403A0931503B093160380930F03CD
:102E000090931003A0931103B093120380930B03CC
:102E100090930C03A0930D03B0930E03A0912A038B
:102E2000B0912B0350969C9150978091090389276C
:102E300080931A0387E0829FF001839FF00D112495
:102E4000EE5AF94F25814D915D916D917C911397CB
:102E5000022E04C076956795579547950A94D2F748
:102E600040931B0350931C0360931D0370931E0338
:102E700014964D915D916D917C911797022E04C02F
:102E800076956795579547950A94D2F740931F0317
:102E900050932003609321037093220318968D9121
:102EA0009D910D90BC91A02D04C0B695A7959795C6
:102EB00087952A95D2F78093230390932403A093B8
:102EC0002503B093260386810E94151614C00E9424
:102ED0005416E0912A03F0912B038189882339F05D
:102EE0001092B3008091B0008F778093B00084E09F
:102EF0000E94A11D46C1809119018130B1F486B1B3
:102F0000807290910001891781F0109219018CE074
:102F1000E1E0F1E0ADE0B1E001900D928A95E1F7DA
:102F200080910707806480930707109219034091EE
:102F30000B0350910C0360910D0370910E0380916F
:102F40001B0390911C03A0911D03B0911E03840FDD
:102F5000951FA61FB71F80930B0390930C03A0939C
:102F60000D03B0930E03E0912A03F0912B034485E7
:102F7000558566857785481759076A077B0768F581
:102F800024E0209319034485558566857785841B45
:102F9000950BA60BB70B80930B0390930C03A09398
:102FA0000D03B0930E0320898091010190910201DD
:102FB000A0910301B091040125FF04C00197A1096C
:102FC000B10903C00196A11DB11D80930101909329
:102FD0000201A0930301B093040140910F035091AB
:102FE0001003609111037091120380911F0390915F
:102FF0002003A0912103B0912203840F951FA61FE7
:10300000B71F80930F0390931003A0931103B09305
:1030100012034485558566857785481759076A07E1
:103020007B0778F5209119032860209319034485C4
:10303000558566857785841B950BA60BB70B80930A
:103040000F0390931003A0931103B09312032089F0
:103050008091050190910601A0910701B0910801AE
:1030600026FF04C00197A109B10903C00196A11D63
:10307000B11D8093050190930601A0930701B093C1
:10308000080140911303509114036091150370914E
:1030900016038091230390912403A0912503B091FE
:1030A0002603840F951FA61FB71F809313039093C9
:1030B0001403A0931503B0931603448555856685C4
:1030C0007785481759076A077B0778F52091190318
:1030D0002061209319034485558566857785841B77
:1030E000950BA60BB70B8093130390931403A09337
:1030F0001503B093160320898091090190910A016C
:10310000A0910B01B0910C0127FF04C00197A10908
:10311000B10903C00196A11DB11D809309019093CF
:103120000A01A0930B01B0930C0180911A01843025
:1031300039F4909119038091200189238093190318
:1031400080912703909128030197909328038093FF
:103150002703892B69F410922D0310922C03809180
:1031600051068F5F80935106863011F410925106FC
:103170009091190380910803892780931903109275
:103180000A03FF91EF91BF91AF919F918F917F9132
:103190006F915F914F913F912F910F900FBE0F90C4
:1031A0001F9018958091700182FF02C0289A01C07B
:1031B0002898809108038093190380915B01880F00
:1031C000845081958093180380916F008260809372
:1031D0006F0008954F925F926F927F928F929F92AD
:1031E000AF92BF92CF92DF92EF92FF926B017C0180
:1031F00080906C0190906D01A0906E01B0906F0175
:10320000409068015090690160906A0170906B0174
:10321000A3019201C501B4010E94F03887FF08C0E4
:10322000A7019601C301B2010E94CE36181654F0D0
:1032300040922701509228016092290170922A0140
:1032400086E23CC0A7019601C501B4010E94F03896
:1032500087FD11C020E030E0A901C701B6010E943E
:10326000CE368092270190922801A0922901B09237
:103270002A0187E023C0C0922701D0922801E09262
:103280002901F0922A01A5019401C701B6010E940B
:10329000D8352091040330910503409106035091E5
:1032A00007030E9430390E94BD3720E030E040EE35
:1032B00050E40E94D9350E945137862FFF90EF903D
:1032C000DF90CF90BF90AF909F908F907F906F9046
:1032D0005F904F90089590911B01911127C081112B
:1032E0000FC080E090E0A0EEB0E4809327019093BF
:1032F0002801A0932901B0932A01BC01CD0110C07F
:10330000803111F42D9801C02D9A9091700191FF98
:1033100005C0803219F440E050E0BA01CB01BA0197
:103320000E94EA180E941516109225010895CF9365
:10333000DF93239AC0EBD0E083E0888387E080931B
:10334000B100259A20916C0130916D0140916E0180
:1033500050916F01609168017091690180916A01DB
:1033600090916B010E94D8359B01AC0160E070E048
:1033700088EF91E40E94D8366093040370930503AC
:10338000809306039093070388818F778883DF916A
:10339000CF9108956AE080E090E00E945D0245E5EB
:1033A00050E06BE271E081E090E00C947F020F93BB
:1033B0001F93CF93C82F8B010E9487272DE0C29FB8
:1033C000C00111244CE050E0B8019E5FCF911F91E5
:1033D0000F910C947F021F93CF93DF93182FEB0173
:1033E0008DE0189FB00111247E5F4CE050E0CE01CB
:1033F0000E941902892B59F48CE0FE0111928A95E2
:10340000E9F7BE01812F0E94D71980E001C081E059
:10341000DF91CF911F910895EF92FF920F931F9329
:10342000CF93DF93CDB7DEB72C970FB6F894DEBFFE
:103430000FBECDBF182F80FFD6C08AE080935B01FE
:103440008FEF80935E0110925C0110925D0181E02C
:1034500080935F018AE097EDA3E2BCE38093600173
:1034600090936101A0936201B09363018FE692E1B2
:10347000A3E0BBE38093640190936501A093660190
:10348000B093670180E090E0AFE7B3E48093680118
:1034900090936901A0936A01B0936B0110926C0143
:1034A00010926D0110926E0110926F0110927101D5
:1034B00080E090E0A8ECB1E48093720190937301F6
:1034C000A0937401B093750180E090E0AAEFB3E49B
:1034D0008093760190937701A0937801B09379015E
:1034E0002AEF30E030937B0120937A0140E050E0F6
:1034F00060E87FE340937C0150937D0160937E01FF
:1035000070937F0124E02093700146E656EE67E455
:1035100073E440932B0150932C0160932D01709321
:103520002E0140932F01509330016093310170932D
:10353000320140933301509334016093350170930D
:1035400036018093370190933801A0933901B093ED
:103550003A0180933B0190933C01A0933D01B093CD
:103560003E0180933F0190934001A0934101B093AD
:10357000420180E090EAACE0B7E48093430190938D
:103580004401A0934501B093460180934701909375
:103590004801A0934901B0934A0180934B01909355
:1035A0004C01A0934D01B0934E0180E090E0A8E45F
:1035B000B3EC80934F0190935001A0935101B093CD
:1035C00052018093530190935401A0935501B093FD
:1035D00056018093570190935801A0935901B093DD
:1035E0005A010E94CA1911FF10C0CE0101967C0138
:1035F0008CE0F70111928A95E9F700E0B701802F7E
:103600000E94D7190F5F0830C9F712FF14C060E09D
:1036100080E093E00E945D0260E081E093E00E9420
:103620005D0260E081E593E00E945D0260E082E57A
:1036300093E00E945D0213FF0AC060E08EEA93E00F
:103640000E945D0260E08FEA93E00E945D022C968A
:103650000FB6F894DEBF0FBECDBFDF91CF911F91A3
:103660000F91FF90EF9008951F920F920FB60F9257
:1036700011242F933F934F935F936F937F938F9377
:103680009F93AF93BF93EF93FF93E091C600E13216
:1036900071F028F4E83179F40E94252956C0EF33FF
:1036A00021F0EE3741F482E003C081E001C088E000
:1036B0000E94A11D4AC0E7FF37C08E2F90E0FC0199
:1036C000E458F109ED31F10508F03FC0E659FF4F2C
:1036D0000C947B3A80E2ECCF80911A0185FF35C0D3
:1036E00080E4E6CF81E00DC082E00BC084E009C039
:1036F00088E007C080E105C080E203C080E401C02B
:1037000080E80E94881D21C081E00BC082E009C0D2
:1037100084E007C088E005C080E103C080E201C00A
:1037200080E40E947F1D11C0A091980281E08A0F61
:10373000813809F480E090919702891731F0B0E068
:10374000AA5EBD4FEC9380939802FF91EF91BF91D9
:10375000AF919F918F917F916F915F914F913F9129
:103760002F910F900FBE0F901F9018951F920F92E0
:103770000FB60F9211248F939F93EF93FF93809135
:103780000303E82FF0E0E656FD4F90819093C600CA
:103790008F5F893609F480E080930303909199024A
:1037A000891305C08091C1008F7D8093C100FF9176
:1037B000EF919F918F910F900FBE0F901F901895D2
:1037C000E091990291E09E0F993631F490E004C0A7
:1037D0002091070724FD0FC0209103032917C1F38F
:1037E000F0E0E656FD4F8083909399028091C100EE
:1037F00080628093C1000895CF93C82F85E193E044
:103800000E94E4268C2F0E94BE26CF910C94931028
:10381000EF92FF920F931F93CF93DF9360915B0121
:1038200070E080E00E94B71060915E0170E081E07E
:103830000E94B71060915C0170E082E00E94B710B6
:1038400060915D0170E083E00E94B71060917001AB
:1038500062FB662760F970E084E00E94B710609117
:10386000700166FB662760F970E085E00E94B71082
:1038700080917001082E000C990B692F661F662736
:10388000661F70E086E00E94B71060915F0170E0F3
:103890008AE00E94B71040916001509161016091EF
:1038A00062017091630123E08BE00E9497104091C8
:1038B000640150916501609166017091670123E098
:1038C0008CE00E94971060917001617070E08DE053
:1038D0000E94B7106091700165FB662760F970E087
:1038E00084E10E94B7106091700163FB662760F964
:1038F00070E085E10E94B71060917001629561707F
:1039000070E086E10E94B7106091710170E087E17C
:103910000E94B7104091720150917301609174013F
:103920007091750123E088E10E9497104091760123
:1039300050917701609178017091790123E089E1DC
:103940000E94971060917A0170917B018AE10E9438
:10395000B71040917C0150917D0160917E01709182
:103960007F0123E08BE10E94971040916801509104
:10397000690160916A0170916B0120E08EE10E9403
:10398000971040916C0150916D0160916E017091A2
:103990006F0120E08FE10E949710609170016695A1
:1039A000617070E080E20E94B710D4E6F12C0BE267
:1039B00011E083E0E82EED0ECD2F82E0F81691F0B5
:1039C000E3E0FE16E9F0F1E0FF1631F0F801408186
:1039D0005181628173811AC0F801448555856685DD
:1039E000778514C020E030E041E655E4F801608DB1
:1039F000718D828D938D0E94D836AB01BC0106C0BB
:103A0000F80144A155A166A177A1705823E08C2F3D
:103A10000E9497100C5F1F4FCF5FEC12CECFD65F86
:103A2000F394DC3821F6DF91CF911F910F91FF9035
:103A3000EF900895811104C08CE193E00C94E4268A
:103A40000C94FC1BCF93DF93C1E1D7E089918823CD
:103A500019F00E94E01BFACFDF91CF910895CF9328
:103A6000DF9321E5829FC0011124EC01DD5F40E579
:103A700050E0BE0181E197E00E941902892B69F4B0
:103A8000109211070E94872740E550E061E177E03E
:103A9000CE010E947F0280E001C081E0DF91CF91E2
:103AA0000895CF93DF93C0E08C2F0E942F1D8111CA
:103AB0000EC0109211078EE30E94E01B0E94221D8F
:103AC0008AE30E94E01B87E00E94FC1B12C08091E9
:103AD0001107882371F00E94C902D82F8EE30E943B
:103AE000E01B0E94221D8AE30E94E01B8D2F0E9492
:103AF0001A1DCF5FC230C1F6DF91CF9108959FB7F5
:103B0000F89420910A07822B80930A079FBF08959B
:103B10009FB7F89420910907822B809309079FBFD4
:103B200008959FB7F894809308079FBF08952FB713
:103B3000F8949091070780958923809307072FBFFA
:103B400008959FB7F89420910707822B8093070769
:103B50009FBF08958F929F92AF92BF92CF92DF92B4
:103B6000EF92FF920F931F93CF93DF93EB012BE222
:103B7000E22E21E0F22E8C016B018CE0C80ED11CEC
:103B80006991799189919991F70181909190A19092
:103B9000B1907F010E948237A50194010E94D8361E
:103BA000F80161937193819391938F01CC15DD0599
:103BB00039F7DF91CF911F910F91FF90EF90DF9038
:103BC000CF90BF90AF909F908F90089596B1892F1E
:103BD000877049F0892F8095817091FF826092FDF6
:103BE00003C08460089580E008951F920F920FB67D
:103BF0000F9211242F933F934F935F936F937F9373
:103C00008F939F93AF93BF93EF93FF930E94E61D13
:103C1000882391F080FF03C00E9425290DC082FFF8
:103C200004C080910707826005C081FF05C08091B4
:103C30000707886080930707FF91EF91BF91AF91CD
:103C40009F918F917F916F915F914F913F912F91B4
:103C50000F900FBE0F901F9018952F923F924F928A
:103C60005F926F927F928F929F92AF92BF92CF920C
:103C7000DF92EF92FF920F931F93CF93DF93CDB715
:103C8000DEB7EF970FB6F894DEBF0FBECDBF8091C1
:103C90001E0180FD36C79091510680910B07981741
:103CA00009F42FC780910E0790910F07892B09F017
:103CB00015C310911E0112FF09C08091500622E326
:103CC000289FC0011124805D9C4F02C00E9477276D
:103CD00090930F0780930E0720900E0730900F07E8
:103CE0002114310409F40DC70091D806802F81708A
:103CF00000FF03C01092D806EAC09091D7069F5FDC
:103D0000953009F0892F8093D706E82EF12C32E107
:103D10003E9DF0013F9DF00D1124E358F94FF093C3
:103D20000D07E0930C07D10150969C915097908B12
:103D3000E2E18E9FC001112420E030E04D915D91C1
:103D40006D917D91F901E80FF91FE358F94F6894DF
:103D500012F8440F551F661F771F1694D1F7408342
:103D60005183628373832C5F3F4F2C30310531F7D1
:103D700022E12E9DF0012F9DF00D11249F0123586B
:103D8000394FF10184859585A685B78543E0880F75
:103D9000991FAA1FBB1F4A95D1F7F9018487958700
:103DA000A687B787D1011C966D917D918D919C91CD
:103DB0001F970E9480376093DD067093DE06809324
:103DC000DF069093E006F101268D378D40A151A1C9
:103DD0000E94D8369B01AC016093E1067093E20625
:103DE0008093E3069093E40660E070E080EA9FE34E
:103DF0000E94D8366093E5067093E6068093E70646
:103E00009093E8061092D9061092DA061092DB061B
:103E10001092DC0611FD02C003FF1FC06091F60680
:103E20007091F7068091F8069091F9066093EE067E
:103E30007093EF068093F0069093F1069B01AC011E
:103E40000E943039D10152966D937D938D939C934E
:103E50005597077F0093D8060FC0F10162897389D7
:103E6000848995890E94CF396093EE067093EF069E
:103E70008093F0069093F106F2E1FE9DC001FF9D54
:103E8000900D11249C012358394F7901D901519685
:103E90001C928091700181FF1AC0F101818985FF18
:103EA00016C022A533A544A555A560E070E080E8C2
:103EB0009FE30E94D83660930207709303078093B4
:103EC000040790930507E1E0D7015196EC93109217
:103ED000EA061092EB061092EC061092ED06D10164
:103EE0005A962D913D914D915C915D972D833E8326
:103EF0004F83588760E070E080E09FE30E94D836EF
:103F00004B015C01F101468C578C60A071A011FF40
:103F10004BC0F2E0F093E906D1015296CD90DD90CE
:103F2000ED90FC905597A70196010E9430399B01B6
:103F3000AC01C301B2010E94D8354B015C0120E005
:103F400030E0A9010E94CE3687FF1DC02D813E8141
:103F50004F815885CA01B9010E94D935A301920148
:103F60000E9430399B01AC01C701B6010E94D835CF
:103F70000E94CF396093F6067093F7068093F80697
:103F80009093F906A8C18092EA069092EB06A0925F
:103F9000EC06B092ED061092F6061092F70610921B
:103FA000F8061092F90697C11092E9064092FA06B7
:103FB0005092FB066092FC067092FD0612FF0CC048
:103FC0001092F6061092F7061092F8061092F90673
:103FD000C12CD12C760124C0E0912F03EF5FE0319A
:103FE00009F4E0E0809150068E1759F0B2E3BE9FCD
:103FF000F0011124E05DFC4FC288D388E488F58885
:1040000003C0C12CD12C7601C701B6010E94CF3963
:104010006093F6067093F7068093F8069093F9067E
:10402000C1010E940427698B7A8B8B8B9C8B9B012F
:10403000AC010E94303969877A878B879C87D101D0
:1040400052962D913D914D915C91559729833A83DC
:104050004B835C830E94CE3687FF6CC029853A85EE
:104060004B855C8569817A818B819C810E94D835E2
:10407000A50194010E9430399B01AC01C301B2013A
:104080000E94D8356093FA067093FB068093FC0675
:104090009093FD0620E030E0A9010E94CE3618166C
:1040A0003CF1B2E0B093E9062D813E814F81588505
:1040B000CA01B9010E94D935A30192010E94303989
:1040C0009B01AC0169817A818B819C810E94D835EA
:1040D0000E94CF396093F6067093F7068093F80636
:1040E0009093F9068091D80688608093D806F3C033
:1040F000A701960169857A858B859C850E94D835B4
:10410000A50194010E9430396093FE067093FF066A
:10411000809300079093010729893A894B895C892C
:104120002093F2063093F3064093F4065093F5067D
:1041300033E0B6C0A701960169817A818B819C81A9
:104140000E94D835A50194010E943039A301920143
:104150000E94D93520E030E040E05FE30E94303932
:104160006D877E878F87988B20E030E0A9010E94C1
:10417000F03818160CF097C02D853E854F8558896C
:10418000C301B2010E94F03818160CF088C0A701D4
:10419000960169857A858B859C850E94D835A50115
:1041A00094010E9430399B01AC016093FE0670932C
:1041B000FF0680930007909301076D857E858F85AC
:1041C00098890E94F0381816CCF589899A89AB89AC
:1041D000BC898093F2069093F306A093F406B09303
:1041E000F50629813A814B815C8169857A858B85C9
:1041F0009C850E94CE36811104C091E09093E9061F
:104200006AC029813A814B815C8169857A858B8579
:104210009C850E94D835A50194010E9430399B01EC
:10422000AC01C301B2010E94D8356093FA067093C5
:10423000FB068093FC069093FD064DC02D853E85C0
:104240004F8558892093FA063093FB064093FC066D
:104250005093FD062093FE063093FF06409300071F
:10426000509301072D813E814F815885CA01B901C4
:104270000E94D9352D853E854F8558890E94303959
:10428000A70196010E94D9350E94CF396093F206AA
:104290007093F3068093F4069093F5061CC032E009
:1042A0003093E90618C01092FA061092FB0610929D
:1042B000FC061092FD068091F6069091F706A091FB
:1042C000F806B091F9068093F2069093F306A09356
:1042D000F406B093F506186010931E0180917C06D9
:1042E000482F50E05E834D8387E0849FF001859FD7
:1042F000F00D1124EE5AF94F8091D7068483A091D6
:104300000E07B0910F07BFAFAEAF5E96BC91BEA3D4
:10431000EEADFFADF78DFFA3AEADBFAD9096BC91F6
:10432000B8A7EEADFFADF1A1F9A72091E506309158
:10433000E6064091E7065091E8066EA17FA18B2F1B
:104340009F2F0E94D8356AAB7BAB8CAB9DAB20E036
:1043500030E0A9010E94CE3687FF04C01AAA1BAA2A
:104360001CAA1DAA2091FA0629873091FB063D87D9
:104370004091FC06498B5091FD065D8B8091F206C1
:104380008A8F9091F3069B8FA091F406AC8FB09129
:10439000F506BD8F6090EE067090EF064090F00637
:1043A0005090F106E091FE06EAA7F091FF06FBA708
:1043B000209100072CA7309101073DA74091E90605
:1043C00049835091EA065EA78091EB068FA79091F2
:1043D000EC0698ABA091ED06A9ABB091F606BFAB89
:1043E000E091F706E8AFF091F806F9AF2091F906F1
:1043F0002AAF2AA53BA54CA55DA569857D85898940
:104400009D890E94CE36811103C032E03EAB02C0CE
:1044100041E04EAB2EA03FA008A519A58EE3C82E03
:1044200083ECD82E8EE2E82E89E3F82E1E8A1F8AAE
:10443000188E198ECE8EDF8EE8A2F9A29981913066
:1044400009F4D4C008F472C0AEADBFAD5A962D9138
:104450003D914D915C915D97933009F0F9C0C70192
:10446000B6010E9430394B015C0120E030E040E0B1
:104470005FE30E9430399B01AC01B301C2010E948D
:10448000D835A70196010E9430396AA37BA38CA37B
:104490009DA39B01AC01B101C8010E94D8351B014D
:1044A0008C0129853D8549895D890E94CE3687FD2D
:1044B0000BC020E030E0A9016AA17BA18CA19DA1E5
:1044C0000E94CE3618165CF129853D8549895D89A3
:1044D0006EA17FA188A599A50E94D8359B01AC014A
:1044E0000E94D9356B017C019301A2016A8D7B8DFD
:1044F0008C8D9D8D0E94D9359B01AC01C701B60101
:104500000E94D8366B017C016A8C7B8C4C8C5D8C54
:1045100029843D8409891D89B1E0B983FFC0A501C3
:104520009401B301C2010E94D8355DC0EEADFFAD6C
:10453000228D338D448D558DC701B6010E943039CF
:104540004B015C0120E030E040E05FE30E94303945
:104550009301A2010E94D935A70196010E9430392A
:104560009B01AC01B101C8010E94D8351B018C012F
:104570009B01AC0169857D8589899D890E94F03800
:1045800018165CF529853D8549895D896EA17FA155
:1045900088A599A50E94D8359B01AC010E94D93508
:1045A0006B017C019301A2016A8D7B8D8C8D9D8DA9
:1045B0000E94D9359B01AC01C701B6010E94D836D3
:1045C0006B017C016A8C7B8C4C8C5D8CFEA9F98321
:1045D00029843D8409891D89A1C0A5019401B301E5
:1045E000C2010E94D9353B012C0198C02A8D3B8D18
:1045F0004C8D5D8DC701B6010E9430399B01AC0125
:10460000B101C8010E94D8355B014C019B01AC018E
:104610006AA57BA58CA59DA50E94F03818160CF004
:104620007BC02AA53BA54CA55DA5B101C8010E9490
:10463000D8352A8D3B8D4C8D5D8D0E94D8366B010F
:104640007C012AA43BA40CA51DA522E0298366C0F9
:10465000C701B6010E9430394B015C019301A201F0
:104660000E94CE3687FF31C020E030E040E05FE3BB
:10467000C501B4010E9430399B01AC01B301C201F4
:104680000E94D835A70196010E9430399B01AC01E8
:10469000B101C8010E94D8356AA37BAF8CAF9DAF32
:1046A0002EA53FA548A959A90E94F03818166CF408
:1046B000A5019401B301C2010E94D8353B012C0130
:1046C0002AA03BAC0CAD1DAD29C02EA53FA548A925
:1046D00059A9B101C8010E94D8359B01AC010E94C3
:1046E000D9356B017C019301A2016FA978AD89AD29
:1046F0009AAD0E94D9359B01AC01C701B6010E9459
:10470000D8366B017C016FA878AC49AC5AAC2EA4AA
:104710003FA408A919A902C015018401A7019601A7
:104720006E897F89888D998D0E94D9356E8B7F8B9C
:10473000888F998F2E8D3F8D48A159A10E94CE362A
:1047400087FF09C02E893F89488D598D6E8D7F8DD9
:1047500088A199A11CC02AA93BA94CA95DA9B101B6
:10476000C8010E94F038181624F52EE333EC4EE20F
:1047700059E36E8D7F8D88A199A10E94D9356E8FE6
:104780007F8F88A399A32E893F89488D598D0E94D8
:10479000D8356B017C019101A8016EA57FA588A980
:1047A00099A90E94CE3687FD49CEB981B093E9061A
:1047B00003C0E981E093E906C301D2018093EE06CC
:1047C0009093EF06A093F006B093F106E0910C07EA
:1047D000F0910D079189911104C080911E0183FF12
:1047E0003FC0AEADBFAD51968C915197807349F1EA
:1047F0009E96CD90DD90ED90FC90D1979923D1F0CD
:10480000209102073091030740910407509105075A
:104810006091EE067091EF068091F0069091F1069E
:104820000E9430399B01AC01C701B6010E943039AA
:104830006B017C01C701B6010E94EA18809306074C
:104840000AC010922701109228011092290110929B
:104850002A011092060780911E01877F80931E0116
:1048600047E02D813E81429FF001439FF00D1124CE
:10487000EE5AF94FFA87E9878091060786832091DF
:10488000E1063091E2064091E3065091E406B10161
:10489000C8010E9430392B013C010E94B7366B01E0
:1048A0007C016091DD067091DE068091DF069091BB
:1048B000E0060E94B7364B015C01A70196010E94F9
:1048C000D8350E94513769837A838B839C83E98131
:1048D000FA81A985BA85ED93FC93EF2B41F4809181
:1048E0001E0181FF04C0816080931E010AC12091D6
:1048F000D9063091DA064091DB065091DC066E89CC
:104900007F89888D998D0E94D93569877A878B87B1
:104910009C87A3019201C501B4010E94D8359B0177
:10492000AC0169857A858B859C850E94D8364B01C0
:104930005C0120EC31EE44E65EE40E9430390E94D6
:10494000B7360E945137603D37E073078105910506
:1049500060F4A7E04D815E81A49FF001A59FF00D5A
:104960001124EE5AF94F158253C0603ABFE07B071D
:104970008105910560F447E02D813E81429FF00161
:10498000439FF00D1124EE5AF94F51E011C06034ED
:10499000AFE17A078105910568F447E02D813E81FA
:1049A000429FF001439FF00D1124EE5AF94F52E05F
:1049B00055830CC027E0AD81BE812A9FF0012B9F5B
:1049C000F00D1124EE5AF94F33E03583A7E04D8105
:1049D0005E81A49FF001A59FF00D1124EE5AF94FBE
:1049E0002581022E04C096958795779567950A9440
:1049F000D2F749815A8102C0440F551F2A95E2F728
:104A0000518340836115710551E08507910568F474
:104A100027E0AD81BE812A9FF0012B9FF00D11246C
:104A2000EE5AF94F7383628304C04FEF5FEF5383F5
:104A3000428380910B0780937C068F5F863019F04C
:104A400080930B0702C010920B07E0910E07F091C4
:104A50000F07C101D801868F978FA0A3B1A3C09281
:104A6000DD06D092DE06E092DF06F092E006A301BA
:104A70009201C701B6010E94D835A50194010E9498
:104A800030396093D9067093DA068093DB069093F1
:104A9000DC062091EA063091EB064091EC0650913D
:104AA000ED06B101C8010E94CE368111F4C820E0A4
:104AB00030E0A901B101C8010E94F03890911E01B7
:104AC000181614F092FF04C0916090931E0119C053
:104AD00010920F0710920E0790912F0380915006AD
:104AE000891709F4D8C881E0890F803109F480E082
:104AF00020912E03921302C080932E0380932F03E4
:104B0000CAC8EF960FB6F894DEBF0FBECDBFDF91D7
:104B1000CF911F910F91FF90EF90DF90CF90BF90BA
:104B2000AF909F908F907F906F905F904F903F904D
:104B30002F900895CF93DF93C0910E07D0910F0768
:104B40002097C9F08091D80681608093D806609143
:104B5000EE067091EF068091F0069091F1069B01B0
:104B6000AC010E9430396A8B7B8B8C8B9D8B1092B1
:104B70000F0710920E07DF91CF910895CF93DF9327
:104B80000E94541680E3E7EDF6E0DF011D928A955E
:104B9000E9F7CBE0D3E083E2FE0111928A95E9F7D1
:104BA00010920F0710920E071092510610927C0679
:104BB00081E080930B0710920A030E9423168091D4
:104BC00009038F878BB1837E90910803892B8BB962
:104BD0008BB18F7190910903892B8BB9DF91CF91A4
:104BE0000895109200019091700197FD03C090E22A
:104BF00090930001882331F09091000180E2892791
:104C00008093000108958F929F92AF92BF92CF92AE
:104C1000DF92EF92FF920F931F93CF93DF93CDB765
:104C2000DEB72D970FB6F894DEBF0FBECDBF6B0178
:104C30007C01042F20E030E0A9010E94CE3687FFDE
:104C400007C08DE20E94E01BF7FAF094F7F8F094A9
:104C5000102F123060F020E030E048EC52E4C70141
:104C6000B6010E9430396B017C011250F2CF00FF77
:104C70000AC020E030E040E251E4C701B6010E94E2
:104C800030396B017C0120E030E040E05FE3C70198
:104C9000B6010E94D9350E944A3710E03AE0832ECF
:104CA000912CA12CB12C611571058105910591F014
:104CB000EE24E394F12CEC0EFD1EE10EF11CA50197
:104CC00094010E94593A605DF7016083B901CA01FD
:104CD0001F5FE9CF80E3101748F4E1E0F0E0EC0F4C
:104CE000FD1FE10FF11D80831F5FF5CF101313C06F
:104CF000FE01E10FF11D80E381831F5F0CC01013E3
:104D000003C08EE20E94E01BFE01E10FF11D8081D5
:104D10000E94E01B11501111F2CF2D960FB6F8949E
:104D2000DEBF0FBECDBFDF91CF911F910F91FF90DE
:104D3000EF90DF90CF90BF90AF909F908F900895AD
:104D40002091700120FF08C02BE832E441E25DE3CE
:104D50000E94303941E001C040E00C9403262091CC
:104D6000700120FF08C02BE832E441E25DE30E94BD
:104D7000303944E001C043E00C940326CF93DF9325
:104D8000843630F06AE00E94393AC0E3C90F03C0AC
:104D9000C0E08A3030F06AE00E94393AD0E3D90F9F
:104DA00001C0D0E0805D0E94E01BDD2319F08D2F53
:104DB0000E94E01BCC2329F08C2FDF91CF910C9423
:104DC000E01BDF91CF910895CF93DF93FC01849195
:104DD000EF012196882321F00E94E01BFE01F7CF0E
:104DE000DF91CF910895E1E0F1E0AAEFB1E04191C8
:104DF0005191619171914D935D936D937D9381E09C
:104E0000ED30F807A1F70895BF92CF92DF92EF92AD
:104E1000FF920F931F93CF93DF937C01FC0102A5B8
:104E200013A5D4A5C5A5818980FF18C06091220172
:104E300070E080E090E00E9482372AE037ED43E2A4
:104E40005CE30E9430399B01AC01B8018D2F9C2F8F
:104E50000E9430398B01D82FC92F2DC082FD17C079
:104E60006091210170E080E090E00E9482372AE0AA
:104E700037ED43E25CE30E9430399B01AC01B8019D
:104E80008D2F9C2F0E9430398B01D82FC92FF7010D
:104E9000B6A0C7A0D0A4F1A42B2D3C2D4D2D5F2D85
:104EA000B8018D2F9C2F0E94F038181624F40B2D7A
:104EB0001C2DDD2DCF2D20E030E040E85FE3B80170
:104EC0008D2F9C2F0E94F038181624F000E010E07F
:104ED000D0E8CFE3B8018D2F9C2FDF91CF911F91A8
:104EE0000F91FF90EF90DF90CF90BF900895809149
:104EF0002F0390915006981739F022E3829FC0014A
:104F00001124805D9C4F089580E090E008950E94F8
:104F10000D160E94011580911B01811108C00E948D
:104F20007727892BB1F780911A01883091F3089582
:104F30008CE1EAEFF1E0DF011D928A95E9F710922A
:104F40002F031092500681E08093100710922E03D9
:104F500008952F923F924F925F926F927F928F921D
:104F60009F92AF92BF92CF92DF92EF92FF920F93F8
:104F70001F93CF93DF93C0915006C11101C0C0E1D0
:104F8000C150D0912E03DC1709F41DC1EC2EF12C79
:104F900022E3C29F80011124005D1C4FF801A68806
:104FA000B788C08CD18C628D738D848D958D9B015B
:104FB000AC010E94D935F801268D378D40A151A151
:104FC0000E9430394B018C019B01AC01B501C60137
:104FD0000E94CE3687FD02C05401680182E38E9D97
:104FE000F0018F9DF00D1124E05DFC4FC501D6014D
:104FF000828B938BA48BB58BC11101C0C0E1C150D2
:10500000DC1761F022E32E9DC0012F9D900D11242D
:105010009C01205D3C4F7901D2E333C080912F0386
:10502000D81360C00E949A255DC0AC2EB12CDA9DC9
:10503000C001DB9D900D1124FC01E05DFC4F6F0170
:10504000C11101C0C0E1C15080912F038C1302C077
:105050000E949A25DA9D8001DB9D100D1124005DD0
:105060001C4FF80186889788A08CB18CA50194010B
:1050700062897389848995890E94CE36811106C020
:10508000760180912E03C813D0CF2CC0F801628D19
:10509000738D848D958D9B01AC010E94D935F801EB
:1050A000268D378D40A151A10E943039F701228908
:1050B0003389448955890E94D9352B013C019B01D4
:1050C000AC01C501B4010E94F038F80118162CF4A7
:1050D000428A538A648A758AD3CF828A938AA48A41
:1050E000B58ACECFD0912E03F2E3DF9F8001112449
:1050F000005D1C4FC1E0CD0FC03109F4C0E020902D
:10510000500682E3382EC21509F45BC0CC2ED12C98
:105110003C9CC0013D9C900D11249C01205D3C4FA6
:105120007901F8014288538864887588F90182887A
:105130009388A488B588A5019401C301B2010E9497
:10514000CE3687FF24C0F801628D738D848D958DD6
:105150009B01AC010E94D935F801268D378D40A105
:1051600051A10E943039A30192010E94D9352B012F
:105170003C019B01AC01C501B4010E94F038181636
:1051800034F4F701428A538A648A758ADC2F3C9C86
:10519000F0013D9CF00D1124E05DFC4F268937891C
:1051A000408D518D62897389848995890E94CE369C
:1051B000811101C0DC2FCF5FC03109F4C0E087014D
:1051C000A2CFD0932E03DF91CF911F910F91FF902B
:1051D000EF90DF90CF90BF90AF909F908F907F9097
:1051E0006F905F904F903F902F9008951F93CF93B3
:1051F000DF93142F20E030E040EA51E40E94303980
:105200000E94B7360E945137EB012097D1F0809170
:105210001B01811116C0111103C00E94011506C0A7
:105220000E94D01080911C0181FD0BC02FEF80E700
:1052300092E0215080409040E1F700C000002197AB
:10524000E4CFDF91CF911F9108958091070784FDEE
:105250001FC080E10E94A11D8091B0008F778093D4
:10526000B000439890911A01892F8C7221F480919B
:105270001E01867069F0943031F480910807811125
:1052800005C086E001C083E00E94911D0C94541675
:1052900008958F929F92AF92BF92CF92DF92EF923A
:1052A000FF920F931F93CF93DF937C016B01DC017F
:1052B000CC91D0E0FE01EF5EF84F80818D3229F471
:1052C000EF012296818101E009C08B3219F0CE5E98
:1052D000D84F03C0EF012296818100E0912CF0E0CD
:1052E00010E020E030E0A9015E01E0EDE80FEA30D7
:1052F000D0F4FF5FF93098F491101150A5E0B0E0C0
:105300000E94813ADC01CB01880F991FAA1FBB1FA5
:105310009C01AD012E0F311D411D511D0AC0911080
:1053200008C01F5F06C0EE3F41F4911006C09924EB
:1053300093942196D5018C91D7CFFF2309F44FC0C8
:10534000CA01B9010E9480374B015C0120E030E0C6
:10535000A9010E94CE36882349F11F3F64F42AE058
:1053600037ED43E25CE3C501B4010E9430394B01E3
:105370005C011E5FF2CF1F3F59F42DEC3CEC4CEC6E
:105380005DE3C501B4010E9430394B015C010EC0E0
:10539000112361F020E030E040E251E4C501B401A6
:1053A0000E9430394B015C011150F2CF002351F0C3
:1053B000B7FAB094B7F8B094F60180829182A282D5
:1053C000B38206C0D6018D929D92AD92BC92139786
:1053D000C151D740C150F701C08381E001C080E0D6
:1053E000DF91CF911F910F91FF90EF90DF90CF90C1
:1053F000BF90AF909F908F9008952F923F924F92C1
:105400005F926F927F928F929F92AF92BF92CF9254
:10541000DF92EF92FF920F931F93CF93DF93CDB75D
:10542000DEB7A1970FB6F894DEBF0FBECDBF909147
:105430001B019111BDC18D8FFE013D9689E0DF01F9
:105440001D928A95E9F786E08D8BEBE2F1E0FA8F09
:10545000E98F5F019E012A5E3F4F490100E010E0A5
:10546000C12CD12C76019D8D892F90E09C8F8B8F44
:10547000802F002321F0013021F090E103C094E05F
:1054800001C098E0D4019D934D01EB8DFC8D02C0CD
:10549000F595E7958A95E2F7E0FF1BC020E030E044
:1054A00040EC5FEBD50194966D917D918D919C912F
:1054B00097970E943039362E472E582E692EA70115
:1054C00096010E94CE3687FD04C0C32CD42CE52C57
:1054D000F62C0F5F1F4FB4E0AB0EB11C033011056B
:1054E00039F6209076013090770140907801509005
:1054F000790194E0A92EBB24B39461E071E0CE0160
:1055000001960E94AA1D80917101E82FF0E0FF8FA3
:10551000EE8FFE01319681E0682E81E0782E79A22F
:1055200068A2CE0146964C0180E090E000E010E0D9
:10553000B701A60170582B8D3C8D082E02C0359501
:1055400027950A94E2F720FF23C00F5FA8A1B9A115
:105550001D921D921D921C9213972E8D3F8D082E29
:1055600002C0359527950A94E2F720FF03C0BB20BF
:1055700019F007C0BB2029F0C082D182E282F382F9
:1055800004C04083518362837383D4012C91122B16
:105590000196BFEF8B1A9B0A349628A139A12C5F84
:1055A0003F4F39A328A38330910529F6602F70E07F
:1055B00080E090E00E9480370E94CF399B01AC01CF
:1055C00010932001C201B1010E9430396D877E879E
:1055D0008F87988BBE01635F7F4FCE0101960E943B
:1055E0009B3234E030931E010E942D1E0E94D2187F
:1055F000BB20E9F00E94DC01FE01769620E030E05D
:1056000090E06191462F412359F0AC01022E02C077
:10561000559547950A94E2F740FF02C0609516231E
:105620002F5F3F4F2330310561F7109320010E9417
:105630002D1E80910707847339F11091070714FF1D
:1056400003C086E00E94911D15FF03C087E00E9401
:10565000911DB11007C00E94DC019D8D892339F096
:1056600088E003C012FF03C089E00E94911D809171
:105670000807882329F00E9425290E94011598C057
:1056800084E00E94971D04C0812F8C7109F0B0CF77
:105690000E94BE2500917A0110917B010115110530
:1056A00049F0AFE9BFE01197F1F700C000000150E9
:1056B0001109F4CFB1E0BB26C9F020E030E040EAA8
:1056C00050E460917C0170917D0180917E01909108
:1056D0007F010E9430396B017C0120907201309073
:1056E0007301409074015090750110C0C0907C010E
:1056F000D0907D01E0907E01F0907F0120907601B6
:10570000309077014090780150907901AA94A110CF
:10571000F4CEE0907101F12C80907C0190907D019D
:10572000A0907E01B0907F018B8D9C8D002E02C0D9
:10573000959587950A94E2F780FF29C0C701002E4E
:1057400002C0959587950A94E2F780FD18C0E98D0F
:10575000FA8D84A195A1A6A1B7A1BC01CD01905855
:10576000A50194010E94D835A98DBA8D2D913D9146
:105770004D915C910E9430390E94FD3803C060E079
:1057800070E0CB01F30160837183828393830F5FA9
:105790001F4FF4E06F0E711C298D3A8D2C5F3F4F27
:1057A0003A8F298F0330110509F0BECF10921E01E8
:1057B000A1960FB6F894DEBF0FBECDBFDF91CF919B
:1057C0001F910F91FF90EF90DF90CF90BF90AF901F
:1057D0009F908F907F906F905F904F903F902F9011
:1057E0000895CF93DF93CDB7DEB761970FB6F894E6
:1057F000DEBF0FBECDBF8091C00082608093C0002D
:105800001092C50080E18093C4008091C100886936
:105810008093C10080E090E00E94A5018A3009F0E9
:1058200039C545E550E061E070E08BE291E00E940F
:105830001902892B09F42EC58AB18C618AB9209A84
:105840008AB1806E8AB9809181008F7E80938100B9
:1058500080918100886080938100809180008C7F9E
:1058600080938000809180008F7080938000809171
:105870006E00887F80936E0014BC15BC80916E0012
:10588000816080936E0087B1887F87B988B1876017
:1058900088B980916C00876080936C00809168006B
:1058A0008260809368008CE0E1E0F1E0DF011D920E
:1058B0008A95E9F7789410921A018091700184FF1B
:1058C00003C081E080931A01AAE12A2EA1E03A2EBA
:1058D0009924939480911A0191E1F10111929A9582
:1058E000E9F780931A0184E68093210180932201D5
:1058F000809323018CE0ADE0B1E01D928A95E9F739
:1059000010921901109207071092080710920907C8
:1059100010920A07809198028093970280E4E0E851
:10592000F1E011928A95E9F764EA71E080E00E9463
:10593000EB19811103C087E00E94FC1B0E9497199C
:105940003B9A43980E94FC013D98459A80E00E9452
:10595000F1250E9498270E94BE250E94F3260E94EE
:1059600013028AE591E00E94E4268091700183FF92
:1059700010C00E94DC01882361F090921A0183EA32
:1059800092E00E94E42682E492E00E94E4260E94D3
:10599000CB1080911A01817899F083EA92E00E94FD
:1059A000E4268DE792E00E94E4260E94CB109092BC
:1059B0001A0110E000E0E2E0EE2EF4E08F2E29C0A4
:1059C00010921A010E94511DF4CFE92FF0E0EA5E17
:1059D000FD4F80819F5F913809F490E0909397028A
:1059E0008F3FE9F08A3021F50E94011580911B015B
:1059F000811170CFE12FF0E0EF5EF84F1082F02FB1
:105A0000F170FF2E00FF18C08BE00E94FC1B10E01D
:105A100000E090919702809198029813D6CF0E944F
:105A20000D160E94011580911B01882391F352CF1E
:105A30008D3009F009C4D8CF80911107882309F46B
:105A400000C4843209F0F5C3998A80911207833427
:105A500009F134F4882361F0843209F006C11AC0D8
:105A60008A3459F08835B1F0873409F0FEC012C08D
:105A700082EC91E00E94E426DAC380911A018F7DC6
:105A800009F0C5C3809113078D3309F0C8C30E9484
:105A9000C902C0C3909113079111C1C3833409F4A3
:105AA000B2C01CF4843239F0C2C3873469F088353F
:105AB00009F4C9C0BCC380911A018871F82E09F09D
:105AC000A6C30E94081CB3C38CEB91E00E94E4269D
:105AD000809180018C3838F088EB91E00E94E426B8
