:100000000C9491010C94A3010C94A3010C94812EE7
:100010000C94732B0C94A3010C94A3010C94A301D6
:100020000C94A3010C94A3010C94A3010C948515CA
:100030000C94A3010C94A3010C94A3010C94A301B0
:100040000C9439150C94A3010C9486340C94E03173
:100050000C94A3010C94A3010C94A3010C94A30190
:100060000C94A3010C94A3017903140F140F8303C0
:100070008E039903A403140FA803140FB603140FDF
:10008000C003CA03D403140F140F140FE403F103C5
:10009000FE031E14241427142A142F1437143F149B
:1000A000DA14DA14DA144C144F1458146114DA14F4
:1000B000DA14DA14DA14DA14DA146D1477148314F7
:1000C0008B148E149714A014A614DA14DA14AF1437
:1000D000B814C314BC34BE34F734F734F734F734EF
:1000E000F734F734F734F734F734F734C434C6341C
:1000F000C834CA34CC34CE34D034D234F734D634C5
:10010000D834DA34DC34DE34E034F734E234084A0C
:10011000D73B3BCE016E84BCBFFDC12F3D6C74311B
:100120009ABD56833DDA3D00C77F11BED9E4BB4C72
:100130003E916BAAAABE000000803F05A84CCDB23C
:10014000D44EB93836A9020C50B9918688083CA61D
:10015000AAAA2ABE000000803F00536C6565706942
:100160006E6700526573746F72696E672073706991
:100170006E646C6500526573746F72696E6720649B
:10018000656661756C74730050676D20456E640020
:10019000436865636B204C696D69747300436865DF
:1001A000636B20446F6F720044697361626C6564B5
:1001B00000456E61626C65640043617574696F6EC1
:1001C0003A20556E6C6F636B656400272448277C6A
:1001D0002724582720746F20756E6C6F636B005254
:1001E0006573657420746F20636F6E74696E7565D6
:1001F000005B4D53473A000D0A4772626C20312E66
:100200003166205B27242720666F722068656C703A
:100210005D0D0A00244E005B4F50543A005B56457A
:10022000523A312E31662E32303137303330323A55
:10023000005B544C4F3A005B4739323A0033300090
:100240003238005B4700204700204D00205300203B
:10025000460020540033382E005B47433A47005B8A
:10026000484C503A24242024232024472024492089
:10027000244E2024783D76616C20244E783D6C69B4
:100280006E6520244A3D6C696E652024534C5020D5
:100290002443202458202448207E2021203F20630E
:1002A00074726C2D785D0D0A00414C41524D3A003C
:1002B0007C413A007C4F763A007C57434F3A007CB1
:1002C000506E3A007C46533A007C42663A007C57B6
:1002D000506F733A007C4D506F733A00536C6565F4
:1002E0007000446F6F723A00436865636B00416C45
:1002F00061726D00486F6D65004A6F6700486F6CF2
:10030000643A0052756E0049646C65000D0A005B2A
:100310005052423A006572726F723A006F6B0D0A6A
:10032000000011241FBECFEFD8E0DEBFCDBF27E015
:10033000A0E0B1E001C01D92A136B207E1F70E9432
:10034000B90F0C94A63A0C9400002F923F924F9252
:100350005F926F927F928F929F92AF92BF92CF9255
:10036000DF92EF92FF920F931F93CF93DF93CDB75E
:10037000DEB7CA54D1090FB6F894DEBF0FBECDBFA9
:100380008AE3E0ECF1E0DF011D928A95E9F78BE06A
:10039000E0E8F1E0A1ECB1E001900D928A95E1F77F
:1003A00080911107843211F00C94350F81E0809315
:1003B000C1011092C20183E08A8FB1E0BBA3212C5E
:1003C000312C1CA61BA610E01B8E1F8EEE24E3947E
:1003D000F12CEAE0AE2EB12CF1E68F2EF3E09F2E49
:1003E0008A8DE82FF0E0EF5EF84FD080DD2009F431
:1003F00035C29FEB9D0D9A3110F00C94040F8F5F66
:100400008A8FBE016A5E7F4FCE014A960E942235D6
:10041000882311F40C94060F4E885F88688C798CC1
:10042000C301B2010E94113A0E944F37062F70E0BB
:1004300080E090E00E9480379B01AC01C301B201D3
:100440000E94D63520E030E048EC52E40E942E397C
:100450000E949B390E944F37CB01E7E4DE1629F05A
:10046000FDE4DF1609F4EAC033C1083209F4C6C05E
:1004700020F5043168F4013108F08AC0043009F431
:1004800052C008F464C00A3009F445C00C94140F3B
:100490000C3109F440C050F4063110F00C94140FE4
:1004A00025E1201B2093C30126E0ADC00E3199F158
:1004B000063209F44CC00C94140F0D3309F498C0A3
:1004C000A8F4053381F140F40B3209F47AC001330A
:1004D00009F477C00C94140F0C3310F00C94140F23
:1004E0006AEC600F6093C70129E08DC00C3538F4C9
:1004F0000A3508F053C0003581F10C94140F0C3507
:1005000051F00F3510F00C94140F2EE5201B2093A2
:10051000C20125E078C0009731F42F8D21110C9491
:10052000080F31E03F8F0093C001202F2D7F2C3129
:1005300019F00C3509F064C0009721F00A9711F00A
:100540000C94140F600F6093C00120E061C04F8DC8
:1005500041110C94080FA2E0AF8F0093C101063245
:1005600009F050C08431910559F08E31910541F068
:100570008832910529F08233910511F00C94140F03
:10058000B5010E94433A66576093C10121E040C023
:100590006FEE600F6093C50122E035C0892B31F406
:1005A00066EA600F6093C40123E032C06A307105CF
:1005B00011F00C94140F0A3511F40C94140F24E06C
:1005C00027C0BF8DB1110C94080F013331F4109284
:1005D000C60128E0E3E0EF8F1BC00A9711F00C94EE
:1005E000140FF1E0F093C60128E033E03F8F10C014
:1005F000892B11F00C94140F2AE00AC027E003C0E5
:1006000020E001C021E0892B19F087E10C943C0F18
:10061000C70102C0880F991F2A95E2F72BA53CA5B8
:1006200028233923232B19F085E10C943C0FABA52B
:10063000BCA5A82BB92BBCA7ABA7D2CE892B29F779
:10064000063018F4033058F016C0083010F40C943B
:10065000140F0A30F0F00E3159F00C94140F0023EF
:1006600019F0013001F104C0B3E0B093C8011BC020
:100670000093C80118C0043021F0053031F080E14A
:1006800001C080E28093CA0102C01092CA018CE0CE
:100690000BC0093021F080E48093C90102C01092A0
:1006A000C9018DE001C08BE0F70102C0EE0FFF1F12
:1006B0008A95E2F72BA53CA52E233F23232B09F097
:1006C000B3CF2BA53CA52E2B3F2B3CA72BA788CE29
:1006D0008D2DDD0C990BAA0BBB0BFC01E654F10927
:1006E000E531F10510F00C94140FEC5CFF4F0C9405
:1006F000793A4092CC015092CD016092CE01709235
:10070000CF0180E087C04092D0015092D101609229
:10071000D2017092D301116081E07CC04092D4017B
:100720005092D5016092D6017092D701126082E09A
:1007300071C04092D8015092D9016092DA01709252
:10074000DB01146083E066C00093DC0184E062C0DA
:10075000C301B2010E9448376093DD017093DE014E
:100760008093DF019093E00185E054C04092E10165
:100770005092E2016092E3017092E40186E04AC087
:100780004092E5015092E6016092E7017092E80123
:1007900087E040C04092E9015092EA016092EB018B
:1007A0007092EC0188E036C020E030E04FE753E47F
:1007B000C301B2010E94EE38181614F40C940A0F0B
:1007C0000093ED0189E026C04092EE015092EF01C6
:1007D0006092F0017092F1013B8D31603B8F8AE0B5
:1007E00019C04092F2015092F3016092F4017092AC
:1007F000F5014B8D42604B8F8BE00CC04092F601AF
:100800005092F7016092F8017092F9018B8D84602B
:100810008B8F8CE06701082E02C0CC0CDD1C0A9483
:10082000E2F7960122213321232B11F00C940C0FB7
:10083000D40102C0B595A7958A95E2F7A0FF0BC039
:1008400020E030E0A901C301B2010E94CC3687FF4D
:1008500002C00C940E0F2C283D28C2CDBB8DBB23AB
:1008600029F0EF8DE11102C0F2E0FF8F25FE0FC0ED
:100870008091DD019091DE01A091DF01B091E00156
:1008800081389649A849B10514F00C94100F3BA18A
:10089000332329F020FC02C00C941A0F18C0809159
:1008A000C201813071F44F8D4230E1F58091C10178
:1008B0008035C1F18823B1F120FC02C00C941A0FDD
:1008C00031C08091810181112DC020FE1BC080911B
:1008D000C301813039F523E333E34BEC51E46091FC
:1008E000CC017091CD018091CE019091CF010E94F9
:1008F0002E396093CC017093CD018093CE019093FB
:10090000CF0110C080918F0190919001A091910131
:10091000B09192018093CC019093CD01A093CE0130
:10092000B093CF0130FC10C080918B0190918C016D
:10093000A0918D01B0918E018093E9019093EA011D
:10094000A093EB01B093EC018091C001843039F4A5
:1009500026FC03C08CE10C943C0FE89426F88091AF
:10096000C501882369F0813029F48FAF1DAE92E074
:100970009BAF0BC01FAEA2E0ADAFB1E0BBAF05C0F7
:10098000E2E0EFAFF1E0FDAF1BAE8091C30181303B
:1009900021F02F8D2330C9F52FC060ECC62E61E009
:1009A000D62EE12CF12C3B8DA32EB12CC5010E2CA3
:1009B00002C0959587950A94E2F780FF12C023E361
:1009C00033E34BEC51E4D6019E966D917D918D9170
:1009D0009C91D1970E942E39F60166A777A780AB2C
:1009E00091ABFFEFEF1AFF0A24E0C20ED11C33E0F7
:1009F000E316F104D9F6CDCF8091C601813029F4F8
:100A00004B8D443011F00C94120F8CE0E4EAF1E0CD
:100A1000DE01119601900D928A95E1F78BA59CA5B8
:100A200091FD08C00091C0010A30C9F00C3509F4ED
:100A3000B3C01EC18091C701873018F08DE10C94BE
:100A40003C0F90918601891769F3BE016F5F7F4F5C
:100A50000E949E1E882311F40C94280FE3CF9B8DD7
:100A6000911103C08AE10C943C0FC1018075992754
:100A7000892B09F46FCF6091E1017091E2018091BF
:100A8000E3019091E4010E94113A0E944F376730D0
:100A9000A8F68091DC01843141F0823011F00C9491
:100AA000140F27FE02C00C94140FAFEA2A2266230B
:100AB00019F0615069A703C0B091C701B9A760EDF3
:100AC00071E089A50E949E1E882311F40C94280FC2
:100AD0000091DC014090BC015090BD016090BE01CE
:100AE0007090BF0140ECE42E41E0F42E50E8A52EBA
:100AF00051E0B52EC12CD12CEB8D8E2E912CC40142
:100B00000C2C02C0959587950A94E2F780FF35C0BA
:100B1000043151F5D501D0962D913D914D915C91C7
:100B2000D39758966D917D918D919C915B970E9482
:100B3000D635F70126A537A540A951A90E94D6357B
:100B4000D70150966D937D938D939C935397B2E00C
:100B5000CB1213C0A30192010E94D635F701608B1E
:100B6000718B828B938B09C0F70186A597A5A0A9ED
:100B7000B1A9808B918BA28BB38BFFEFCF1ADF0AC9
:100B800024E0E20EF11C34E0A30EB11C43E0C416D5
:100B9000D10409F0B4CF3FC18B8D882309F462CF13
:100BA0004090BC015090BD016090BE017090BF01AB
:100BB00020E8822E21E0922EDE0111967D0130EC9C
:100BC000C32E31E0D32EA12CB12CE82FF0E0F8A7F2
:100BD000EFA38FA198A50A2C02C0959587950A943A
:100BE000E2F780FF29C0D7012D913D914D915C9195
:100BF000F401608D718D828D938D0E94D635D60162
:100C00009E962D913D914D915C91D1970E94D63544
:100C1000F60166A777A780AB91ABF2E0AF1216C0E2
:100C2000A30192010E94D635D6019E966D937D93C5
:100C30008D939C93D1970AC0F40180A991A9A2A990
:100C4000B3A9F60186A797A7A0ABB1ABFFEFAF1A88
:100C5000BF0A24E0820E911C34E0E30EF11C44E054
:100C6000C40ED11C83E0A816B10409F0B2CFD2C0E3
:100C70009F8D933069F40E3109F494C0053309F463
:100C8000C3C00C3109F0C6C060ED71E086E08DC0D4
:100C9000AB8DAA2381F3B091C401BFA34090BC01E6
:100CA0005090BD016090BE017090BF0180E8A82EF9
:100CB00081E0B82E90ECE92E91E0F92EFE013196FC
:100CC0004F01C12CD12C2A2F30E03AA729A789A5A2
:100CD0009AA50C2C02C0959587950A94E2F780FDA1
:100CE0000BC0F501808D918DA28DB38DF70186A784
:100CF00097A7A0ABB1AB44C0053309F441C0FFA135
:100D0000F1112BC0D501D0962D913D914D915C9163
:100D1000D397F40160817181828193810E94D735DC
:100D2000D7019E962D913D914D915C91D1970E9456
:100D3000D735F70166A777A780AB91ABF2E0CF126A
:100D40001FC0A30192010E94D735D7019E966D93D3
:100D50007D938D939C93D19713C0F501208D318D98
:100D6000428D538DD7019E966D917D918D919C9171
:100D7000D1970E94D735F70166A777A780AB91ABD3
:100D8000FFEFCF1ADF0A24E0A20EB11C34E0E30E1D
:100D9000F11C44E0840E911C83E0C816D10409F0D4
:100DA00096CF69CF60ED71E087E00E949E1E882398
:100DB00011F40C94280F9B8D911103C019A61F8E5E
:100DC0002AC0A0E8B1E0E0ECF1E080E090E04B8DDB
:100DD000242F30E0A901082E02C0559547950A94AA
:100DE000E2F740FD0AC058964D915D916D917C915E
:100DF0005B97408B518B628B738B01961496349664
:100E00008330910539F706C08091C101823010F01E
:100E10000C94160F19A68091C1018FA3803529F477
:100E20009B8D91110C94180F7AC2AF8DA23009F0EE
:100E300076C2BFA1B11104C0EB8DE11170C22AC00E
:100E400020E030E0A9016091CC017091CD0180914A
:100E5000CE019091CF010E94CC36882309F4EAC7D5
:100E6000FFA1FC3809F445C240F4F230A9F0F33098
:100E7000B1F0F13009F053C20AC02FA12E3809F4A5
:100E800038C208F433C22F3809F430C248C23B8D4F
:100E9000311145C21F8E43C24BA144604BA38B8DC1
:100EA000882309F4DFCDBBADAB2FB0E0B8ABAFA763
:100EB000FDADEF2FF0E0FCABEBAB81E090E07C010F
:100EC0000BAC02C0EE0CFF1C0A94E2F70DAC02C0A2
:100ED000880F991F0A94E2F7E82AF92A2B8D822FAE
:100EE00090E08E219F21892B09F4A6C7FD01EE0F0A
:100EF000FF1FEE0FFF1FE054FE4FAA0FBB1FAA0FEC
:100F0000BB1FA856BE4F2D913D914D915C9166A59A
:100F100077A580A991A90E94D6352B013C01EBA9A8
:100F2000FCA9EE0FFF1FEE0FFF1FE054FE4FABA911
:100F3000BCA9AA0FBB1FAA0FBB1FA856BE4F2D915D
:100F40003D914D915C9166A577A580A991A90E94DC
:100F5000D6354B015C01610130E8C322DD2427FE58
:100F6000F5C0E89427F84CE050E06EEE71E088E9B7
:100F700091E00E94993A892B11F481E27DC780911A
:100F8000C3018130B1F423E333E34BEC51E46091CE
:100F9000E5017091E6018091E7019091E8010E94DE
:100FA0002E396093E5017093E6018093E7019093F9
:100FB000E8018091E5019091E601A091E701B091EF
:100FC000E8018FAB98AFA9AFBAAFA3019201C301FB
:100FD000B2010E942E3927966CAF7DAF8EAF9FAFC6
:100FE0002797A5019401C501B4010E942E392B96C3
:100FF0006CAF7DAF8EAF9FAF2B9720E030E040E825
:1010000050E46FA978AD89AD9AAD0E942E392FA911
:1010100038AD49AD5AAD0E942E3927962CAD3DAD65
:101020004EAD5FAD27970E94D6352B962CAD3DADCA
:101030004EAD5FAD2B970E94D6356B017C0120E051
:1010400030E0A9010E94CC3687FDF8C6C701B60181
:101050000E94CD396B017C012B962CAD3DAD4EAD80
:101060005FAD2B9727966CAD7DAD8EAD9FAD27976D
:101070000E94D7350E94CD399B01AC01C701B60152
:1010800090580E94D6366B017C019FA1933021F4C9
:10109000F7FAF094F7F8F09420E030E0A9016FA996
:1010A00078AD89AD9AAD0E94CC3687FF11C0F7FAB2
:1010B000F094F7F8F0948FA998ADA9ADBAADB058F7
:1010C0008093E5019093E601A093E701B093E801D6
:1010D0000FA518A9000F111F000F111F00531E4F5D
:1010E000A7019601C501B4010E942E399B01AC01F4
:1010F000C301B2010E94D63520E030E040E05FE35A
:101100000E942E39D8016D937D938D939C931397F4
:101110000BA91CA9000F111F000F111F00531E4F18
:10112000A7019601C301B2010E942E39A5019401C5
:101130000E94D73520E030E040E05FE30E942E3986
:10114000F8016083718382839383E9C0212F30E0AB
:1011500038AF2FABE222F322EF2809F471C631EF4A
:1011600023228091C301813009F47BC0EFA5F8A947
:10117000EE0FFF1FEE0FFF1FE053FE4FC080D18028
:10118000E280F380A7019601C301B2010E94D63527
:101190002B013C01EBA9FCA9EE0FFF1FEE0FFF1F77
:1011A000E053FE4F80819181A281B3818FA798ABDC
:1011B000A9ABBAAB9C01AD01C501B4010E94D63503
:1011C0004B015C01A3019201C301B2010E942E39BF
:1011D0002B013C01A5019401C501B4010E942E39E7
:1011E0009B01AC01C301B2010E94D7350E94CD39E9
:1011F0004B015C01A7019601C701B6010E942E397F
:101200006B017C012FA538A949A95AA9CA01B901C6
:101210000E942E399B01AC01C701B6010E94D7354F
:101220000E94CD396B017C016093E5017093E6016A
:101230008093E7019093E8019B01AC01C501B401E3
:101240000E94D6354B015C01E894B7F82AE037EDEF
:1012500043EA5BE3C501B4010E94EE3818164CF175
:101260005EC000EC11E08FA998AD0C2C02C09595E2
:1012700087950A94E2F780FF12C023E333E34BEC37
:1012800051E4D80150966D917D918D919C91539729
:101290000E942E39F801608B718B828B938BFFEF4C
:1012A000CF1ADF0A0C5F1F4F23E0C216D104D9F614
:1012B0005DCF20E030E040E05FE3C501B4010E9473
:1012C000EE3818160CF459CE2FE632E143E85AE313
:1012D000C701B6010E942E399B01AC01C501B401C2
:1012E0000E94EE3818160CF448CE19C03BA13061AC
:1012F0003BA38FA18E58823018F44BA148604BA3BA
:101300008B8D882309F4AECB4CE050E06EEE71E09B
:1013100088E991E00E94993A892B09F42ECE2BA1FD
:1013200021709BA190FF03C0C1018E7D03C0C1014C
:101330008E7D9C7FAF8DA111937E892B09F082C594
:101340008E01035F1F4F89E0F80111928A95E9F73A
:10135000222309F44BC08BA59CA5867B892B09F021
:1013600073C58091C001853311F081116DC58091E5
:101370008B0190918C01A0918D01B0918E01898B90
:101380009A8BAB8BBC8B9091890180918801892BC2
:101390004091CC015091CD016091CE017091CF016F
:1013A0004D875E876F87788B84608D8B809170010D
:1013B00085FF06C08EEE91E00E94E52A811146C5A8
:1013C000B8018EEE91E00E94560F80911A018111B2
:1013D00041C50E94AB1C892B09F43CC580E2809377
:1013E0001A010E94BF1E0E94CD1734C58091700162
:1013F000F090890181FF26C08FA18150833018F0C1
:10140000FBA1F064FBA32B8D222339F03F8D3230FA
:1014100021F44BA140684BA315C080E1F81212C023
:101420008091800181509BA19074833030F4992386
:1014300049F09BA190629BA305C0911103C0ABA191
:10144000A062ABA38091DD019091DE01A091DF014C
:10145000B091E0018093940190939501A09396013F
:10146000B09397018091C20180938101882311F08C
:1014700088E08D8B8091CC019091CD01A091CE011F
:10148000B091CF0180938F0190939001A09391012F
:10149000B09392018D879E87AF87B88B8090E901CA
:1014A0009090EA01A090EB01B090EC01A5019401AD
:1014B00060918B0170918C0180918D0190918E01D2
:1014C0000E94CC36BBA1B074EB2E811103C0EBA1FE
:1014D000E5FF20C0FF2071F0FBA1F7FD0BC0EE205F
:1014E00021F040E050E0BA0102C0B501A4018F2D07
:1014F0000E940B348091E9019091EA01A091EB01E7
:10150000B091EC0180938B0190938C01A0938D019D
:10151000B0938E01E1100CC080918B0190918C01F1
:10152000A0918D01B0918E01898B9A8BAB8BBC8B76
:101530008091ED01809393018091CA01909189017E
:10154000981751F049895A896B897C890E940B341C
:101550008091CA01809389019D8980918901892B9D
:101560008D8BF090C901809188018F15A9F0809131
:101570001A01823029F00E94FA338F2D0E94263200
:101580008091C901811103C01092880105C090911A
:101590008801892B809388019D8980918801892BFE
:1015A0008D8B8091C001843099F4C090E101D0907E
:1015B000E201E090E301F090E40180911A018230B1
:1015C00039F00E94FA3340E0C701B6010E94983119
:1015D0008091C501809384018091C3018093820131
:1015E0002F8D233071F58091C60180938501811183
:1015F00008C01092F6011092F7011092F8011092B3
:10160000F901C090F601D090F701E090F801F09058
:10161000F901A70196016091BC017091BD01809113
:10162000BE019091BF010E94CC36882351F0C09238
:10163000BC01D092BD01E092BE01F092BF010E94B8
:101640005F2B8091C70190918601981769F0809374
:1016500086018CE0FE013196A4EAB1E001900D9282
:101660008A95E1F70E945F2B8091C40180938301EA
:101670008091C0018632F1F138F48C3109F18E315C
:10168000F9F08A3069F04FC08C35D1F1863609F413
:1016900041C0883209F047C068E971E087E02DC099
:1016A00060ED71E089A50E94161D8091860139A523
:1016B000381339C08CE0E0EDF1E0A4EAB1E025C0D8
:1016C0008D8981608D8B4F8D442329F0B8018EEE7A
:1016D00091E00E94560FB80180ED91E00E94560FF4
:1016E0008CE0E0EDF1E0A8E9B1E001900D928A957F
:1016F000E1F719C068E971E086E00E94161D13C089
:101700008CE0EEEEF1E0A0EBB1E001900D928A9555
:10171000E1F707C08CE0E0EBF1E0DF011D928A9574
:10172000E9F70E945F2B8091C10180938001803591
:1017300009F41CC3BF8DB23009F018C3813021F405
:10174000BE01635F7F4F06C0811109C08D89816032
:101750008D8BB8018EEE91E00E94560FFEC2825032
:10176000823008F093C28091E5019091E601A0914A
:10177000E701B091E8018F8F98A3A9A3BAA3ABADFD
:1017800094E0A99F70011124F701E856FE4FF8A7D5
:10179000EFA3970120533E4F3AA729A7D9014D90B7
:1017A0005D906D907C902081318142815381C30195
:1017B000B2010E94D7356BA77CA78DA79EA7EDAD80
:1017C000B4E0EB9F80011124980128563E4F3CAFB6
:1017D0002BAFC80180539E4F9EAF8DAFDC018D9023
:1017E0009D90AD90BC90F90120813181428153815F
:1017F000C501B4010E94D7356FA778AB89AB9AAB0E
:1018000077FA709477F87094D501C401B0588B8F33
:101810009C8FAD8FBE8FF701E251FE4F2BA53CA5EB
:101820004DA55EA560817181828193810E94D6352C
:101830006B017C01F801E251FE4F2FA538A949A99F
:101840005AA960817181828193810E94D6354B01B2
:101850005C01A7019601C301B2010E942E396BAB56
:101860007CAB8DAB9EABA50194016B8D7C8D8D8D7A
:101870009E8D0E942E399B01AC016BA97CA98DA97C
:101880009EA90E94D7356BAB7CAB8DAB9EABA501FF
:101890009401C301B2010E942E394B015C01A701E2
:1018A00096016B8D7C8D8D8D9E8D0E942E399B01B6
:1018B000AC01C501B4010E94D6352BA93CA94DA9A4
:1018C0005EA90E9456366B017C019BA192FF13C05A
:1018D0002DEB37E346E055EBC701B6010E94EE3829
:1018E00087FD1DC02BED3FE049EC50E4C701B60178
:1018F0000E94D63512C02DEB37E346E055E3C70111
:10190000B6010E94CC36181654F02BED3FE049EC9E
:1019100050E4C701B6010E94D7356B017C0180906D
:10192000640190906501A0906601B09067012F8DD1
:1019300038A149A15AA1CA01B9010E94D735A50110
:1019400094010E94D635A50194010E942E390E946F
:10195000CD394B015C0120E030E040E05FE3C7019E
:10196000B6010E942E392F8D38A149A15AA10E949B
:101970002E399F77A50194010E94D6360E94BB376D
:101980000E944F377CAB6BABDB01AB2B09F4D8CE9D
:101990001D894B01A12CB12C13FF12C0C501B4014C
:1019A0000E947E379B01AC016D857E858F8598896D
:1019B0000E942E396D877E878F87988B177F1D8BAE
:1019C000C501B4010E947E374B015C019B01AC0153
:1019D000C701B6010E94D6366BA37CA38DA39EA33C
:1019E000EFADB4E0EB9FC00111248C0108561E4FEF
:1019F000FC01E251FE4FD8012D913D914D915C913A
:101A000060817181828193810E94D635A501940104
:101A10000E94D63627966CAF7DAF8EAF9FAF2797CB
:101A20002BA13CA14DA15EA1CA01B9010E942E3992
:101A30009B01AC0160E070E080E090E40E94D6354C
:101A40006B017C012BEA3AEA4AE25EE36BA17CA1DE
:101A50008DA19EA10E942E394B015C0120E030E057
:101A600040E850E4C701B6010E94D7359B01AC01A4
:101A7000C501B4010E942E396FAB78AF89AF9AAF20
:101A800020E030E040E05FE3C701B6010E942E395C
:101A900023966CAF7DAF8EAF9FAF23971F8E22240E
:101AA0002394312CEBA9FCA9E215F30509F448CEE7
:101AB000BF8DBC3008F044C02B8D3C8D4D8D5E8DAC
:101AC00023966CAD7DAD8EAD9FAD23970E942E39D0
:101AD0006B017C01A30192016FA978AD89AD9AAD2C
:101AE0000E942E39A70196010E94D7357B016C0117
:101AF000A301920123966CAD7DAD8EAD9FAD239772
:101B00000E942E394B015C012B8D3C8D4D8D5E8DDD
:101B10006FA978AD89AD9AAD0E942E399B01AC01B9
:101B2000C501B4010E94D6352B013C01EF8DEF5F5A
:101B3000EF8F470156018B8E9C8EAD8EBE8E65C099
:101B4000B10180E090E00E947E372BA13CA14DA125
:101B50005EA10E942E396B017C010E94D1366B8FF1
:101B60007C8F8D8F9E8FC701B6010E94BF394B01BC
:101B70005C01A9A5BAA5CD90DD90ED90FC90F7FA97
:101B8000F094F7F8F094ADADBEAD8D919D910D90B0
:101B9000BC91A02D8F8F98A3A9A3BAA3A7019601EA
:101BA0006B8D7C8D8D8D9E8D0E942E392B013C017D
:101BB0002F8D38A149A15AA1C501B4010E942E3927
:101BC0009B01AC01C301B2010E94D7352B013C013E
:101BD000A7019601C501B4010E942E396B017C0159
:101BE0002F8D38A149A15AA16B8D7C8D8D8D9E8D35
:101BF0000E942E399B01AC01C701B6010E94D63567
:101C00006B8F7C8F8D8F9E8F1F8EA30192016BA592
:101C10007CA58DA59EA50E94D735EFA1F8A5608370
:101C20007183828393832B8D3C8D4D8D5E8D6FA54B
:101C300078A989A99AA90E94D735ABADBCAD6D939F
:101C40007D938D939C93139727962CAD3DAD4EAD10
:101C50005FAD2797F80160817181828193810E9435
:101C6000D735D8016D937D938D939C931397BE01C7
:101C7000635F7F4F88E991E00E94560F80911B01BE
:101C800081116BC0BFEF2B1A3B0A0CCF8D8984608A
:101C90008D8B80911A01823009F45FC00E94FA3363
:101CA00080911B01811162C0FBA1F071FF2E109287
:101CB0001F012BA123FB882780F90E94AB2B86B143
:101CC000807290910001891749F084E00E94CC2A2B
:101CD0000E94EE3280E00E94AB2B48C0B8018EEE2D
:101CE00091E00E94560F81E08093190182E00E94EA
:101CF000DC2A0E94EE3280911B01811137C0809155
:101D00001A018111F6CF80911901813081F4FF20F1
:101D100051F08CE0E1E0F1E0ADE0B1E001900D9236
:101D20008A95E1F707C085E00E94CC2A03C081E0D4
:101D300080931F011092190180E00E94AB2B0E943A
:101D4000EE320E94582A0E94BB1C0E94C7310E949A
:101D5000572E80911F0181118CC08CE0EEEEF1E0D6
:101D6000A8E9B1E001900D928A95E1F78091C80150
:101D700080938701882309F47FC00E94FA33809101
:101D8000870190911A01833041F49230D1F188E0BB
:101D90000E94DC2A0E94EE3234C081E080938001F0
:101DA0001092840110928301109281011092860199
:101DB000109289011092880184E68093210180931A
:101DC000220180932301923091F064EA71E080E077
:101DD0000E949E1E8823E1F10E945F2B40E050E0AC
:101DE000BA0180E00E94C23280E00E94263281EF78
:101DF00091E00E94B72C88E891E00E94B72C0E94E5
:101E0000522E109287012FC081E036C082E034C08C
:101E100088E132C086E230C089E12EC084E02CC067
:101E20008BE12AC085E228C084E126C08EE124C06F
:101E30008FE122C086E120C080E21EC082E21CC089
:101E400083E21AC084E218C080E116C08FE014C09B
:101E500087E012C08CE0EEEEF1E0A8E9B1E001907D
:101E60000D928A95E1F780E007C01A8E1BA20C94B0
:101E7000DF010E945C347ACFC65BDF4F0FB6F89467
:101E8000DEBF0FBECDBFDF91CF911F910F91FF90AD
:101E9000EF90DF90CF90BF90AF909F908F907F900A
:101EA0006F905F904F903F902F900895FF920F9307
:101EB0001F93CF93DF938C01EB018091700185FF1D
:101EC00026C0F0901A0180E2F81629F1C8010E949C
:101ED000E52A8823E1F081E080931D0188E0F8166F
:101EE00041F00E94623482E00E94CC2A0E94EE32CD
:101EF0000EC088E00E94DC2A0E94EE3280911B0115
:101F0000811105C080911A018111F6CFEACF80912D
:101F10001A01823041F10E94EE3280911B01811141
:101F200022C09091DA028091D902981303C00E94D6
:101F3000D831F1CFBE01C8010E949827811113C08A
:101F40008091700181FF0FC0888584FF0CC04C8197
:101F50005D816E817F8180E1DF91CF911F910F9133
:101F6000FF900C940B34DF91CF911F910F91FF9054
:101F70000895CF93DF93CDB7DEB761970FB6F8948E
:101F8000DEBF0FBECDBF8091C00082608093C000D5
:101F90001092C50080E18093C4008091C1008869DF
:101FA0008093C10080E090E00E94521E8A3009F0C8
:101FB0003CC545E550E061E070E08BE291E00E94B5
:101FC0005A1E892B09F431C58AB18C618AB9209ACD
:101FD0008AB1806E8AB9809181008F7E8093810062
:101FE00080918100886080938100809180008C7F47
:101FF00080938000809180008F708093800080911A
:102000006E00887F80936E0014BC15BC80916E00BA
:10201000816080936E0087B1887F87B988B18760BF
:1020200088B980916C00876080936C008091680013
:102030008260809368008CE0E1E0F1E0DF011D92B6
:102040008A95E9F7789410921A018091700184FFC3
:1020500003C081E080931A01AAE12A2EA1E03A2E62
:102060009924939480911A0191E1F10111929A952A
:10207000E9F780931A0184E680932101809322017D
:10208000809323018CE0ADE0B1E01D928A95E9F7E1
:102090001092190110921D0610921E0610921F0632
:1020A000109220068091FA018093FB0180E4E0E821
:1020B000F1E011928A95E9F764EA71E080E00E940C
:1020C0009E1E811103C087E00E94CA2C0E94293401
:1020D0003B9A43980E94C4303D98459A80E00E9404
:1020E000AB2B0E94BB1C0E94582A0E94C7310E9441
:1020F0005C3487EF91E00E94B72C8091700183FFE0
:1021000010C00E94B02E882361F090921A0181EFD6
:1021100091E00E94B72C80E991E00E94B72C0E94C8
:10212000522E80911A01817899F081EF91E00E94FE
:10213000B72C8BEC91E00E94B72C0E94522E90920B
:102140001A0110E000E0E2E0EE2EF4E08F2E29C04C
:1021500010921A010E94DE2CF4CFE92FF0E0EF5D1F
:10216000F94F80819F5F913809F490E09093FB01D3
:102170008F3FE9F08A3021F50E94EE3280911B01F9
:10218000811170CFE12FF0E0EF5EF84F1082F02F59
:10219000F170FF2E00FF18C08BE00E94CA2C10E0E7
:1021A00000E09091FB018091FA019813D6CF0E9434
:1021B000D8310E94EE3280911B01882391F352CFD7
:1021C0008D3009F00CC4D8CF80911107882309F411
:1021D00003C4843209F0F8C3998A809112078334CA
:1021E00009F134F4882361F0843209F006C11AC081
:1021F0008A3459F08835B1F0873409F0FEC012C036
:102200008FE592E00E94B72CDDC380911A018F7D8B
:1022100009F0C8C3809113078D3309F0CBC30E9426
:10222000A501C3C3909113079111C4C3833409F46A
:10223000B2C01CF4843239F0C5C3873469F08835E4
:1022400009F4C9C0BFC380911A018871F82E09F042
:10225000A9C30E94402DB6C389E592E00E94B72C25
:10226000809180018C3838F085E592E00E94B72C8F
:10227000809180018A580E94912C86E492E00E940D
:10228000B72C809186018A5C0E94912C86E492E0B2
:102290000E94B72C809184018F5E0E94912C86E46D
:1022A00092E00E94B72C8091820125E1281B822FA9
:1022B0000E94912C86E492E00E94B72C80918301C9
:1022C000865A0E94912C86E492E00E94B72C80915D
:1022D00081019EE5981B892F0E94912C8091870196
:1022E000882399F089E492E00E94B72C80918701BD
:1022F000833029F08E3139F0823039F404C080E324
:102300000E940A3202C00E94912C89E492E00E944D
:10231000B72C80918901803131F0803231F0811108
:1023200007C085E303C083E301C084E30E940A324F
:1023300089E492E00E94B72C80918801882311F0F3
:1023400088E301C089E30E940A3282E592E00E949C
:10235000B72C809193010E94912C8FE492E00E940F
:10236000B72C60918F0170919001809191019091B3
:1023700092010E945A2C8CE492E00E94B72C60914A
:102380008B0170918C0180918D0190918E0140E0C4
:102390000E94BD2B0EC080911A01823069F40E9408
:1023A000623481EF91E00E94B72C88EA91E00E94AC
:1023B000B72C0E94522E06C38111F4C2E0921A017A
:1023C00081EF91E00E94B72C81EB91E00E94B72C45
:1023D0000E94522E3BC080911A01813009F0F2C256
:1023E00081EF91E00E94B72C89EB91E00E94B72C1D
:1023F0000E94522E10921A01E5C290911A01923059
:1024000008F0D0C2893409F49DC034F4833271F0ED
:10241000883409F45AC045C1823509F4ECC08335CB
:1024200009F47EC08E3409F03CC115C180911307B8
:102430008111C0C210E0BE016F5F7F4F812F0E94EB
:102440009E1E811105C087E00E94CA2CF12CBAC2E1
:1024500083E492E00E94B72C163029F0173041F443
:102460008DE392E002C080E492E00E94B72C04C0A9
:1024700086E3810F0E94912C8AE30E940A32CE01EA
:1024800001960E94782C0E94522E1F5F183099F6F8
:1024900087E392E00E94B72C80EB91E00E94782CB9
:1024A0000E94522E81E392E00E94B72C6091BC0101
:1024B0007091BD018091BE019091BF010E94692C75
:1024C0000E94522E0E94572E7DC28091700184FF7F
:1024D00066C280921A0180911307882381F090913F
:1024E0001407911167C2893539F08A3539F088357A
:1024F00009F060C281E003C082E001C084E00E9474
:10250000083580911B0181115DC210921A010E9451
:102510004F1580911307811155C20E94DE2C96CF72
:10252000809113078C3409F045C2809114078035DF
:1025300009F040C28091150781113CC280E80E94D9
:10254000DC2A40C2E98A80911307811136C040E538
:1025500050E06EEA73E081E197E00E945A1E892BF9
:1025600051F41092110740E550E061E177E08EEA06
:1025700093E00E94CC1C8DE192E00E94B72C0E9457
:102580008B2A0E94522E87E192E00E94B72C81E5AF
:102590000E940A3286E50E940A3288E40E940A32CA
:1025A0008CE20E940A328FE00E94912C8CE20E9401
:1025B0000A3280E80E94912CFCCEA3E0A98B8D33D7
:1025C00009F0F8C183E0282F30E0F901EF5EF84F01
:1025D0009081D901A25FB84F9C938F5F9081911138
:1025E000F2CF898B40E550E061E177E08EEA93E03D
:1025F0000E94CC1CE7C180911307833509F0DAC132
:1026000080911407843509F0D5C1809115078D3369
:1026100009F0D0C1809117078111CCC180911607B4
:10262000843239F08A3239F0833209F0C3C182E052
:1026300003C081E001C08FEF0E942A1D81EF91E06D
:102640000E94B72C85E791E00E94B72C0E94522E81
:102650000E946234B7C1E98A8091130781111DC0BD
:1026600010E0812F0E94982A811104C087E00E9407
:10267000CA2C0EC084E192E00E94B72C812F0E94E8
:10268000912C8DE30E940A320E948B2A0E94C62C54
:102690001F5F123009F496C1E4CF911183C111E09C
:1026A00001C010E0BE01635F7F4FCE0141960E94E2
:1026B0002235811103C072E0F72E84C1E98981E0DF
:1026C0008E0F898BF0E0EF5EF84F90819D3309F01B
:1026D00071C1112371F1482F50E0282F30E0F9012A
:1026E000EF5EF84F9081241B350BD901AF5EB84FD8
:1026F0009C938F5F90819111F0CF898B0E94A501EF
:10270000811153C16D857E858F8598890E94113A0C
:102710000E944F37162F0E94FA33B1E51B9FC0016C
:10272000112440E550E061E177E09D5F0E94CC1C00
:102730008DCEBE016F5F7F4FCE0141960E94223544
:10274000882309F4B8CFE989F0E0EF5EF84F808183
:10275000811130C1AD84BE84CF84D88820E030E0C0
:102760004FE753E4C601B5010E94EE3818160CF489
:1027700021C149805A806B807C80C601B5010E94CE
:102780004F37062F20E030E0A901C301B2010E94BB
:10279000CC3687FD0CC1043608F440C0045680E0F6
:1027A000033098F510E0000F111F000F111F823049
:1027B00079F0F801833011F1813019F0E55DFE4FB9
:1027C00002C0E95CFE4F4082518262827382E4C0A3
:1027D0000D5B1E4F20E030E040E752E4C301B20140
:1027E0000E942E3920E030E040E752E40E942E396A
:1027F000F8016083718382839383CEC0E15BFE4FD7
:1028000077FA709477F87094DECF8F5F0A3008F40F
:10281000D1C0843009F4CEC00A50C2CFC301B20186
:102820000E94113A0E944F3710E00132110508F062
:10283000C1C0F801E75BFF4F0C94793A633008F4AC
:10284000BCC060935B01A8C060935E01A5C06093AB
:102850005C0102C060935D010E941E159DC08091C5
:102860007001662311F0846095C08B7F93C08091C6
:102870007001662311F080648DC08F7B8BC08091C6
:102880007001662311F0806801C08F77809370011A
:1028900080E00E94AB2B80C060935F017DC04092BE
:1028A000600150926101609262017092630174C094
:1028B00040926401509265016092660170926701D6
:1028C0006BC080917001662311F0816001C08E7F22
:1028D000809370010E945F2B5FC08091700166231E
:1028E00021F084FF6DC0806255C08F7D53C0809100
:1028F0007001662311F0886001C0877F80937001AA
:102900000E94C43049C080917001662311F080613B
:1029100041C08F7C3FC0609371013EC04092720104
:1029200050927301609274017092750135C04092AB
:1029300076015092770160927801709279012CC0F3
:1029400070E070937B0160937A0126C040927C0115
:1029500050927D0160927E0170927F011DC0409275
:1029600068015092690160926A0170926B0108C01F
:1029700040926C0150926D0160926E0170926F01F5
:102980000E94293409C080917001662311F0826091
:1029900001C08D7F809370010E94091D13C055E016
:1029A000F52E10C048E0F42E0DC0F82E0BC034E018
:1029B000F32E08C023E0F22E05C096E0F92E02C0E7
:1029C0008AE0F82E8F2D08C080911A01817211F0D3
:1029D00089E0E3CB0E94A5010E94D62CE0CB002326
:1029E00029F0893209F0DDCB0D7FDBCB813208F491
:1029F000D8CB8F3209F4D5CB883289F08B3389F06C
:102A00001F3488F4212F30E01F5F9FE9980FF901F0
:102A1000EF5EF84F9A3108F480528083C2CB02E017
:102A2000C0CB04E0BECB01E0BCCB87E00E94CA2C47
:102A30008FEF0E942A1D0E94402DC6CA80915C0122
:102A4000682F20915D01422F982F917080FD94E0B6
:102A5000822F817020FD80E261FD986041FD8064DD
:102A600062FD906142FD80689093FC018093FD01BE
:102A700008951F920F920FB60F9211248F939F9378
:102A80008BB19091FC019C71837E892B8BB915BC15
:102A90009F918F910F900FBE0F901F90189580916E
:102AA0006F008D7F80936F0080918100887F8160AF
:102AB000809381001092FE0180915E0190911A0135
:102AC0008F3F39F420911E06211103C0903881F404
:102AD00002C0943069F090E0009741F0EFE9FFE028
:102AE0003197F1F700C000000197F6CF81E001C0F7
:102AF00080E09091700192FF02C091E089278823C5
:102B000011F0289A0895289808951F920F920FB6F1
:102B10000F9211242F933F934F935F936F937F9363
:102B20008F939F93AF93BF93EF93FF938091FE0199
:102B3000811122C28BB190910E02907E8F71892BF0
:102B40008BB98BB1837E90910D02892B8BB98091CB
:102B50000C0286BD82E085BD81E08093FE01789401
:102B60008091200290912102892B09F0BFC08091B1
:102B7000220290914D02981709F4A4C0E09122021C
:102B80002E2F30E087E0E89FF0011124ED5DFD4F2E
:102B9000F0932102E0932002828193819093890037
:102BA000809388008081918190931C0280931B0206
:102BB000E48180911D028E1761F1E0931D0282E194
:102BC000E89FF0011124E25BFD4FF0931F02E093B8
:102BD0001E0284859585A685B785B695A795979598
:102BE00087958093070290930802A0930902B093FF
:102BF0000A028093030290930402A0930502B0930B
:102C000006028093FF0190930002A0930102B0930B
:102C10000202A0911E02B0911F0250969C91509703
:102C20008091FD01892780930E0287E0829FF00149
:102C3000839FF00D1124ED5DFD4F25814D915D9138
:102C40006D917C911397022E04C0769567955795E8
:102C500047950A94D2F740930F0250931002609365
:102C600011027093120214964D915D916D917C91B9
:102C70001797022E04C076956795579547950A9445
:102C8000D2F740931302509314026093150270938D
:102C9000160218968D919D910D90BC91A02D04C0A7
:102CA000B695A795979587952A95D2F780931702A1
:102CB00090931802A0931902B0931A0286810E9481
:102CC000B43214C00E944F15E0911E02F0911F0211
:102CD0008189882339F01092B3008091B0008F77FA
:102CE0008093B00084E00E94DC2A46C180911901E3
:102CF0008130B1F486B1807290910001891781F022
:102D0000109219018CE0E1E0F1E0ADE0B1E001905A
:102D10000D928A95E1F780911D06806480931D06CF
:102D200010920D024091FF0150910002609101024A
:102D30007091020280910F0290911002A0911102F5
:102D4000B0911202840F951FA61FB71F8093FF0139
:102D500090930002A0930102B0930202E0911E0240
:102D6000F0911F0244855585668577854817590778
:102D70006A077B0768F524E020930D02448555859A
:102D800066857785841B950BA60BB70B8093FF0197
:102D900090930002A0930102B093020220898091D7
:102DA000010190910201A0910301B091040125FF5E
:102DB00004C00197A109B10903C00196A11DB11D6D
:102DC0008093010190930201A0930301B093040149
:102DD0004091030250910402609105027091060235
:102DE0008091130290911402A0911502B0911602E5
:102DF000840F951FA61FB71F8093030290930402B0
:102E0000A0930502B09306024485558566857785B3
:102E1000481759076A077B0778F520910D0228604B
:102E200020930D024485558566857785841B950B17
:102E3000A60BB70B8093030290930402A0930502A4
:102E4000B093060220898091050190910601A0911E
:102E50000701B091080126FF04C00197A109B1093B
:102E600003C00196A11DB11D809305019093060139
:102E7000A0930701B0930801409107025091080206
:102E80006091090270910A028091170290911802D4
:102E9000A0911902B0911A02840F951FA61FB71FA7
:102EA0008093070290930802A0930902B0930A024C
:102EB0004485558566857785481759076A077B07D6
:102EC00078F520910D02206120930D0244855585EF
:102ED00066857785841B950BA60BB70B809307023D
:102EE00090930802A0930902B0930A02208980916E
:102EF000090190910A01A0910B01B0910C0127FFEB
:102F000004C00197A109B10903C00196A11DB11D1B
:102F10008093090190930A01A0930B01B0930C01D7
:102F200080911A01843039F490910D028091200132
:102F3000892380930D0280911B0290911C020197BE
:102F400090931C0280931B02892B69F4109221023A
:102F500010922002809122028F5F8093220286309D
:102F600011F41092220290910D028091FC018927A8
:102F700080930D021092FE01FF91EF91BF91AF91EE
:102F80009F918F917F916F915F914F913F912F9181
:102F90000F900FBE0F901F9018958091700182FFC7
:102FA00002C0289A01C028988091FC0180930D02EC
:102FB00080915B01880F8450819580930C028091F1
:102FC0006F00826080936F0008953F924F925F92EE
:102FD0006F927F928F929F92AF92BF92CF92DF9229
:102FE000EF92FF920F931F93CF93DF93CDB7DEB78E
:102FF000A4970FB6F894DEBF0FBECDBF10911E068A
:10300000112391F181E080931A0189EA92E00E94F4
:10301000B72C812F0E94912C0E94C62C85EF91E045
:10302000019739F0EFE9FFE03197F1F700C00000B8
:10303000F7CF1150123030F08FB7F89410921E066F
:103040008FBF12C081EF91E00E94B72C8FED91E00D
:103050000E94B72C0E94522E80E10E94D22A8091B9
:103060001D0684FFFCCFE8CF10911D06112309F443
:10307000BBC214FF04C081E080931B01BFC310FFDB
:10308000BFC18CE0E1E0F1E0DE01599601900D92C4
:103090008A95E1F7BE01675E7F4FCE010D960E94D3
:1030A000232B8CE30E940A3280911A018830E1F0D0
:1030B00058F4813099F1A8F0823099F1843009F008
:1030C00043C084EF92E03EC0803229F118F4803191
:1030D00071F03AC0803441F18038B1F58CED92E066
:1030E00031C087E093E02EC083E093E02BC0809155
:1030F0001C0187FD10C08DEF92E00E94B72C8091DB
:103100001C0180FF06C080E31AC082FF17C085FF44
:10311000FACF81E314C089EF92E014C08EEE92E002
:1031200011C088EE92E00EC082EE92E00E94B72CB1
:1031300080911C0183FFE9CF83E301C082E30E94F9
:103140000A3202C00E94B72C80915F01F82FF17003
:10315000BF2E80FF07C080912601882319F085EDDE
:1031600092E053C04090BC015090BD016090BE0100
:103170007090BF0144EA842E41E0942E9E012F5F9F
:103180003F4F7901CE010D966C0100E0F401619191
:103190007191819191914F012085318542855385AF
:1031A0000E94D735F7016083718382839383023055
:1031B00061F4A30192010E94D735F7016083718306
:1031C00082839383BB2019F0CACFB11011C0F701DD
:1031D0002081318142815381F60160817181828138
:1031E00093810E94D635F601608371838283938335
:1031F0000F5FF4E0EF0EF11C24E0C20ED11C03308F
:1032000029F6B110ACCF8EEC92E00E94B72CCE0123
:103210000D960E94782C80915F0181FF1FC089EC80
:1032200092E00E94B72C9091FB058091DA029817EA
:1032300010F0815F01C08150891B0E94912C8CE2AB
:103240000E940A328091FB019091FA01981710F0C8
:10325000805801C08150891B0E94912C84EC92E01F
:103260000E94B72C80911A018C7749F06091BF02BF
:103270007091C0028091C1029091C20203C060E0CF
:1032800070E0CB010E945A2C8CE20E940A326091BD
:103290002701709128018091290190912A0140E035
:1032A0000E94BD2B0E94B02EF82E0E94642B082F86
:1032B00086B1982F907280910001E92EE8268F2D1B
:1032C000802B8E2959F18FEB92E00E94B72CEE20D3
:1032D00019F080E50E940A32FF2079F0F0FE03C069
:1032E00088E50E940A32F1FE03C089E50E940A3295
:1032F000F2FE03C08AE50E940A32002379F000FF43
:1033000003C082E50E940A3201FF03C088E40E94E4
:103310000A3202FF03C083E50E940A32809126012F
:10332000882321F081508093260118C080911A01D2
:103330008C7711F08DE101C089E0809326018091A6
:103340002501811103C081E08093250189EB92E082
:103350000E94B72CCE0101960E94782C0091250185
:10336000002321F001500093250142C080911A01F1
:103370008C7711F083E101C089E08093250184EB13
:1033800092E00E94B72C809121010E94912C8CE246
:103390000E940A32809122010E94912C8CE20E94AC
:1033A0000A32809123010E94912C8091B00087FF06
:1033B00005C02D9B02C002E001C001E0439B03C099
:1033C000FF24F39403C0002399F0F12C80EB92E0EA
:1033D0000E94B72C002339F0013011F483E501C0BD
:1033E00083E40E940A32FF2019F086E40E940A3228
:1033F0008EE30E940A320E94C62C81E00E94D22AEB
:10340000812F887E09F467C080911A01982F9370EC
:1034100009F050C08872A1F080911C01807C81F479
:103420000E942C2682E080931E0180911A01803236
:1034300039F417FDE1C180911C01806880931C0163
:1034400080911A01811103C091E090931C0116FF35
:1034500007C085FD05C090911C01906490931C01EC
:1034600013FF05C0807E19F480E180931A0115FFD7
:1034700021C081EF91E00E94B72C8DE991E00E947C
:10348000B72C0E94522E80911C0187FD0EC0909196
:103490001A01903439F483FFABC1837E826080933C
:1034A0001C01A6C1903809F0A3C180911C01806263
:1034B00080931C0117FF0CC080911A01813029F400
:1034C00080911C01856080931C0180E880931A0123
:1034D00088EE0E94D22A11FF44C0812F8876F1F530
:1034E00080911A01803471F480911C0185FD0AC01D
:1034F00084FF03C010921A0105C082FF03C08860D8
:1035000080931C0180911A01882381F084FF26C0DA
:1035100090911C0190FF22C0803141F480912401E0
:10352000882321F088608093240118C010921E0126
:103530000E94AB1C892B71F080911C0186FD0AC092
:1035400010921C0188E080931A010E94BF1E0E9405
:10355000CD1704C010921C0110921A0182E00E9443
:10356000D22A12FF41C080911A01807D90911C01E6
:103570008823D9F080911D01811117C097FD15C0D6
:103580000E942C268091DA028093D8020E94502655
:1035900080911E0181FF05C090911C019160909364
:1035A0001C01897F80931E011CC097FF0AC01092E6
:1035B0001E010E94BB1C0E94582A0E945C340E947B
:1035C000C73180911C0185FF08C08F77816080938F
:1035D0001C0180E480931A0104C010921C01109217
:1035E0001A0184E00E94D22A90911F06992309F4BF
:1035F000ABC08FB7F89410921F068FBF4091210186
:1036000090FD02C0842F01C084E691FD865F92FD8B
:103610008A5093FD8F5F94FD8150893C08F088ECBF
:103620008A3008F48AE03091220195FD02C0232FF0
:1036300001C024E696FD22E397FD29E1481303C06B
:10364000231709F481C08093210120932201109255
:1036500025011091DA023090FB0589E9D82E96E712
:10366000E92E26E9F22E0EE732E3432E131509F474
:1036700057C0812E912C489CC001499C900D11246B
:10368000FC01E552FD4F5F01CF010E94381C562E10
:10369000672E782EC92E2D2D3E2D4F2D502F0E9496
:1036A000EE3818164CF42D2D3E2D4F2D502F6D2D2C
:1036B0007E2D8F2D902F08C0252D362D472D5C2D6A
:1036C000652D762D872D9C2D0E942E39F501668B58
:1036D000778B808F918F489CC001499C900D11245D
:1036E0009C0125523D4F7901F90182A093A0A4A02D
:1036F000B5A0A501940166897789808D918D0E947E
:10370000EE3818162CF4F701868A978AA08EB18EAF
:103710001F5F103109F410E0D52C73010C2DA6CFDA
:103720008D2D9E2DAF2DB02F8093190690931A06E4
:10373000A0931B06B0931C060E942C268091DA02EF
:103740008093D8020E94502690912006992309F474
:1037500048C08FB7F894109220068FBF20912301A4
:1037600090FD02C0822F01C084E691FD865F92FD2C
:103770008A5093FD8F5F94FD8150893C08F088EC5E
:103780008A3008F48AE0281749F020911E01286049
:1037900020931E01809323011092250180911A012C
:1037A00095FF0DC0803159F420912401211102C0F0
:1037B00022E003C020FF03C0246020932401907CFA
:1037C00081F0882311F0887161F01091880116FF53
:1037D00002C01F7B01C01064812F0E94263210930B
:1037E000880180911A018C7F49F00E94BF1E06C09B
:1037F00080E480931A0159CE80E229CEA4960FB6B8
:10380000F894DEBF0FBECDBFDF91CF911F910F9116
:10381000FF90EF90DF90CF90BF90AF909F908F90F0
:103820007F906F905F904F903F900895F894F99932
:10383000FECF92BD81BD81E08FBB80B58627482F2A
:10384000082E000C550B262F30E024233523232B84
:1038500039F06F3F19F060BD84E006C084E104C018
:10386000882321F060BD84E28FBBF99A7894089593
:10387000BF92CF92DF92EF92FF920F931F93CF935D
:10388000DF937C01FC0102A513A5D4A5C5A5818900
:1038900080FF18C06091220170E080E090E00E94FB
:1038A00080372AE037ED43E25CE30E942E399B012A
:1038B000AC01B8018D2F9C2F0E942E398B01D82F7F
:1038C000C92F2DC082FD17C06091210170E080E0FA
:1038D00090E00E9480372AE037ED43E25CE30E94EB
:1038E0002E399B01AC01B8018D2F9C2F0E942E39DF
:1038F0008B01D82FC92FF701B6A0C7A0D0A4F1A47F
:103900002B2D3C2D4D2D5F2DB8018D2F9C2F0E940E
:10391000EE38181624F40B2D1C2DDD2DCF2D20E0B4
:1039200030E040E85FE3B8018D2F9C2F0E94EE3815
:10393000181624F000E010E0D0E8CFE3B8018D2F96
:103940009C2FDF91CF911F910F91FF90EF90DF900F
:10395000CF90BF9008958091DA029091FB0598175F
:1039600039F022E3829FC001112485529D4F0895B2
:1039700080E090E008958CE1E1E0F6E0DF011D9247
:103980008A95E9F71092DA021092FB0581E08093A4
:10399000D9021092D80208959F92AF92BF92CF920F
:1039A000DF92EF92FF920F931F93CF93DF935C010F
:1039B0008A017B01E40EF51EEB01912C6C01C61A05
:1039C000D70ACE018C0D9D1DCE15DF0589F0911013
:1039D00008C0292D990C330B232F221F2227221FC9
:1039E00001C021E06991922E960E0E94161CE9CF2B
:1039F000692DC501800F911FDF91CF911F910F910C
:103A0000FF90EF90DF90CF90BF90AF909F900C947D
:103A1000161C6AE080E090E00E94161C45E550E02C
:103A20006BE271E081E090E00C94CC1C0F931F934B
:103A3000CF93C82F8B010E94FA332DE0C29FC001A3
:103A400011244CE050E0B8019E5FCF911F910F917F
:103A50000C94CC1CEF92FF920F931F93CF93DF93A4
:103A6000CDB7DEB72C970FB6F894DEBF0FBECDBF33
:103A7000182F80FFD6C08AE080935B018FEF809380
:103A80005E0110925C0110925D0181E080935F0104
:103A90008AE097EDA3E2BCE380936001909361011B
:103AA000A0936201B09363018FE692E1A3E0BBE3D0
:103AB0008093640190936501A0936601B0936701C0
:103AC00080E090E0AAE7B4E48093680190936901F4
:103AD000A0936A01B0936B0110926C0110926D017A
:103AE00010926E0110926F011092710180E090E0CF
:103AF000A8ECB1E48093720190937301A0937401D8
:103B0000B093750180E090E0AAEFB3E48093760172
:103B100090937701A0937801B09379012AEF30E078
:103B200030937B0120937A0140E050E060E87FE32E
:103B300040937C0150937D0160937E0170937F01DF
:103B400024E02093700140E050E06AE773E4409382
:103B50002B0150932C0160932D0170932E01409303
:103B60002F015093300160933101709332014093E3
:103B70003301509334016093350170933601809383
:103B8000370190933801A0933901B0933A018093A3
:103B90003B0190933C01A0933D01B0933E01809383
:103BA0003F0190934001A0934101B093420180E016
:103BB00090EAACE0B7E48093430190934401A09372
:103BC0004501B09346018093470190934801A0932B
:103BD0004901B0934A0180934B0190934C01A0930B
:103BE0004D01B0934E0180E090E0A8E4B3EC8093E7
:103BF0004F0190935001A0935101B09352018093D3
:103C0000530190935401A0935501B09356018093B2
:103C1000570190935801A0935901B0935A010E9403
:103C2000091D11FF10C0CE0101967C018CE0F70147
:103C300011928A95E9F700E0B701802F0E94161DC6
:103C40000F5F0830C9F712FF14C060E080E093E016
:103C50000E94161C60E081E093E00E94161C60E068
:103C600081E593E00E94161C60E082E593E00E94EB
:103C7000161C13FF0AC060E08EEA93E00E94161C37
:103C800060E08FEA93E00E94161C2C960FB6F89421
:103C9000DEBF0FBECDBFDF91CF911F910F91FF907F
:103CA000EF900895F999FECF92BD81BD81E08FBB61
:103CB00080B508959F92AF92BF92CF92DF92EF921C
:103CC000FF920F931F93CF93DF935B018A017C01D7
:103CD000E40EF51EEC01912C6B01C81AD90AC6013D
:103CE0008C0F9D1FCE15DF0589F00E94521E91108A
:103CF00008C0292D990C330B232F221F2227221FA6
:103D000001C021E0982E920E8993E9CFC501800F62
:103D1000911F0E94521E21E030E0981611F020E021
:103D200030E0C901DF91CF911F910F91FF90EF908B
:103D3000DF90CF90BF90AF909F9008951F93CF9347
:103D4000DF93182FEB018DE0189FB00111247E5FE7
:103D50004CE050E0CE010E945A1E892B59F48CE0B1
:103D6000FE0111928A95E9F7BE01812F0E94161D6E
:103D700080E001C081E0DF91CF911F9108952F92E3
:103D80003F924F925F926F927F928F929F92AF92EB
:103D9000BF92CF92DF92EF92FF920F931F93CF9338
:103DA000DF93CDB7DEB7EF970FB6F894DEBF0FBE47
:103DB000CDBF80911E0180FD36C790912202809177
:103DC000FC05981709F42FC78091FF059091000614
:103DD000892B09F015C310911E0112FF09C08091B3
:103DE000FB0522E3289FC001112485529D4F02C08C
:103DF0000E94AB1C909300068093FF052090FF0566
:103E0000309000062114310409F40DC70091A90275
:103E1000802F817000FF03C01092A902EAC0909128
:103E2000A8029F5F953009F0892F8093A802E82EA1
:103E3000F12C32E13E9DF0013F9DF00D1124E25B3B
:103E4000FD4FF093FE05E093FD05D10150969C9146
:103E50005097908BE2E18E9FC001112420E030E06A
:103E60004D915D916D917D91F901E80FF91FE25B34
:103E7000FD4F689412F8440F551F661F771F169464
:103E8000D1F740835183628373832C5F3F4F2C3083
:103E9000310531F722E12E9DF0012F9DF00D112407
:103EA0009F01225B3D4FF10184859585A685B785ED
:103EB00043E0880F991FAA1FBB1F4A95D1F7F9014C
:103EC00084879587A687B787D1011C966D917D91D0
:103ED0008D919C911F970E947E376093AE027093E4
:103EE000AF028093B0029093B102F101268D378D1D
:103EF00040A151A10E94D6369B01AC016093B20251
:103F00007093B3028093B4029093B50260E070E0C6
:103F100080EA9FE30E94D6366093B6027093B702A0
:103F20008093B8029093B9021092AA021092AB0249
:103F30001092AC021092AD0211FD02C003FF1FC02F
:103F40006091C7027091C8028091C9029091CA0223
:103F50006093BF027093C0028093C1029093C2022B
:103F60009B01AC010E942E39D10152966D937D9335
:103F70008D939C935597077F0093A9020FC0F10181
:103F800062897389848995890E94CD396093BF02C3
:103F90007093C0028093C1029093C202F2E1FE9D31
:103FA000C001FF9D900D11249C01225B3D4F7901C2
:103FB000D90151961C928091700181FF1AC0F101C4
:103FC000818985FF16C022A533A544A555A560E0CB
:103FD00070E080E89FE30E94D6366093D30270932E
:103FE000D4028093D5029093D602E1E0D701519696
:103FF000EC931092BB021092BC021092BD02109280
:10400000BE02D1015A962D913D914D915C915D97E3
:104010002D833E834F83588760E070E080E09FE30C
:104020000E94D6364B015C01F101468C578C60A092
:1040300071A011FF4BC0F2E0F093BA02D101529689
:10404000CD90DD90ED90FC905597A70196010E94D0
:104050002E399B01AC01C301B2010E94D6354B0140
:104060005C0120E030E0A9010E94CC3687FF1DC032
:104070002D813E814F815885CA01B9010E94D735F3
:10408000A30192010E942E399B01AC01C701B60128
:104090000E94D6350E94CD396093C7027093C80242
:1040A0008093C9029093CA02A8C18092BB029092E9
:1040B000BC02A092BD02B092BE021092C702109242
:1040C000C8021092C9021092CA0297C11092BA0295
:1040D0004092CB025092CC026092CD027092CE02FE
:1040E00012FF0CC01092C7021092C8021092C902AF
:1040F0001092CA02C12CD12C760124C0E091DA02C0
:10410000EF5FE03109F4E0E08091FB058E1759F094
:10411000B2E3BE9FF0011124E552FD4FC288D3885F
:10412000E488F58803C0C12CD12C7601C701B60103
:104130000E94CD396093C7027093C8028093C90270
:104140009093CA02C1010E94381C698B7A8B8B8BB9
:104150009C8B9B01AC010E942E3969877A878B87E3
:104160009C87D10152962D913D914D915C9155972F
:1041700029833A834B835C830E94CC3687FF6CC0D3
:1041800029853A854B855C8569817A818B819C8103
:104190000E94D635A50194010E942E399B01AC01E5
:1041A000C301B2010E94D6356093CB027093CC025A
:1041B0008093CD029093CE0220E030E0A9010E94CE
:1041C000CC3618163CF1B2E0B093BA022D813E8194
:1041D0004F815885CA01B9010E94D735A3019201C8
:1041E0000E942E399B01AC0169817A818B819C816F
:1041F0000E94D6350E94CD396093C7027093C802E1
:104200008093C9029093CA028091A902886080932A
:10421000A902F3C0A701960169857A858B859C85E3
:104220000E94D635A50194010E942E396093CF02D9
:104230007093D0028093D1029093D20229893A8957
:104240004B895C892093C3023093C4024093C5021A
:104250005093C60233E0B6C0A701960169817A8106
:104260008B819C810E94D635A50194010E942E3934
:10427000A30192010E94D73520E030E040E05FE3E7
:104280000E942E396D877E878F87988B20E030E0E3
:10429000A9010E94EE3818160CF097C02D853E85B6
:1042A0004F855889C301B2010E94EE3818160CF0F0
:1042B00088C0A701960169857A858B859C850E94B7
:1042C000D635A50194010E942E399B01AC01609363
:1042D000CF027093D0028093D1029093D2026D8569
:1042E0007E858F8598890E94EE381816CCF58989CD
:1042F0009A89AB89BC898093C3029093C402A0932E
:10430000C502B093C60229813A814B815C816985DF
:104310007A858B859C850E94CC36811104C091E002
:104320009093BA026AC029813A814B815C81698588
:104330007A858B859C850E94D635A50194010E94C3
:104340002E399B01AC01C301B2010E94D6356093A6
:10435000CB027093CC028093CD029093CE024DC0DD
:104360002D853E854F8558892093CB023093CC0212
:104370004093CD025093CE022093CF023093D002CF
:104380004093D1025093D2022D813E814F815885B6
:10439000CA01B9010E94D7352D853E854F855889C0
:1043A0000E942E39A70196010E94D7350E94CD396F
:1043B0006093C3027093C4028093C5029093C602B7
:1043C0001CC032E03093BA0218C01092CB02109297
:1043D000CC021092CD021092CE028091C702909131
:1043E000C802A091C902B091CA028093C3029093FF
:1043F000C402A093C502B093C602186010931E01B8
:1044000080914D02482F50E05E834D8387E0849F6A
:10441000F001859FF00D1124ED5DFD4F8091A80204
:104420008483A091FF05B0910006BFAFAEAF5E964A
:10443000BC91BEA3EEADFFADF78DFFA3AEADBFAD9A
:104440009096BC91B8A7EEADFFADF1A1F9A7209170
:10445000B6023091B7024091B8025091B9026EA1F4
:104460007FA18B2F9F2F0E94D6356AAB7BAB8CAB85
:104470009DAB20E030E0A9010E94CC3687FF04C04C
:104480001AAA1BAA1CAA1DAA2091CB022987309127
:10449000CC023D874091CD02498B5091CE025D8B7D
:1044A0008091C3028A8F9091C4029B8FA091C50214
:1044B000AC8FB091C602BD8F6090BF027090C002F9
:1044C0004090C1025090C202E091CF02EAA7F09161
:1044D000D002FBA72091D1022CA73091D2023DA798
:1044E0004091BA0249835091BB025EA78091BC0201
:1044F0008FA79091BD0298ABA091BE02A9ABB091DD
:10450000C702BFABE091C802E8AFF091C902F9AFB2
:104510002091CA022AAF2AA53BA54CA55DA56985B5
:104520007D8589899D890E94CC36811103C032E046
:104530003EAB02C041E04EAB2EA03FA008A519A59E
:104540008EE3C82E83ECD82E8EE2E82E89E3F82E77
:104550001E8A1F8A188E198ECE8EDF8EE8A2F9A2CF
:104560009981913009F4D4C008F472C0AEADBFADEA
:104570005A962D913D914D915C915D97933009F044
:10458000F9C0C701B6010E942E394B015C0120E041
:1045900030E040E05FE30E942E399B01AC01B301A3
:1045A000C2010E94D635A70196010E942E396AA346
:1045B0007BA38CA39DA39B01AC01B101C8010E9408
:1045C000D6351B018C0129853D8549895D890E946D
:1045D000CC3687FD0BC020E030E0A9016AA17BA1A9
:1045E0008CA19DA10E94CC3618165CF129853D85D1
:1045F00049895D896EA17FA188A599A50E94D635BC
:104600009B01AC010E94D7356B017C019301A20193
:104610006A8D7B8D8C8D9D8D0E94D7359B01AC0161
:10462000C701B6010E94D6366B017C016A8C7B8C77
:104630004C8C5D8C29843D8409891D89B1E0B98346
:10464000FFC0A5019401B301C2010E94D6355DC02F
:10465000EEADFFAD228D338D448D558DC701B60172
:104660000E942E394B015C0120E030E040E05FE326
:104670000E942E399301A2010E94D735A70196010D
:104680000E942E399B01AC01B101C8010E94D635B0
:104690001B018C019B01AC0169857D8589899D8900
:1046A0000E94EE3818165CF529853D8549895D899B
:1046B0006EA17FA188A599A50E94D6359B01AC016A
:1046C0000E94D7356B017C019301A2016A8D7B8D1D
:1046D0008C8D9D8D0E94D7359B01AC01C701B60121
:1046E0000E94D6366B017C016A8C7B8C4C8C5D8C75
:1046F000FEA9F98329843D8409891D89A1C0A501EA
:104700009401B301C2010E94D7353B012C0198C02E
:104710002A8D3B8D4C8D5D8DC701B6010E942E39CF
:104720009B01AC01B101C8010E94D6355B014C016F
:104730009B01AC016AA57BA58CA59DA50E94EE38C6
:1047400018160CF07BC02AA53BA54CA55DA5B101B0
:10475000C8010E94D6352A8D3B8D4C8D5D8D0E94FF
:10476000D6366B017C012AA43BA40CA51DA522E032
:10477000298366C0C701B6010E942E394B015C0136
:104780009301A2010E94CC3687FF31C020E030E0C7
:1047900040E05FE3C501B4010E942E399B01AC01EA
:1047A000B301C2010E94D635A70196010E942E399D
:1047B0009B01AC01B101C8010E94D6356AA37BAF51
:1047C0008CAF9DAF2EA53FA548A959A90E94EE38F0
:1047D00018166CF4A5019401B301C2010E94D635EC
:1047E0003B012C012AA03BAC0CAD1DAD29C02EA570
:1047F0003FA548A959A9B101C8010E94D6359B011E
:10480000AC010E94D7356B017C019301A2016FA915
:1048100078AD89AD9AAD0E94D7359B01AC01C70137
:10482000B6010E94D6366B017C016FA878AC49AC0A
:104830005AAC2EA43FA408A919A902C015018401ED
:10484000A70196016E897F89888D998D0E94D73541
:104850006E8B7F8B888F998F2E8D3F8D48A159A1AC
:104860000E94CC3687FF09C02E893F89488D598D1B
:104870006E8D7F8D88A199A11CC02AA93BA94CA946
:104880005DA9B101C8010E94EE38181624F52EE387
:1048900033EC4EE259E36E8D7F8D88A199A10E9481
:1048A000D7356E8F7F8F88A399A32E893F89488D36
:1048B000598D0E94D6356B017C019101A8016EA52E
:1048C0007FA588A999A90E94CC3687FD49CEB981D8
:1048D000B093BA0203C0E981E093BA02C301D201E6
:1048E0008093BF029093C002A093C102B093C20212
:1048F000E091FD05F091FE059189911104C0809130
:104900001E0183FF3FC0AEADBFAD51968C91519754
:10491000807349F19E96CD90DD90ED90FC90D197FB
:104920009923D1F02091D3023091D4024091D50245
:104930005091D6026091BF027091C0028091C10275
:104940009091C2020E942E399B01AC01C701B601B1
:104950000E942E396B017C01C701B6010E943332DF
:104960008093D7020AC0109227011092280110925A
:10497000290110922A011092D70280911E01877F8F
:1049800080931E0147E02D813E81429FF001439FAD
:10499000F00D1124ED5DFD4FFA87E9878091D70274
:1049A00086832091B2023091B3024091B4025091BB
:1049B000B502B101C8010E942E392B013C010E94B1
:1049C000B5366B017C016091AE027091AF028091AF
:1049D000B0029091B1020E94B5364B015C01A70173
:1049E00096010E94D6350E944F3769837A838B8364
:1049F0009C83E981FA81A985BA85ED93FC93EF2B1D
:104A000041F480911E0181FF04C0816080931E01EA
:104A10000AC12091AA023091AB024091AC025091A0
:104A2000AD026E897F89888D998D0E94D7356987FF
:104A30007A878B879C87A3019201C501B4010E94EC
:104A4000D6359B01AC0169857A858B859C850E9452
:104A5000D6364B015C0120EC31EE44E65EE40E9468
:104A60002E390E94B5360E944F37603D37E07307FC
:104A70008105910560F4A7E04D815E81A49FF0015E
:104A8000A59FF00D1124ED5DFD4F158253C0603AD6
:104A9000BFE07B078105910560F447E02D813E81F1
:104AA000429FF001439FF00D1124ED5DFD4F51E059
:104AB00011C06034AFE17A078105910568F447E0E1
:104AC0002D813E81429FF001439FF00D1124ED5D49
:104AD000FD4F52E055830CC027E0AD81BE812A9F77
:104AE000F0012B9FF00D1124ED5DFD4F33E0358378
:104AF000A7E04D815E81A49FF001A59FF00D1124D8
:104B0000ED5DFD4F2581022E04C096958795779522
:104B100067950A94D2F749815A8102C0440F551F04
:104B20002A95E2F7518340836115710551E08507AD
:104B3000910568F427E0AD81BE812A9FF0012B9F8B
:104B4000F00D1124ED5DFD4F7383628304C04FEFC0
:104B50005FEF538342838091FC0580934D028F5F0A
:104B6000863019F08093FC0502C01092FC05E0919C
:104B7000FF05F0910006C101D801868F978FA0A391
:104B8000B1A3C092AE02D092AF02E092B002F09216
:104B9000B102A3019201C701B6010E94D635A50159
:104BA00094010E942E396093AA027093AB02809305
:104BB000AC029093AD022091BB023091BC024091B7
:104BC000BD025091BE02B101C8010E94CC368111D4
:104BD000F4C820E030E0A901B101C8010E94EE381C
:104BE00090911E01181614F092FF04C091609093EA
:104BF0001E0119C0109200061092FF059091DA0272
:104C00008091FB05891709F4D8C881E0890F8031AC
:104C100009F480E02091D802921302C08093D80258
:104C20008093DA02CAC8EF960FB6F894DEBF0FBEC3
:104C3000CDBFDF91CF911F910F91FF90EF90DF904B
:104C4000CF90BF90AF909F908F907F906F905F902C
:104C50004F903F902F900895CF93DF93C091FF0521
:104C6000D09100062097C9F08091A90281608093BD
:104C7000A9026091BF027091C0028091C10290911F
:104C8000C2029B01AC010E942E396A8B7B8B8C8BFC
:104C90009D8B109200061092FF05DF91CF91089531
:104CA0002F923F924F925F926F927F928F929F923C
:104CB000AF92BF92CF92DF92EF92FF920F931F932A
:104CC000CF93DF933090FB05311002C0D0E101C0DB
:104CD000D32DD150C091D802CD1709F416C1ED2EB5
:104CE000F12C22E3D29F8001112405521D4FF801BF
:104CF000A688B788C08CD18C628D738D848D958D7C
:104D00009B01AC010E94D735F801268D378D40A15B
:104D100051A10E942E394B018C019B01AC01B501C0
:104D2000C6010E94CC3687FD02C05401680182E3AF
:104D30008E9DF0018F9DF00D1124E552FD4FC501B0
:104D4000D601828B938BA48BB58BD11101C0D0E19E
:104D5000D150CD1307C08091DA02C81368C00E94F9
:104D60002C2665C022E32E9DC0012F9D900D11249D
:104D70009C0125523D4F790192E3292EAD2EB12C95
:104D80002A9CC0012B9C900D1124FC01E552FD4F83
:104D90006F01D11101C0D0E1D1508091DA028D13A1
:104DA00002C00E942C262A9C80012B9C100D1124ED
:104DB00005521D4FF80186889788A08CB18CA501FB
:104DC000940162897389848995890E94CC368823ED
:104DD00059F1F801628D738D848D958D9B01AC0125
:104DE0000E94D735F801268D378D40A151A10E9430
:104DF0002E39F70122893389448955890E94D73594
:104E00002B013C019B01AC01C501B4010E94EE38AD
:104E1000F80118162CF4428A538A648A758A04C0F1
:104E2000828A938AA48AB58A7601CD13A7CFF2E34A
:104E3000CF9F8001112405521D4FCF5FC03109F46F
:104E4000C0E0D091D80282E3282EC31509F45BC0DC
:104E5000CC2ED12C2C9CC0012D9C900D11249C019A
:104E600025523D4F7901F80142885388648875883E
:104E7000F90182889388A488B588A5019401C301AB
:104E8000B2010E94CC3687FF24C0F801628D738D79
:104E9000848D958D9B01AC010E94D735F801268D3C
:104EA000378D40A151A10E942E39A30192010E9489
:104EB000D7352B013C019B01AC01C501B4010E9417
:104EC000EE38181634F4F701428A538A648A758AD8
:104ED000DC2F2C9CF0012D9CF00D1124E552FD4F90
:104EE00026893789408D518D628973898489958996
:104EF0000E94CC36811101C0DC2FCF5FC03109F494
:104F0000C0E08701A2CFD093D802DF91CF911F914B
:104F10000F91FF90EF90DF90CF90BF90AF909F9058
:104F20008F907F906F905F904F903F902F9008955B
:104F30002F923F924F925F926F927F928F929F92A9
:104F4000AF92BF92CF92DF92EF92FF920F931F9397
:104F5000CF93DF93CDB7DEB7C454D1090FB6F89421
:104F6000DEBF0FBECDBF3B010091FB05202E312CD3
:104F700022E3229DA001239D500D1124BA01655208
:104F80007D4F7AAF69AFFB0111922A95E9F7F301E2
:104F90002085FB01218BF301448155816681778156
:104FA000E9ADFAAD46A757A760AB71AB21FF40C092
:104FB0002CE0E1E0F1E0DE01599601900D922A9596
:104FC000E1F78BAB9CAB2BE231E03EAB2DABBE01EE
:104FD000635F7F4F23967FAF6EAF2397CE014996D5
:104FE00021969FAF8EAF2197E2E30E9FC00111245F
:104FF0009C0125523D4F3EAF2DAF685E7F4F7CAF89
:105000006BAF78AF6FAB10E082E3829D9001839D20
:10501000300D1124C90185529D4FFC013C96259607
:10502000FFAFEEAF25972C01F0E14F0E511C3CC0B5
:105030002CE0E1E0F6E0BFCFEDADFEAD2193319382
:1050400041935193FEAFEDAF2596EEADFFAD2597A1
:10505000C080D180E280F380C216D306E406F50654
:1050600010F469017A012596EEADFFAD2597C08257
:10507000D182E282F3820E948037A50194010E94CE
:10508000D636EFA9F8AD6193719381939193F8AF00
:10509000EFAB20E030E0A9010E94CC3687FD42C092
:1050A0001F5F133009F44CC0EBA9FCA96191719109
:1050B00081919191FCABEBABEDA9FEA98190919010
:1050C000A190B190FEABEDABA50194010E942E39E9
:1050D0000E94FB382396EEADFFAD23976193719349
:1050E000819391932396FFAFEEAF23972196EEAD78
:1050F000FFAD2197C190D190E190F1902196FFAF43
:10510000EEAF21976C197D098E099F099B01AC01B7
:1051100097FF92CF22273327A901261B370B480B75
:10512000590B8ACF112321F0113021F080E803C000
:1051300080E201C080E4F2019081892B8083B0CFAE
:10514000CD28CE28CF2809F496C1CE0185960E949D
:1051500031314B015C0122E3229DC001239D900D62
:1051600011249C0125523D4F7901F901868E978EBD
:10517000A0A2B1A2BE016B5D7F4F83E491E00E94CB
:10518000DB30F701628F738F848F958FBE016B5D6B
:105190007F4F87E391E00E94DB30F70166A377A39E
:1051A00080A791A7118910FD12C0F30120813181E0
:1051B0004281538113FD06C0F70122A733A744A7FC
:1051C00055A709C0C501B4010E942E39F70162A795
:1051D00073A784A795A78091DA02081711F011FF31
:1051E0000DC082E3829DF001839DF00D1124E552F4
:1051F000FD4F128A138A148A158A54C02DE036E0B6
:105200003CAB2BAB8E010F5F1F4FBE016F5C7F4F1E
:105210007AAB69ABC12CD12C76010DAB1FABEBA9DE
:10522000FCA981909190A190B190FCABEBABEBAD60
:10523000FCAD4190519061907190FCAFEBAFA30138
:105240009201C501B4010E942E399B01AC01C70136
:10525000B6010E94D6356B017C01A5019401C30102
:10526000B2010E94D635F8016193719381939193B5
:105270008F0129A93AA96BAD7CAD2617370779F6BE
:105280002FEE3FEF4FE75FE3C701B6010E94EE3814
:1052900018166CF482E3829DF001839DF00D1124B9
:1052A000E552FD4F12A213A214A215A271C02FEE57
:1052B0003FEF4FE75FEBC701B6010E94CC3687FF97
:1052C00011C082E3829DF001839DF00D1124E5520F
:1052D000FD4F89E996E7A6E9BEE782A393A3A4A3BD
:1052E000B5A356C08DA99FA90E9431316DA97FA990
:1052F00083E491E00E94DB304B015C01A701960141
:1053000060E070E080E89FE30E94D63520E030E066
:1053100040E05FE30E942E390E94CD396B017C0191
:1053200020916001309161014091620150916301CF
:10533000C501B4010E942E39A70196010E942E39A1
:105340004B015C01A701960160E070E080E89FE3FB
:105350000E94D6359B01AC01C501B4010E94D6362E
:105360006B017C0120E030E0A9010E94CC3687FF70
:1053700003C0C12CD12C760182E3829DF001839D74
:10538000F00D1124E552FD4FC2A2D3A2E4A2F5A272
:1053900082E3829D8001839D100D112405521D4FD3
:1053A000F801818981FD69C089AD9AAD0E94381CE0
:1053B0006B017C018090190690901A06A0901B0644
:1053C000B0901C06A50194010E94EE3818162CF42A
:1053D000A5019401C501B40104C0A7019601C7014C
:1053E000B6010E942E39F801668B778B808F918FE2
:1053F00082E3829D8001839D100D112405521D4F73
:10540000F80182A093A0A4A0B5A0A501940166898B
:105410007789808D918D0E94EE3818162CF4F80152
:10542000868A978AA08EB18EC0921906D0921A06EB
:10543000E0921B06F0921C068CE0FE01B596ADE0F2
:10544000B6E001900D928A95E1F78CE0FE013D9661
:10545000A1E0B6E001900D928A95E1F78091D90222
:105460008093FB058F5F803109F480E08093D9023F
:105470000E94502602C080E001C081E0CC5BDF4F7B
:105480000FB6F894DEBF0FBECDBFDF91CF911F9155
:105490000F91FF90EF90DF90CF90BF90AF909F90D3
:1054A0008F907F906F905F904F903F902F900895D6
:1054B000CF93DF930E944F1580E3E8EAF2E0DF012B
:1054C0001D928A95E9F7CFEFD1E083E2FE011192B8
:1054D0008A95E9F7109200061092FF0510922202B9
:1054E00010924D0281E08093FC051092FE010E9413
:1054F0001E158091FD018F878BB1837E9091FC01F9
:10550000892B8BB98BB18F719091FD01892B8BB950
:10551000DF91CF910895CF93DF93C1E1D7E08991D7
:10552000882319F00E940A32FACFDF91CF910895B3
:10553000CF93DF9321E5829FC0011124EC01DD5F51
:1055400040E550E0BE0181E197E00E945A1E892BA0
:1055500069F4109211070E94FA3340E550E061E1CE
:1055600077E0CE010E94CC1C80E001C081E0DF9199
:10557000CF9108959FB7F89420912006822B8093B5
:1055800020069FBF08959FB7F89420911F06822B95
:1055900080931F069FBF08959FB7F89480931E06BF
:1055A0009FBF08952FB7F89490911D068095892389
:1055B00080931D062FBF08959FB7F89420911D0674
:1055C000822B80931D069FBF08958F929F92AF926A
:1055D000BF92EF92FF920F931F93CF93DF93EC0153
:1055E0000FE411E07C018CE0E80EF11C89909990A9
:1055F000A990B99020E030E0A901C501B4010E9452
:10560000CC3687FD14C0F80181919191A191B1919F
:105610008F019C01AD015058C501B4010E94EE38C4
:1056200018162CF0CE15DF0509F780E001C081E0E7
:10563000DF91CF911F910F91FF90EF90BF90AF90AE
:105640009F908F9008958F929F92AF92BF92CF922A
:10565000DF92EF92FF920F931F93CF93DF93EB01B3
:105660002BE2E22E21E0F22E8C016B018CE0C80EC1
:10567000D11C6991799189919991F70181909190CB
:10568000A190B1907F010E948037A50194010E94F2
:10569000D636F80161937193819391938F01CC1564
:1056A000DD0539F7DF91CF911F910F91FF90EF90BA
:1056B000DF90CF90BF90AF909F908F9008950E9401
:1056C000FA3310922601089596B1892F877049F018
:1056D000892F8095817091FF826092FD03C0846064
:1056E000089580E008951F920F920FB60F92112433
:1056F0002F933F934F935F936F937F938F939F93DA
:10570000AF93BF93EF93FF930E94642B882391F094
:1057100080FF03C00E9462340DC082FF04C08091EC
:105720001D06826005C081FF05C080911D0688604E
:1057300080931D06FF91EF91BF91AF919F918F9143
:105740007F916F915F914F913F912F910F900FBE7D
:105750000F901F901895109200019091700197FD85
:1057600003C090E290930001882331F090910001F2
:1057700080E289278093000108958F929F92AF92D3
:10578000BF92CF92DF92EF92FF920F931F93CF932E
:10579000DF93CDB7DEB72D970FB6F894DEBF0FBEFF
:1057A000CDBF6B017C01042F20E030E0A9010E94F5
:1057B000CC3687FF07C08DE20E940A32F7FAF094D8
:1057C000F7F8F094102F123060F020E030E048EC51
:1057D00052E4C701B6010E942E396B017C011250C0
:1057E000F2CF00FF0AC020E030E040E251E4C70100
:1057F000B6010E942E396B017C0120E030E040E0D0
:105800005FE3C701B6010E94D7350E94483710E018
:105810003AE0832E912CA12CB12C611571058105E4
:10582000910591F0EE24E394F12CEC0EFD1EE10EB7
:10583000F11CA50194010E94573A605DF701608355
:10584000B901CA011F5FE9CF80E3101748F4E1E016
:10585000F0E0EC0FFD1FE10FF11D80831F5FF5CF1E
:10586000101313C0FE01E10FF11D80E381831F5F60
:105870000CC0101303C08EE20E940A32FE01E10F39
:10588000F11D80810E940A3211501111F2CF2D9624
:105890000FB6F894DEBF0FBECDBFDF91CF911F9141
:1058A0000F91FF90EF90DF90CF90BF90AF909F90BF
:1058B0008F9008952091700120FF08C02BE832E4FA
:1058C00041E25DE30E942E3941E001C040E00C94CA
:1058D000BD2B2091700120FF08C02BE832E441E28B
:1058E0005DE30E942E3944E001C043E00C94BD2BDF
:1058F0000F931F93CF938C01C0E0F80161917191D8
:10590000819191918F010E94692CC23019F08CE233
:105910000E940A32CF5FC33081F7CF911F910F9160
:105920000895CF93DF93843630F06AE00E94373ACF
:10593000C0E3C90F03C0C0E08A3030F06AE00E94C3
:10594000373AD0E3D90F01C0D0E0805D0E940A321F
:10595000DD2319F08D2F0E940A32CC2329F08C2FE1
:10596000DF91CF910C940A32DF91CF910895CF93BC
:10597000DF93FC018491EF012196882321F00E949E
:105980000A32FE01F7CFDF91CF9108958CE093E0CA
:105990000C94B72CCF93C82F85E193E00E94B72CCD
:1059A0008C2F0E94912CCF910C94C62C811104C095
:1059B0008CE193E00C94B72C0C94CA2CCF93DF931A
:1059C000C0E08C2F0E94982A81110EC010921107FE
:1059D0008EE30E940A320E948B2A8AE30E940A32D6
:1059E00087E00E94CA2C12C080911107882371F0B1
:1059F0000E94A501D82F8EE30E940A320E948B2AB2
:105A00008AE30E940A328D2F0E94D62CCF5FC230CB
:105A1000C1F6DF91CF910895CF92DF92EF92FF927E
:105A2000CF93DF93D82F6A017B01C22F84E20E94BB
:105A30000A328D2F0E94912C8DE30E940A324C2F46
:105A4000C701B6010E94BD2BDF91CF91FF90EF906F
:105A5000DF90CF900C94C62CCF93DF93D82FC62F16
:105A600084E20E940A328D2F0E94912C8DE30E94C5
:105A70000A328C2F0E94912CDF91CF910C94C62C6E
:105A8000EF92FF920F931F93CF93DF9360915B018F
:105A900070E080E00E942C2D60915E0170E081E05A
:105AA0000E942C2D60915C0170E082E00E942C2D00
:105AB00060915D0170E083E00E942C2D6091700187
:105AC00062FB662760F970E084E00E942C2D6091F3
:105AD000700166FB662760F970E085E00E942C2D5E
