:100000000C94BC010C94CE010C94CE010C9406020D
:100010000C9486110C94CE010C9430020C94CE01F9
:100020000C94CE010C94CE010C94CE010C94611A68
:100030000C94CE010C94CE010C94CE010C94CE0104
:100040000C94CC190C94CE010C94E7250C946926E1
:100050000C94CE010C94CE010C94CE010C94CE01E4
:100060000C94CE010C94CE01842F8A2F8D2F902FCB
:10007000952F9F2FA72F303030303030B42FB72F2F
:10008000C02FC92F30303030303030303030303049
:10009000D52FDF2FEB2FF32FF62FFF2F08300E3049
:1000A00030303030173020303B30F3046E106E109B
:1000B000FD04080513051E056E1022056E1030059F
:1000C0006E103A0544054E056E106E106E105E05FA
:1000D0006B0578051D261F265826582658265826B3
:1000E0005826582658265826582658262526272684
:1000F00029262B262D262F2631263326582637262D
:1001000039263B263D263F26412658264326084AC7
:10011000D73B3BCE016E84BCBFFDC12F3D6C74311B
:100120009ABD56833DDA3D00C77F11BED9E4BB4C72
:100130003E916BAAAABE000000803F05A84CCDB23C
:10014000D44EB93836A9020C50B9918688083CA61D
:10015000AAAA2ABE000000803F000D0A4772626C06
:1001600020312E3168204533205B27242720666FFD
:10017000722068656C705D0D0A00244E005B4F5064
:10018000543A005B5645523A312E31682045332EA1
:1001900032303139303833303A005B544C4F3A000A
:1001A0005B4739323A003330003238005B47002079
:1001B0004700204D0020460020540033382E005BBD
:1001C00047433A47005B484C503A242420242320DC
:1001D000244720244920244E2024783D76616C2039
:1001E000244E783D6C696E6520244A3D6C696E65CD
:1001F0002024534C50202443202458202448207E7F
:100200002021203F206374726C2D785D0D0A00530D
:100210006C656570696E6700526573746F72696EA4
:1002200067207370696E646C6500526573746F72D9
:10023000696E672064656661756C74730050676DE4
:1002400020456E6400436865636B204C696D69747A
:100250007300436865636B20446F6F720044697379
:1002600061626C656400456E61626C656400436147
:100270007574696F6E3A20556E6C6F636B656400C0
:10028000272448277C2724582720746F20756E6CFC
:100290006F636B00526573657420746F20636F6EBB
:1002A00074696E7565005B4D53473A006F6B0D0ABC
:1002B00000414C41524D3A007C413A007C4F763A25
:1002C000007C57434F3A007C506E3A007C463A001F
:1002D0007C42663A007C57506F733A007C4D506FF9
:1002E000733A00536C65657000446F6F723A004357
:1002F0006865636B00416C61726D00486F6D6500ED
:100300004A6F6700486F6C643A0052756E0049642A
:100310006C65000D0A005B5052423A006572726FC4
:10032000723A000000A0420000A04279BB0D4500D7
:10033000401C4600401C460000FA4300BADB49005E
:10034000BADB4900D68349008018C4008018C40075
:1003500000AAC205000019010AD7233C6F12033B13
:1003600000007A440000000071030000FA4300001E
:100370007A45FA000000A04011241FBECFEFD8E05C
:10038000DEBFCDBF27E0A0E0B1E001C01D92A131EA
:10039000B207E1F70E942A2B0C94C5390C94000097
:1003A000EBE6F0E08081817F8083E8E6F0E0808109
:1003B0008E7F8083089584B1817F84B985B18E60FA
:1003C00085B980916D0183FF0BC080916B008E60B9
:1003D00080936B008091680081608093680002C008
:1003E0000E94D00184B7877F84BF809160008861BC
:1003F0008093600081E0809360000895F999FECFBA
:1004000092BD81BD81E08FBB80B508951F920F9290
:100410000FB60F9211248F938091600086FD05C066
:10042000809160008064809360008F910F900FBE78
:100430000F901F90189593B19E7080916D0186FD6D
:1004400002C08EE09827992349F091FB882780F914
:1004500092FD8260987019F08C60089580E0089594
:100460001F920F920FB60F9211242F933F934F9329
:100470005F936F937F938F939F93AF93BF93EF930C
:10048000FF93809160008F7B8093600080911A01C0
:10049000813069F080910605811109C00E941B021C
:1004A000882329F00E94282581E00E941F11FF91D6
:1004B000EF91BF91AF919F918F917F916F915F91DC
:1004C0004F913F912F910F900FBE0F901F90189555
:1004D00061E071E085E991E00C9438119F92AF9250
:1004E000BF92CF92DF92EF92FF920F931F93CF9321
:1004F000DF935B018A017C01E40EF51EEC01912C77
:100500006B01C81AD90AC6018C0F9D1FCE15DF05D5
:1005100089F00E94FE01911008C0292D990C330B1F
:10052000232F221F2227221F01C021E0982E920E86
:100530008993E9CFC501800F911F0E94FE0121E040
:1005400030E0981611F020E030E0C901DF91CF9142
:100550001F910F91FF90EF90DF90CF90BF90AF90E1
:100560009F900895F894F999FECF92BD81BD81E0E6
:100570008FBB80B58627482F082E000C550B262FE1
:1005800030E024233523232B39F06F3F19F060BD71
:1005900084E006C084E104C0882321F060BD84E2C9
:1005A0008FBBF99A789408959F92AF92BF92CF92A1
:1005B000DF92EF92FF920F931F93CF93DF935C0133
:1005C0008A017B01E40EF51EEB01912C6C01C61A29
:1005D000D70ACE018C0D9D1DCE15DF0589F0911037
:1005E00008C0292D990C330B232F221F2227221FED
:1005F00001C021E06991922E960E0E94B202E9CFCD
:10060000692DC501800F911FDF91CF911F910F912F
:10061000FF90EF90DF90CF90BF90AF909F900C94A1
:10062000B20290911B01911107C086FF02C0449A4B
:1006300001C044981092260108952F923F924F9244
:100640005F926F927F928F929F92AF92BF92CF9262
:10065000DF92EF92FF920F931F93CF93DF93CDB76B
:10066000DEB7CA54D1090FB6F894DEBF0FBECDBFB6
:100670008AE3EDEBF1E0DF011D928A95E9F78BE06B
:10068000EDE7F1E0AEEBB1E001900D928A95E1F774
:100690008091C106843211F00C948F1081E0809318
:1006A000BE011092BF0183E08A8FB1E0BBA3212C71
:1006B000312C1CA61BA610E01B8E1F8EEE24E3948B
:1006C000F12CEAE0AE2EB12CF1E68F2EF3E09F2E56
:1006D0008A8DE82FF0E0EF53F94FD080DD2009F448
:1006E00037C29FEB9D0D9A3110F00C945E108F5F16
:1006F0008A8FBE016A5E7F4FCE014A960E942828EB
:10070000882311F40C9460104E885F88688C798C73
:10071000C301B2010E9430390E946E36062F70E08C
:1007200080E090E00E949F369B01AC01C301B201C2
:100730000E94F53420E030E048EC52E40E944D384D
:100740000E94BA380E946E36CB01E7E4DE1629F02B
:10075000FDE4DF1609F4EAC035C1083209F4C6C069
:1007600020F5043168F4013108F08AC0043009F43E
:1007700052C008F464C00A3009F445C00C946E10ED
:100780000C3109F440C050F4063110F00C946E1096
:1007900025E1201B2093C00126E0ADC00E3199F168
:1007A000063209F44CC00C946E100D3309F498C055
:1007B000A8F4053381F140F40B3209F47AC0013317
:1007C00009F477C00C946E100C3310F00C946E107A
:1007D0006AEC600F6093C40129E08DC00C3538F4D9
:1007E0000A3508F053C0003581F10C946E100C35B9
:1007F00051F00F3510F00C946E102EE5201B209355
:10080000BF0125E078C0009731F42F8D21110C94A1
:10081000621031E03F8F0093BD01202F2D7F2C31DE
:1008200019F00C3509F064C0009721F00A9711F017
:100830000C946E10600F6093BD0120E061C04F8D7D
:1008400041110C946210A2E0AF8F0093BE010632FA
:1008500009F050C08431910559F08E31910541F075
:100860008832910529F08233910511F00C946E10B5
:10087000B5010E94623966576093BE0121E040C015
:100880006FEE600F6093C20122E035C0892B31F416
:1008900066EA600F6093C10123E032C06A307105DF
:1008A00011F00C946E100A3511F40C946E1024E0C3
:1008B00027C0BF8DB1110C946210013331F4109236
:1008C000C30128E0E3E0EF8F1BC00A9711F00C94FE
:1008D0006E10F1E0F093C30128E033E03F8F10C0C9
:1008E000892B11F00C946E102AE00AC027E003C097
:1008F00020E001C021E0892B19F087E10C949610CB
:10090000C70102C0880F991F2A95E2F72BA53CA5C5
:1009100028233923232B19F085E10C949610ABA5DD
:10092000BCA5A82BB92BBCA7ABA7D2CE892B29F786
:10093000063018F4033058F016C0083010F40C9448
:100940006E100A30F0F00E3159F00C946E10002346
:1009500019F0013011F104C0B3E0B093C5011DC01E
:100960000093C5011AC0043021F0053031F080E158
:1009700001C080E28093C70102C01092C7018CE0E1
:100980000DC0093031F08091C60180648093C601AA
:1009900002C01092C6018DE001C08BE0F70102C0D9
:1009A000EE0FFF1F8A95E2F72BA53CA52E233F23D0
:1009B000232B09F0B1CF2BA53CA52E2B3F2B3CA719
:1009C0002BA786CE8D2DDD0C990BAA0BBB0BFC0142
:1009D000E654F109E531F10510F00C946E10EB5A74
:1009E000FF4F0C9498394092C9015092CA0160920D
:1009F000CB017092CC0180E087C04092CD01509233
:100A0000CE016092CF017092D001116081E07CC074
:100A10004092D1015092D2016092D3017092D401E0
:100A2000126082E071C04092D5015092D60160926E
:100A3000D7017092D801146083E066C00093D90199
:100A400084E062C0C301B2010E9467366093DA019C
:100A50007093DB018093DC019093DD0185E054C04D
:100A60004092DE015092DF016092E0017092E1015C
:100A700086E04AC04092E2015092E3016092E401B4
:100A80007092E50187E040C04092E6015092E70194
:100A90006092E8017092E90188E036C020E030E021
:100AA0004FE753E4C301B2010E940D38181614F445
:100AB0000C9464100093EA0189E026C04092EB0197
:100AC0005092EC016092ED017092EE013B8D31602D
:100AD0003B8F8AE019C04092EF015092F001609282
:100AE000F1017092F2014B8D42604B8F8BE00CC094
:100AF0004092F3015092F4016092F5017092F60178
:100B00008B8D84608B8F8CE06701082E02C0CC0C2B
:100B1000DD1C0A94E2F7960122213321232B11F0E8
:100B20000C946610D40102C0B595A7958A95E2F79A
:100B3000A0FF0BC020E030E0A901C301B2010E9478
:100B4000EB3587FF02C00C9468102C283D28C0CDDF
:100B5000BB8DBB2329F0EF8DE11102C0F2E0FF8FC6
:100B600025FE0FC08091DA019091DB01A091DC019C
:100B7000B091DD0181389649A849B10514F00C9473
:100B80006A103BA1332329F020FC02C00C9474109E
:100B900018C08091BF01813071F44F8D4230E1F572
:100BA0008091BE018035C1F18823B1F120FC02C0E3
:100BB0000C94741031C080917E0181112DC020FEF3
:100BC0001BC08091C001813039F523E333E34BEC46
:100BD00051E46091C9017091CA018091CB0190915B
:100BE000CC010E944D386093C9017093CA01809373
:100BF000CB019093CC0110C080918C0190918D011C
:100C0000A0918E01B0918F018093C9019093CA0188
:100C1000A093CB01B093CC0130FC10C0809188012F
:100C200090918901A0918A01B0918B018093E60196
:100C30009093E701A093E801B093E9018091BD0191
:100C4000843039F426FC03C08CE10C949610E894AF
:100C500026F88091C201882369F0813029F48FAF92
:100C60001DAE92E09BAF0BC01FAEA2E0ADAFB1E0F6
:100C7000BBAF05C0E2E0EFAFF1E0FDAF1BAE80918E
:100C8000C001813021F02F8D2330C9F52FC06DEBCD
:100C9000C62E61E0D62EE12CF12C3B8DA32EB12C7B
:100CA000C5010E2C02C0959587950A94E2F780FF46
:100CB00012C023E333E34BEC51E4D6019E966D91D1
:100CC0007D918D919C91D1970E944D38F60166A738
:100CD00077A780AB91ABFFEFEF1AFF0A24E0C20EBB
:100CE000D11C33E0E316F104D9F6CDCF8091C301D6
:100CF000813029F44B8D443011F00C946C108CE051
:100D0000E1EAF1E0DE01119601900D928A95E1F79A
:100D10008BA59CA591FD08C00091BD010A30C9F0CA
:100D20000C3509F4B3C01EC18091C401873018F09E
:100D30008DE10C94961090918301891769F3BE019F
:100D40006F5F7F4F0E946925882311F40C948210F5
:100D5000E3CF9B8D911103C08AE10C949610C101E1
:100D600080759927892B09F46FCF6091DE0170910E
:100D7000DF018091E0019091E1010E9430390E94F1
:100D80006E366730A8F68091D901843141F0823007
:100D900011F00C946E1027FE02C00C946E10AFEA96
:100DA0002A22662319F0615069A703C0B091C401DB
:100DB000B9A76DEC71E089A50E946925882311F41B
:100DC0000C9482100091D9014090B9015090BA0161
:100DD0006090BB017090BC014DEBE42E41E0F42E1D
:100DE0005DE7A52E51E0B52EC12CD12CEB8D8E2EBA
:100DF000912CC4010C2C02C0959587950A94E2F7BA
:100E000080FF35C0043151F5D501D0962D913D912B
:100E10004D915C91D39758966D917D918D919C9158
:100E20005B970E94F534F70126A537A540A951A983
:100E30000E94F534D70150966D937D938D939C93CA
:100E40005397B2E0CB1213C0A30192010E94F53474
:100E5000F701608B718B828B938B09C0F70186A59C
:100E600097A5A0A9B1A9808B918BA28BB38BFFEF23
:100E7000CF1ADF0A24E0E20EF11C34E0A30EB11C0D
:100E800043E0C416D10409F0B4CF3EC18B8D882352
:100E900009F462CF4090B9015090BA016090BB0153
:100EA0007090BC012DE7822E21E0922EDE0111967A
:100EB0007D013DEBC32E31E0D32EA12CB12CE82FC8
:100EC000F0E0F8A7EFA38FA198A50A2C02C0959592
:100ED00087950A94E2F780FF29C0D7012D913D91B3
:100EE0004D915C91F401608D718D828D938D0E9486
:100EF000F534D6019E962D913D914D915C91D197FF
:100F00000E94F534F60166A777A780AB91ABF2E0BB
:100F1000AF1216C0A30192010E94F534D6019E962D
:100F20006D937D938D939C93D1970AC0F40180A912
:100F300091A9A2A9B3A9F60186A797A7A0ABB1ABC7
:100F4000FFEFAF1ABF0A24E0820E911C34E0E30EDB
:100F5000F11C44E0C40ED11C83E0A816B10409F0D2
:100F6000B2CFD1C09F8D933069F40E3109F494C093
:100F7000053309F4C3C00C3109F0C5C06DEC71E054
:100F800086E08DC0AB8DAA2381F3B091C101BFA3D0
:100F90004090B9015090BA016090BB017090BC01C3
:100FA0008DE7A82E81E0B82E9DEBE92E91E0F92E79
:100FB000FE0131964F01C12CD12C2A2F30E03AA7E7
:100FC00029A789A59AA50C2C02C0959587950A9406
:100FD000E2F780FD0BC0F501808D918DA28DB38D60
:100FE000F70186A797A7A0ABB1AB44C0053309F4BE
:100FF00041C0FFA1F1112BC0D501D0962D913D919B
:101000004D915C91D397F4016081718182819381CC
:101010000E94F634D7019E962D913D914D915C91A1
:10102000D1970E94F634F70166A777A780AB91AB02
:10103000F2E0CF121FC0A30192010E94F634D70143
:101040009E966D937D938D939C93D19713C0F501DC
:10105000208D318D428D538DD7019E966D917D915E
:101060008D919C91D1970E94F634F70166A777A7DE
:1010700080AB91ABFFEFCF1ADF0A24E0A20EB11CC8
:1010800034E0E30EF11C44E0840E911C83E0C816AA
:10109000D10409F096CF69CF6DEC71E087E00E9432
:1010A0006925882311F40C9482109B8D911103C043
:1010B00019A61F8E29C0ADE7B1E0EDEBF1E080E0AD
:1010C00090E04B8D242F30E0A901082E02C05595E9
:1010D00047950A94E2F740FD0AC058964D915D91FC
:1010E0006D917C915B97408B518B628B738B0196DA
:1010F000149634968330910539F705C08091BE016E
:10110000823008F0EDC719A68091BE018FA380350B
:1011100021F49B8D9111E6C77AC2AF8DA23009F000
:1011200076C2BFA1B11104C0EB8DE11170C22AC01B
:1011300020E030E0A9016091C9017091CA0180915D
:10114000CB019091CC010E94EB35882309F4CCC7E8
:10115000FFA1FC3809F445C240F4F230A9F0F330A5
:10116000B1F0F13009F053C20AC02FA12E3809F4B2
:1011700038C208F433C22F3809F430C248C23B8D5C
:10118000311145C21F8E43C24BA144604BA38B8DCE
:10119000882309F4E1CDBBADAB2FB0E0B8ABAFA76E
:1011A000FDADEF2FF0E0FCABEBAB81E090E07C011C
:1011B0000BAC02C0EE0CFF1C0A94E2F70DAC02C0AF
:1011C000880F991F0A94E2F7E82AF92A2B8D822FBB
:1011D00090E08E219F21892B09F488C7FD01EE0F35
:1011E000FF1FEE0FFF1FE354FE4FAA0FBB1FAA0FF6
:1011F000BB1FAB56BE4F2D913D914D915C9166A5A5
:1012000077A580A991A90E94F5342B013C01EBA997
:10121000FCA9EE0FFF1FEE0FFF1FE354FE4FABA91B
:10122000BCA9AA0FBB1FAA0FBB1FAB56BE4F2D9167
:101230003D914D915C9166A577A580A991A90E94E9
:10124000F5344B015C01610130E8C322DD2427FE47
:10125000F5C0E89427F84CE050E06BEE71E085E9CA
:1012600091E00E94B839892B11F481E25FC7809127
:10127000C0018130B1F423E333E34BEC51E46091DE
:10128000E2017091E3018091E4019091E5010E94F7
:101290004D386093E2017093E3018093E4019093F1
:1012A000E5018091E2019091E301A091E401B09108
:1012B000E5018FAB98AFA9AFBAAFA3019201C3010B
:1012C000B2010E944D3827966CAF7DAF8EAF9FAFB5
:1012D0002797A5019401C501B4010E944D382B96B2
:1012E0006CAF7DAF8EAF9FAF2B9720E030E040E832
:1012F00050E46FA978AD89AD9AAD0E944D382FA901
:1013000038AD49AD5AAD0E944D3827962CAD3DAD54
:101310004EAD5FAD27970E94F5342B962CAD3DADB9
:101320004EAD5FAD2B970E94F5346B017C0120E040
:1013300030E0A9010E94EB3587FDDAC6C701B6018E
:101340000E94EC386B017C012B962CAD3DAD4EAD6F
:101350005FAD2B9727966CAD7DAD8EAD9FAD27977A
:101360000E94F6340E94EC389B01AC01C701B60123
:1013700090580E94F5356B017C019FA1933021F4B8
:10138000F7FAF094F7F8F09420E030E0A9016FA9A3
:1013900078AD89AD9AAD0E94EB3587FF11C0F7FAA1
:1013A000F094F7F8F0948FA998ADA9ADBAADB05804
:1013B0008093E2019093E301A093E401B093E501EF
:1013C0000FA518A9000F111F000F111F03531E4F67
:1013D000A7019601C501B4010E944D389B01AC01E3
:1013E000C301B2010E94F53420E030E040E05FE349
:1013F0000E944D38D8016D937D938D939C931397E4
:101400000BA91CA9000F111F000F111F03531E4F22
:10141000A7019601C301B2010E944D38A5019401B4
:101420000E94F63420E030E040E05FE30E944D3857
:10143000F8016083718382839383E9C0212F30E0B8
:1014400038AF2FABE222F322EF2809F453C631EF75
:1014500023228091C001813009F47BC0EFA5F8A957
:10146000EE0FFF1FEE0FFF1FE353FE4FC080D18032
:10147000E280F380A7019601C301B2010E94F53416
:101480002B013C01EBA9FCA9EE0FFF1FEE0FFF1F84
:10149000E353FE4F80819181A281B3818FA798ABE6
:1014A000A9ABBAAB9C01AD01C501B4010E94F534F2
:1014B0004B015C01A3019201C301B2010E944D38AE
:1014C0002B013C01A5019401C501B4010E944D38D6
:1014D0009B01AC01C301B2010E94F6340E94EC38BA
:1014E0004B015C01A7019601C701B6010E944D386E
:1014F0006B017C012FA538A949A95AA9CA01B901D4
:101500000E944D389B01AC01C701B6010E94F63420
:101510000E94EC386B017C016093E2017093E3015F
:101520008093E4019093E5019B01AC01C501B401F6
:101530000E94F5344B015C01E894B7F82AE037EDDE
:1015400043EA5BE3C501B4010E940D3818164CF163
:101550005EC00DEB11E08FA998AD0C2C02C09595E3
:1015600087950A94E2F780FF12C023E333E34BEC44
:1015700051E4D80150966D917D918D919C91539736
:101580000E944D38F801608B718B828B938BFFEF3B
:10159000CF1ADF0A0C5F1F4F23E0C216D104D9F621
:1015A0005DCF20E030E040E05FE3C501B4010E9480
:1015B0000D3818160CF459CE2FE632E143E85AE301
:1015C000C701B6010E944D389B01AC01C501B401B1
:1015D0000E940D3818160CF448CE19C03BA130619A
:1015E0003BA38FA18E58823018F44BA148604BA3C7
:1015F0008B8D882309F4B0CB4CE050E06BEE71E0AA
:1016000085E991E00E94B839892B09F42ECE2BA1EF
:1016100021709BA190FF03C0C1018E7D03C0C10159
:101620008E7D9C7FAF8DA111937E892B09F064C5BF
:101630008E01035F1F4F89E0F80111928A95E9F747
:10164000222309F44BC08BA59CA5867B892B09F02E
:1016500055C58091BD01853311F081114FC5809131
:10166000880190918901A0918A01B0918B01898BA9
:101670009A8BAB8BBC8B9091860180918501892BD5
:101680004091C9015091CA016091CB017091CC0188
:101690004D875E876F87788B84608D8B80916D011D
:1016A00085FF06C08BEE91E00E947F30811128C536
:1016B000B8018BEE91E00E946B3480911A01811188
:1016C00023C50E948B23892B09F41EC580E28093D9
:1016D0001A010E94C0110E94B81C16C580916D01AC
:1016E000F090860181FF26C08FA18150833018F0D1
:1016F000FBA1F064FBA32B8D222339F03F8D323008
:1017000021F44BA140684BA315C080E1F81212C030
:1017100080917D0181509BA19074833030F4992396
:1017200049F09BA190629BA305C0911103C0ABA19E
:10173000A062ABA38091DA019091DB01A091DC0162
:10174000B091DD018093910190939201A093930158
:10175000B09394018091BF0180937E01882311F0A2
:1017600088E08D8B8091C9019091CA01A091CB0135
:10177000B091CC0180938C0190938D01A0938E0148
:10178000B0938F018D879E87AF87B88B2091E6013C
:101790003091E7014091E8015091E90160918801A1
:1017A0007091890180918A0190918B010E94EB35A3
:1017B000811103C0BBA1B5FF15C0FF2019F08F2D0B
:1017C0000E94EB308091E6019091E701A091E80141
:1017D000B091E9018093880190938901A0938A01D7
:1017E000B0938B01EBA1E6FD0CC080918801909134
:1017F0008901A0918A01B0918B01898B9A8BAB8B67
:10180000BC8B8091EA01809390018091C7019091F7
:101810008601981731F00E94EB308091C7018093C8
:1018200086019D8980918601892B8D8BF090C60160
:10183000809185018F1569F080911A01823029F01D
:101840000E9415228F2D0E9411038091C601809362
:1018500085019D8980918501892B8D8B8091BD01AA
:10186000843099F4C090DE01D090DF01E090E00177
:10187000F090E10180911A01823039F00E94152226
:1018800040E0C701B6010E94F9248091C201809313
:1018900081018091C00180937F01FF8DF33071F54C
:1018A0008091C30180938201811108C01092F301DD
:1018B0001092F4011092F5011092F601C090F3011C
:1018C000D090F401E090F501F090F601A7019601A7
:1018D0006091B9017091BA018091BB019091BC01F6
:1018E0000E94EB35882351F0C092B901D092BA0121
:1018F000E092BB01F092BC010E94E6308091C401ED
:1019000090918301981769F0809383018CE0FE0128
:101910003196A1EAB1E001900D928A95E1F70E941B
:10192000E6308091C101809380018091BD018632B3
:10193000F1F138F48C3109F18E31F9F08A3069F027
:101940004FC08C35D1F1863609F441C0883209F098
:1019500047C065E971E087E02DC06DEC71E089A5B5
:101960000E9455258091830129A5281339C08CE058
:10197000EDECF1E0A1EAB1E025C08D8981608D8BAD
:101980003F8D332329F0B8018BEE91E00E946B3438
:10199000B8018DEC91E00E946B348CE0EDECF1E04D
:1019A000A5E9B1E001900D928A95E1F719C065E9CA
:1019B00071E086E00E94552513C08CE0EBEEF1E06B
:1019C000ADEAB1E001900D928A95E1F707C08CE095
:1019D000EDEAF1E0DF011D928A95E9F70E94E63019
:1019E0008091BE0180937D01803509F41CC3BF8DB9
:1019F000B23009F018C3813021F4BE01635F7F4F1C
:101A000006C0811109C08D8981608D8BB8018BEE74
:101A100091E00E946B34FEC28250823008F093C283
:101A20008091E2019091E301A091E401B091E50180
:101A30008F8F98A3A9A3BAA3ABAD94E0A99F70011F
:101A40001124F701EB56FE4FF8A7EFA3970123539C
:101A50003E4F3AA729A7D9014D905D906D907C909B
:101A60002081318142815381C301B2010E94F63449
:101A70006BA77CA78DA79EA7EDADB4E0EB9F80017F
:101A8000112498012B563E4F3CAF2BAFC801835316
:101A90009E4F9EAF8DAFDC018D909D90AD90BC9020
:101AA000F9012081318142815381C501B4010E9435
:101AB000F6346FA778AB89AB9AAB77FA709477F866
:101AC0007094D501C401B0588B8F9C8FAD8FBE8FA1
:101AD000F701E551FE4F2BA53CA54DA55EA5608104
:101AE0007181828193810E94F5346B017C01F80140
:101AF000E551FE4F2FA538A949A95AA960817181E6
:101B0000828193810E94F5344B015C01A70196010B
:101B1000C301B2010E944D386BAB7CAB8DAB9EAB69
:101B2000A50194016B8D7C8D8D8D9E8D0E944D380D
:101B30009B01AC016BA97CA98DA99EA90E94F634DA
:101B40006BAB7CAB8DAB9EABA5019401C301B20125
:101B50000E944D384B015C01A70196016B8D7C8D75
:101B60008D8D9E8D0E944D389B01AC01C501B40145
:101B70000E94F5342BA93CA94DA95EA90E94753598
:101B80006B017C019BA192FF13C02DEB37E346E074
:101B900055EBC701B6010E940D3887FD1DC02BED26
:101BA0003FE049EC50E4C701B6010E94F53412C091
:101BB0002DEB37E346E055E3C701B6010E94EB3554
:101BC000181654F02BED3FE049EC50E4C701B60184
:101BD0000E94F6346B017C0180906101909062015B
:101BE000A0906301B09064012F8D38A149A15AA142
:101BF000CA01B9010E94F634A50194010E94F5348E
:101C0000A50194010E944D380E94EC384B015C0103
:101C100020E030E040E05FE3C701B6010E944D38AC
:101C20002F8D38A149A15AA10E944D389F77A50157
:101C300094010E94F5350E94DA360E946E367CAB24
:101C40006BABDB01AB2B09F4D8CE1D894B01A12C6A
:101C5000B12C13FF12C0C501B4010E949D369B0137
:101C6000AC016D857E858F8598890E944D386D8782
:101C70007E878F87988B177F1D8BC501B4010E94CB
:101C80009D364B015C019B01AC01C701B6010E946E
:101C9000F5356BA37CA38DA39EA3EFADB4E0EB9FC2
:101CA000C00111248C010B561E4FFC01E551FE4F63
:101CB000D8012D913D914D915C916081718182811E
:101CC00093810E94F534A50194010E94F535279671
:101CD0006CAF7DAF8EAF9FAF27972BA13CA14DA1DD
:101CE0005EA1CA01B9010E944D389B01AC0160E0C0
:101CF00070E080E090E40E94F5346B017C012BEAF7
:101D00003AEA4AE25EE36BA17CA18DA19EA10E940A
:101D10004D384B015C0120E030E040E850E4C70161
:101D2000B6010E94F6349B01AC01C501B4010E94CA
:101D30004D386FAB78AF89AF9AAF20E030E040E02C
:101D40005FE3C701B6010E944D3823966CAF7DAFAB
:101D50008EAF9FAF23971F8E22242394312CEBA9A3
:101D6000FCA9E215F30509F448CEBF8DBC3008F09C
:101D700044C02B8D3C8D4D8D5E8D23966CAD7DAD1D
:101D80008EAD9FAD23970E944D386B017C01A3015E
:101D900092016FA978AD89AD9AAD0E944D38A70127
:101DA00096010E94F6347B016C01A30192012396F7
:101DB0006CAD7DAD8EAD9FAD23970E944D384B012C
:101DC0005C012B8D3C8D4D8D5E8D6FA978AD89ADFD
:101DD0009AAD0E944D389B01AC01C501B4010E942F
:101DE000F5342B013C01EF8DEF5FEF8F470156017A
:101DF0008B8E9C8EAD8EBE8E65C0B10180E090E072
:101E00000E949D362BA13CA14DA15EA10E944D38A0
:101E10006B017C010E94F0356B8F7C8F8D8F9E8FC4
:101E2000C701B6010E94DE384B015C01A9A5BAA525
:101E3000CD90DD90ED90FC90F7FAF094F7F8F094E7
:101E4000ADADBEAD8D919D910D90BC91A02D8F8FAC
:101E500098A3A9A3BAA3A70196016B8D7C8D8D8D44
:101E60009E8D0E944D382B013C012F8D38A149A138
:101E70005AA1C501B4010E944D389B01AC01C301B8
:101E8000B2010E94F6342B013C01A7019601C50165
:101E9000B4010E944D386B017C012F8D38A149A1FE
:101EA0005AA16B8D7C8D8D8D9E8D0E944D389B012E
:101EB000AC01C701B6010E94F5346B8F7C8F8D8F0A
:101EC0009E8F1F8EA30192016BA57CA58DA59EA55B
:101ED0000E94F634EFA1F8A5608371838283938317
:101EE0002B8D3C8D4D8D5E8D6FA578A989A99AA902
:101EF0000E94F634ABADBCAD6D937D938D939C93F6
:101F0000139727962CAD3DAD4EAD5FAD2797F801E9
:101F100060817181828193810E94F634D8016D9332
:101F20007D938D939C931397BE01635F7F4F85E9EB
:101F300091E00E946B3480911B0181116BC0BFEF57
:101F40002B1A3B0A0CCF8D8984608D8B80911A01EE
:101F5000823009F45FC00E94152280911B0181111B
:101F600062C0FBA1F071FF2E10921F012BA123FB79
:101F7000882780F90E94E71C86B180729091000149
:101F8000891749F084E00E941F110E942A2180E0F5
:101F90000E94E71C48C0B8018BEE91E00E946B34B0
:101FA00081E08093190182E00E942F110E942A2172
:101FB00080911B01811137C080911A018111F6CFE8
:101FC00080911901813081F4FF2051F08CE0E1E033
:101FD000F1E0ADE0B1E001900D928A95E1F707C024
:101FE00085E00E941F1103C081E080931F011092C1
:101FF000190180E00E94E71C0E942A210E941F1AFA
:102000000E949B230E9407230E94CB3480911F01D2
:10201000811189C08CE0EBEEF1E0A5E9B1E001901F
:102020000D928A95E1F78091C50180938401882300
:1020300009F47CC00E9415228091840190911A01BC
:10204000833041F49230B9F188E00E942F110E9450
:102050002A2131C081E080937D011092810110928C
:10206000800110927E0110928301109286011092DD
:10207000850184E6809322018093230180932401CB
:10208000923079F061EA71E080E00E94692588234E
:10209000C9F10E94E63080E00E94D01C80E00E94DE
:1020A000110386EA92E00E94F8228DE392E00E94FA
:1020B000F8220E942328109284012FC081E036C0AC
:1020C00082E034C088E132C086E230C089E12EC0AF
:1020D00084E02CC08BE12AC085E228C084E126C0C0
:1020E0008EE124C08FE122C086E120C080E21EC0C4
:1020F00082E21CC083E21AC084E218C080E116C0EC
:102100008FE014C087E012C08CE0EBEEF1E0A5E9AF
:10211000B1E001900D928A95E1F780E007C01A8E38
:102120001BA20C9457030E9468027DCFC65BDF4F51
:102130000FB6F894DEBF0FBECDBFDF91CF911F91D8
:102140000F91FF90EF90DF90CF90BF90AF909F9056
:102150008F907F906F905F904F903F902F90089559
:10216000CF93DF93C1ECD6E08991882319F00E94C8
:102170009326FACFDF91CF910895CF93DF9321E596
:10218000829FC0011124EC01DD5F40E550E0BE01FB
:1021900081EC96E00E946E02892B69F41092C106D0
:1021A0000E94152240E550E061EC76E0CE010E94ED
:1021B000D40280E001C081E0DF91CF910895CF93F8
:1021C000DF93C0E08C2F0E94BD1081110EC01092D1
:1021D000C1068EE30E9493260E94B0108AE30E94FB
:1021E000932687E00E94CC2612C08091C1068823E6
:1021F00071F00E941D03D82F8EE30E9493260E9447
:10220000B0108AE30E9493268D2F0E94D826CF5FBC
:10221000C230C1F6DF91CF9108959FB7F894209115
:102220000805822B809308059FBF08959FB7F894F7
:1022300020910705822B809307059FBF08959FB7C4
:10224000F894809306059FBF08952FB7F894909156
:10225000050580958923809305052FBF08959FB7B5
:10226000F89420910505822B809305059FBF089562
:102270008F929F92AF92BF92CF92DF92EF92FF9296
:102280000F931F93CF93DF93EB0128E2E22E21E01F
:10229000F22E8C016B018CE0C80ED11C69917991F2
:1022A00089919991F70181909190A190B1907F01CE
:1022B0000E949F36A50194010E94F535F8016193B3
:1022C0007193819391938F01CC15DD0539F7DF91DF
:1022D000CF911F910F91FF90EF90DF90CF90BF9023
:1022E000AF909F908F90089596B19095892F8770A9
:1022F00059F091FF02C082E001C080E090FD816052
:1023000092FF03C08460089580E008951F920F92A9
:102310000FB60F9211242F933F934F935F936F93B8
:102320007F938F939F93AF93BF93CF93EF93FF933D
:102330000E947411C82F882389F080FD0E942825EF
:10234000C2FF05C080910505826080930505C1FF2D
:1023500005C080910505886080930505FF91EF9188
:10236000CF91BF91AF919F918F917F916F915F912D
:102370004F913F912F910F900FBE0F901F90189586
:102380002F923F924F925F926F927F928F929F9285
:10239000AF92BF92CF92DF92EF92FF920F931F9373
:1023A000CF93DF93CDB7DEB7C654D1090FB6F894FB
:1023B000DEBF0FBECDBF20911E012E8F20FD85C731
:1023C00022702BAB3E8D34703CAB4091D9044DABA9
:1023D0005EE2459FC0011124DC01A750BE4F239649
:1023E000BFAFAEAF23974091F8014EAB4F5F498F1F
:1023F000403111F04FAB01C01FAA5EE2AFA95A9F56
:10240000C0011124FC01E55FFD4F2596FFAFEEAF43
:1024100025979091330580913405981709F455C795
:102420008091B4059091B505892B09F0F2C2BCA941
:10243000BB2349F02396EEADFFAD2397F093B5058E
:10244000E093B40506C00E948B239093B50580935A
:10245000B4052091B4053091B5053A872987232B1F
:1024600009F433C71091DB04812F817010FF03C082
:102470001092DB04C8C09091DA049F5F953009F098
:10248000892F8093DA04482F50E0A985BA855096A9
:102490009C91B2E1B49FF001B59FF00D1124E65A72
:1024A000FA4F908B95FF0BC020E2218BA985BA854E
:1024B00032E1839FC001112420E030E002C0118A84
:1024C000F5CFCD90DD90ED90FD90F901E80FF91F6B
:1024D000E65AFA4F63E0CC0CDD1CEE1CFF1C6A953B
:1024E000D1F7C082D182E282F3822C5F3F4F2C3041
:1024F000310539F7A2E1A49FC001A59F900D1124D9
:10250000FC01E65AFA4FA985BA851C964D915D915A
:102510006D917C911F9793E0440F551F661F771FA5
:102520009A95D1F744875587668777871C966D9172
:102530007D918D919C911F970E949D366093E00440
:102540007093E1048093E2049093E304E985FA85B3
:10255000268D378D40A151A10E94F5359B01AC011C
:102560006093E4047093E5048093E6049093E70499
:1025700060E070E080EA9FE30E94F5356093E80434
:102580007093E9048093EA049093EB041092DC04C6
:102590001092DD041092DE041092DF04FBA9F11109
:1025A00002C013FF20C06091F9047091FA04809179
:1025B000FB049091FC046093F1047093F204809307
:1025C000F3049093F4049B01AC010E944D38A9855B
:1025D000BA8552966D937D938D939C935597177FF3
:1025E0001093DB0410C0E985FA85628973898489B8
:1025F00095890E94EC386093F1047093F204809303
:10260000F3049093F4041092ED041092EE041092EF
:10261000EF041092F004A985BA855A962D913D9148
:102620004D915C915D9729833A834B835C8360E095
:1026300070E080E09FE30E94F5356D837E838F8399
:102640009887E985FA85468C578C60A071A0FBA914
:10265000FF2309F44CC022E02093EC04A985BA853D
:102660005296CD90DD90ED90FC905597A701960184
:102670000E944D389B01AC01C301B2010E94F534A8
:102680004B015C0120E030E0A9010E94EB3587FF9F
:102690001DC029813A814B815C81CA01B9010E9428
:1026A000F634A30192010E944D389B01AC01C70191
:1026B000B6010E94F5340E94EC386093F9047093DF
:1026C000FA048093FB049093FC04A3C18092ED0470
:1026D0009092EE04A092EF04B092F0041092F904EC
:1026E0001092FA041092FB041092FC0492C1109212
:1026F000EC044092FD045092FE046092FF0470923C
:102700000005BCA9BB2361F01092F9041092FA04F1
:102710001092FB041092FC04C12CD12C76011CC039
:10272000EFA9FDA9EF1749F02596AEADBFAD2597EE
:10273000CD90DD90ED90FC9003C0C12CD12C7601A2
:10274000C701B6010E94EC386093F9047093FA0453
:102750008093FB049093FC0489859A850E9418233A
:10276000698B7A8B8B8B9C8B9B01AC010E944D38C3
:102770006D877E878F87988BA985BA8552962D9114
:102780003D914D915C91559729873A874B875C879E
:102790000E94EB3587FF72C02D853E854F85588995
:1027A00069857A858B859C850E94F5342D813E81D3
:1027B0004F8158850E944D389B01AC01C301B20185
:1027C0000E94F5346093FD047093FE048093FF042F
:1027D0009093000520E030E0A9010E94EB35181627
:1027E0003CF1B2E0B093EC0429813A814B815C81E9
:1027F000CA01B9010E94F634A30192010E944D382A
:102800009B01AC0169857A858B859C850E94F53496
:102810000E94EC386093F9047093FA048093FB04EF
:102820009093FC048091DB0488608093DB04F1C00A
:10283000A70196016D857E858F8598890E94F53464
:102840002D813E814F8158850E944D38609301054E
:1028500070930205809303059093040529893A89B2
:102860004B895C892093F5043093F6044093F70478
:102870005093F80433E03093EC04CBC0A7019601E9
:1028800069857A858B859C850E94F5342D813E81F2
:102890004F8158850E944D38A30192010E94F63461
:1028A00020E030E040E05FE30E944D384B015C01E6
:1028B00020E030E0A9010E940D3818160CF091C0FC
:1028C000A5019401C301B2010E940D3818160CF045
:1028D00084C0A70196016D857E858F8598890E94A9
:1028E000F5342D813E814F8158850E944D389B01E2
:1028F000AC016093010570930205809303059093EA
:102900000405C501B4010E940D381816DCF589894B
:102910009A89AB89BC898093F5049093F604A093BF
:10292000F704B093F80429853A854B855C856D855D
:102930007E858F8598890E94EB35811104C091E0D6
:102940009093EC0466C029853A854B855C856D853E
:102950007E858F8598890E94F5342D813E814F8137
:1029600058850E944D389B01AC01C301B2010E9401
:10297000F5346093FD047093FE048093FF049093FC
:10298000000547C08092FD049092FE04A092FF04CF
:10299000B09200058092010590920205A092030575
:1029A000B092040529813A814B815C81CA01B90149
:1029B0000E94F634A50194010E944D38A7019601AA
:1029C0000E94F6340E94EC386093F5047093F6048C
:1029D0008093F7049093F8041CC0A2E0A093EC0449
:1029E00018C01092FD041092FE041092FF04109281
:1029F00000058091F9049091FA04A091FB04B09134
:102A0000FC048093F5049093F604A093F704B0932C
:102A1000F80480915905E82FF0E0FA87E98746E04D
:102A20009F01429FF001439FF00D1124EB5CFA4F90
:102A30008091DA0484838091B4059091B5059A8BD6
:102A4000898BDC015E96BC91BBA3FC01F78DFCA3D6
:102A5000DC019096BC91BDA3FC01F1A1FEA32091E5
:102A6000E8043091E9044091EA045091EB046BA131
:102A70007CA18B2F9F2F0E94F5346FA778AB89AB79
:102A80009AAB20E030E0A9010E94EB3587FF04C03B
:102A90001FA618AA19AA1AAA2091F5042D8B309105
:102AA000F6043E8B4091F7044F8B5091F804588FF9
:102AB0008091FD048A8F9091FE049B8FA091FF046A
:102AC000AC8FB0910005BD8FE0910105EFA3F091AF
:102AD0000205F8A72091030529A7309104053AA71C
:102AE0004091EC044D873090F1042090F204509115
:102AF000F30459838091F4048D839091ED049BA796
:102B0000A091EE04ACA7B091EF04BDA7E091F00452
:102B1000EEA7F091F904F9AF2091FA042AAF3091B1
:102B2000FB043BAF4091FC044CAF2FA138A549A555
:102B30005AA56A8D7B8D8C8D9D8D0E94EB35811100
:102B400003C052E058AF02C081E088AF0BA11CA1C6
:102B50009DA127969FAF2797AEA12696AFAF269748
:102B60008EE3C82E83ECD82E8EE2E82E89E3F82E71
:102B7000412C512C3201CF8ED8A2E9A2FAA23D8578
:102B8000313009F404C1A989BA89313008F485C00B
:102B9000333009F03EC15A962D913D914D915C9193
:102BA0005D97C701B6010E944D384B015C012D892C
:102BB0003E894F89588D632D722D89819D810E9498
:102BC000F5349B01AC01C501B4010E940D3887FDAD
:102BD00035C02A8D3B8D4C8D5D8D6BA17CA18DA167
:102BE0009EA10E94F5349B01AC010E94F6346B015A
:102BF0007C01232D322D49815D816D897E898F89EC
:102C0000988D0E94F6349B01AC01C701B6010E9469
:102C1000F5356B017C013D882E88BF89B983E88D2D
:102C2000ED830A8D1B8DFC8D2796FFAF27972D8D89
:102C300026962FAF269731E03D8782C120E030E015
:102C400040E05FE3C501B4010E944D389B01AC0137
:102C5000632D722D89819D810E94F534A701960113
:102C60000E944D389B01AC01B80127968FAD279784
:102C700026969FAD26970E94F5348B0127968FAF3D
:102C8000279726969FAF2697A5019401632D722D55
:102C900089819D810E94F53475C05A962D913D9190
:102CA0004D915C915D97C701B6010E944D384B0173
:102CB0005C0120E030E040E05FE30E944D38232DCE
:102CC000322D49815D810E94F634A70196010E9450
:102CD0004D389B01AC01B80127968FAD27972696FA
:102CE0009FAD26970E94F5348B0127968FAF2797CB
:102CF00026969FAF26979B01AC016A8D7B8D8C8DAC
:102D00009D8D0E940D381816ACF52A8D3B8D4C8D8B
:102D10005D8D6BA17CA18DA19EA10E94F5349B01CC
:102D2000AC010E94F6346B017C01232D322D4981C8
:102D30005D816D897E898F89988D0E94F6349B0113
:102D4000AC01C701B6010E94F5356B017C01B8AD3D
:102D5000BD873D882E88EF89E983F88DFD830A8D34
:102D60001B8D2C8D27962FAF27973D8D26963FAF35
:102D70002697E6C0A5019401632D722D89819D815E
:102D80000E94F634362E272E89839D83D9C02D8943
:102D90003E894F89588DC701B6010E944D389B016D
:102DA000AC01B80127968FAD279726969FAD269741
:102DB0000E94F5344B015C019B01AC016FA178A529
:102DC00089A59AA50E940D3818160CF0B2C02FA143
:102DD00038A549A55AA5B80127968FAD27972696FD
:102DE0009FAD26970E94F5342D893E894F89588DD5
:102DF0000E94F5356B017C010FA118A549A5279606
:102E00004FAF27975AA526965FAF269782E08D870A
:102E100097C05A962D913D914D915C915D97C70158
:102E2000B6010E944D384B015C01232D322D4981A2
:102E30005D810E94EB3587FF46C020E030E040E036
:102E40005FE3C501B4010E944D389B01AC01632DC5
:102E5000722D89819D810E94F534A70196010E94FF
:102E60004D389B01AC01B80127968FAD2797269668
:102E70009FAD26970E94F5346DAF7EAF8FAF219640
:102E80009FAF21972BA53CA54DA55EA50E940D38AF
:102E90001816CCF4A5019401632D722D89819D81B2
:102EA0000E94F534362E272E89839D830DAD1EADED
:102EB000BFAD2796BFAF27972196EFAD21972696F6
:102EC000EFAF26973DC02BA53CA54DA55EA5B8014B
:102ED00027968FAD279726969FAD26970E94F534AB
:102EE0009B01AC010E94F6346B017C01232D322D35
:102EF00049815D8169AD7AAD8BAD9CAD0E94F634A0
:102F00009B01AC01C701B6010E94F5356B017C0144
:102F100039AC2AACFBADF9832CAD2D830BA51CA5D8
:102F20003DA527963FAF27974EA526964FAF2697EC
:102F300007C084012796AFAE27972696BFAE269787
:102F4000A7019601C301B2010E94F6342B013C0196
:102F50002F8D38A149A15AA10E94EB3587FF07C0E8
:102F6000A30192016F8D78A189A19AA11FC02FA5FD
:102F700038A949A95AA9B80127968FAD279726964F
:102F80009FAD26970E940D3818169CF52EE333EC62
:102F90004EE259E36F8D78A189A19AA10E94F6347F
:102FA0006F8F78A389A39AA3A30192010E94F5349D
:102FB0006B017C01980127964FAD279726965FAD50
:102FC00026976BA57CA58DA59EA50E94EB3587FD58
:102FD000D6CD832D922DA981BD818093F10490934C
:102FE000F204A093F304B093F4045D855093EC04D1
:102FF0000FC0832D922DA981BD818093F104909300
:10300000F204A093F304B093F4048D858093EC0450
:103010002091E4043091E5044091E6045091E704E6
:10302000B80127968FAD279726969FAD26970E94C9
:103030004D3869837A838B839C830E94D4356B01DE
:103040007C016091E0047091E1048091E204909130
:10305000E3040E94D4354B015C01A70196010E9454
:10306000F5340E946E366D837E838F83988726E0C9
:10307000A985BA852A9FF0012B9FF00D1124EB5CE6
:10308000FA4F4D815E8151834083CA01892B19F427
:103090009BA99111FCC02091DC043091DD0440918A
:1030A000DE045091DF04C301B2010E94F6342B010B
:1030B0003C0129813A814B815C81C501B4010E94A8
:1030C000F5349B01AC01C301B2010E94F5354B01FF
:1030D0005C0120EC31EE44E65EE40E944D380E9433
:1030E000D4350E946E36603DA7E07A0781059105D0
:1030F00060F446E029853A85429FF001439FF00D38
:103100001124EB5CFA4F158253C0603A5FE07507FB
:103110008105910560F426E0A985BA852A9FF00112
:103120002B9FF00D1124EB5CFA4F31E011C060349D
:103130004FE174078105910568F426E0A985BA85F9
:103140002A9FF0012B9FF00D1124EB5CFA4F32E027
:1031500035830CC0A6E049855A85A49FF001A59F40
:10316000F00D1124EB5CFA4FB3E0B58346E02985FE
:103170003A85429FF001439FF00D1124EB5CFA4F1A
:103180002581022E04C096958795779567950A94B8
:10319000D2F7AD81BE8102C0AA0FBB1F2A95E2F70C
:1031A000B183A08361157105B1E08B07910568F4C7
:1031B00046E029853A85429FF001439FF00D112496
:1031C000EB5CFA4F7383628304C08FEF9FEF9383AE
:1031D000828380913405809359058F5F863019F082
:1031E0008093340502C010923405E091B405F0914B
:1031F000B505C8012796AFAD27972696BFAD269790
:10320000868F978FA0A3B1A3C092E004D092E1046F
:10321000E092E204F092E30429813A814B815C81DF
:10322000C701B6010E94F534A50194010E944D38F2
:103230006093DC047093DD048093DE049093DF04DC
:103240002091ED043091EE044091EF045091F00490
:10325000B80127968FAD279726969FAD26970E9497
:10326000EB358111D6C820E030E0A901B8012796DE
:103270008FAD279726969FAD26970E940D3818167A
:103280001CF480911E0104C09CA9992329F08E8D05
:10329000816080931E0119C01092B5051092B4058B
:1032A000ADA9BEA9AB1709F4B4C8E98DE03109F4A2
:1032B000198E8091F701FEA9F81303C0298D209380
:1032C000F701398D3093F8018EC8CA5BDF4F0FB616
:1032D000F894DEBF0FBECDBFDF91CF911F910F914C
:1032E000FF90EF90DF90CF90BF90AF909F908F9026
:1032F0007F906F905F904F903F902F900895CF9365
:10330000DF93C091B405D091B5052097C9F08091A5
:10331000DB0481608093DB046091F1047091F2041E
:103320008091F3049091F4049B01AC010E944D380C
:103330006A8B7B8B8C8B9D8B1092B5051092B4059C
:10334000DF91CF91089530915901632F20915A0157
:10335000422F932F917030FD94E0822F817020FDD9
:1033600080E261FD986041FD806462FD906142FDF4
:10337000806890930B0580930C05109209051092BC
:103380000A0533FF03C080E18093090523FF03C0D2
:1033900080E280930A0508951F920F920FB60F9254
:1033A00011248F939F938BB190910B059C71837E19
:1033B000892B8BB985B19091090590718F7E892BEE
:1033C00085B915BC9F918F910F900FBE0F901F90E4
:1033D000189580916F008D7F80936F0080918100A0
:1033E000887F81608093810010920D0580915B0140
:1033F00090911A018F3F39F420910605211103C0E5
:10340000903881F402C0943069F090E0009741F068
:10341000EFE9FFE03197F1F700C000000197F6CF28
:1034200081E001C080E090916D0192FF02C091E0C7
:103430008927882311F0289A089528980895CF9312
:10344000DF930E94E9198BE2EAEDF4E0DF011D92BF
:103450008A95E9F7CEE0D5E085E2FE0111928A95E2
:10346000E9F71092B5051092B40510923305109249
:10347000590581E08093340510920D050E94A3192F
:1034800080910C058F878BB1837E90910B05892BE2
:103490008BB98BB18F7190910C05892B8BB9809171
:1034A0000A05898B85B18F7E90910905892B85B995
:1034B00085B18F7D90910A05892B85B9DF91CF91D8
:1034C00008951F920F920FB60F9211242F933F93DE
:1034D0004F935F936F937F938F939F93AF93BF931C
:1034E000EF93FF9380910D05811131C28BB19091C3
:1034F0001D05907E8F71892B8BB985B190911F0529
:1035000090728F7D892B85B98BB1837E90911C053C
:10351000892B8BB985B18F7E90911E05892B85B93A
:1035200080911B0586BD82E085BD81E080930D05FD
:1035300078948091310590913205892B09F0AEC0C5
:103540008091330590915905981709F4A1C0E09135
:1035500033052E2F30E086E0E89FF0011124EB5C6C
:10356000FA4FF0933205E093310582819381909375
:103570008900809388008081918190932D058093AC
:103580002C05E48180912E058E1761F1E0932E05C4
:1035900082E1E89FF0011124E65AFA4FF0933005DA
:1035A000E0932F0584859585A685B785B695A79563
:1035B000979587958093160590931705A093180506
:1035C000B09319058093120590931305A0931405E9
:1035D000B093150580930E0590930F05A0931005E9
:1035E000B0931105E0912F05F091300590898091FD
:1035F0000C05892780931D05918980910A058927EB
:1036000080931F0586E0829FD001839FB00D112417
:10361000AB5CBA4F15962C9180819181A281B381C8
:10362000022E04C0B695A795979587950A94D2F770
:103630008093200590932105A0932205B093230544
:1036400084819581A681B781022E04C0B695A79585
:10365000979587950A94D2F7809324059093250532
:10366000A0932605B093270580859185A285B38513
:1036700004C0B695A795979587952A95D2F780931C
:10368000280590932905A0932A05B0932B0506C021
:103690000E94E91984E00E942F1159C180911901FB
:1036A0008130B1F486B1807290910001891781F068
:1036B000109219018CE0E1E0F1E0ADE0B1E00190A1
:1036C0000D928A95E1F78091050580648093050548
:1036D00010921C0510921E0540910E0550910F0589
:1036E0006091100570911105809120059091210540
:1036F000A0912205B0912305840F951FA61FB71F27
:1037000080930E0590930F05A0931005B0931105BB
:10371000E0912F05F09130054485558566857785C4
:10372000481759076A077B0780F524E020931C059A
:1037300020E120931E054485558566857785841B89
:10374000950BA60BB70B80930E0590930F05A093D6
:103750001005B0931105208980910101909102011B
:10376000A0910301B091040125FF04C00197A109B4
:10377000B10903C00196A11DB11D80930101909371
:103780000201A0930301B0930401409112055091EE
:103790001305609114057091150580912405909191
:1037A0002505A0912605B0912705840F951FA61F1A
:1037B000B71F8093120590931305A0931405B0933F
:1037C00015054485558566857785481759076A0725
:1037D0007B0778F520911C05286020931C05448503
:1037E000558566857785841B950BA60BB70B809353
:1037F000120590931305A0931405B0931505208925
:103800008091050190910601A0910701B0910801F6
:1038100026FF04C00197A109B10903C00196A11DAB
:10382000B11D8093050190930601A0930701B09309
:103830000801409116055091170560911805709187
:1038400019058091280590912905A0912A05B0912C
:103850002B05840F951FA61FB71F80931605909305
:103860001705A0931805B0931905448555856685FD
:103870007785481759076A077B0778F520911C055B
:10388000206120931C054485558566857785841BBA
:10389000950BA60BB70B8093160590931705A09375
:1038A0001805B093190520898091090190910A01AA
:1038B000A0910B01B0910C0127FF04C00197A10951
:1038C000B10903C00196A11DB11D80930901909318
:1038D0000A01A0930B01B0930C0180911A0184306E
:1038E00071F490911C0580912001892380931C051F
:1038F00090911E0580912101892380931E0580915E
:103900002C0590912D05019790932D0580932C0502
:10391000892B69F41092320510923105809133059C
:103920008F5F80933305863011F4109233059091A8
:103930001C0580910B05892780931C0590911E051D
:1039400080910905892780931E0510920D05FF912E
:10395000EF91BF91AF919F918F917F916F915F9107
:103960004F913F912F910F900FBE0F901F90189580
:1039700080916D0182FF02C0289A01C02898809131
:103980000B0580931C0580915801880F8450819508
:1039900080931B0580916F00826080936F00089573
:1039A00090911B01911107C0811102C0439801C081
:1039B000439A1092260108953B9A439808950E94D5
:1039C0008B23892B19F082E00C942F11089510920B
:1039D000000190916D0197FD03C090E2909300016A
:1039E000882331F09091000180E2892780930001C3
:1039F000089520916D0120FF08C02BE832E441E2D8
:103A00005DE30E944D3841E001C040E00C94352256
:103A10003F924F925F926F927F928F929F92AF925E
:103A2000BF92CF92DF92EF92FF920F931F93CF93AB
:103A3000DF93CDB7DEB7A4970FB6F894DEBF0FBE05
:103A4000CDBF10910605112391F181E080931A01F9
:103A500081EB92E00E94F822812F0E94D2220E94E4
:103A6000C82685EF91E0019739F0EFE9FFE0319743
:103A7000F1F700C00000F7CF1150123030F08FB7CF
:103A8000F894109206058FBF12C086EA92E00E9459
:103A9000F82284E992E00E94F8220E94232880E123
:103AA0000E9425118091050584FFFCCFE8CF10917D
:103AB0000505112309F4A3C214FF04C081E080931B
:103AC0001B01B0C310FFA7C18CE0E1E0F1E0DE0113
:103AD000599601900D928A95E1F7BE01675E7F4F7E
:103AE000CE010D960E9438118CE30E94932680919E
:103AF0001A018830E1F058F4813099F1A8F0823051
:103B000099F1843009F043C08BEF92E03EC08032DF
:103B100029F118F4803171F03AC0803441F18038D5
:103B2000B1F583EE92E031C08EE093E02EC08AE0E2
:103B300093E02BC080911C0187FD10C084E093E0CE
:103B40000E94F82280911C0180FF06C080E31AC009
:103B500082FF17C085FFFACF81E314C080E093E0B5
:103B600014C085EF92E011C08FEE92E00EC089EE96
:103B700092E00E94F82280911C0183FFE9CF83E349
:103B800001C082E30E94932602C00E94F822809125
:103B90005C01F82FF170BF2E80FF07C080912701D4
:103BA000882319F08CED92E053C04090B9015090F9
:103BB000BA016090BB017090BC0151EA852E51E0C2
:103BC000952E9E012F5F3F4F7901CE010D966C011E
:103BD00000E0F40161917191819191914F012085F3
:103BE0003185428553850E94F634F70160837183E5
:103BF00082839383023061F4A30192010E94F63420
:103C0000F7016083718382839383BB2019F0CACF4D
:103C1000B11011C0F7012081318142815381F60139
:103C200060817181828193810E94F534F601608305
:103C30007183828393830F5FF4E0EF0EF11C24E025
:103C4000C20ED11C033029F6B110ACCF85ED92E045
:103C50000E94F822CE010D960E94AF2680915C0151
:103C600081FF1FC080ED92E00E94F8229091D9045C
:103C70008091F801981710F0815F01C08150891B75
:103C80000E94D2228CE20E94932680915406909149
:103C90005506981710F0805801C08150891B0E946A
:103CA000D2228CEC92E00E94F82280911A018C774B
:103CB00049F06091F1047091F2048091F3049091C5
:103CC000F40403C060E070E0CB010E94F91C0E9484
:103CD0001B02F82E0E947411082F86B1982F907243
:103CE00080910001E92EE8268F2D802B8E2961F12D
:103CF00087EC92E00E94F822EE2019F080E50E9405
:103D00009326FF2081F08F2D897019F088E50E949D
:103D10009326F1FE03C089E50E949326F2FE03C0BC
:103D20008AE50E949326002379F000FF03C082E514
:103D30000E94932601FF03C088E40E94932602FF9D
:103D400003C083E50E94932680912701882321F0F8
:103D500081508093270118C080911A018C7711F04F
:103D60008DE101C089E080932701809126018111B6
:103D700003C081E08093260181EC92E00E94F8224A
:103D8000CE0101960E94AF2680912601882321F062
:103D900081508093260137C080911A018C7711F0F1
:103DA00083E101C089E0809326018CEB92E00E94C0
:103DB000F822809122010E94D2228CE20E94932656
:103DC000809123010E94D2228CE20E94932680914E
:103DD00024010E94D22208B10870449B03C040E431
:103DE000F42E03C0002379F0F12C88EB92E00E94BE
:103DF000F822002319F083E50E949326FF2019F092
:103E000086E40E9493268EE30E9493260E94C82691
:103E100081E00E942511812F887E09F467C080917E
:103E20001A01982F937009F050C08872A1F0809108
:103E30001C01807C81F40E947F1982E080931E0126
:103E400080911A01803239F417FDEAC180911C017A
:103E5000806880931C0180911A01811103C091E058
:103E600090931C0116FF07C085FD05C090911C01B1
:103E7000906490931C0113FF05C0807E19F480E1CB
:103E800080931A0115FF21C086EA92E00E94F82271
:103E900082E592E00E94F8220E94232880911C0172
:103EA00087FD0EC090911A01903439F483FFB4C19C
:103EB000837E826080931C01AFC1903809F0ACC151
:103EC00080911C01806280931C0117FF0CC08091BF
:103ED0001A01813029F480911C01856080931C01B6
:103EE00080E880931A0188EE0E94251111FF44C0DA
:103EF000812F8876F1F580911A01803471F48091D8
:103F00001C0185FD0AC084FF03C010921A0105C080
:103F100082FF03C0886080931C0180911A0188236E
:103F200081F084FF26C090911C0190FF22C0803157
:103F300041F480912501882321F088608093250138
:103F400018C010921E010E948B23892B71F0809162
:103F50001C0186FD0AC010921C0188E080931A01A2
:103F60000E94C0110E94B81C04C010921C01109243
:103F70001A0182E00E94251112FF41C080911A01AE
:103F8000807D90911C018823D9F080911D018111C1
:103F900017C097FD15C00E947F198091F80180938A
:103FA000F7010E94AC2380911E0181FF05C0909112
:103FB0001C01916090931C01897F80931E011CC09D
:103FC00097FF0AC010921E010E949B230E941F1A95
:103FD0000E9468020E94072380911C0185FF08C08F
:103FE0008F77816080931C0180E480931A0104C064
:103FF00010921C0110921A0184E00E9425119091E8
:104000000705992309F4ABC08FB7F8941092070500
:104010008FBF4091220190FD02C0842F01C084E631
:1040200091FD865F92FD8A5093FD8F5F94FD8150D4
:10403000893C08F088EC8A3008F48AE0309123014A
:1040400095FD02C0232F01C024E696FD22E397FDD3
:1040500029E1481303C0231709F481C0809322018A
:1040600020932301109226011091F8013090D90479
:1040700089E9D82E96E7E92E26E9F22E0EE73EE2F0
:10408000432E131509F457C0812E912C489CC00172
:10409000499C900D1124FC01E750FE4F5F01CF01B8
:1040A0000E941823562E672E782EC92E2D2D3E2DB8
:1040B0004F2D502F0E940D3818164CF42D2D3E2DEB
:1040C0004F2D502F6D2D7E2D8F2D902F08C0252D1B
:1040D000362D472D5C2D652D762D872D9C2D0E942C
:1040E0004D38F501668B778B808F918F489CC0018E
:1040F000499C900D11249C0127503E4F7901F901F4
:1041000082A093A0A4A0B5A0A50194016689778997
:10411000808D918D0E940D3818162CF4F701868A37
:10412000978AA08EB18E1F5F103109F410E0D52C54
:1041300073010C2DA6CF8D2D9E2DAF2DB02F80930A
:10414000CE059093CF05A093D005B093D1050E94E2
:104150007F198091F8018093F7010E94AC231091A0
:104160000805112309F451C08FB7F894109208057F
:104170008FBF9091240110FD02C0892F01C084E6F9
:1041800011FD865F12FD8A5013FD8F5F14FD815073
:10419000893C08F088EC8A3008F48AE0981791F09E
:1041A0008093240180911A01811105C080918601BC
:1041B0000E94D01C05C080911E01886080931E0162
:1041C0001092260180911A0115FF0DC0803159F41B
:1041D00090912501911102C092E003C090FF03C0AD
:1041E000946090932501107C81F0882311F08873EE
:1041F00061F01091850116FF02C01F7B01C01064A1
:10420000812F0E9411031093850180911A018C7FE8
:1042100049F00E94C01106C080E480931A0150CE7C
:1042200080E220CEA4960FB6F894DEBF0FBECDBFBD
:10423000DF91CF911F910F91FF90EF90DF90CF9082
:10424000BF90AF909F908F907F906F905F904F90B6
:104250003F9008951F93CF93DF930E94081D809194
:104260001C01882309F4DDC00E948B23009759F4B8
:104270009091860180918501892BD82FD07311E010
:10428000C82FC07C11C0FC0181898073449B02C08F
:1042900090E4F2CF90E0F0CF90911B019111C1C05A
:1042A00080FD07C00E94081D80911C018111F4CF80
:1042B000B8C090911A01292F207C09F46CC082FDAE
:1042C0000FC01092250180E00E94D01C80E00E9467
:1042D000110380911C018D7F846080931C01E2CFCB
:1042E0009038C9F486EA92E00E94F8228FE092E0CA
:1042F0000E94F8220E94232880E00E94D01C80E0C7
:104300000E9411030E94E91980911B01811189C04B
:104310000E94081DF9CF903419F48F7D80931C0101
:1043200080911C0183FFBECF909186019923B1F04B
:1043300081FD14C080916D0181FF06C080911E0136
:10434000886080931E010AC08D2F0E94D01C41E01E
:1043500060E070E080E890E40E94F924809185019B
:10436000882371F080911C0181FD0AC08C2F0E946E
:10437000110341E060E070E080E89FE30E94F924CF
:1043800080911C0181FD8ECF806180931C0182E0B1
:104390000E942F1187CF809125018823A9F181FFE9
:1043A0000AC0809186018823A1F080E00E94D01C81
:1043B0001093250177CF8C7009F474CF809186011A
:1043C00081110AC08091250183FF03C082E00E9411
:1043D0002F111092250166CF86EA92E00E94F82202
:1043E00088E192E00E94F8220E94232880916D01CA
:1043F00081FF06C080911E01886080931E01E2CF7C
:104400008D2F0E94D01CDECF80911E0183FF4ACFEA
:104410008D2F0E94D01C80911E01877F80931E01EA
:1044200041CFDF91CF911F9108950E94DF1C0E9420
:104430002A2180911B01811108C00E948B23892BA6
:10444000B1F780911A01883091F3089520916D01A0
:1044500020FF08C02BE832E441E25DE30E944D38C2
:1044600044E001C043E00C9435228F929F92AF92BA
:10447000BF92CF92DF92EF92FF920F931F93CF9351
:10448000DF93CDB7DEB72D970FB6F894DEBF0FBE22
:10449000CDBF6B017C01042F20E030E0A9010E9418
:1044A000EB3587FF07C08DE20E949326F7FAF09460
:1044B000F7F8F094102F123060F020E030E048EC74
:1044C00052E4C701B6010E944D386B017C011250C5
:1044D000F2CF00FF0AC020E030E040E251E4C70123
:1044E000B6010E944D386B017C0120E030E040E0D5
:1044F0005FE3C701B6010E94F6340E94673610E000
:104500003AE0832E912CA12CB12C61157105810507
:10451000910591F0EE24E394F12CEC0EFD1EE10EDA
:10452000F11CA50194010E947639605DF70160835A
:10453000B901CA011F5FE9CF80E3101748F4E1E039
:10454000F0E0EC0FFD1FE10FF11D80831F5FF5CF41
:10455000101313C0FE01E10FF11D80E381831F5F83
:104560000CC0101303C08EE20E949326FE01E10FDF
:10457000F11D80810E94932611501111F2CF2D96CA
:104580000FB6F894DEBF0FBECDBFDF91CF911F9164
:104590000F91FF90EF90DF90CF90BF90AF909F90E2
:1045A0008F900895CF93DF93843630F06AE00E94B5
:1045B0005639C0E3C90F03C0C0E08A3030F06AE06A
:1045C0000E945639D0E3D90F01C0D0E0805D0E942F
:1045D0009326DD2319F08D2F0E949326CC2329F0FA
:1045E0008C2FDF91CF910C949326DF91CF9108957A
:1045F000CF93DF93FC018491EF012196882321F072
:104600000E949326FE01F7CFDF91CF910895E1E05C
:10461000F1E0A6EBB5E041915191619171914D931B
:104620005D936D937D9381E0ED30F807A1F70895D8
:10463000BF92CF92DF92EF92FF920F931F93CF938F
:10464000DF937C01FC0102A513A5D4A5C5A5818932
:1046500080FF18C06091230170E080E090E00E942C
:104660009F362AE037ED43E25CE30E944D389B0120
:10467000AC01B8018D2F9C2F0E944D388B01D82F93
:10468000C92F2DC082FD17C06091220170E080E02B
:1046900090E00E949F362AE037ED43E25CE30E94FF
:1046A0004D389B01AC01B8018D2F9C2F0E944D38D5
:1046B0008B01D82FC92FF701B6A0C7A0D0A4F1A4B1
:1046C0002B2D3C2D4D2D5F2DB8018D2F9C2F0E9441
:1046D0000D38181624F40B2D1C2DDD2DCF2D20E0C8
:1046E00030E040E85FE3B8018D2F9C2F0E940D3829
:1046F000181624F000E010E0D0E8CFE3B8018D2FC9
:104700009C2FDF91CF911F910F91FF90EF90DF9041
:10471000CF90BF9008958091F8019091D904981797
:1047200039F02EE2829FC001112487509E4F0895D8
:1047300080E090E008958CE1E6EBF5E0DF011D926A
:104740008A95E9F71092F8011092D90481E08093DC
:10475000D2051092F70108952F923F924F925F92E7
:104760006F927F928F929F92AF92BF92CF92DF9281
:10477000EF92FF920F931F93CF93DF93C091D904D1
:10478000C11101C0C0E1C150D091F701DC1709F49B
:104790001DC1EC2EF12C2EE2C29F80011124075086
:1047A0001E4FF801A688B788C08CD18C628D738D9E
:1047B000848D958D9B01AC010E94F634F801268D05
:1047C000378D40A151A10E944D384B018C019B01B6
:1047D000AC01B501C6010E94EB3587FD02C0540152
:1047E00068018EE28E9DF0018F9DF00D1124E7503F
:1047F000FE4FC501D601828B938BA48BB58BC11163
:1048000001C0C0E1C150DC1761F02EE22E9DC00155
:104810002F9D900D11249C0127503E4F7901DEE21F
:1048200033C08091F801D81360C00E947F195DC029
:10483000AC2EB12CDA9DC001DB9D900D1124FC0142
:10484000E750FE4F6F01C11101C0C0E1C15080911E
:10485000F8018C1302C00E947F19DA9D8001DB9D54
:10486000100D112407501E4FF80186889788A08CE0
:10487000B18CA501940162897389848995890E940C
:10488000EB35811106C076018091F701C813D0CFB6
:104890002CC0F801628D738D848D958D9B01AC01C8
:1048A0000E94F634F801268D378D40A151A10E9457
:1048B0004D38F70122893389448955890E94F6349D
:1048C0002B013C019B01AC01C501B4010E940D38D4
:1048D000F80118162CF4428A538A648A758AD3CF59
:1048E000828A938AA48AB58ACECFD091F701FEE25C
:1048F000DF9F8001112407501E4FC1E0CD0FC03152
:1049000009F4C0E02090D9048EE2382EC21509F4D3
:104910005BC0CC2ED12C3C9CC0013D9C900D112441
:104920009C0127503E4F7901F801428853886488E2
:104930007588F90182889388A488B588A5019401B7
:10494000C301B2010E94EB3587FF24C0F801628DDC
:10495000738D848D958D9B01AC010E94F634F80116
:10496000268D378D40A151A10E944D38A30192019F
:104970000E94F6342B013C019B01AC01C501B4013E
:104980000E940D38181634F4F701428A538A648A5B
:10499000758ADC2F3C9CF0013D9CF00D1124E75002
:1049A000FE4F26893789408D518D628973898489AC
:1049B00095890E94EB35811101C0DC2FCF5FC0319A
:1049C00009F4C0E08701A2CFD093F701DF91CF9126
:1049D0001F910F91FF90EF90DF90CF90BF90AF901D
:1049E0009F908F907F906F905F904F903F902F900F
:1049F00008951F93CF93DF93142F20E030E040EA17
:104A000051E40E944D380E94D4350E946E36EB016D
:104A10002097D1F080911B01811116C0111103C0A4
:104A20000E942A2106C00E94081D80911C0181FD60
:104A30000BC02FEF80E792E0215080409040E1F7DB
:104A400000C000002197E4CFDF91CF911F9108951E
:104A50008091050584FD1BC080E10E942F114398C1
:104A6000449890911A01892F8C7221F480911E0133
:104A7000867069F0943031F480910605811105C08B
:104A800086E001C083E00E941F110C94E91908958B
:104A90006AE080E090E00E94B20245E550E068E202
:104AA00071E081E090E00C94D4020F931F93CF93B8
:104AB000C82F8B010E9415222DE0C29FC001112436
:104AC0004CE050E0B8019E5FCF911F910F910C9484
:104AD000D4021F93CF93DF93182FEB018DE0189F23
:104AE000B00111247E5F4CE050E0CE010E946E02C6
:104AF000892B59F48CE0FE0111928A95E9F7BE01E9
:104B0000812F0E94552580E001C081E0DF91CF9187
:104B10001F910895EF92FF920F931F93CF93DF930E
:104B2000CDB7DEB72C970FB6F894DEBF0FBECDBF62
:104B3000182F80FF0BC085E5E3E2F3E0A8E2B1E0C7
:104B400005900D928A95E1F70E94482511FF10C04B
:104B5000CE0101967C018CE0F70111928A95E9F76C
:104B600000E0B701802F0E9455250F5F0830C9F77C
:104B700012FF14C060E080E093E00E94B20260E0A7
:104B800081E093E00E94B20260E081E593E00E9440
:104B9000B20260E082E593E00E94B20213FF0AC015
:104BA00060E08EEA93E00E94B20260E08FEA93E058
:104BB0000E94B2022C960FB6F894DEBF0FBECDBF96
:104BC000DF91CF911F910F91FF90EF9008951F9269
:104BD0000F920FB60F9211242F933F934F935F9331
:104BE0006F937F938F939F93AF93BF93EF93FF93B5
:104BF000E091C600E13271F028F4E83179F40E94C6
:104C0000282556C0EF3321F0EE3741F482E003C08F
:104C100081E001C088E00E942F114AC0E7FF37C041
:104C20008E2F90E0FC01E458F109ED31F10508F018
:104C30003FC0E659FF4F0C94983980E2ECCF809149
:104C40001A0185FF35C080E4E6CF81E00DC082E027
:104C50000BC084E009C088E007C080E105C080E2A5
:104C600003C080E401C080E80E94161121C081E0E9
:104C70000BC082E009C084E007C088E005C080E185
:104C800003C080E201C080E40E940D1111C0A09118
:104C9000550681E08A0F813809F480E0909154062E
:104CA000891731F0B0E0AD52BA4FEC9380935506BE
:104CB000FF91EF91BF91AF919F918F917F916F91F4
:104CC0005F914F913F912F910F900FBE0F901F90CA
:104CD00018951F920F920FB60F9211248F939F93E6
:104CE000EF93FF938091C006E82FF0E0E95AF94F67
:104CF00090819093C6008F5F893609F480E080939D
:104D0000C00690915606891305C08091C1008F7D21
:104D10008093C100FF91EF919F918F910F900FBEF3
:104D20000F901F901895E091560691E09E0F9936CE
:104D300031F490E004C02091050524FD0FC02091BE
:104D4000C0062917C1F3F0E0E95AF94F8083909328
:104D500056068091C10080628093C10008950F9330
:104D60001F93CF938C01C0E0F80161917191819103
:104D700091918F010E942622C23019F08CE20E948C
:104D80009326CF5FC33081F7CF911F910F91089584
:104D900083E193E00C94F822CF93C82F8CE193E049
:104DA0000E94F8228C2F0E94D222CF910C94C82608
:104DB000811104C08CEA92E00C94F8220C94CC2669
:104DC000CF92DF92EF92FF92CF93DF93D82F6A01B9
:104DD0007B01C22F84E20E9493268D2F0E94D22253
:104DE0008DE30E9493264C2FC701B6010E94352205
:104DF000DF91CF91FF90EF90DF90CF900C94C82679
:104E0000CF93DF93D82FC62F84E20E9493268D2F55
:104E10000E94D2228DE30E9493268C2F0E94D222E0
:104E2000DF91CF910C94C826EF92FF920F931F93BE
:104E3000CF93DF936091580170E080E00E940027DB
:104E400060915B0170E081E00E9400276091590150
:104E500070E082E00E94002760915A0170E083E0D8
:104E60000E94002760916D0162FB662760F970E087
:104E700084E00E94002760916D0166FB662760F95F
:104E800070E085E00E94002780916D01082E000CE3
:104E9000990B692F661F6627661F70E086E00E94E7
:104EA000002760915C0170E08AE00E940027409139
:104EB0005D0150915E0160915F017091600123E09E
:104EC0008BE00E94E0264091610150916201609167
:104ED00063017091640123E08CE00E94E026609100
:104EE0006D01617070E08DE00E94002760916D019E
:104EF00065FB662760F970E084E10E9400276091FD
:104F00006D0163FB662760F970E085E10E94002770
:104F100060916D016295617070E086E10E940027EA
:104F200060916E0170E087E10E94002740916F015F
:104F300050917001609171017091720123E088E1DC
:104F40000E94E026409173015091740160917501B7
:104F50007091760123E089E10E94E026609177015B
:104F6000709178018AE10E94002740917901509167
:104F70007A0160917B0170917C0123E08BE10E94BA
:104F8000E026409165015091660160916701709142
:104F9000680120E08EE10E94E02640916901509175
:104FA0006A0160916B0170916C0120E08FE10E94B9
:104FB000E02660E070E080E20E940027D4E6F12C59
:104FC00008E211E083E0E82EED0ECD2F82E0F81626
:104FD00091F0E3E0FE16E9F0F1E0FF1631F0F801A0
:104FE00040815181628173811AC0F80144855585E1
:104FF0006685778514C020E030E041E655E4F8018D
:10500000608D718D828D938D0E94F535AB01BC0151
:1050100006C0F80144A155A166A177A1705823E00C
:105020008C2F0E94E0260C5F1F4FCF5FEC12CECF7B
:10503000D65FF394DC3821F6DF91CF911F910F9169
:10504000FF90EF9008958DE50E9493260C94C8265A
:105050008F929F92AF92BF92CF92DF92EF92FF9288
:105060000F931F93CF93DF937C016B01DC01CC91F5
:10507000D0E0FE01EF53F94F80818D3229F4EF012A
:105080002296818101E009C08B3219F0CE53D94FAD
:1050900003C0EF012296818100E0912CF0E010E046
:1050A00020E030E0A9015E01E0EDE80FEA30D0F445
:1050B000FF5FF93098F491101150A5E0B0E00E9424
:1050C0009E39DC01CB01880F991FAA1FBB1F9C01D1
:1050D000AD012E0F311D411D511D0AC0911008C098
:1050E0001F5F06C0EE3F41F4911006C099249394CF
:1050F0002196D5018C91D7CFFF2309F44FC0CA0167
:10510000B9010E949D364B015C0120E030E0A9010D
:105110000E94EB35882349F11F3F64F42AE037ED04
:1051200043E25CE3C501B4010E944D384B015C01D0
:105130001E5FF2CF1F3F59F42DEC3CEC4CEC5DE3CD
:10514000C501B4010E944D384B015C010EC0112312
:1051500061F020E030E040E251E4C501B4010E947A
:105160004D384B015C011150F2CF002351F0B7FADA
:10517000B094B7F8B094F60180829182A282B38293
:1051800006C0D6018D929D92AD92BC921397C15CE0
:10519000D640C150F701C08381E001C080E0DF91BB
:1051A000CF911F910F91FF90EF90DF90CF90BF9024
:1051B000AF909F908F9008952F923F924F925F9261
:1051C0006F927F928F929F92AF92BF92CF92DF9217
:1051D000EF92FF920F931F93CF93DF93CDB7DEB77C
:1051E000A5970FB6F894DEBF0FBECDBF90911B01FF
:1051F000911117C28D8FFE013D9689E0DF011D924E
:105200008A95E9F786E08D8B2DEC3CEC4CE45DEB68
:105210006091500170915101809152019091530120
:105220000E944D386B017C0120E030E048EC51E4F5
:105230000E94EB3587FF11C020E030E040E250E4EF
:10524000C701B6010E940D3818166CF0C12CD12C84
:1052500030E2E32E30E4F32E06C0C12CD12C28EC32
:10526000E22E21E4F22E2091280130912901409173
:105270002A0150912B01C701B6010E944D380E94AE
:1052800067366E8F7F8F88A399A398E2A92E91E04D
:10529000B92EFE0176964F0100E010E0C12CD12C12
:1052A0007601FD8D2F2E312C802F002321F001302F
:1052B00021F090E103C094E001C098E0D4019D93F7
:1052C0004D01F10102C0F595E7958A95E2F7E0FFFF
:1052D00017C020E030E040EC5FEBD50194966D9173
:1052E0007D918D919C9197970E944D382B013C01A7
:1052F000A70196010E94EB3587FD02C06201730190
:105300000F5F1F4FB4E0AB0EB11C0330110561F607
:105310004090730150907401609075017090760117
:1053200084E0A82EBB24B39461E071E0CE01019625
:105330000E9438111092210180916E01E82FF0E057
:10534000FBA3EAA3FE01319621E031E03A8F298FD9
:105350003C8F2B8FCE0146964C0130E01DA21CA243
:1053600020E010E0B701A6017058C1010CA002C0F6
:10537000959587950A94E2F780FF27C02F5FAB8D44
:10538000BC8D1D921D921D921C9213978AA19BA108
:105390000CA002C0959587950A94E2F780FF03C0A0
:1053A000BB2019F007C0BB2029F0C082D182E28265
:1053B000F38204C04083518362837383D4018C9150
:1053C000182BBCA1B11101C030E18CA19DA10196A7
:1053D0009DA38CA39FEF891A990A3496AB8DBC8D3F
:1053E0001496BC8FAB8F8CA19DA1039709F0BDCF04
:1053F00030932101622F70E080E090E00E949D36A2
:105400000E94EC389B01AC0110932001C301B20152
:105410000E944D386D877E878F87988BBE01635FB2
:105420007F4FCE0101960E94B63194E090931E0109
:105430000E94C0110E94B81CC12CD12C760100E042
:10544000BB2009F45CC00E941B02FE01769620E09E
:1054500030E0482F50E09191692F612371F0BA013B
:10546000022E02C0759567950A94E2F760FF05C0A9
:1054700090951923211101C002602F5F3F4F233007
:10548000310549F71093200190912101992331F0C2
:1054900083FF04C010922101046002C0002379F14F
:1054A00000FF22C0802F8670863041F1809101017B
:1054B00090910201D601A81BB90BCD01B7FF03C023
:1054C000919581959109092E000CAA0BBB0B2E8D8D
:1054D0003F8D48A159A1281739074A075B077CF47B
:1054E0008AE00E941F112FC00160C0900101D0907E
:1054F0000201E0900301F090040101C000E00E946D
:10550000C01180910505847339F11091050514FFD0
:1055100003C086E00E941F1115FF03C087E00E94B0
:105520001F11B11007C00E941B023D8D832339F06B
:1055300088E003C012FF03C089E00E941F11809120
:105540000605882329F00E9428250E942A2169C087
:1055500084E00E94251108C0812F8C7109F070CF62
:105560008091210181116CCF0E941F1A0091770157
:10557000109178010115110549F08FE99FE001971D
:10558000F1F700C0000001501109F4CF91E0B926F5
:10559000C9F020E030E040EA50E460917901709178
:1055A0007A0180917B0190917C010E944D386B01C2
:1055B0007C0140906F01509070016090710170907B
:1055C000720110C0C0907901D0907A01E0907B0107
:1055D000F0907C01409073015090740160907501CF
:1055E00070907601AA94A1109FCEC101002E02C036
:1055F000959587950A94E2F780FF07C0A98DBA8D2B
:105600001D921D921D921C9213970F5F1F4FE98DE3
:10561000FA8D3496FA8FE98F0330110531F7109225
:105620001E01A5960FB6F894DEBF0FBECDBFDF9169
:10563000CF911F910F91FF90EF90DF90CF90BF908F
:10564000AF909F908F907F906F905F904F903F9022
:105650002F900895CF93DF93CDB7DEB761970FB644
:10566000F894DEBF0FBECDBF8091C00082608093F2
:10567000C0001092C50080E18093C4008091C100F9
:1056800088698093C10080E090E00E94FE018A302A
:1056900009F02CC545E550E061E070E088E291E05A
:1056A0000E946E02892B09F421C58AB18C618AB9E6
:1056B000209A8AB1806E8AB9249A259A80918100B5
:1056C0008F7E80938100809181008860809381002B
:1056D000809180008C7F80938000809180008F700B
:1056E0008093800080916E00887F80936E0014BC50
:1056F00015BC80916E00816080936E0087B1887FB9
:1057000087B988B1876088B980916C008760809381
:105710006C00809168008260809368008CE0E1E01A
:10572000F1E0DF011D928A95E9F7789410921A0151
:1057300080916D0184FF03C081E080931A01BAE17A
:105740002B2EB1E03B2E9924939480911A019EE078
:10575000F10111929A95E9F780931A0184E68093FA
:10576000220180932301809324018CE0ADE0B1E01D
:105770001D928A95E9F71092190110920505109271
:105780000605109207051092080580915506809332
:10579000540680E4EDE7F1E011928A95E9F761EAB9
:1057A00071E080E00E946925811103C087E00E94BA
:1057B000CC260E94DC1C3C9A44980E94DB013D9858
:1057C000459A80E00E94E71C0E949B230E941F1ABA
:1057D0000E9407230E9468028AE591E00E94F82255
:1057E00080916D0183FF10C00E941B02882361F02D
:1057F00090921A0186EA92E00E94F82285E492E0F3
:105800000E94F8220E94232880911A01817899F041
:1058100086EA92E00E94F82280E892E00E94F82254
:105820000E94232890921A0110E000E0F2E0EF2E8F
:10583000A4E08A2E29C010921A010E94DF10F4CF32
:10584000E92FF0E0ED52FA4F80819F5F913809F423
:1058500090E0909354068F3FE9F08A3021F50E9442
:105860002A2180911B01811170CFE12FF0E0EF53CD
:10587000F94F1082F02FF170FF2E00FF18C08BE05F
:105880000E94CC2610E000E09091540680915506CD
:105890009813D6CF0E94DF1C0E942A2180911B0101
:1058A000882391F352CF8D3009F0FAC3D8CF80917D
:1058B000C106882309F4F1C3843209F0E6C3998A4A
:1058C0008091C206833409F134F4882361F0843274
:1058D00009F0F7C01AC08A3459F08835B1F087341E
:1058E00009F0EFC012C085EC91E00E94F822CBC312
:1058F00080911A018F7D09F0B6C38091C3068D3364
:1059000009F0AEC30E941D03B1C39091C30691116B
:10591000A7C3833409F4A3C01CF4843239F0B3C3A1
:10592000873469F0883509F4BAC0ADC380911A0193
:105930008871F82E09F097C30E941427A4C38FEB37
:1059400091E00E94F82280917D018C3838F08BEB39
:1059500091E00E94F82280917D018A580E94D22213
:105960008FEA91E00E94F822809183018A5C0E9474
:10597000D2228FEA91E00E94F822809181018F5E0D
:105980000E94D2228FEA91E00E94F82280917F014A
:1059900025E1281B822F0E94D2228FEA91E00E94EB
:1059A000F82280918001865A0E94D2228FEA91E0EB
:1059B0000E94F82280917E019EE5981B892F0E940B
:1059C000D22280918401882399F082EB91E00E9499
:1059D000F82280918401833029F08E3139F08230B1
:1059E00039F404C080E30E94932602C00E94D222B0
:1059F00082EB91E00E94F82280918601803131F0A3
:105A0000803231F0811107C085E303C083E301C018
:105A100084E30E94932682EB91E00E94F822809119
:105A20008501882311F088E301C089E30E94932651
:105A300088EB91E00E94F822809190010E94D2228E
:105A400085EB91E00E94F82260918C0170918D01AC
:105A500080918E0190918F010E94F91C0EC080915F
:105A60001A01823069F40E94282586EA92E00E9499
:105A7000F8228DE592E00E94F8220E94232803C3B9
:105A80008111F1C2E0921A0186EA92E00E94F822A6
:105A900086E692E00E94F8220E942328AEC18091FF
:105AA0001A01813009F0EFC286EA92E00E94F822E2
:105AB0008EE692E00E94F8220E94232810921A019A
:105AC000E2C290911A01923008F0CDC2893409F4F3
:105AD0009EC034F4833271F0883409F459C046C151
