:100000000C9476010C9488010C9488010C949E3019
:100010000C94492D0C9488010C940A2D0C948801A1
:100020000C9488010C9488010C9488010C947B2D0D
:100030000C9488010C9488010C9488010C9488011C
:100040000C945E2D0C9488010C94D42F0C94743075
:100050000C9488010C9488010C9488010C948801FC
:100060000C9488010C948801084AD73B3BCE016E62
:1000700084BCBFFDC12F3D6C74319ABD56833DDAFF
:100080003D00C77F11BED9E4BB4C3E916BAAAABE0E
:10009000000000803F05A84CCDB2D44EB93836A937
:1000A000020C50B9918688083CA6AAAA2ABE000074
:1000B00000803F000D0A4772626C20312E316820AB
:1000C000426F6273434E43204B4C373333205B27E0
:1000D000242720666F722068656C705D0D0A00240D
:1000E0004E005B4F50543A005B5645523A312E3128
:1000F0006820426F6273434E43204B4C3733332E9C
:1001000032303139303833303A005B544C4F3A009A
:100110005B4739323A003330003238005B47002009
:100120004700204D00205300204600205400333863
:100130002E005B47433A47005B484C503A2424204A
:10014000242320244720244920244E2024783D764F
:10015000616C20244E783D6C696E6520244A3D6CAC
:10016000696E652024534C502024432024582024B9
:1001700048207E2021203F206374726C2D785D0D15
:100180000A00414C41524D3A007C413A007C4F7686
:100190003A007C57434F3A007C506E3A007C4653FD
:1001A0003A007C42663A007C57506F733A007C4DAF
:1001B000506F733A00536C65657000446F6F723A0C
:1001C00000436865636B00416C61726D00486F6D40
:1001D00065004A6F6700486F6C643A0052756E00A4
:1001E00049646C65000D0A005B5052423A0065722A
:1001F000726F723A0000002042000020420000FAB4
:10020000430070C6460070C6460000FA4400BADBE0
:100210004900BADB4900BADB49008098C4008098E5
:10022000C40000FEC20A000CFF010AD7233C6F1273
:10023000033B00007A4400000000310300007A43D1
:1002400000007A45FA000000A0406F6B0D0A0053D1
:100250006C656570696E6700526573746F72696E64
:1002600067207370696E646C6500526573746F7299
:10027000696E672064656661756C74730050676DA4
:1002800020456E6400436865636B204C696D69743A
:100290007300436865636B20446F6F720044697339
:1002A00061626C656400456E61626C656400436107
:1002B0007574696F6E3A20556E6C6F636B65640080
:1002C000272448277C2724582720746F20756E6CBC
:1002D0006F636B00526573657420746F20636F6E7B
:1002E00074696E7565005B4D53473A0011241FBE5B
:1002F000CFEFD8E0DEBFCDBF27E0A0E0B1E001C086
:100300001D92AB36B207E1F70E94CD300C941A3B38
:100310000C9400008F929F92AF92BF92CF92DF9287
:10032000EF92FF920F931F93CF93DF937C016B01AA
:10033000DC01EC91F0E0E55EF84F8081EF018D3259
:1003400029F52296818101E0912CF0E010E020E077
:1003500030E0A9015E01E0EDE80FEA3018F5FF5F3B
:10036000F930E0F491101150A5E0B0E00E94F33AAA
:100370009B01AC01220F331F441F551F2E0F311D4F
:10038000411D511D2196D5018C91E4CF8B3219F07E
:10039000219600E0D9CF22968181FBCF9110F2CF38
:1003A0001F5FF0CFEE3F29F4911003C0992493947E
:1003B000E9CFFF23F9F0CA01B9010E94F2374B01DE
:1003C0005C0120E030E0A9010E94403781112BC080
:1003D000002309F445C0B7FAB094B7F8B094F60119
:1003E00080829182A282B382CB51D740C150F70163
:1003F000C083F1E08F2FDF91CF911F910F91FF907C
:10040000EF90DF90CF90BF90AF909F908F90089526
:100410002AE037ED43E25CE3C501B4010E94A23952
:100420004B015C011E5F1F3F9CF31F3F59F42DECF5
:100430003CEC4CEC5DE3C501B4010E94A2394B01D8
:100440005C01C6CF112321F220E030E040E251E40C
:10045000C501B4010E94A2394B015C011150F2CFD9
:10046000D6018D929D92AD92BC921397BDCF2FB7BE
:10047000F89490911F06892B80931F062FBF089533
:100480002FB7F89490911E06892B80931E062FBFDC
:1004900008959FB7F89480931D069FBF08959FB756
:1004A000F89420911C068095822380931C069FBFA0
:1004B00008952FB7F89490911C06892B80931C0601
:1004C0002FBF08958F929F92AF92BF92CF92DF92EB
:1004D000EF92FF920F931F93CF93DF93E0909206DA
:1004E000F12C6C010CE416E0D0E0C0E0F601819044
:1004F0009190A190B1906F01C7010C2E02C095950B
:1005000087950A94E2F720E030E0A90180FF14C04B
:10051000C501B4010E94403787FD0CC0F80164A1F9
:1005200075A186A197A19058A50194010E9440371A
:1005300087FF13C081E018C0C501B4010E94623971
:100540001816C4F3A5019401F80164A175A186A150
:1005500097A10E94623918166CF321960C5F1F4F09
:10056000C330D10519F680E0DF91CF911F910F9133
:10057000FF90EF90DF90CF90BF90AF909F908F90C3
:1005800008958F929F92AF92BF92CF92DF92EF9297
:10059000FF920F931F93CF93DF93EB012CE4E22E96
:1005A00026E0F22E8C016B018CE0C80ED11C699103
:1005B000799189919991F70181909190A190B19051
:1005C0007F010E94F437A50194010E944A37F80187
:1005D00061937193819391938F01CC15DD0539F768
:1005E000DF91CF911F910F91FF90EF90DF90CF900F
:1005F000BF90AF909F908F90089596B19095892F5E
:10060000877039F082E091FF80E090FD816092FD7B
:1006100084600895CF93DF93C0911A06D0911B0692
:100620002097C9F08091EB0581608093EB05609184
:1006300001067091020680910306909104069B01C9
:10064000AC010E94A2396A8B7B8B8C8B9D8B1092A4
:100650001B0610921A06DF91CF91089530917D0606
:10066000632F20917E06422F94E030FF90E080E2DD
:1006700020FF80E061FD986041FD806462FD906133
:1006800042FD8068909311028093120210920F0233
:100690001092100233FF03C080E180930F0223FF0A
:1006A00003C088E08093100208958091910682FF34
:1006B00013C0289A809111028093220280917C06B7
:1006C0008250990B880F81958093210280916F0051
:1006D000826080936F0008952898ECCF8093B300D8
:1006E000811106C08091B0008F778093B00008958B
:1006F0008091B0008068F9CFCF93DF93239AC0EB4D
:10070000D0E083E0888384E08093B10020918D065F
:1007100030918E0640918F06509190066091890627
:1007200070918A0680918B0690918C060E944A36C1
:100730009B01AC0160E070E08EE793E40E944A37D1
:1007400060930B0270930C0280930D0290930E0243
:1007500088818F778883DF91CF910895E0911D0183
:1007600091E09E0F993609F490E0209187012917B6
:1007700061F0F0E0E25EFE4F808390931D01809176
:10078000C10080628093C10004C020911C0624FF38
:10079000ECCF0895CF93DF93CBE1D7E0899181111E
:1007A00003C0DF91CF9108950E94AE03F7CF10925E
:1007B00020069091910697FD03C090E29093200649
:1007C000882331F08091200690E2892780932006CB
:1007D00008958F929F92AF92BF92CF92DF92EF9245
:1007E000FF920F931F93CF93DF93CDB7DEB72D9773
:1007F0000FB6F894DEBF0FBECDBF6B017C01042F96
:1008000020E030E0A9010E94403787FF07C08DE259
:100810000E94AE03F7FAF094F7F8F094102F12301C
:1008200008F054C000FF0AC020E030E040E251E48C
:10083000C701B6010E94A2396B017C0120E030E0C3
:1008400040E05FE3C701B6010E944B360E94BC370F
:1008500010E03AE0832E912CA12CB12CE12FF0E096
:100860006115710581059105E9F581E090E08C0F36
:100870009D1FE80FF91F80E3101708F445C01013FF
:1008800009C0E1E0F0E0EC0FFD1FE10FF11D80E396
:1008900080831F5FEE24E394F12CEC0EFD1EE10E2D
:1008A000F11C111134C02D960FB6F894DEBF0FBEA7
:1008B000CDBFDF91CF911F910F91FF90EF90DF900F
:1008C000CF90BF90AF909F908F90089520E030E040
:1008D00048EC52E4C701B6010E94A2396B017C01C9
:1008E00012509DCFEE24E394F12CEC0EFD1EEE0E83
:1008F000FF1EA50194010E94CB3A605DF701608361
:10090000B901CA011F5FAACF1F5F8193B5CF101332
:1009100003C08EE20E94AE03F70182917F010E9424
:10092000AE031150BECF2091910640E020FF07C0DA
:100930002BE832E441E25DE30E94A23941E00C94ED
:10094000E9032091910643E020FF07C02BE832E441
:1009500041E25DE30E94A23944E00C94E9030F9365
:100960001F93CF938C01C0E0F80161917191819147
:1009700091918F010E94A104C23019F08CE20E9473
:10098000AE03CF5FC33081F7CF911F910F910895D0
:10099000CF93DF93843658F06AE00E94AB3AC0E30D
:1009A000C90F6AE00E94AB3AD0E3D90F04C0C0E09F
:1009B000D0E08A30B0F7805D0E94AE03DD2319F0ED
:1009C0008D2F0E94AE03CC2329F08C2FDF91CF9185
:1009D0000C94AE03DF91CF910895CF93DF93EC0198
:1009E000FE0184912196811103C0DF91CF9108957A
:1009F0000E94AE03F5CF85EE91E00C94ED04CF9309
:100A0000C82F8EEE91E00E94ED048C2F0E94C80446
:100A1000CF910C94FB04811104C08AE492E00C9401
:100A2000ED040C94FF04CF92DF92EF92FF92CF93EC
:100A3000DF93D82F6A017B01C22F84E20E94AE03AC
:100A40008D2F0E94C8048DE30E94AE034C2FC70176
:100A5000B6010E94E903DF91CF91FF90EF90DF9004
:100A6000CF900C94FB04CF93DF93D82FC62F84E252
:100A70000E94AE038D2F0E94C8048DE30E94AE0336
:100A80008C2F0E94C804DF91CF910C94FB04EF924D
:100A9000FF920F931F93CF93DF9360917C0670E0DA
:100AA00080E00E94330560917F0670E081E00E9443
:100AB000330560917D0670E082E00E94330560910D
:100AC0007E0670E083E00E9433056091910662FB30
:100AD000662760F970E084E00E943305609191061A
:100AE00066FB662760F970E085E00E94330580911F
:100AF0009106082E000C990B692F661F6627661F4A
:100B000070E086E00E9433056091800670E08AE024
:100B10000E943305409181065091820660918306C0
:100B20007091840623E08BE00E94130540918506B6
:100B300050918606609187067091880623E08CE0CC
:100B40000E94130560919106617070E08DE00E9433
:100B500033056091910665FB662760F970E084E1DA
:100B60000E9433056091910663FB662760F970E08F
:100B700085E10E943305609191066295617070E095
:100B800086E10E9433056091920670E087E10E9441
:100B900033054091930650919406609195067091AB
:100BA000960623E088E10E94130540919706509134
:100BB00098066091990670919A0623E089E10E9457
:100BC000130560919B0670919C068AE10E94330593
:100BD00040919D0650919E0660919F067091A006DF
:100BE00023E08BE10E9413054091890650918A060B
:100BF00060918B0670918C0620E08EE10E941305B7
:100C000040918D0650918E0660918F0670919006EE
:100C100020E08FE10E941305609191066695617056
:100C200070E080E20E94330584E6F82E10E0CCE408
:100C3000D6E000E0E02EEF0C123011F1133069F134
:100C40001130C9F0488159816A817B8123E08E2D62
:100C50000E9413050F5F2496033061F78AE0F80EB7
:100C60001F5F8CE8F812E3CFDF91CF911F910F91B6
:100C7000FF90EF9008954C855D856E857F85E6CF6A
:100C800020E030E041E655E4688D798D8A8D9B8DBA
:100C90000E944A37AB01BC01D9CF4CA15DA16EA126
:100CA0007FA17058D3CF8DE50E94AE030C94FB0456
:100CB000CF93DF93CDB7DEB72C970FB6F894DEBF96
:100CC0000FBECDBF88EE91E00E94ED046DE276E0AC
:100CD000CE0101960E94C102CE0101960E94AF048E
:100CE0008AE30E94AE0380913F060E94C8040E94DE
:100CF00053062C960FB6F894DEBF0FBECDBFDF9122
:100D0000CF910895E1E0F1E0A1E2B6E04D915D916F
:100D10006D917C9113974083518362837383149602
:100D20004D915D916D917C911797448355836683B6
:100D3000778318968D919D910D90BC91A02D808701
:100D40009187A287B3870895BF92CF92DF92EF92E7
:100D5000FF920F931F93CF93DF937C01FC0102A5B9
:100D600013A5D4A5C5A5818980FF33C06091430632
:100D700070E090E080E00E94F4372AE037ED43E233
:100D80005CE30E94A2399B01AC01B8018D2F9C2F1E
:100D90000E94A2398B01D82FC92F20E030E040E813
:100DA0005FE3B8018D2F9C2F0E946239181624F042
:100DB00000E010E0D0E8CFE3B8018D2F9C2FDF9149
:100DC000CF911F910F91FF90EF90DF90CF90BF9048
:100DD000089582FD17C06091420670E090E080E0C7
:100DE0000E94F4372AE037ED43E25CE30E94A23927
:100DF0009B01AC01B8018D2F9C2F0E94A2398B0161
:100E0000D82FC92FF701B6A0C7A0D0A4F1A498018C
:100E10004D2F5C2F6B2D7C2D8D2D9F2D0E944037EB
:100E200087FFBBCF0B2D1C2DDD2DCF2DB6CF809195
:100E30003A0290915B05981739F022E3829FC00136
:100E40001124855C9D4F089590E080E008950E94F4
:100E50001707892B19F082E00C94590208952F92FC
:100E60003F924F925F926F927F928F929F92AF923A
:100E7000BF92CF92DF92EF92FF920F931F93CF9387
:100E8000DF9300D000D0CDB7DEB700915B05002323
:100E900009F486C0098339813150398310913902B0
:100EA000131709F466C0C32ED12CE2E33E9FC001A4
:100EB00011249C01255C3D4F7901F90176888788D2
:100EC000908CA18C628D738D848D958D9B01AC016E
:100ED0000E944B36F701268D378D40A151A10E940B
:100EE000A239B62EE72EF82E9B83262F372F482FB8
:100EF000592F672D782D892D9A2D0E94403787FF15
:100F000003C0B72C7401AB8282E38C9DF0018D9DF0
:100F1000F00D1124E55CFD4F8B2D9E2DAF2DBB8177
:100F2000828B938BA48BB58BF9818F2FF11101C02C
:100F300080E1FF24FA94F80E30903A021F1133C07A
:100F4000131102C00E940A03E2E31E9FC001112494
:100F5000855C9D4F9A83898333243394310EF0E16D
:100F60003F1201C0312C82E3282E031185C010935B
:100F700039020F900F900F900F90DF91CF911F913A
:100F80000F91FF90EF90DF90CF90BF90AF909F9028
:100F90008F907F906F905F904F903F902F9008952B
:100FA00020E1298378CF298182E3289F90011124B1
:100FB000255C3D4F3C832B8322E3E22E8F2C912C2A
:100FC000FE9CC0011124FC01E55CFD4FFA83E9831E
:100FD000F11002C090E1F92EFA94F31002C00E94C1
:100FE0000A03E89CC001E99C900D11249C01255C3A
:100FF0003D4F6901F90146885788608C718CA301C7
:10100000920162897389848995890E944037882377
:1010100039F1F601628D738D848D958D9B01AC0144
:101020000E944B36F601268D378D40A151A10E94BA
:10103000A239EB81FC8122893389448955890E9438
:101040004B364B015C01AC019B01C301B2010E9414
:101050006239F60118165CF4828A938AA48AB58AEA
:1010600029813A813C832B831F11A8CF6DCF428AFF
:10107000538A648A758AF4CFC32CD12C329CC00168
:1010800011249C01255C3D4F7901E981FA81428858
:10109000538864887588F90182889388A488B58804
:1010A000A5019401C301B2010E94403787FF26C009
:1010B000E981FA81628D738D848D958D9B01AC01E0
:1010C0000E944B36E981FA81268D378D40A151A1CE
:1010D0000E94A239A30192010E944B362B013C01D0
:1010E000AC019B01C501B4010E946239181634F4A9
:1010F000F701428A538A648A758A132D2C9CF00169
:101100002D9CF00D1124E55CFD4F26893789408D1B
:10111000518D62897389848995890E944037811134
:1011200001C0132D3394F0E13F1201C0312CFA823B
:10113000E9821BCF6F927F928F929F92AF92BF9264
:10114000CF92DF92EF92FF920F931F93CF93DF9393
:10115000EB018C015B018CE0A80EB11C89E9682EC3
:1011600096E7792E26E9822E3EE7932EC990D990F4
:10117000E990F99020E030E0A901C701B6010E9492
:1011800040378823B9F0A7019601F8016081718189
:10119000828193810E944A376B017C01E894F7F8C1
:1011A0009301A401C701B6010E946239181614F018
:1011B000360147010C5F1F4FCA15DB05B9F6B301B5
:1011C000C401DF91CF911F910F91FF90EF90DF90BD
:1011D000CF90BF90AF909F908F907F906F90089529
:1011E00093B18091910686FF0BC0967159F091FBE7
:1011F000882780F992FD8260907129F08C600895B3
:101200009095F3CF80E00895EBE6F0E08081897E51
:101210008083E8E6F0E080818E7F8083089584B14A
:10122000897E84B985B1866185B98091910683FFF5
:1012300016C080916B00866180936B00809168007E
:1012400081608093680084B7877F84BF809160004D
:1012500088618093600084E08093600008950E941C
:101260000409F1CF61E276E089EB96E00C94C102CB
:10127000F894F999FECF92BD81BD81E08FBB20B576
:10128000862F8227082E000C990B50E08623952389
:10129000892B49F084E16F3F11F060BD84E08FBB82
:1012A000F99A789408952617E1F360BD84E2F7CFA8
:1012B0009F92AF92BF92CF92DF92EF92FF920F93E5
:1012C0001F93CF93DF935C018A017B01E40EF51E2F
:1012D000EB01912C6C01C61AD70ACE018C0D9D1D15
:1012E00021E0911007C0292D990C330B232F221FC9
:1012F0002227221F6991962E920E0E943809CE1540
:10130000DF0559F7692DC501800F911FDF91CF913E
:101310001F910F91FF90EF90DF90CF90BF90AF9013
:101320009F900C9438096AE090E080E00E943809B0
:1013300045E550E06CE476E081E090E00C945809DB
:10134000F999FECF92BD81BD81E08FBB80B5089534
:101350009F92AF92BF92CF92DF92EF92FF920F9344
:101360001F93CF93DF935B018A017C01E40EF51E8E
:10137000EC01912C6B01C81AD90AC6018C0F9D1F74
:101380000E94A00921E0911007C0292D990C330B70
:10139000232F221F2227221F982E920E8993CE15CB
:1013A000DF0559F7C501800F911F0E94A00921E0B8
:1013B00030E0891511F030E020E0C901DF91CF91D4
:1013C0001F910F91FF90EF90DF90CF90BF90AF9063
:1013D0009F90089590913B06911105C086FF04C02F
:1013E0002D9A1092460608952D98FBCFE1E0F1E08A
:1013F0008CE1DF011D928A95E9F710923A02109272
:101400005B0581E0809300011092390208954F92AC
:101410005F926F927F92AF92BF92CF92DF92EF92E4
:10142000FF920F931F93CF93DF93EC015C012CE0AD
:10143000A20EB11C8C01C12CD12C7601F801419077
:101440005190619071908F0120E030E0A901C301BB
:10145000B2010E944037882371F0A3019201C301B9
:10146000B2010E94A2399B01AC01C701B6010E94E2
:101470004B366B017C010A151B0501F7C701B6014C
:101480000E94413A6B017C01AC019B0160E070E07D
:1014900080E89FE30E944A372B013C0169917991D2
:1014A000899199915E01F4E0AF1AB108A30192010C
:1014B0000E94A239F5016083718382839383C017F0
:1014C000D10761F7C701B601DF91CF911F910F914D
:1014D000FF90EF90DF90CF90BF90AF907F906F9094
:1014E0005F904F9008954F925F926F927F928F928C
:1014F0009F92AF92BF92CF92DF92EF92FF926B01D9
:101500007C0180908D0690908E06A0908F06B09002
:1015100090064090890650908A0660908B067090E5
:101520008C06A3019201C501B4010E94623987FFB4
:101530001BC06091440670E090E080E00E94F437A8
:101540002AE037ED43E25CE30E94A239A70196014D
:101550000E94A2396B017C01AC019B01C301B20165
:101560000E9440371816B4F040924806509249063F
:1015700060924A0670924B068FEFFF90EF90DF90DB
:10158000CF90BF90AF909F908F907F906F905F9023
:101590004F900895A7019601C501B4010E946239D8
:1015A00087FD1CC020E030E0A901C701B6010E9400
:1015B0004037811109C010924806109249061092D6
:1015C0004A0610924B06D9CF80924806909249065F
:1015D000A0924A06B0924B0681E0CFCFC092480657
:1015E000D0924906E0924A06F0924B06A50194017A
:1015F000C701B6010E944A3620910B0230910C02BD
:1016000040910D0250910E020E94A2390E942F3883
:1016100020E030E040E85FE30E944B360E94C33791
:10162000862FABCF90913B06911111C0811110C054
:10163000109248061092490610924A0610924B06E4
:101640008091B0008F778093B00010924606089585
:101650009091910691FF05C0803219F440E050E06E
:10166000BA01CB01BA010E94730A0E946E03EDCF4A
:101670002F923F924F925F926F927F928F929F92A2
:10168000AF92BF92CF92DF92EF92FF920F931F9390
:10169000CF93DF93CDB7DEB7EB970FB6F894DEBFED
:1016A0000FBECDBF80913E0680FD55C290915C0576
:1016B00080915D05981709F44EC280911A069091A9
:1016C0001B06892B09F080C010913E0612FF5CC2F8
:1016D00080915B0522E3829FC0011124855C9D4FB0
:1016E00090931B0680931A0640911A0650911B0690
:1016F0005A874987452B09F42EC20091EB0500FF5C
:1017000046C21092EB051092FD051092FE05109254
:10171000FF0510920006A985BA855A968D919D9174
:101720000D90BC91A02D89839A83AB83BC839C01CF
:10173000AD0160E070E080E09FE30E944A376D8376
:101740007E838F839887E985FA85468C578C60A0C5
:1017500071A082889388A488B58811FF12C3F2E033
:10176000F093FC05A50194010E94A2399B01AC01F4
:10177000C301B2010E944A366B017C0120E030E0D7
:10178000A9010E94403787FFEBC229813A814B8132
:101790005C81CA01B9010E944B36A30192010E94EB
:1017A000A2399B01AC01C501B4010E944A360E94D6
:1017B000413A6093090670930A0680930B06909352
:1017C0000C06186010933E0680918805A82FB0E0A3
:1017D000BA8BA98B27E02A9FF0012B9FF00D1124D3
:1017E000E25AFA4F8091EA05848340911A0650919B
:1017F0001B065A874987DA015E96BC91BDA3FA01A0
:10180000F78DFEA3DA019096BC91BFA3FA01F1A176
:10181000F8A72091F8053091F9054091FA0550910B
:10182000FB056DA17EA18B2F9F2F0E944A3669ABCD
:101830007AAB8BAB9CAB20E030E0A9010E94403733
:1018400087FF04C019AA1AAA1BAA1CAA2091050680
:101850002D8B309106063E8B409107064F8B5091A1
:101860000806588F80910D068D8F90910E069E8FE1
:10187000A0910F06AF8FB0911006B8A3E0911106AA
:10188000E9A7F0911206FAA7209113062BA7309131
:1018900014063CA74091FC054D87709001066090AE
:1018A0000206509103065BAF809104068AAF9091C7
:1018B000FD059DA7A091FE05AEA7B091FF05BFA7AE
:1018C000E0910006E8ABF0910906FEAB20910A0614
:1018D0002FAB30910B0638AF40910C0649AF29A5CC
:1018E0003AA54BA55CA56D8D7E8D8F8D98A10E942C
:1018F00040378111D5C352E05DAB9DA1998FAEA158
:10190000AA8FBFA1BB8FE8A5EC8F8EE3C82E83EC16
:10191000D82E8EE2E82E89E3F82E212C312C2101DD
:10192000A701960129A33AA34BA35CA35D8551307F
:1019300009F457C4A985BA85513008F4E3C353307C
:1019400009F085C45A962D913D914D915C915D971A
:10195000C701B6010E94A2394B015C012D893E8965
:101960004F89588D672D762D8BAD9AAD0E944A36E2
:101970009B01AC01C501B4010E94623987FD9AC385
:101980002D8D3E8D4F8D58A16DA17EA18FA198A563
:101990000E944A369B01AC010E944B366B017C01D0
:1019A0002D893E894F89588D672D762D8BAD9AAD47
:1019B0000E944B369B01AC01C701B6010E944A3719
:1019C0006B017C017D886E88BF89BBAFE88DEAAF73
:1019D0000D8D1E8DFF8DF98328A12D8331E03D876C
:1019E000A7019601C201B1010E944B361B012C01D7
:1019F00029A13AA14BA15CA10E94403787FF94C462
:101A0000A201910169A17AA18BA19CA10E944A36F1
:101A10006B017C01980149815D816DA57EA58FA533
:101A200098A90E94403787FD3EC3872D962DABAD08
:101A3000BAAD8093010690930206A0930306B0937B
:101A400004063D853093FC05E0918905F0918A05F7
:101A50008289811104C090913E0693FF31C0A9850F
:101A6000BA8551969C915197907309F489C49E96BA
:101A7000CD90DD90ED90FC90D1978823B1F020912E
:101A80001506309116064091170650911806672DDD
:101A9000762D8BAD9AAD0E94A2399B01AC01C70196
:101AA000B6010E94A2396B017C01C701B6010E94F8
:101AB000730A8093190680913E06877F80933E06C5
:101AC00027E0E989FA892E9FC0012F9F900D1124EC
:101AD000AC01425A5A4F3A0180911906DA01169622
:101AE0008C932091F4053091F5054091F6055091C5
:101AF000F705B80189819D810E94A23969877A879B
:101B00008B879C870E9429376B017C016091F005CF
:101B10007091F1058091F2059091F3050E942937AB
:101B20004B015C01A70196010E944A360E94C3370F
:101B30006D877E878F87988B2D853E85F301318356
:101B40002083232B09F027C480913E0681FF23C404
:101B5000816080933E06EB960FB6F894DEBF0FBE11
:101B6000CDBFDF91CF911F910F91FF90EF90DF904C
:101B7000CF90BF90AF909F908F907F906F905F902D
:101B80004F903F902F9008950E941707A9CD809104
:101B9000EA058F5F853009F480E08093EA05282FFD
:101BA00030E053E1859FC0011124DC01A557BA4FF5
:101BB0007D01B0938A05A0938905E985FA8580891E
:101BC00050968C93509785FFB5C0F8E05196FC93E2
:101BD000E985FA8590E080E04191519161917191A0
:101BE000D701A80FB91F689412F8440F551F661F3C
:101BF000771F1694D1F74D935D936D937C93139754
:101C000004968C30910541F7E985FA8564857585E0
:101C100086859785F3E1F29FA001F39F500D112473
:101C2000FA01E557FA4F4B015C0123E0880C991C3F
:101C3000AA1CBB1C2A95D1F784869586A686B786F2
:101C40000E94F2376093F0057093F1058093F205DE
:101C50009093F305A985BA855E962D913D914D919E
:101C60005C9191970E944A379B01AC012093F40547
:101C70003093F5054093F6055093F70560E070E06A
:101C800080EA9FE30E944A376093F8057093F90554
:101C90008093FA059093FB051092EC051092ED05E8
:101CA0001092EE051092EF0511FD02C003FF45C032
:101CB0006091090670910A0680910B0690910C06BE
:101CC00060930106709302068093030690930406C6
:101CD0009B01AC010E94A239E985FA85628B738B66
:101CE000848B958B077F0093EB05F701128A809117
:101CF000910681FF08CDA985BA8551968C9151979F
:101D000085FF01CD9A962D913D914D915C919D97C6
:101D100060E070E080E89FE30E944A376093150618
:101D200070931606809317069093180621E0F7012A
:101D3000228BE9CC51961C924BCFA985BA8552963D
:101D40006D917D918D919C9155970E94413A609340
:101D50000106709302068093030690930406C5CF94
:101D6000C092FD05D092FE05E092FF05F0920006BC
:101D70001092090610920A0610920B0610920C0699
:101D800020CD1092FC0540920D0650920E066092F6
:101D90000F067092100612FF6AC010920906109288
:101DA0000A0610920B0610920C06C12CD12C76015B
:101DB00089859A850E94A4066D877E878F87988B78
:101DC0009B01AC010E94A23969877A878B879C8727
:101DD000A50194010E94403787FF93C029853A8569
:101DE0004B855C85C501B4010E944A362D813E8138
:101DF0004F8158850E94A2399B01AC01C301B201F9
:101E00000E944A3660930D0670930E0680930F066B
:101E10009093100620E030E0A9010E944037181688
:101E20000CF449C032E03093FC0529813A814B81A2
:101E30005C81CA01B9010E944B36A30192010E9444
:101E4000A2399B01AC01C501B4010E944A360E942F
:101E5000413A6093090670930A0680930B069093AB
:101E60000C068091EB0588608093EB05AACCE0918D
:101E70003A02EF5FE03109F4E0E080915B05C12CAC
:101E8000D12C76018E1751F022E32E9FF001112400
:101E9000E55CFD4FC288D388E488F588C701B601A8
:101EA0000E94413A6093090670930A0680930B06DC
:101EB00090930C067DCFA701960169857A858B8565
:101EC0009C850E944A362D813E814F8158850E9413
:101ED000A2396093110670931206809313069093B3
:101EE00014068D859E85AF85B889809305069093ED
:101EF0000606A0930706B093080693E09093FC05AE
:101F000060CCA7019601C501B4010E944A362D811B
:101F10003E814F8158850E94A239A30192010E94FF
:101F20004B3620E030E040E05FE30E94A239698B4D
:101F30007A8B8B8B9C8B20E030E0A9010E94623968
:101F400018160CF094C0A301920169897A898B89D3
:101F50009C890E94403787FF88C0A7019601698548
:101F60007A858B859C850E944A362D813E814F81E2
:101F700058850E94A2399B01AC0120931106309331
:101F80001206409313065093140669897A898B8947
:101F90009C890E9462391816BCF52D853E854F85B7
:101FA0005889209305063093060640930706509300
:101FB0000806A501940169857A858B859C850E9418
:101FC0004037811104C031E03093FC05FACBA50104
:101FD000940169857A858B859C850E944A362D817E
:101FE0003E814F8158850E94A2399B01AC01C301FB
:101FF000B2010E944A3660930D0670930E068093DC
:102000000F0690931006DDCB89899A89AB89BC892C
:1020100080930D0690930E06A0930F06B0931006C2
:102020008093110690931206A0931306B0931406A2
:1020300029813A814B815C81CA01B9010E944B36EA
:1020400029893A894B895C890E94A239A7019601A6
:102050000E944B360E94413A609305067093060633
:102060008093070690930806ACCB92E047CF80910F
:10207000090690910A06A0910B06B0910C061092E9
:102080000D0610920E0610920F0610921006809305
:10209000050690930606A0930706B093080691CB19
:1020A00081E08DAB2ACC098F1A8F39813B8F4D810E
:1020B0004C8F3CCC20E030E040E05FE3C501B40150
:1020C0000E94A2399B01AC01672D762D8BAD9AAD94
:1020D0000E944A36A70196010E94A2399B01AC01D9
:1020E000698D7A8D8B8D9C8D0E944A368B018983F8
:1020F0009D83A5019401672D762D8BAD9AAD0E942D
:102100004A366AC05A962D913D914D915C915D97EA
:10211000C701B6010E94A2394B015C0120E030E00A
:1021200040E05FE30E94A239272D362D4BAD5AAD1A
:102130000E944B36A70196010E94A2399B01AC0177
:10214000698D7A8D8B8D9C8D0E944A368B01898397
:102150009D839B01AC016D8D7E8D8F8D98A10E941A
:10216000623918168CF52D8D3E8D4F8D58A16DA1BD
:102170007EA18FA198A50E944A369B01AC010E94C6
:102180004B366B017C012D893E894F89588D672D17
:10219000762D8BAD9AAD0E944B369B01AC01C701E9
:1021A000B6010E944A376B017C01BDA9BD877D88BD
:1021B0006E88EF89EBAFF88DFAAF0D8D1E8D2F8DE8
:1021C000298338A13D830CCCA5019401672D762D80
:1021D0008BAD9AAD0E944B36762E672E8BAF9AAFA1
:1021E000FFCB2D893E894F89588DC701B6010E94CA
:1021F000A2399B01AC01698D7A8D8B8D9C8D0E94DB
:102200004A368B0189839D8329A53AA54BA55CA5F8
:102210000E94403787FFE4CB29A53AA54BA55CA5D2
:10222000698D7A8D8B8D9C8D0E944A362D893E89D1
:102230004F89588D0E944A376B017C0109A51AA568
:102240004BA549835CA55D8382E08D87C9CB5A96F7
:102250002D913D914D915C915D97C701B6010E9412
:10226000A2394B015C01AC019B01672D762D8BAD32
:102270009AAD0E946239181644F520E030E040E043
:102280005FE3C501B4010E94A2399B01AC01672D37
:10229000762D8BAD9AAD0E944A36A70196010E9419
:1022A000A2399B01AC01698D7A8D8B8D9C8D0E942A
:1022B0004A368B0189839D832DA53EA54FA558A93C
:1022C0000E94623918160CF414CF2DA53EA54FA517
:1022D00058A9698D7A8D8B8D9C8D0E944A369B0101
:1022E000AC010E944B366B017C012EA93FA948AD81
:1022F00059AD672D762D8BAD9AAD0E944B369B0163
:10230000AC01C701B6010E944A376B017C017EA86F
:102310006FA8B8ADBBAFE9ADEAAF0DA51EA5FFA58F
:10232000F98328A92D835CCB29A93AA94BA95CA9DB
:10233000B80189819D810E94623918168CF42EE3C0
:1023400033EC4EE259E369A17AA18BA19CA10E94D2
:102350004B3669A37AA38BA39CA3A201910156CB10
:10236000872D962DABADBAAD8093010690930206F2
:10237000A0930306B09304064D854093FC0564CBFF
:10238000109248061092490610924A0610924B0687
:102390001092190690CB2091EC053091ED054091FB
:1023A000EE055091EF05C201B1010E944B362B01A1
:1023B0003C0129853A854B855C85C501B4010E94A5
:1023C0004A369B01AC01C301B2010E944A374B015E
:1023D0005C0120EC31EE44E65EE40E94A2390E94EA
:1023E00029370E94C337603D57E075078105910585
:1023F00008F066C027E0A989BA892A9FF0012B9FBF
:10240000F00D1124E25AFA4F158227E0A989BA8902
:102410002A9FF0012B9FF00D1124E25AFA4F73838B
:10242000628380915D05809388058F5F863009F413
:10243000A1C080935D05E0911A06F0911B06C801CA
:10244000A981BD81868F978FA0A3B1A3C092F0050B
:10245000D092F105E092F205F092F30529853A85D4
:102460004B855C85C701B6010E944A36A5019401DF
:102470000E94A2396093EC057093ED058093EE0500
:102480009093EF052091FD053091FE054091FF05E9
:1024900050910006B80189819D810E9440378111C9
:1024A00005C9F0903E0620E030E0A901B80189811D
:1024B0009D810E94623918160CF05FC08F2D48CBA9
:1024C000603A3FE0730781059105A0F5A7E04989CF
:1024D0005A89A49FF001A59FF00D1124E25AFA4FEA
:1024E000B1E0B583A7E049895A89A49FF001A59F6F
:1024F000F00D1124E25AFA4F2581022E04C0969560
:102500008795779567950A94D2F74D855E8502C0C9
:10251000440F551F2A95E2F75183408361157105D9
:1025200051E08507910508F470CF4FEF5FEF5383BB
:10253000428377CF6034EFE17E078105910568F42F
:1025400047E029893A89429FF001439FF00D112409
:10255000E25AFA4F52E05583C5CF27E0A989BA89DC
:102560002A9FF0012B9FF00D1124E25AFA4F33E01D
:102570003583B8CF10925D055ECFF2FC9FCF1092ED
:102580001B0610921A0690913A0280915B058917FA
:1025900009F48CC881E0890F803109F480E0209132
:1025A0003902921302C08093390280933A027EC8A6
:1025B00080916F008D7F80936F0080918100887F74
:1025C0008160809381001092130280917F06909128
:1025D0003A068F3FA1F420911D06211110C09038BA
:1025E00081F490E0019778F481E09091910692FF58
:1025F00002C091E08927882369F0289A08959430D1
:1026000081F780E0F2CFEFE9FFE03197F1F700C00A
:102610000000E8CF28980895CF93DF930E94D81246
:10262000EAEEF5E080E3DF011D928A95E9F7C4E167
:10263000D2E085E2FE0111928A95E9F710921B061D
:1026400010921A0610925C051092880581E0809322
:102650005D05109213020E942E03809112028F8753
:102660008BB1837E90911102892B8BB98BB18F71C5
:1026700090911202892B8BB980911002898B88B1BD
:102680008F7E90910F02892B88B988B1877F9091B6
:102690001002892B88B9DF91CF91089580911C0693
:1026A00084FD1FC080E10E9459028091B0008F77A5
:1026B0008093B0002D9890913A06892F8C7221F466
:1026C00080913E06867069F0943049F480911D0631
:1026D000811103C086E00E9449020C94D81283E065
:1026E000FACF08952F923F924F925F926F927F920E
:1026F0008F929F92AF92BF92CF92DF92EF92FF9212
:102700000F931F93CF93DF93CDB7DEB7A4970FB688
:10271000F894DEBF0FBECDBF10911D06112349F105
:1027200081E080933A0682E891E00E94ED04812FD7
:102730000E94C8040E94FB0485EF91E00197E1F537
:102740001150123088F486EE92E00E94ED0484ED80
:1027500092E00E94ED040E94530680E10E944F0225
:1027600080911C0684FFFCCF8FB7F89410921D0651
:102770008FBF10911C06112309F49DC214FF23C0C2
:1027800081E080933B06A4960FB6F894DEBF0FBE9F
:10279000CDBFDF91CF911F910F91FF90EF90DF9010
:1027A000CF90BF90AF909F908F907F906F905F90F1
:1027B0004F903F902F900895EFE9FFE03197F1F7A8
:1027C00000C00000BBCF10FFCEC08CE0E1E2F6E01D
:1027D000DE01599601900D928A95E1F7BE01675E80
:1027E0007F4FCE010D960E94C1028CE30E94AE0382
:1027F00080913A06883009F430C108F00BC181306D
:1028000009F434C108F424C1823009F432C184309F
:1028100009F429C180918006F82FF1709F2E80FF66
:102820003DC180914706882309F438C18EEA91E0C2
:102830000E94ED04CE010D960E94AF0480918006A7
:1028400081FF1DC082EA91E00E94ED0490915B053A
:1028500080913A02981708F470C1815F891B0E9429
:10286000C8048CE20E94AE038091090290910A0292
:10287000981708F464C18058891B0E94C8048DE928
:1028800091E00E94ED0480913A068C7709F459C1D9
:1028900060910106709102068091030690910406F2
:1028A0000E9493048CE20E94AE03609148067091EE
:1028B000490680914A0690914B0640E00E94E90348
:1028C0000E94F008E82E0E94FD02F82E06B1007268
:1028D0008091200608278E2D8F29802B61F188E9B1
:1028E00091E00E94ED04002319F080E50E94AE0300
:1028F000EE2081F08E2D897019F088E50E94AE03DC
:10290000E1FE03C089E50E94AE03E2FE03C08AE552
:102910000E94AE03FF2079F0F0FE03C082E50E9422
:10292000AE03F1FE03C088E40E94AE03F2FE03C0D2
:1029300083E50E94AE0380914706882309F405C110
:1029400081508093470600914606002309F416C182
:102950000150009346068EE30E94AE030E94FB04E2
:1029600081E00E944F02812F887E09F454C180913A
:102970003A06982F937009F03DC18872A9F08091B2
:102980003C06807C89F40E940A0382E080933E0624
:1029900080913A06803241F480E217FD0CC08091AC
:1029A0003C06806880933C0680913A06811103C002
:1029B00091E090933C0616FF07C085FD05C09091FD
:1029C0003C06906490933C0613FF05C0807E19F48A
:1029D00080E180933A0615FF0DC186EE92E00E94D9
:1029E000ED0482E992E00E94ED040E94530680917A
:1029F0003C0687FDFAC090913A06903409F0F2C087
:102A000083FF04C0837E826080933C0680E48093D1
:102A10003A06EBC0803221F198F4803109F0FACE09
:102A200080913C0687FD1CC086ED91E00E94ED047C
:102A300080913C0680FF2EC080E30E94AE03EACE68
:102A40008034D1F0803809F0E5CE85EB91E002C00A
:102A500080EE91E00E94ED04DDCE8CED91E0FACFA6
:102A600082ED91E0F7CF8DEC91E0F4CF87EC91E02F
:102A7000F1CF81EC91E0EECF8BEB91E00E94ED0481
:102A800080913C0683FF02C083E3D7CF82FF04C05E
:102A900085FFD2CF81E3D1CF82E3CFCF4090DD0657
:102AA0005090DE066090DF067090E00655ECA52E93
:102AB00056E0B52E9E012F5F3F4F6901CE010D9666
:102AC0007C0100E0F50161917191819191915F012B
:102AD00020853185428553850E944B36F6016193EE
:102AE0007193819391936F01023041F4A30192019C
:102AF0000E944B3669877A878B879C87911012C01A
:102B0000F60134972081318142815381F701608140
:102B10007181828193810E944A36F70160837183BB
:102B2000828393830F5FF4E0EF0EF11C033051F6C4
:102B300091107CCE87EA91E07BCE81508FCE815080
:102B40009BCE60E070E0CB01ABCE80913A068C77F3
:102B500099F08DE18093470680914606811103C06C
:102B600081E08093460682E991E00E94ED04CE0167
:102B700001960E94AF04E7CE89E0ECCF80913A063F
:102B80008C7771F183E1809346068DE891E00E9495
:102B9000ED04809142060E94C8048CE20E94AE03BC
:102BA000809143060E94C8048CE20E94AE0380918B
:102BB00044060E94C804F090B0002D9BC3C100E4FD
:102BC00089E891E00E94ED04F7FE03C083E50E94CE
:102BD000AE03002309F4BFCE86E40E94AE03BBCE51
:102BE00089E0D1CF903809F011CF80913C06806206
:102BF00080933C0617FF0CC080913A06813029F47F
:102C000080913C06856080933C0680E880933A067C
:102C100088EE0E944F0211FF28C0812F887611F59F
:102C200080913A06803441F480913C0685FD04C0D1
:102C300084FFEAC010923A0680913A06882309F48C
:102C4000E9C084FF0FC090913C0690FF0BC080311B
:102C500009F0E0C080914506882309F4DBC0886054
:102C60008093450682E00E944F0212FF24C090919B
:102C70003C0680913A06807D09F4E5C080913D06CE
:102C80008111E1C097FDE1C00E940A0380913A02E0
:102C9000809339020E942F0780913E0681FF05C074
:102CA00090913C06916090933C06897F80933E060C
:102CB00084E00E944F0290911E06992309F44CC0B3
:102CC0008FB7F89410921E068FBF40914206842F52
:102CD00090FD84E691FD865F92FD8A5093FD8F5FA3
:102CE00094FD8150893C08F088EC8A3008F48AE031
:102CF00030914306232F95FD24E696FD22E397FDB0
:102D000029E1481302C0231739F18093420620932A
:102D100043061092460670903A0260905B05172DAC
:102D200089E9282E96E7392E26E9422E3EE7532ED2
:102D300042E3842E1611A4C0C101D201809319016F
:102D400090931A01A0931B01B0931C010E940A03E7
:102D5000709239020E942F0710911F06112309F467
:102D60004BC08FB7F89410921F068FBF9091440606
:102D7000892F10FD84E611FD865F12FD8A5013FD38
:102D80008F5F14FD8150893C08F088EC8A3008F48C
:102D90008AE09817A1F090913A0680934406911129
:102DA000C5C04091AC065091AD066091AE067091E1
:102DB000AF068091AA060E94120B109246068091DF
:102DC0003A0615FF09C0803139F4909145069111FA
:102DD000B3C092E090934506107C71F0882311F007
:102DE000887351F01091A90616FFAAC01F7B812F8E
:102DF0000E94EA091093A90680913A068C7F09F493
:102E0000C2CC0E94380BBFCC82FF16CF8860809363
:102E10003C0612CF10923E060E941707892B71F0D4
:102E200080913C0686FD0AC010923C0688E08093A3
:102E30003A060E94380B0E94550314CF10923C06AC
:102E400010923A060FCF97FF0AC010923E060E94DA
:102E5000F6090E940C130E9432090E94820680919A
:102E60003C0685FF08C08F77816080933C0680E434
:102E700080933A061DCF10923C0610923A0618CF66
:102E8000A12EB12C189DC0011124855C9D4F0E947C
:102E9000A406962EC72ED82E092F9101A2010E94BA
:102EA00062398A9C70018B9CF00C11249701255C7F
:102EB0003D4F790118168CF59101A201B101C201B3
:102EC0000E94A239F701668B778B808F918F8A9C45
:102ED000C0018B9C900D11249C01255C3D4F790114
:102EE000F90122A033A044A055A0A2019101668956
:102EF0007789808D918D0E94623918162CF4F70124
:102F0000268A378A408E518E1F5F103109F410E0F7
:102F1000292C3C2C4D2C502E0DCF292D3C2D4D2DE8
:102F2000502F692D7C2D8D2D902FCACF80913E067C
:102F3000886080933E0641CF90FF4ECF94604ACF89
:102F4000106455CFF7FC3CCE06CD1F93CF93DF9393
:102F5000142F20E030E040EA51E40E94A2390E94A0
:102F600029370E94C337EB012097C9F080913B06B7
:102F7000811115C011110DC00E94D3172FEF80E7EA
:102F800092E0215080409040E1F700C0000021977E
:102F9000EBCF0E94721380913C0681FFEFCFDF914F
:102FA000CF911F910895CF92DF92EF92FF921F93DE
:102FB000CF93DF930E94721380913C06882309F41B
:102FC0006EC00E941707009709F03FC0C091AA0683
:102FD0008091A906C82BC090AC06D090AD06E090B9
:102FE000AE06F090AF068091910681FF03C080E2AB
:102FF0000E943702DC2FD07311E0C07C80913C0628
:10300000882309F44CC090913B06911148C080FF81
:1030100019C090913A06292F207C09F48DC082FDB9
:1030200023C01092450640E050E0BA0180E00E94C3
:10303000120B80E00E94EA0980913C068D7F84603B
:1030400080933C060E947213D9CFFC012189207322
:103050002D9908C0C0E0C22BFC01C6A4D7A4E0A8EB
:10306000F1A8C1CFC0E4F7CF903821F586EE92E009
:103070000E94ED048FE492E00E94ED040E9453064A
:1030800040E050E0BA0180E00E94120B80E00E9414
:10309000EA090E94D81280913B06882341F0DF9113
:1030A000CF911F91FF90EF90DF90CF9008950E94F5
:1030B0007213F1CF903419F48F7D80933C06809188
:1030C0003C0683FFBFCF9091AA06992359F081FD5A
:1030D00009C08091910681FF22C080913E068860E0
:1030E00080933E068091A906882371F080913C066A
:1030F00081FD0AC08C2F0E94EA0941E060E070E087
:1031000080E89FE30E94A51780913C0681FD9ACF3D
:10311000806180933C0682E00E94590293CFB70100
:10312000A6018D2F0E94120B41E060E070E080E864
:1031300090E40E94A517D6CF809145068823C9F157
:1031400081FF0DC08091AA06882351F140E050E034
:10315000BA0180E00E94120B1093450673CF8C7069
:1031600009F470CF8091AA06882399F086EE92E048
:103170000E94ED0488E592E00E94ED040E9453064F
:103180008091910681FF0FC080913E0688608093F8
:103190003E068091450683FF03C082E00E945902EB
:1031A000109245064FCFB701A6018D2F0E94120B3A
:1031B000F0CF80913E0683FF45CFB701A6018D2F4A
:1031C0000E94120B80913E06877F80933E063ACF85
:1031D0000E9427070E94D31780913B06811108C0E7
:1031E0000E941707892BB1F780913A06883091F336
:1031F0000895CF93DF9391E5899FE0011124DD5F6E
:1032000040E550E0BE018BE197E00E94A809892BC0
:1032100079F410921B070E94E81840E550E06BE13A
:1032200077E0CE010E94580980E0DF91CF910895A8
:1032300081E0FBCF0E94E818109247060895CF92D4
:10324000DF92EF92FF92CF9390913A06923079F00D
:103250006A017B01C82F0E94E818B701A6018C2FD4
:10326000CF91FF90EF90DF90CF900C94120BCF9105
:10327000FF90EF90DF90CF9008950F931F93CF931F
:10328000C82F8B010E94E8182DE0C29FC0011124B5
:103290004CE050E0B8019E5FCF911F910F910C94CC
:1032A00058091F93CF93DF93182FEB018DE0189FE0
:1032B000B00111247E5F4CE050E0CE010E94A809CD
:1032C000892B71F48CE0FE0111928A95E9F7BE0119
:1032D000812F0E943D1980E0DF91CF911F910895C9
:1032E00081E0FACFEF92FF920F931F93CF93DF937A
:1032F000CDB7DEB72C970FB6F894DEBF0FBECDBFAB
:10330000182F80FF0BC085E5E5EFF1E0ACE4B6E0F7
:1033100005900D928A95E1F70E94930911FF10C064
:10332000CE0101967C018CE0F70111928A95E9F7B4
:1033300000E0B701802F0E943D190F5F0830C9F7E8
:1033400012FF14C060E080E093E00E94380960E062
:1033500081E093E00E94380960E081E593E00E94FB
:10336000380960E082E593E00E94380913FF0AC043
:1033700060E08EEA93E00E94380960E08FEA93E013
:103380000E9438092C960FB6F894DEBF0FBECDBF51
:10339000DF91CF911F910F91FF90EF9008952F92A1
:1033A0003F924F925F926F927F928F929F92AF92D5
:1033B000BF92CF92DF92EF92FF920F931F93CF9322
:1033C000DF93CDB7DEB7C254D1090FB6F894DEBF94
:1033D0000FBECDBF3B0100915B05202E312C22E3B7
:1033E000029FA0011124BA01655C7D4F7CAB6BABE1
:1033F000FB0111922A95E9F7F3012085FB01218B4E
:10340000F3014481558166817781EBA9FCA946A728
:1034100057A760AB71AB21FFF0C02CE0E1E2F6E012
:10342000DE01599601900D922A95E1F789AB9AAB8E
:103430002CE436E021963FAF2EAF2197BE01635FAB
:103440007F4F7EAF6DAFCE0149969CAF8BAFEBA99E
:10345000FCA9FAAFE9AF9E012B5D3F4F3EAB2DAB10
:1034600038AF2FAB10E082E3829D2001839D500C8A
:103470001124B201655C7D4F2B01CB010C96239684
:103480009FAF8EAF239790E1490E511CE9A9FAA98D
:103490006191719181919191FAABE9AB2196EEAD79
:1034A000FFAD219781909190A190B1902196FFAFAF
:1034B000EEAF2197A50194010E94A2390E946F39B5
:1034C000EDADFEAD6193719381939193FEAFEDAF3E
:1034D000EBADFCADC190D190E190F190FCAFEBAFC2
:1034E0006C197D098E099F099B01AC0197FF07C0EC
:1034F00022273327A901261B370B480B590BE9ADAF
:10350000FAAD2193319341935193FAAFE9AF2396EA
:10351000EEADFFAD2397C080D180E280F380C2166C
:10352000D306E406F50610F469017A012396EEADA0
:10353000FFAD2397C082D182E282F3820E94F437EA
:10354000A50194010E944A37EFA9F8AD61937193E8
:1035500081939193F8AFEFAB20E030E0A9010E9496
:10356000403787FF0BC090E2112321F090E8113023
:1035700009F490E4F2018081892B80831F5F13306E
:1035800009F084CF80E0CD28CE28CF2809F4CBC025
:10359000CE0185960E94070A4B015C0122E3229D21
:1035A000C001239D900D11249C01255C3D4F7901A4
:1035B000F901868E978EA0A2B1A2BE016B5D7F4FEE
:1035C00084E696E00E949A08F701628F738F848FD9
:1035D000958FBE016B5D7F4F88E596E00E949A084B
:1035E000F70166A377A380A791A7118910FF09C0EF
:1035F00062A773A784A795A710C02CE0E1E0F1E0D3
:103600000FCFF301208131814281538113FDA5C089
:10361000F70122A733A744A755A780913A020817BC
:1036200011F011FFA0C082E3829DF001839DF00D97
:103630001124E55CFD4F128A138A148A158A12A29E
:1036400013A214A215A282E3829D8001839D100D16
:103650001124055C1D4FF801818981FD63C08BA990
:103660009CA90E94A4066B017C0180901901909096
:103670001A01A0901B01B0901C01AC019B01C50177
:10368000B4010E94403787FF36C1A5019401C501EE
:10369000B4010E94A239F801668B778B808F918FDD
:1036A00082E3829D8001839D100D1124055C1D4FD6
:1036B000F80182A093A0A4A0B5A0A50194016689F9
:1036C0007789808D918D0E94623918162CF4F8014B
:1036D000868A978AA08EB18EC0921901D0921A0163
:1036E000E0921B01F0921C018CE0FE01B596ADE06A
:1036F000B1E001900D928A95E1F78CE0FE013D96D4
:10370000A1E0B1E001900D928A95E1F7809100016E
:1037100080935B058F5F803109F480E08093000126
:103720000E942F0781E0CE5BDF4F0FB6F894DEBF1B
:103730000FBECDBFDF91CF911F910F91FF90EF9002
:10374000DF90CF90BF90AF909F908F907F906F90C1
:103750005F904F903F902F900895C501B4010E9453
:10376000A239F70145CF2DE031E03AAB29AB8E010C
:103770000F5F1F4F6DA97EA9645F7F4F7CAF6BAF5A
:10378000C12CD12C76010FAB19AFE9A9FAA9819010
:103790009190A190B190FAABE9ABEDA9FEA941904F
:1037A000519061907190FEABEDABA3019201C50108
:1037B000B4010E94A2399B01AC01C701B6010E946D
:1037C0004A366B017C01A5019401C301B2010E943C
:1037D0004A36F80161937193819391938F012BADD8
:1037E0003CAD6DA97EA92617370779F62FEE3FEF7E
:1037F0004FE75FE3C701B6010E94623918164CF427
:1038000082E3829DF001839DF00D1124E55CFD4F64
:1038100016CF2FEE3FEF4FE75FEBC701B6010E94D7
:10382000403787FF11C082E3829DF001839DF00D38
:103830001124E55CFD4F89E996E7A6E9BEE782A37E
:1038400093A3A4A3B5A3FFCE8FA999AD0E94070AA5
:103850006FA979AD84E696E00E949A084B015C015D
:10386000A701960160E070E080E89FE30E944A367D
:1038700020E030E040E05FE30E94A2390E94413A3C
:103880006B017C0120918106309182064091830674
:1038900050918406C501B4010E94A239A701960186
:1038A0000E94A2394B015C01A701960160E070E023
:1038B00080E89FE30E944A369B01AC01C501B40138
:1038C0000E944A376B017C0120E030E0A9010E9490
:1038D000403787FF03C0C12CD12C760182E3829D43
:1038E000F001839DF00D1124E55CFD4FC2A2D3A22F
:1038F000E4A2F5A2A8CEA7019601C701B601C9CEE0
:10390000FF920F931F93CF93DF938C01EB01809174
:10391000910685FF23C0F0903A0680E2F81611F177
:10392000C8010E9462028823C9F081E080933D06AD
:1039300088E0F8120CC00E9459020E94D3178091AF
:103940003B0681110BC080913A068111F6CF0E948F
:103950004E1382E00E9449020E94D31780913A06DA
:10396000823041F10E94D31780913B06811122C021
:1039700090913A0280910001981303C00E9427079A
:10398000F1CFBE01C8010E94CF19811113C08091EF
:10399000910681FF0FC0888584FF0CC04C815D813A
:1039A0006E817F8180E1DF91CF911F910F91FF9018
:1039B0000C941F19DF91CF911F910F91FF900895E3
:1039C0002F923F924F925F926F927F928F929F922F
:1039D000AF92BF92CF92DF92EF92FF920F931F931D
:1039E000CF93DF93CDB7DEB7CC54D1090FB6F8949F
:1039F000DEBF0FBECDBFE1EEF6E08AE3DF011D9230
:103A00008A95E9F78BE0E1EAF6E0A2EEB6E00190F4
:103A10000D928A95E1F780911B078432A1F01A8EEE
:103A20001BA2312C212C1EA61DA610E01B8E1F8E62
:103A3000EE24E394F12CAAE0AA2EB12CB1E68B2E51
:103A4000B3E09B2E4EC181E08093E2061092E30624
:103A500083E08A8FB1E0BBA3E4CF9FEB9D0D9A3149
:103A600010F00C946E2A8F5F8A8FBE016A5E7F4FC2
:103A7000CE014A960E948A01882311F40C94712A7F
:103A80004E885F88688C798CC301B2010E94853AA8
:103A90000E94C337062F70E090E080E00E94F43768
:103AA0009B01AC01C301B2010E944A3620E030E024
:103AB00048EC52E40E94A2390E940F3A0E94C33798
:103AC000CB01E7E4DE1629F1FDE4DF1609F465C158
:103AD000EAEBED0DE53108F02CC00E2E000CFF0BCB
:103AE000EC58F24E0C94ED3A161F991D991D431F88
:103AF0004E1F591F641F991D681F991D761F991D20
:103B0000801F8A1F941F991D991D991DA41FB11F05
:103B1000BE1F083209F4DDC030F5043160F4013114
:103B200008F098C0043009F474C0B0F00A3009F409
:103B300068C084E196C00C3109F463C040F40631DA
:103B4000C0F725E1201B2093E40626E087C00E3154
:103B500009F457C0063269F74F8D41110C94742A4D
:103B6000A2E0AF8F28C00D3309F4AEC0E0F40533F6
:103B700009F44FC088F40B3211F00133D1F6BF8D38
:103B8000B1110C94742A013309F095C01092E70624
:103B9000E3E0EF8F28E04FC00C3358F60653009354
:103BA000E80629E05BC00C3508F50A3508F073C05B
:103BB000003509F0BECF0093E20621E0063209F09D
:103BC0004DC08431910551F08E31910539F0883224
:103BD000910521F08233910509F0ABCFB5010E9428
:103BE000B73A66576093E20621E025C00C3549F0EC
:103BF0000F3508F09ECF2EE5201B2093E30625E02D
:103C00002DC0009731F42F8D21110C94742A31E0CE
:103C10003F8F0093E106202F2D7F2C3119F020E0FB
:103C20000C35E1F4009719F00A9709F082CF600F84
:103C30006093E10620E0C70102C0880F991F2A9512
:103C4000E2F72DA53EA528233923232B09F443C0F1
:103C500085E107C001510093E60622E0892B59F364
:103C600087E1C45BDF4F0FB6F894DEBF0FBECDBF58
:103C7000DF91CF911F910F91FF90EF90DF90CF9048
:103C8000BF90AF909F908F907F906F905F904F907C
:103C90003F902F900895892B29F40A550093E5064B
:103CA00023E0C9CF6A30710509F043CF0A3509F422
:103CB00040CF24E0C0CF0A9709F03BCFF1E0F0936A
:103CC000E70623E02F8F66CF892B09F032CF2AE059
:103CD000B2CF27E0C3CFADA5BEA5A82BB92BBEA7F9
:103CE000ADA78A8DE82FF0E0E55EF84FD080D110C7
:103CF000B4CEBB8DBB2329F0EF8DE11102C0F2E001
:103D0000FF8F25FE0FC08091FE069091FF06A091C7
:103D10000007B091010781389649A849B10514F010
:103D20000C94802A3BA1332309F435C120FE45C100
:103D30008091E4068130B1F423E333E34BEC51E4AA
:103D40006091ED067091EE068091EF069091F0067D
:103D50000E94A2396093ED067093EE068093EF0601
:103D60009093F00630FC10C08091AC069091AD06A7
:103D7000A091AE06B091AF0680930A0790930B070F
:103D8000A0930C07B0930D078091E106843009F0F1
:103D90002FC126FC2BC18CE164CF892B09F060CFA9
:103DA000063050F4033098F00430D9F080E105304B
:103DB000C9F41092EB0618C0083008F4BACE0A30E5
:103DC00048F10E3109F0B5CE0093E90604C0002396
:103DD00021F00130C9F78BE008C0B3E0B093E906E9
:103DE000FACF80E28093EB068CE0F70102C0EE0F81
:103DF000FF1F8A95E2F7CF012DA53EA52E2339237B
:103E0000232B09F025CF2DA53EA52E2B392B3EA720
:103E10002DA767CF093039F08091EA06806480933E
:103E2000EA068DE0E2CF1092EA06FBCF4092ED0663
:103E30005092EE066092EF067092F00680E0670105
:103E4000082E02C0CC0CDD1C0A94E2F79601222158
:103E50003321232B11F00C947A2AD40102C0B5959A
:103E6000A7958A95E2F7A0FF0BC020E030E0A901FA
:103E7000C301B2010E94403787FF02C00C947D2A23
:103E80002C283D282ECF4092F1065092F2066092E7
:103E9000F3067092F406116081E0D1CF4092F506EE
:103EA0005092F6066092F7067092F806126082E071
:103EB000C6CF4092F9065092FA066092FB067092C5
:103EC000FC06146083E0BBCF0093FD0684E0B7CF0F
:103ED000C301B2010E94BC376093FE067093FF06D7
:103EE000809300079093010785E0A9CF40920207D5
:103EF00050920307609204077092050786E09FCFF7
:103F000040920607509207076092080770920907CF
:103F100087E095CF40920A0750920B0760920C07FA
:103F200070920D0788E08BCF20E030E04FE753E43C
:103F3000C301B2010E946239181614F40C94772A56
:103F400000930E0789E07BCF40920F075092100735
:103F500060921107709212073B8D31603B8F8AE0AF
:103F60006ECF40921307509214076092150770921B
:103F700016074B8D42604B8F8BE061CF4092170745
:103F8000509218076092190770921A078B8D8460FF
:103F90008B8F8CE054CF8091E306813081F44F8D7C
:103FA000423009F0DFCE8091E206803509F4DACEA6
:103FB000882309F4D7CE20FCD5CE86E152CE80915D
:103FC000A2068111CFCE20FCB3CE8091B006909195
:103FD000B106A091B206B091B3068093ED0690931E
:103FE000EE06A093EF06B093F006BCCEE89426F858
:103FF0008091E606882359F0813009F4BBC02296EF
:104000001FAE2297A2E0ABAFB1E0B9AF07C082E02C
:1040100022968FAF229791E09BAF19AE8091E40674
:10402000813071F5E1EECE2EE6E0DE2EF12CE12CB2
:104030002B8DA22EB12CC5010E2C02C09595879513
:104040000A94E2F780FF12C023E333E34BEC51E420
:10405000D6019E966D917D918D919C91D1970E94F4
:10406000A239F60166A777A780AB91ABFFEFEF1AF5
:10407000FF0A24E0C20ED11C33E0E316F104D9F6A6
:104080004F8D433049F48091E706813029F48B8DC0
:10409000843011F00C94832A8CE0E5ECF6E0DE012C
:1040A000119601900D928A95E1F7ADA5BEA5B1FDDF
:1040B00069C00091E1060A3009F478C00C3509F4B2
:1040C00019C19F8D933009F43FC0AB8DAA23E1F154
:1040D000B091E506BFA38091DD069091DE06A09128
:1040E000DF06B091E00689A79AA7ABA7BCA791EA23
:1040F000A92E96E0B92E21EEC22E26E0D22EF12C6A
:10410000E12C9B8D892E912CC4010E2C02C095951B
:1041100087950A94E2F780FD5DC1F501808D918D50
:10412000A28DB38DF60186A797A7A0ABB1ABFFEF29
:10413000EF1AFF0A24E0A20EB11C34E0C30ED11C1A
:1041400043E0E416F10401F70E3109F494C105339C
:1041500009F4B8C161EF76E086E00C3109F02DC1B9
:104160000E945119882301F18B8D811188C119A6F4
:104170001F8EA9C0E1E02296EFAF22971BAEF2E0BE
:10418000F9AF4CCF8091E806873010F08DE169CD12
:104190009091A706891709F48CCFBE016F5F7F4FFE
:1041A0000E945119811185CF87E05BCDBB8DB11184
:1041B00002C08AE156CDC10180759927892B09F487
:1041C000EACD6091020770910307809104079091F6
:1041D00005070E94853A0E94C3376730B8F6809180
:1041E000FD06843129F0823009F0A3CC27FCA1CC54
:1041F000662309F474C0615069A761EF76E089A570
:104200000E945119882381F20091FD064090DD063D
:104210005090DE066090DF067090E00671EEC72ECB
:1042200076E0D72EF12CE12C3B8D232F30E038A700
:104230002FA38FA198A50E2C02C0959587950A945F
:10424000E2F780FF33C0D6019E968D909D90AD9091
:10425000BC90D197043109F046C0F701EE0FFF1F63
:10426000EE0FFF1FEF55F94F20A931A942A953A91D
:10427000608D718D828D938D0E944A36A5019401C7
:104280000E944A36F601608B718B828B938BF2E031
:10429000EF120CC0A30192010E944A366093F90606
:1042A0007093FA068093FB069093FC06BFEFEB1A1F
:1042B000FB0AE4E0CE0ED11CF3E0EF16F10409F0A6
:1042C000B8CF2FEA22228091E2068FA3803509F031
:1042D00000C19B8D992309F406C18FE1C2CCE09106
:1042E000E806E9A78ACF50968D929D92AD92BC9236
:1042F0005397DCCF3B8D332309F45BCF4090DD0631
:104300005090DE066090DF067090E00641EA842E51
:1043100046E0942ECE0101967C0151EEA52E56E08A
:10432000B52ED12CC12CA32FB0E0B8A7AFA38FA17D
:1043300098A50C2C02C0959587950A94E2F780FF0A
:104340003EC0F7012081318142815381D4015896CA
:104350006D917D918D919C915B970E944A36F501FC
:1043600026A537A540A951A90E944A36D5019E9697
:104370006D937D938D939C93D197B2E0CB120CC03B
:10438000A30192010E944A366093170770931807A1
:104390008093190790931A07FFEFCF1ADF0A24E0E2
:1043A000820E911C34E0E30EF11C44E0A40EB11C1B
:1043B00083E0C816D10409F0BACF19A684CFF4015E
:1043C00080A991A9A2A9B3A9F50186A797A7A0AB37
:1043D000B1ABE2CF053309F4AACED6019E964D903B
:1043E0005D906D907C90D197BFA1B11133C0F70162
:1043F000EE0FFF1FEE0FFF1F21E030E02C0F3D1FDF
:10440000E20FF31FD501D0962D913D914D915C9116
:10441000D39760817181828193810E944B36A30181
:1044200092010E944B36F60166A777A780AB91AB4D
:10443000F2E0EF127CCE29A53AA54BA55CA50E941F
:104440004B36609317077093180780931907909362
:104450001A076DCEA3019201D50158966D917D91F9
:104460008D919C915B970E944B36F60166A777A7CA
:1044700080AB91AB5CCE61EF76E087E071CEA1EAD4
:10448000B6E0E1EEF6E090E080E04B8D242F30E0E6
:10449000A901082E02C0559547950A94E2F740FD00
:1044A0000AC058964D915D916D917C915B97408BC0
:1044B000518B628B738B01961496349683309105E1
:1044C00039F77BCF8091E206823008F476CF8EE117
:1044D000C8CBAF8DA23039F4BFA1B11173C0EB8D41
:1044E000EE2309F48DC02BA12170EBA1C101E0FFE7
:1044F000D8C28E7DFF8DF111937E892B11F00C9423
:104500008C2A8E01035F1F4F89E0D8011D928A9586
:10451000E9F7222309F4C8C28DA59EA5867B892BC5
:1045200011F00C948F2A8091E106853319F08111E6
:104530000C948F2A8091AC069091AD06A091AE06A6
:10454000B091AF06898B9A8BAB8BBC8B8091AA06FE
:104550009091A906892B4091ED065091EE0660914D
:10456000EF067091F0064D875E876F87788B8460C9
:104570008D8B8091910685FF06C08FE097E00E94A9
:1045800062028111CFC7B8018FE097E00E94801CC2
:1045900080913A0681110BC00E941707892B39F0D0
:1045A00080E280933A060E94380B0E9455038CE00B
:1045B000EFE0F7E0A9EBB6E001900D928A95E1F704
:1045C00080E04FCB20E030E0A9016091ED067091D2
:1045D000EE068091EF069091F0060E944037882306
:1045E00009F4EBCCFFA1FC38B9F060F4F23059F1DA
:1045F000F33061F1F13009F076CF3B8D311173CF9B
:104600001F8E71CF2FA12E3839F018F02F3809F0F6
:104610006ACF9BA190619BA38FA18E58823018F422
:10462000ABA1A860ABA3BB8DBB2309F4C2CD4CE00A
:1046300050E06FE077E089EB96E00E940D3B892B1C
:1046400009F051CF6DC04BA144604BA38B8D8823E3
:1046500009F4AFCDB9ADAB2FB0E0BAABA9ABFBADB0
:10466000EF2FF0E0FEABEDAB81E090E07C0109AC18
:1046700002C0EE0CFF1C0A94E2F70BAC02C0880FDC
:10468000991F0A94E2F7E82AF92A2B8D822F90E0ED
:104690008E219F21892B09F439C7FD01EE0FFF1FE1
:1046A000EE0FFF1FEF51F94FAA0FBB1FAA0FBB1F41
:1046B000A754B94F2D913D914D915C9166A577A579
:1046C00080A991A90E944A362B013C01EDA9FEA9BF
:1046D000EE0FFF1FEE0FFF1FEF51F94FADA9BEA95F
:1046E000AA0FBB1FAA0FBB1FA754B94F2D913D9115
:1046F0004D915C9166A577A580A991A90E944A3643
:104700004B015C0127FEFFC0E89427F84CE050E025
:104710006FE077E089EB96E00E940D3B892B11F466
:1047200081E29FCA60910607709107078091080790
:10473000909109072091E406213071F423E333E3DB
:104740004BEC51E40E94A23960930607709307076F
:1047500080930807909309078091060790910707B7
:10476000A0910807B091090721968CAF9DAFAEAF1D
:10477000BFAF2197A3019201C301B2010E94A239E8
:1047800029966CAF7DAF8EAF9FAF2997A50194019D
:10479000C501B4010E94A2392D966CAF7DAF8EAFDA
:1047A0009FAF2D9720E030E040E850E421966CADBB
:1047B0007DAD8EAD9FAD21970E94A23921962CAD83
:1047C0003DAD4EAD5FAD21970E94A23929962CAD2B
:1047D0003DAD4EAD5FAD29970E944A362D962CAD6A
:1047E0003DAD4EAD5FAD2D970E944A366B017C0109
:1047F00020E030E0A9010E94403787FD8AC6C7014A
:10480000B6010E94413A6B017C012D962CAD3DAD65
:104810004EAD5FAD2D9729966CAD7DAD8EAD9FAD44
:1048200029970E944B360E94413A9B01AC01C70177
:10483000B60190580E944A376B017C019FA19330CA
:1048400021F4F7FAF094F7F8F09420E030E0A901B1
:1048500021966CAD7DAD8EAD9FAD21970E94403706
:1048600087FF13C0F7FAF094F7F8F09421968CAD17
:104870009DADAEADBFAD2197B05880930607909324
:104880000707A0930807B093090709A91AA9000F01
:10489000111F000F111F0F50194FA7019601C501DD
:1048A000B4010E94A2399B01AC01C301B2010E9474
:1048B0004A3620E030E040E05FE30E94A239D801B0
:1048C0006D937D938D939C9313970DA91EA9000F53
:1048D000111F000F111F0F50194FA7019601C3019F
:1048E000B2010E94A239A50194010E944B3620E03A
:1048F00030E040E05FE30E94A239F80160837183F9
:1049000082839383F0CDC12ED12CE122FD2083E25E
:10491000EF2809F4A6C9F1EF2F228091E406813037
:1049200041F501EE16E0F12CE12CC6010E2C02C07F
:10493000959587950A94E2F780FF12C023E333E34D
:104940004BEC51E4D80150966D917D918D919C91E5
:1049500053970E94A239F801608B718B828B938BE5
:10496000FFEFEF1AFF0A0C5F1F4F23E0E216F1047E
:10497000E1F6E9A9FAA9EE0FFF1FEE0FFF1FEF50B6
:10498000F94FC080D180E280F380A7019601C30176
:10499000B2010E944A362B013C01EDA9FEA9EE0F9F
:1049A000FF1FEE0FFF1FEF50F94F80819181A28111
:1049B000B38189AB9AABABABBCAB9C01AD01C5017C
:1049C000B4010E944A364B015C01A3019201C3016C
:1049D000B2010E94A2392B013C01A5019401C5013D
:1049E000B4010E94A2399B01AC01C301B2010E9433
:1049F0004B360E94413A4B015C01A7019601C70169
:104A0000B6010E94A2396B017C0129A93AA94BA9E0
:104A10005CA9CA01B9010E94A2399B01AC01C7017E
:104A2000B6010E944B360E94413A6B017C01C09254
:104A30000607D0920707E0920807F0920907AC0139
:104A40009B01C501B4010E944A364B015C01E89408
:104A5000B7F82AE037ED43EA5BE3C501B4010E94F1
:104A6000623918160CF03FCD20E030E040E05FE303
:104A7000C501B4010E94623918160CF451CE2FE61C
:104A800032E143E85AE3C701B6010E94A2399B0113
:104A9000AC01C501B4010E94623918160CF023CD97
:104AA0003FCE8E7D9C7F26CD80919106F090AA0608
:104AB00081FF12C08FA18150833018F0BBA1B06478
:104AC000BBA3EB8DEE2309F443C1FF8DF23009F057
:104AD0003FC12BA120682BA38091FE069091FF0679
:104AE000A0910007B09101078093B5069093B60698
:104AF000A093B706B093B8068091E3068093A20610
:104B0000882311F088E08D8B8091ED069091EE0660
:104B1000A091EF06B091F0068093B0069093B10695
:104B2000A093B206B093B3068D879E87AF87B88BEC
:104B300080900A0790900B07A0900C07B0900D078B
:104B4000A50194016091AC067091AD068091AE060E
:104B50009091AF060E9440379BA19074E92E81117D
:104B600003C0ABA1A5FF1FC0FF2069F0BBA1B7FD2B
:104B70000AC040E050E0BA01E11002C0B501A40152
:104B80008F2D0E941F1980910A0790910B07A09109
:104B90000C07B0910D078093AC069093AD06A093DF
:104BA000AE06B093AF06E1100CC08091AC069091B8
:104BB000AD06A091AE06B091AF06898B9A8BAB8BF8
:104BC000BC8B80910E078093B4068091EB06909188
:104BD000AA06981751F049895A896B897C890E94E5
:104BE0001F198091EB068093AA068D899091AA06E1
:104BF000892B8D8BF090EA068091A9068F1569F0BC
:104C000080913A06823029F00E94E8188F2D0E9488
:104C1000EA098091EA068093A9068D899091A906F8
:104C2000892B8D8B8091E106843099F480913A062E
:104C3000823079F0C0900207D0900307E09004071B
:104C4000F09005070E94E81840E0C701B6010E94F5
:104C5000A5178091E6068093A5068091E4068093CF
:104C6000A306EF8DE33071F58091E7068093A606E9
:104C7000811108C010921707109218071092190797
:104C800010921A07C0901707D0901807E0901907E4
:104C9000F0901A07A70196016091DD067091DE067B
:104CA0008091DF069091E0060E944037882351F002
:104CB000C092DD06D092DE06E092DF06F092E006BA
:104CC0000E941A198091E8069091A706981769F03A
:104CD0008093A7068CE0FE013196A5ECB6E001902A
:104CE0000D928A95E1F70E941A198091E50680934A
:104CF000A4068091E106863209F47EC008F03FC028
:104D00008C3109F45FC08E3109F45CC08A3009F43B
:104D100043C08091E2068093A106803509F449C31F
:104D2000BF8DB23009F045C3813009F079C0BE01B2
:104D3000635F7F4F8FE097E00E94801C8CE0EFE084
:104D4000F7E0A9EBB6E001900D928A95E1F731C347
:104D500030E1F312C1CE9BA190748091A1068150E5
:104D6000833038F4992309F4B7CE4BA140624BA3AA
:104D7000B3CE9111B1CE8BA180628BA3ADCE8C3519
:104D800009F440C0863609F443C0883209F0C1CF27
:104D900069EB76E087E033C061EF76E089A50E9499
:104DA0003D198091A706F9A5F813B3CF8CE0E1EF88
:104DB000F6E0A5ECB6E001900D928A95E1F70E942D
:104DC0001A19A7CF8D8981608D8B2F8D222329F011
:104DD000B8018FE097E00E94801CB80181EF96E057
:104DE0000E94801C8CE0E1EFF6E0A9EBB6E00190B8
:104DF0000D928A95E1F78DCF69EB76E086E00E940F
:104E00003D1987CF8CE0EFE0F7E0A1EDB6E0D3CF1E
:104E1000E1EDF6E08CE0DF011D928A95E9F7CFCF56
:104E2000811105C08D8981608D8BB80183CF82503F
:104E3000823008F097C28091060790910707A091F1
:104E40000807B09109078F8F98A3A9A3BAA3A9ADAA
:104E500094E0A99F70011124F701E754F94FF8A7D6
:104E6000EFA397012F50394F3AA729A7D9014D90A9
:104E70005D906D907C902081318142815381C3018E
:104E8000B2010E944B366DA77EA78FA798ABEBAD02
:104E9000B4E0EB9F8001112498012754394F3AAFB9
:104EA00029AFC8018F50994F9CAF8BAFDC018D901B
:104EB0009D90AD90BC90F901208131814281538158
:104EC000C501B4010E944B3669AB7AAB8BAB9CAB8E
:104ED00077FA709477F87094D501C401B0588B8F2D
:104EE0009C8FAD8FBE8FF701E15FF84F2DA53EA5DA
:104EF0004FA558A960817181828193810E944A36B1
:104F00006B017C01F801E15FF84F29A93AA94BA98F
:104F10005CA960817181828193810E944A364B0134
:104F20005C01A7019601C301B2010E94A2396DABD9
:104F30007EAB8FAB98AFA50194016B8D7C8D8D8D71
:104F40009E8D0E94A2399B01AC016DA97EA98FA9FB
:104F500098AD0E944B366DAB7EAB8FAB98AFA50181
:104F60009401C301B2010E94A2394B015C01A70167
:104F700096016B8D7C8D8D8D9E8D0E94A2399B013B
:104F8000AC01C501B4010E944A362DA93EA94FA922
:104F900058AD0E94CA366B017C019BA192FF68C18B
:104FA0002DEB37E346E055EBC701B6010E946239AD
:104FB00087FD0AC02BED3FE049EC50E4C701B60184
:104FC0000E944A366B017C0180908506909086068F
:104FD000A0908706B09088062F8D38A149A15AA1CC
:104FE000CA01B9010E944B36A50194010E944A36BC
:104FF000A50194010E94A2390E94413A4B015C0133
:1050000020E030E040E05FE3C701B6010E94A23932
:105010002F8D38A149A15AA10E94A2399F77A501DD
:1050200094010E944A370E942F380E94C3377EABFA
:105030006DABDB01AB2B09F47ACE1D8990E080E0EB
:105040000E94F2374B015C0113FF0EC0AC019B01C3
:105050006D857E858F8598890E94A2396D877E87B0
:105060008F87988B177F1D8BA5019401C701B6010F
:105070000E944A376BA37CA38DA39EA32296EFAD1B
:105080002297B4E0EB9FC00111248C010754194F03
:10509000815F984FD8012D913D914D915C91FC011C
:1050A00060817181828193810E944A36A5019401B9
:1050B0000E944A3729966CAF7DAF8EAF9FAF29977C
:1050C0002BA13CA14DA15EA1CA01B9010E94A23948
:1050D0009B01AC0160E070E080E090E40E944A3601
:1050E0006B017C012BEA3AEA4AE25EE36BA17CA108
:1050F0008DA19EA10E94A2394B015C0120E030E00D
:1051000040E850E4C701B6010E944B369B01AC0158
:10511000C501B4010E94A23921966CAF7DAF8EAF5C
:105120009FAF219720E030E040E05FE3C701B60188
:105130000E94A23925966CAF7DAF8EAF9FAF2597A9
:105140001F8E22242394312CEDA9FEA9E215F3052C
:1051500009F4EDCDFF8DFC3008F09EC0A301920153
:1051600021966CAD7DAD8EAD9FAD21970E94A23989
:105170006B017C012B8D3C8D4D8D5E8D25966CAD2C
:105180007DAD8EAD9FAD25970E94A2399B01AC01EC
:10519000C701B6010E944B367B016C01A30192014D
:1051A00025966CAD7DAD8EAD9FAD25970E94A23941
:1051B0004B015C012B8D3C8D4D8D5E8D21966CAD30
:1051C0007DAD8EAD9FAD21970E94A2399B01AC01B0
:1051D000C501B4010E944A362B013C012F8D2F5F7F
:1051E0002F8F470156018B8E9C8EAD8EBE8EA301F4
:1051F00092016DA57EA58FA598A90E944B36EFA1BF
:10520000F8A560837183828393832B8D3C8D4D8DB4
:105210005E8D69A97AA98BA99CA90E944B36A9AD7C
:10522000BAAD6D937D938D939C93139729962CAD76
:105230003DAD4EAD5FAD2997F801608171818281EE
:1052400093810E944B36D8016D937D938D939C93EF
:105250001397BE01635F7F4F89EB96E00E94801C2D
:1052600080913B0681116ACDBFEF2B1A3B0A6CCFB0
:105270002DEB37E346E055E3C701B6010E94403706
:1052800018160CF4A1CE2BED3FE049EC50E4C70119
:10529000B6010E944B3696CEB10190E080E00E94AC
:1052A000F2372BA13CA14DA15EA10E94A2396B0156
:1052B0007C010E9445376B8F7C8F8D8F9E8FC7013D
:1052C000B6010E94333A4B015C01A9A5BAA5CD9065
:1052D000DD90ED90FC90F7FAF094F7F8F094ABAD18
:1052E000BCAD8D919D910D90BC91A02D8F8F98A3F9
:1052F000A9A3BAA3A70196016B8D7C8D8D8D9E8D80
:105300000E94A2392B013C012F8D38A149A15AA13D
:10531000C501B4010E94A2399B01AC01C301B201D5
:105320000E944B362B013C01A7019601C501B40137
:105330000E94A2396B017C012F8D38A149A15AA18D
:105340006B8D7C8D8D8D9E8D0E94A2399B01AC0151
:10535000C701B6010E944A366B8F7C8F8D8F9E8F5E
:105360001F8E45CF8D8984608D8B80913A06823067
:1053700009F4E4CC0E94E81880913B06811119C021
:10538000FBA1F071FF2E10923F062BA123FB882773
:1053900080F90E94D70386B1807290912006891708
:1053A00019F184E00E9449020E94D31780E00E9414
:1053B000D7038091E9068093A806882311F40C9402
:1053C000311E0E94E8188091A80690913A06833019
:1053D00009F04DC0923029F088E00E9459020E94E5
:1053E000D3171092A806ECC8B8018FE097E00E948E
:1053F000801C81E08093390682E00E9459020E945D
:10540000D31780913B068111D4CF80913A06811148
:10541000F6CF80913906813031F5FF2001F18CE023
:10542000E1E2F6E0ADE2B6E001900D928A95E1F797
:105430001092390680E00E94D7030E94D3170E9481
:105440000C130E94F6090E9482060E945806809161
:105450003F06882309F472CC0E943209AACF85E066
:105460000E944902E5CF81E080933F06E1CF81E0D1
:105470008093A1061092A5061092A4061092A2068F
:105480001092A7061092AA061092A90684E68093AD
:10549000420680934306809344069230A1F065EC67
:1054A00076E080E00E945119882311F40C94D420F6
:1054B0000E941A1940E050E0BA0180E00E94120BED
:1054C00080E00E94EA0986EE92E00E94ED048DE7FA
:1054D00092E00E94ED040E94530683CF81E00C9479
:1054E000311E82E00C94311E88E10C94311E86E25C
:1054F0000C94311E89E10C94311E84E00C94311E11
:105500008BE10C94311E85E20C94311E80E20C94E8
:10551000311E82E20C94311E84E20C94311E80E133
:105520000C94311E8FE00C94311ECF93DF93C0E0BA
:105530008C2F0E94F918811114C010921B078EE362
:105540000E94AE030E94CA038AE30E94AE0387E072
:105550000E94FF04C13019F4DF91CF910895C1E09A
:10556000E7CF80911B078823A9F30E94E01CD82F66
:105570008EE30E94AE030E94CA038AE30E94AE0338
:105580008D2F0E940B05E6CF2F923F924F925F9294
:105590006F927F928F929F92AF92BF92CF92DF9243
:1055A000EF92FF920F931F93CF93DF93CDB7DEB7A8
:1055B000A2970FB6F894DEBF0FBECDBF90913B0609
:1055C000911177C18A8FFE013D9689E0DF011D921E
:1055D0008A95E9F786E08D8B2DEC3CEC4CE45DEB95
:1055E00060917406709175068091760690917706A9
:1055F0000E94A2396B017C0120E030E048EC51E4CC
:105600000E94403787FFA9C020E030E040E250E42C
:10561000C701B6010E94623918160CF0A5C020918E
:105620004C0630914D0640914E0650914F06C701F1
:10563000B6010E94A2390E94BC376D8F7E8F8F8F7A
:1056400098A39CE4A92E96E0B92EFE0176964F0110
:1056500010E000E0C12CD12C7601FA8D2F2E312CD8
:10566000802F94E0002321F090E1013009F498E0CC
:10567000D4019D934D01F10102C0F595E7958A95FE
:10568000E2F7E0FF17C020E030E040EC5FEBD5012F
:1056900094966D917D918D919C9197970E94A239DE
:1056A0002B013C01A70196010E94403787FD02C0F3
:1056B000620173010F5F1F4FB4E0AB0EB11C0330EA
:1056C000110571F68090970690909806A090990623
:1056D000B0909A06E4E0E98F01E061E276E0CE0165
:1056E00001960E94C1021092410680919206282FD5
:1056F00030E03C8F2B8FFE01319681E2682E86E0F0
:10570000782E7AA269A230E020E010E0512C412CE2
:10571000B701A6017058C101042C02C09595879568
:105720000A94E2F780FF39C02F5FA9A1BAA11D92A8
:105730001D921D921C9213978B8D9C8D042C02C080
:10574000959587950A94E2F780FF15C00023A9F08C
:10575000408351836283738314C0C12CD12C38ECF5
:10576000E32E31E4F32E5BCFC12CD12C20E2E22ECC
:1057700020E4F22E54CF002359F3C082D182E2827A
:10578000F38286E190E08C0F9D1F840D951DDC0156
:105790008C91182B411001C030E1BFEF4B1A5B0A0E
:1057A000349689A19AA104969AA389A393E04916F5
:1057B000510409F0B0CF30934106622F70E090E0C1
:1057C00080E00E94F2370E94413A10934006A50102
:1057D00094010E94A2396D877E878F87988BBE01C6
:1057E000635F7F4FCE0101960E94CF19A4E0A09382
:1057F0003E060E94380B0E945503B12CC12CD12CBF
:105800007601002309F470C00E94F008FE0176962C
:1058100030E020E0482F50E09191692F612379F02A
:10582000BA01022E02C0759567950A94E2F760FFEF
:1058300006C090951923211102C06894B1F82F5F1A
:105840003F4F2330310541F71093400690914106B8
:10585000992309F447C083FF45C01092410668941C
:10586000B2F8B0FEADC08B2D8670863009F4B3C09F
:105870008091210690912206F601E81BF90BCF01D9
:10588000F7FF03C0919581959109092E000CAA0B91
:10589000BB0B2D8D3E8D4F8D58A1281739074A0718
:1058A0005B0714F58AE00E9449020E944E130E9491
:1058B000D317A2960FB6F894DEBF0FBECDBFDF910F
:1058C000CF911F910F91FF90EF90DF90CF90BF90FD
:1058D000AF909F908F907F906F905F904F903F9090
:1058E0002F900895B110BDCF0E94380B80911C06F7
:1058F000847309F472C010911C0614FF03C086E083
:105900000E94490215FF03C087E00E94490201116D
:105910007DC00E94F0083A8D832319F088E00E9430
:10592000490280911D068111C0CF84E00E944F0280
:105930000E940C1380919B0690919C06019708F0A1
:1059400055C0E1E00E27C0909D06D0909E06E090E5
:105950009F06F090A006002309F44FC020E030E03D
:1059600040EA50E4C701B6010E94A2396B017C01F4
:105970008090930690909406A0909506B09096061D
:10598000F98DF150F98FF111A8CE90E080E09101EE
:10599000082E02C0359527950A94E2F720FF06C02D
:1059A000D3011D921D921D921C9213970196B4E093
:1059B0006B0E711C8330910551F710923E0679CF22
:1059C0006894B0F8C0902106D0902206E09023069B
:1059D000F090240689CFB12C87CF812F8C7109F0EC
:1059E00010CF8091410681110CCFA2CFAFE9BFE06B
:1059F0001197F1F700C00000A1CF8090970690901A
:105A00009806A0909906B0909A06BACF12FF89CF57
:105A100089E085CF1F920F920FB60F9211242F931A
:105A20003F934F935F936F937F938F939F93AF9326
:105A3000BF93CF93EF93FF93809160008F7B809310
:105A400060000E94FD02C82F882389F080FD0E941B
:105A50004E13C2FF05C080911C06826080931C0615
:105A6000C1FF05C080911C06886080931C06FF91D1
:105A7000EF91CF91BF91AF919F918F917F916F9156
:105A80005F914F913F912F910F900FBE0F901F90FC
:105A900018951F920F920FB60F9211248F93809139
:105AA000600086FD05C08091600080648093600086
:105AB0008F910F900FBE0F901F9018951F920F920D
:105AC0000FB60F9211248F939F939BB18091110277
:105AD0008C71937E892B8BB998B180910F02807164
