:100000000C9473010C9485010C9485010C94D82EEA
:100010000C94712B0C9485010C9485010C94850132
:100020000C9485010C9485010C9485010C94C82BCB
:100030000C9485010C9485010C9485010C94850128
:100040000C94AB2B0C9485010C940E2E0C94AE2EBC
:100050000C9485010C9485010C9485010C94850108
:100060000C9485010C948501084AD73B3BCE016E68
:1000700084BCBFFDC12F3D6C74319ABD56833DDAFF
:100080003D00C77F11BED9E4BB4C3E916BAAAABE0E
:10009000000000803F05A84CCDB2D44EB93836A937
:1000A000020C50B9918688083CA6AAAA2ABE000074
:1000B00000803F000D0A4772626C20312E316820AB
:1000C0005175616E74756D204D696E69205B2724D2
:1000D0002720666F722068656C705D0D0A00244EE3
:1000E000005B4F50543A005B5645523A312E31680E
:1000F000205175616E74756D204D696E692E3230B8
:100100003232303230323A005B544C4F3A005B4767
:1001100039323A003330003238005B470020470064
:10012000204D0020460020540033382E005B47430A
:100130003A47005B484C503A24242024232024478B
:1001400020244920244E2024783D76616C20244EC2
:10015000783D6C696E6520244A3D6C696E6520248B
:10016000534C50202443202458202448207E202112
:10017000203F206374726C2D785D0D0A00414C4164
:10018000524D3A007C413A007C4F763A007C57430E
:100190004F3A007C506E3A007C463A007C42663A08
:1001A000007C57506F733A007C4D506F733A005388
:1001B0006C65657000446F6F723A00436865636BED
:1001C00000416C61726D00486F6D65004A6F670099
:1001D000486F6C643A0052756E0049646C65000D9E
:1001E0000A005B5052423A006572726F723A000028
:1001F00000A0420000A0420000C84300401C46008E
:10020000401C460000FA4400BADB4900BADB490052
:10021000BADB490080CBC30080CBC30000C4C20A54
:10022000000019010AD7233C6F12033B00007A44F7
:1002300000000000300300007A430000FA44FA0096
:100240000000A0406F6B0D0A00536C656570696E0D
:100250006700526573746F72696E67207370696EA0
:10026000646C6500526573746F72696E67206465B3
:100270006661756C74730050676D20456E64004351
:100280006865636B204C696D6974730043686563CE
:100290006B20446F6F720044697361626C65640027
:1002A000456E61626C65640043617574696F6E3A96
:1002B00020556E6C6F636B656400272448277C278C
:1002C00024582720746F20756E6C6F636B00526525
:1002D00073657420746F20636F6E74696E7565004A
:1002E0005B4D53473A0011241FBECFEFD8E0DEBF6D
:1002F000CDBF27E0A0E0B1E001C01D92A131B2075F
:10030000E1F70E94072F0C9439390C9400008F926A
:100310009F92AF92BF92CF92DF92EF92FF920F9394
:100320001F93CF93DF937C016B01DC01EC91F0E034
:10033000EF53F94F8081EF018D3229F522968181AB
:1003400001E0912CF0E010E020E030E0A9015E0136
:10035000E0EDE80FEA3018F5FF5FF930E0F49110B6
:100360001150A5E0B0E00E9412399B01AC01220FB0
:10037000331F441F551F2E0F311D411D511D219646
:10038000D5018C91E4CF8B3219F0219600E0D9CFC2
:1003900022968181FBCF9110F2CF1F5FF0CFEE3F0D
:1003A00029F4911003C099249394E9CFFF23F9F025
:1003B000CA01B9010E9411364B015C0120E030E016
:1003C000A9010E945F3581112BC0002309F445C0AB
:1003D000B7FAB094B7F8B094F60180829182A28205
:1003E000B382C15CD640C150F701C083F1E08F2FCA
:1003F000DF91CF911F910F91FF90EF90DF90CF9001
:10040000BF90AF909F908F9008952AE037ED43E220
:100410005CE3C501B4010E94C1374B015C011E5F62
:100420001F3F9CF31F3F59F42DEC3CEC4CEC5DE37B
:10043000C501B4010E94C1374B015C01C6CF112335
:1004400021F220E030E040E251E4C501B4010E9415
:10045000C1374B015C011150F2CFD6018D929D92B4
:10046000AD92BC921397BDCF2FB7F8949091C90568
:10047000892B8093C9052FBF08952FB7F8949091C9
:10048000C805892B8093C8052FBF08959FB7F8949E
:100490008093C7059FBF08959FB7F8942091C60524
:1004A000809582238093C6059FBF08952FB7F89447
:1004B0009091C605892B8093C6052FBF08958F9212
:1004C0009F92AF92BF92CF92DF92EF92FF920F93E3
:1004D0001F93CF93DF93E0903806F12C6C0102EF6D
:1004E00015E0D0E0C0E0F60181909190A190B1902C
:1004F0006F01C7010C2E02C0959587950A94E2F70B
:1005000020E030E0A90180FF14C0C501B4010E94C1
:100510005F3587FD0CC0F80164A175A186A197A184
:100520009058A50194010E945F3587FF13C081E0B8
:1005300018C0C501B4010E9481371816C4F3A50183
:100540009401F80164A175A186A197A10E94813749
:1005500018166CF321960C5F1F4FC330D10519F6A6
:1005600080E0DF91CF911F910F91FF90EF90DF908E
:10057000CF90BF90AF909F908F9008958F929F9251
:10058000AF92BF92CF92DF92EF92FF920F931F93A1
:10059000CF93DF93EB0122EFE22E25E0F22E8C01C8
:1005A0006B018CE0C80ED11C699179918991999168
:1005B000F70181909190A190B1907F010E94133634
:1005C000A50194010E946935F801619371938193AB
:1005D00091938F01CC15DD0539F7DF91CF911F91F4
:1005E0000F91FF90EF90DF90CF90BF90AF909F90D2
:1005F0008F90089596B19095892F877039F082E099
:1006000091FF80E090FD816092FD84600895CF931A
:10061000DF93C091C405D091C5052097C9F08091A2
:100620009A05816080939A056091B0057091B1053B
:100630008091B2059091B3059B01AC010E94C13736
:100640006A8B7B8B8C8B9D8B1092C5051092C40599
:10065000DF91CF91089530912306632F20912406D6
:10066000422F94E030FF90E080E220FF80E061FDC7
:10067000986041FD806462FD906142FD80689093C6
:100680000D0280930E0210920B0210920C0233FFA7
:1006900003C080E180930B0223FF03C080E28093BC
:1006A0000C0208958091370682FF13C0289A80912A
:1006B0000D0280931E02809122068250990B880FB2
:1006C000819580931D0280916F00826080936F00FE
:1006D00008952898ECCF9091E505911105C08111FE
:1006E00004C043981092F0050895439AFBCF3B9ABB
:1006F00043980895E0911D0191E09E0F993609F409
:1007000090E020918701291761F0F0E0E25EFE4F52
:10071000808390931D018091C10080628093C1000D
:1007200004C02091C60524FFECCF0895CF93DF933A
:10073000C1ECD6E08991811103C0DF91CF9108957A
:100740000E947A03F7CF1092CA059091370697FD61
:1007500003C090E29093CA05882331F08091CA05C6
:1007600090E289278093CA0508958F929F92AF9255
:10077000BF92CF92DF92EF92FF920F931F93CF938E
:10078000DF93CDB7DEB72D970FB6F894DEBF0FBE5F
:10079000CDBF6B017C01042F20E030E0A9010E9455
:1007A0005F3587FF07C08DE20E947A03F7FAF09465
:1007B000F7F8F094102F123008F054C000FF0AC070
:1007C00020E030E040E251E4C701B6010E94C137A9
:1007D0006B017C0120E030E040E05FE3C701B6013F
:1007E0000E946A340E94DB3510E03AE0832E912C9F
:1007F000A12CB12CE12FF0E0611571058105910567
:10080000E9F581E090E08C0F9D1FE80FF91F80E370
:10081000101708F445C0101309C0E1E0F0E0EC0F38
:10082000FD1FE10FF11D80E380831F5FEE24E39441
:10083000F12CEC0EFD1EE10EF11C111134C02D96B1
:100840000FB6F894DEBF0FBECDBFDF91CF911F91E1
:100850000F91FF90EF90DF90CF90BF90AF909F905F
:100860008F90089520E030E048EC52E4C701B601D3
:100870000E94C1376B017C0112509DCFEE24E3949E
:10088000F12CEC0EFD1EEE0EFF1EA50194010E9440
:10089000EA38605DF7016083B901CA011F5FAACF22
:1008A0001F5F8193B5CF101303C08EE20E947A03BD
:1008B000F70182917F010E947A031150BECF2091EF
:1008C000370640E020FF07C02BE832E441E25DE359
:1008D0000E94C13741E00C94B5032091370643E0F4
:1008E00020FF07C02BE832E441E25DE30E94C137FC
:1008F00044E00C94B5030F931F93CF938C01C0E099
:10090000F80161917191819191918F010E946D0423
:10091000C23019F08CE20E947A03CF5FC33081F7B6
:10092000CF911F910F910895CF93DF93843658F0A4
:100930006AE00E94CA38C0E3C90F6AE00E94CA3860
:10094000D0E3D90F04C0C0E0D0E08A30B0F7805DBA
:100950000E947A03DD2319F08D2F0E947A03CC23A5
:1009600029F08C2FDF91CF910C947A03DF91CF91F6
:100970000895CF93DF93EC01FE01849121968111BC
:1009800003C0DF91CF9108950E947A03F5CF8FEDD8
:1009900091E00C94B904CF93C82F88EE91E00E94A7
:1009A000B9048C2F0E949404CF910C94C704811138
:1009B00004C084E492E00C94B9040C94CB04CF926C
:1009C000DF92EF92FF92CF93DF93D82F6A017B01E2
:1009D000C22F84E20E947A038D2F0E9494048DE33B
:1009E0000E947A034C2FC701B6010E94B503DF9124
:1009F000CF91FF90EF90DF90CF900C94C704CF93EE
:100A0000DF93D82FC62F84E20E947A038D2F0E9495
:100A100094048DE30E947A038C2F0E949404DF914A
:100A2000CF910C94C704EF92FF920F931F93CF9333
:100A3000DF936091220670E080E00E94FF046091E5
:100A4000250670E081E00E94FF046091230670E0BB
:100A500082E00E94FF046091240670E083E00E941F
:100A6000FF046091370662FB662760F970E084E05E
:100A70000E94FF046091370666FB662760F970E00C
:100A800085E00E94FF0480913706082E000C990B28
:100A9000692F661F6627661F70E086E00E94FF04CC
:100AA0006091260670E08AE00E94FF0440912706CC
:100AB000509128066091290670912A0623E08BE068
:100AC0000E94DF0440912B0650912C0660912D0668
:100AD00070912E0623E08CE00E94DF0460913706BF
:100AE000617070E08DE00E94FF046091370665FB45
:100AF000662760F970E084E10E94FF046091370688
:100B000063FB662760F970E085E10E94FF04609155
:100B100037066295617070E086E10E94FF04609183
:100B2000380670E087E10E94FF0440913906509139
:100B30003A0660913B0670913C0623E088E10E94F2
:100B4000DF0440913D0650913E0660913F06709152
:100B5000400623E089E10E94DF0460914106709124
:100B600042068AE10E94FF044091430650914406E8
:100B7000609145067091460623E08BE10E94DF04F8
:100B800040912F06509130066091310670913206E7
:100B900020E08EE10E94DF0440913306509134063C
:100BA000609135067091360620E08FE10E94DF04E7
:100BB00070E060E080E20E94FF0484E6F82E10E01E
:100BC000C2EFD5E000E0E02EEF0C123011F113304F
:100BD00069F11130C9F0488159816A817B8123E034
:100BE0008E2D0E94DF040F5F2496033061F78AE0A8
:100BF000F80E1F5F8CE8F812E3CFDF91CF911F91C1
:100C00000F91FF90EF9008954C855D856E857F85EF
:100C1000E6CF20E030E041E655E4688D798D8A8D9D
:100C20009B8D0E946935AB01BC01D9CF4CA15DA160
:100C30006EA17FA17058D3CF8DE50E947A030C94EA
:100C4000C704CF93DF93CDB7DEB72C970FB6F894D8
:100C5000DEBF0FBECDBF82EE91E00E94B90467ED0A
:100C600075E0CE0101960E94BE02CE0101960E945F
:100C70007B048AE30E947A038091E9050E94940430
:100C80000E941C062C960FB6F894DEBF0FBECDBF97
:100C9000DF91CF910895E1E0F1E0ABECB5E04D914B
:100CA0005D916D917C91139740835183628373832F
:100CB00014964D915D916D917C9117974483558366
:100CC0006683778318968D919D910D90BC91A02D90
:100CD00080879187A287B3870895BF92CF92DF92D2
:100CE000EF92FF920F931F93CF93DF937C01FC0150
:100CF00002A513A5D4A5C5A5818980FF33C0609145
:100D0000ED0570E090E080E00E9413362AE037EDB8
:100D100043E25CE30E94C1379B01AC01B8018D2F17
:100D20009C2F0E94C1378B01D82FC92F20E030E0C3
:100D300040E85FE3B8018D2F9C2F0E948137181681
:100D400024F000E010E0D0E8CFE3B8018D2F9C2F15
:100D5000DF91CF911F910F91FF90EF90DF90CF9097
:100D6000BF90089582FD17C06091EC0570E090E09F
:100D700080E00E9413362AE037ED43E25CE30E94F4
:100D8000C1379B01AC01B8018D2F9C2F0E94C13748
:100D90008B01D82FC92FF701B6A0C7A0D0A4F1A40A
:100DA00098014D2F5C2F6B2D7C2D8D2D9F2D0E943A
:100DB0005F3587FFBBCF0B2D1C2DDD2DCF2DB6CF83
:100DC0008091360290911705981739F02EE2829F94
:100DD000C0011124895C9D4F089590E080E0089542
:100DE0000E94E006892B19F082E00C9456020895C7
:100DF0002F923F924F925F926F927F928F929F922B
:100E0000AF92BF92CF92DF92EF92FF920F931F9318
:100E1000CF93DF9300D000D0CDB7DEB70091170598
:100E2000002309F486C00983398131503983109138
:100E30003502131709F466C0C32ED12CEEE23E9F93
:100E4000C00111249C01295C3D4F7901F90176888C
:100E50008788908CA18C628D738D848D958D9B017C
:100E6000AC010E946A34F701268D378D40A151A153
:100E70000E94C137B62EE72EF82E9B83262F372FE0
:100E8000482F592F672D782D892D9A2D0E945F3577
:100E900087FF03C0B72C7401AB828EE28C9DF001FA
:100EA0008D9DF00D1124E95CFD4F8B2D9E2DAF2DF6
:100EB000BB81828B938BA48BB58BF9818F2FF11122
:100EC00001C080E1FF24FA94F80E309036021F1121
:100ED00033C0131102C00E940703EEE21E9FC0013F
:100EE0001124895C9D4F9A83898333243394310E76
:100EF000F0E13F1201C0312C8EE2282E031185C093
:100F0000109335020F900F900F900F90DF91CF91BB
:100F10001F910F91FF90EF90DF90CF90BF90AF9017
:100F20009F908F907F906F905F904F903F902F9009
:100F3000089520E1298378CF29818EE2289F9001AE
:100F40001124295C3D4F3C832B832EE2E22E8F2C13
:100F5000912CFE9CC0011124FC01E95CFD4FFA8339
:100F6000E983F11002C090E1F92EFA94F31002C067
:100F70000E940703E89CC001E99C900D11249C018C
:100F8000295C3D4F6901F90146885788608C718C56
:100F9000A301920162897389848995890E945F35D2
:100FA000882339F1F601628D738D848D958D9B01B7
:100FB000AC010E946A34F601268D378D40A151A103
:100FC0000E94C137EB81FC8122893389448955898C
:100FD0000E946A344B015C01AC019B01C301B20168
:100FE0000E948137F60118165CF4828A938AA48ADB
:100FF000B58A29813A813C832B831F11A8CF6DCFFD
:10100000428A538A648A758AF4CFC32CD12C329CCD
:10101000C00111249C01295C3D4F7901E981FA81CD
:101020004288538864887588F90182889388A488E7
:10103000B588A5019401C301B2010E945F3587FF05
:1010400026C0E981FA81628D738D848D958D9B0117
:10105000AC010E946A34E981FA81268D378D40A166
:1010600051A10E94C137A30192010E946A342B0151
:101070003C01AC019B01C501B4010E9481371816E7
:1010800034F4F701428A538A648A758A132D2C9CA2
:10109000F0012D9CF00D1124E95CFD4F2689378964
:1010A000408D518D62897389848995890E945F354D
:1010B000811101C0132D3394F0E13F1201C0312C96
:1010C000FA82E9821BCF6F927F928F929F92AF92AA
:1010D000BF92CF92DF92EF92FF920F931F93CF9325
:1010E000DF93EB018C015B018CE0A80EB11C89E958
:1010F000682E96E7792E26E9822E3EE7932EC99038
:10110000D990E990F99020E030E0A901C701B6013B
:101110000E945F358823B9F0A7019601F80160812C
:101120007181828193810E9469356B017C01E89411
:10113000F7F89301A401C701B6010E948137181680
:1011400014F0360147010C5F1F4FCA15DB05B9F6D5
:10115000B301C401DF91CF911F910F91FF90EF90E8
:10116000DF90CF90BF90AF909F908F907F906F90C7
:10117000089593B18091370686FF0BC09E7059F099
:1011800091FB882780F992FD8260987029F08C602D
:1011900008959095F3CF80E00895EBE6F0E080812C
:1011A000817F8083E8E6F0E080818E7F80830895F0
:1011B00084B1817F84B985B18E6085B9809137060D
:1011C00083FF0BC080916B008E6080936B008091D9
:1011D000680081608093680008950C94CD086BECE2
:1011E00075E08FE596E00C94BE02F894F999FECF75
:1011F00092BD81BD81E08FBB20B5862F8227082E4E
:10120000000C990B50E086239523892B49F084E14B
:101210006F3F11F060BD84E08FBBF99A7894089518
:101220002617E1F360BD84E2F7CF9F92AF92BF92A1
:10123000CF92DF92EF92FF920F931F93CF93DF93A2
:101240005C018A017B01E40EF51EEB01912C6C011F
:10125000C61AD70ACE018C0D9D1D21E0911007C042
:10126000292D990C330B232F221F2227221F69912E
:10127000962E920E0E94F508CE15DF0559F7692DBE
:10128000C501800F911FDF91CF911F910F91FF90AA
:10129000EF90DF90CF90BF90AF909F900C94F508A7
:1012A0006AE090E080E00E94F50845E550E062EFDA
:1012B00075E081E090E00C941509F999FECF92BD9C
:1012C00081BD81E08FBB80B508959F92AF92BF92A0
:1012D000CF92DF92EF92FF920F931F93CF93DF9302
:1012E0005B018A017C01E40EF51EEC01912C6B017F
:1012F000C81AD90AC6018C0F9D1F0E945D0921E002
:10130000911007C0292D990C330B232F221F222760
:10131000221F982E920E8993CE15DF0559F7C5012D
:10132000800F911F0E945D0921E030E0891511F0C6
:1013300030E020E0C901DF91CF911F910F91FF9024
:10134000EF90DF90CF90BF90AF909F9008959091D5
:10135000E505911105C086FF04C0449A1092F0057E
:1013600008954498FBCFE1E0F1E08CE1DF011D92AC
:101370008A95E9F7109236021092170581E0809362
:1013800000011092350208954F925F926F927F9202
:10139000AF92BF92CF92DF92EF92FF920F931F9383
:1013A000CF93DF93EC015C012CE0A20EB11C8C0109
:1013B000C12CD12C7601F80141905190619071902F
:1013C0008F0120E030E0A901C301B2010E945F3526
:1013D000882371F0A3019201C301B2010E94C137B9
:1013E0009B01AC01C701B6010E946A346B017C010C
:1013F0000A151B0501F7C701B6010E9460386B0191
:101400007C01AC019B0160E070E080E89FE30E94FA
:1014100069352B013C0169917991899199915E011E
:10142000F4E0AF1AB108A30192010E94C137F5019F
:101430006083718382839383C017D10761F7C701EB
:10144000B601DF91CF911F910F91FF90EF90DF9048
:10145000CF90BF90AF907F906F905F904F90089526
:101460002F923F924F925F926F927F928F929F92B4
:10147000AF92BF92CF92DF92EF92FF920F931F93A2
:10148000CF93DF93CDB7DEB7C654D1090FB6F8942A
:10149000DEBF0FBECDBF2091E8052AA320FDD6C632
:1014A00024702BAB3091170539AF4EE2349FC00149
:1014B0001124DC01A95CBD4F2396BFAFAEAF2397CB
:1014C000BAA1B270BCAB409136024AAF4F5F4D8FAC
:1014D000403109F44DC74BAF5EE2ABAD5A9FC0013E
:1014E0001124FC01E75BFD4F2596FFAFEEAF25977A
:1014F0009091180580911905981709F4A7C6809155
:10150000C4059091C505892B09F079C0EBA9EE239C
:1015100009F40FC223962EAD3FAD23973093C50536
:101520002093C4054091C4055091C5055A87498749
:10153000452B09F48BC610919A0510FF01C2109239
:101540009A051092AC051092AD051092AE0510925E
:10155000AF05A985BA855A962D913D914D915C9123
:101560005D9729833A834B835C8360E070E080E081
:101570009FE30E9469356D837E838F839887E98519
:10158000FA85468C578C60A071A082889388A488C5
:10159000B588FCA9FF2309F4A8C222E02093AB057B
:1015A000A50194010E94C1379B01AC01C301B201A6
:1015B0000E9469346B017C0120E030E0A9010E94A7
:1015C0005F3587FF81C229813A814B815C81CA01E5
:1015D000B9010E946A34A30192010E94C1379B01A4
:1015E000AC01C501B4010E9469340E946038609367
:1015F000B8057093B9058093BA059093BB058091A7
:101600003E05482F50E05A8B498B86E0849FF001BD
:10161000859FF00D1124E65EFA4F80919905848331
:10162000A091C405B091C505BE87AD875E96BC91FB
:10163000BFA3ED85FE85F78DF8A7AD85BE85909695
:10164000BC91B9A7ED85FE85F1A1FAA72091A70568
:101650003091A8054091A9055091AA056FA178A5E0
:101660008B2F9F2F0E9469346DAB7EAB8FAB98AFF1
:1016700020E030E0A9010E945F3587FF04C01DAA69
:101680001EAA1FAA18AE2091B4052D8B3091B50566
:101690003E8B4091B6054F8B5091B705588F809186
:1016A000BC058E8F9091BD059F8FA091BE05A8A30C
:1016B000B091BF05B9A3E091C005EBA7F091C105BA
:1016C000FCA72091C2052DA73091C3053EA73090FD
:1016D000B0052090B1054091B20527964FAF2797EE
:1016E0005091B30526965FAF26978091AB05898709
:1016F0009091AC059FA7A091AD05A8ABB091AE05A8
:10170000B9ABE091AF05EAABF091B805FDAF209120
:10171000B9052EAF3091BA053FAF4091BB05219678
:101720004FAF21972BA53CA54DA55EA56E8D7F8D56
:1017300088A199A10E945F35811160C352E05CAF1E
:101740009FA1998FA8A5AA8FB9A5BB8FEAA5EC8FF9
:101750008EE3C82E83ECD82E8EE2E82E89E3F82E95
:10176000412C512C3201A70196012BA33CA34DA380
:101770005EA35985513009F4FEC3AD85BE85513055
:1017800008F476C3533009F02CC45A962D913D913C
:101790004D915C915D97C701B6010E94C1374B0125
:1017A0005C012D893E894F89588D632D722D2796B6
:1017B0008FAD279726969FAD26970E9469349B018F
:1017C000AC01C501B4010E94813787FD21C32E8D74
:1017D0003F8D48A159A16FA178A589A59AA50E941E
:1017E00069349B01AC010E946A346B017C01232D9A
:1017F000322D27964FAD279726965FAD26976D8998
:101800007E898F89988D0E946A349B01AC01C70143
:10181000B6010E9469356B017C013D882E88BF8925
:101820002796BFAF2797E88D2696EFAF26970E8DA8
:101830001F8DF8A1F98329A12D8331E03987A701F4
:101840009601C301B2010E946A342B013C012BA115
:101850003CA14DA15EA10E945F3587FF41C4A30159
:1018600092016BA17CA18DA19EA10E9469346B01A4
:101870007C01980149815D816FA578A989A99AA900
:101880000E945F3587FDBDC239853093AB05832D3E
:10189000922D2796AFAD27972696BFAD26978093BA
:1018A000B0059093B105A093B205B093B305209114
:1018B000A3053091A4054091A5055091A605B80156
:1018C00089819D810E94C13769877A878B879C8730
:1018D0000E9448356B017C0160919F057091A005C5
:1018E0008091A1059091A2050E9448354B015C01B1
:1018F000A70196010E9469340E94E2356D877E87B8
:101900008F87988BA6E089899A89A89FF001A99F63
:10191000F00D1124E65EFA4F2D853E85318320833C
:10192000232B09F0FDC35CA9552309F4F9C38AA14F
:101930008AC40E94E0069093C5058093C405F2CD49
:10194000809199058F5F853009F480E08093990537
:10195000482F50E0A985BA8550969C91B2E1B49F7A
:10196000F001B59FF00D1124E15CFA4F908B95FFCB
:1019700098C020E2218BA985BA8532E1839FC001FE
:10198000112430E020E0CD90DD90ED90FD90FC0141
:10199000E20FF31FE15CFA4F63E0CC0CDD1CEE1CA0
:1019A000FF1C6A95D1F7C082D182E282F3822C5F5C
:1019B0003F4F2C30310539F7A985BA851C966D91BA
:1019C0007D918D919C911F97B2E1B49F9001B59F3D
:1019D000300D1124F901E15CFA4F6B017C0123E029
:1019E000CC0CDD1CEE1CFF1C2A95D1F7C486D586D5
:1019F000E686F7860E94113660939F057093A005D6
:101A00008093A1059093A205E985FA85268D378DEF
:101A100040A151A10E9469359B01AC012093A3050F
:101A20003093A4054093A5055093A60560E070E0AF
:101A300080EA9FE30E9469356093A7057093A8052B
:101A40008093A9059093AA0510929B0510929C057E
:101A500010929D0510929E05FCA9F11102C013FF82
:101A600022C06091B8057091B9058091BA05909136
:101A7000BB056093B0057093B1058093B205909358
:101A8000B3059B01AC010E94C137A985BA85529666
:101A90006D937D938D939C935597177F10939A0523
:101AA00050CD118A68CFE985FA8562897389848966
:101AB00095890E9460386093B0057093B10580935A
:101AC000B2059093B3053DCDC092AC05D092AD0563
:101AD000E092AE05F092AF051092B8051092B905EC
:101AE0001092BA051092BB058ACD1092AB054092B8
:101AF000BC055092BD056092BE057092BF053BA922
:101B0000332309F46AC01092B8051092B9051092F7
:101B1000BA051092BB05C12CD12C760189859A8516
:101B20000E946D066D877E878F87988B9B01AC0125
:101B30000E94C13769877A878B879C87A5019401AA
:101B40000E945F3587FF8BC029853A854B855C8570
:101B5000C501B4010E9469342D813E814F815885B1
:101B60000E94C1379B01AC01C301B2010E946934DC
:101B70006093BC057093BD058093BE059093BF052F
:101B800020E030E0A9010E945F3518160CF441C036
:101B9000B2E0B093AB0529813A814B815C81CA01E7
:101BA000B9010E946A34A30192010E94C1379B01CE
:101BB000AC01C501B4010E9469340E946038609391
:101BC000B8057093B9058093BA059093BB058091D1
:101BD0009A05886080939A0512CD49AD5BADC12C02
:101BE000D12C7601451741F02596AEADBFAD2597B6
:101BF000CD90DD90ED90FC90C701B6010E94603859
:101C00006093B8057093B9058093BA059093BB05AE
:101C100085CFA701960169857A858B859C850E9471
:101C200069342D813E814F8158850E94C137609370
:101C3000C0057093C1058093C2059093C3052D859F
:101C40003E854F8558892093B4053093B505409360
:101C5000B6055093B70533E03093AB05D0CCA70160
:101C60009601C501B4010E9469342D813E814F81E6
:101C700058850E94C137A30192010E946A3420E076
:101C800030E040E05FE30E94C137698B7A8B8B8B39
:101C90009C8B20E030E0A9010E94813718160CF0DF
:101CA00094C0A301920169897A898B899C890E94D9
:101CB0005F3587FF88C0A701960169857A858B8586
:101CC0009C850E9469342D813E814F8158850E94F8
:101CD000C1379B01AC012093C0053093C1054093EF
:101CE000C2055093C30569897A898B899C890E94B2
:101CF00081371816BCF58D859E85AF85B889809390
:101D0000B4059093B505A093B605B093B705A501AA
:101D1000940169857A858B859C850E945F35811148
:101D200004C091E09093AB056ACCA501940169854C
:101D30007A858B859C850E9469342D813E814F81F7
:101D400058850E94C1379B01AC01C301B2010E94BA
:101D500069346093BC057093BD058093BE05909374
:101D6000BF054DCC29893A894B895C892093BC05F4
:101D70003093BD054093BE055093BF052093C00529
:101D80003093C1054093C2055093C30529813A8120
:101D90004B815C81CA01B9010E946A3429893A8960
:101DA0004B895C890E94C137A70196010E946A3461
:101DB0000E9460386093B4057093B5058093B605B2
:101DC0009093B7051CCC32E047CF8091B805909135
:101DD000B905A091BA05B091BB051092BC0510924F
:101DE000BD051092BE051092BF058093B405909377
:101DF000B505A093B605B093B70501CC81E08CAFD3
:101E00009FCC098F1A8F39813B8F4D814C8FB1CC7C
:101E100020E030E040E05FE3C501B4010E94C1373B
:101E20009B01AC01632D722D27968FAD27972696C7
:101E30009FAD26970E946934A70196010E94C13781
:101E40009B01AC01698D7A8D8B8D9C8D0E946934CC
:101E50008B0189839D83A5019401632D722D2796A3
:101E60008FAD279726969FAD26970E9469347AC03A
:101E70005A962D913D914D915C915D97C701B601A8
:101E80000E94C1374B015C0120E030E040E05FE39D
:101E90000E94C137232D322D27964FAD27972696C6
:101EA0005FAD26970E946A34A70196010E94C13750
:101EB0009B01AC01698D7A8D8B8D9C8D0E9469345C
:101EC0008B0189839D839B01AC016E8D7F8D88A1E1
:101ED00099A10E9481371816CCF52E8D3F8D48A10F
:101EE00059A16FA178A589A59AA50E9469349B0183
:101EF000AC010E946A346B017C01232D322D2796A0
:101F00004FAD279726965FAD26976D897E898F897D
:101F1000988D0E946A349B01AC01C701B6010E94F2
:101F200069356B017C013D882E88BF892796BFAF3C
:101F30002797E88D2696EFAF2697FCADF9870E8D93
:101F40001F8D28A1298339A13D8379CCA501940156
:101F5000632D722D27968FAD279726969FAD2697D6
:101F60000E946A34362E272E27968FAF2797269603
:101F70009FAF269764CC2D893E894F89588DC70124
:101F8000B6010E94C1379B01AC01698D7A8D8B8DA2
:101F90009C8D0E9469348B0189839D832BA53CA570
:101FA0004DA55EA50E945F3587FF49CC2BA53CA5BA
:101FB0004DA55EA5698D7A8D8B8D9C8D0E946934AF
:101FC0002D893E894F89588D0E9469356B017C01AE
:101FD0000BA51CA54DA549835EA55D8382E089877D
:101FE0002ECC5A962D913D914D915C915D97C701F4
:101FF000B6010E94C1374B015C01232D322D27967B
:102000004FAD279726965FAD26970E945F3587FFD5
:102010002CC020E030E040E05FE3C501B4010E9445
:10202000C1379B01AC01632D722D27968FAD279789
:1020300026969FAD26970E946934A70196010E94BB
:10204000C1379B01AC01698D7A8D8B8D9C8D0E946F
:1020500069348B0189839D832FA538A949A95AA981
:102060000E94813718160CF4F6CE2FA538A949A97D
:102070005AA9698D7A8D8B8D9C8D0E9469349B0144
:10208000AC010E946A346B017C01232D322D27960E
:102090004FAD279726965FAD26976DAD7EAD8FAD80
:1020A00021969FAD21970E946A349B01AC01C70124
:1020B000B6010E9469356B017C013DAC2EACBFAD11
:1020C0002796BFAF27972196EFAD21972696EFAFC2
:1020D00026970FA518A9F9A9F9832AA92D83AFCBB3
:1020E0002DA93EA94FA958ADB80189819D810E94B3
:1020F000813718168CF42EE333EC4EE259E36BA1D2
:102100007CA18DA19EA10E946A346BA37CA38DA3A8
:102110009EA3A3019201A9CB49854093AB05B7CB00
:1021200020919B0530919C0540919D0550919E0505
:10213000C301B2010E946A342B013C0129853A8512
:102140004B855C85C501B4010E9469349B01AC01DB
:10215000C301B2010E9469354B015C0120EC31EEF4
:1021600044E65EE40E94C1370E9448350E94E23591
:10217000603DA7E07A078105910508F081C046E03F
:1021800029893A89429FF001439FF00D1124E65EB0
:10219000FA4F158246E029893A89429FF001439F10
:1021A000F00D1124E65EFA4F738362838091190566
:1021B00080933E058F5F863009F4BBC0809319057C
:1021C000E091C405F091C505C801A981BD81868F44
:1021D000978FA0A3B1A3C0929F05D092A005E092D3
:1021E000A105F092A20529853A854B855C85C7013A
:1021F000B6010E946934A50194010E94C137609321
:102200009B0570939C0580939D0590939E0520915E
:10221000AC053091AD054091AE055091AF05B801C8
:1022200089819D810E945F35811162C920E030E083
:10223000A901B80189819D810E94813718160CF08F
:102240007BC08091E80581608093E805CA5BDF4F21
:102250000FB6F894DEBF0FBECDBFDF91CF911F91B7
:102260000F91FF90EF90DF90CF90BF90AF909F9035
:102270008F907F906F905F904F903F902F90089538
:10228000603A5FE0750781059105A0F526E0A98910
:10229000BA892A9FF0012B9FF00D1124E65EFA4FB8
:1022A00031E0358346E029893A89429FF001439F16
:1022B000F00D1124E65EFA4F2581022E04C096959A
:1022C0008795779567950A94D2F7AD85BE8502C04C
:1022D000AA0FBB1F2A95E2F7B183A0836115710590
:1022E000B1E08B07910508F455CF8FEF9FEF9383F3
:1022F00082835CCF60344FE174078105910560F4FF
:1023000026E0A989BA892A9FF0012B9FF00D11249C
:10231000E65EFA4F32E0C5CFA6E049895A89A49F0C
:10232000F001A59FF00D1124E65EFA4FB3E0B583EE
:10233000B9CF1092190544CF9BA99111F8CA1092F8
:10234000C5051092C405A9ADBAADAB1709F4D0C844
:10235000ED8DE03109F41D8E80913502FAADF81350
:1023600003C02D8D209335023D8D30933602ABC8CE
:102370001BAEB2C880916F008D7F80936F008091FB
:102380008100887F81608093810010920F0280918C
:1023900025069091E4058F3FA1F42091C7052111F6
:1023A00010C0903881F490E0019778F481E090912A
:1023B000370692FF02C091E08927882369F0289AA6
:1023C0000895943081F780E0F2CFEFE9FFE0319794
:1023D000F1F700C00000E8CF28980895CF93DF936D
:1023E0000E94BA11E9E9F5E08BE2DF011D928A95BE
:1023F000E9F7C0E1D2E085E2FE0111928A95E9F7A2
:102400001092C5051092C4051092180510923E0551
:1024100081E08093190510920F020E942B03809196
:102420000E028F878BB1837E90910D02892B8BB921
:102430008BB18F7190910E02892B8BB980910C0218
:10244000898B85B18F7E90910B02892B85B985B1DF
:102450008F7D90910C02892B85B9DF91CF910895E2
:102460008091C60584FD1BC080E10E9456024398FE
:1024700044989091E405892F8C7221F48091E805AD
:10248000867069F0943049F48091C705811103C0CA
:1024900086E00E9446020C94BA1183E0FACF0895B8
:1024A0002F923F924F925F926F927F928F929F9264
:1024B000AF92BF92CF92DF92EF92FF920F931F9352
:1024C000CF93DF93CDB7DEB7A4970FB6F894DEBFF6
:1024D0000FBECDBF1091C705112349F181E0809354
:1024E000E4058DE791E00E94B904812F0E949404D5
:1024F0000E94C70485EF91E00197E1F51150123079
:1025000088F480EE92E00E94B9048EEC92E00E9482
:10251000B9040E941C0680E10E944C028091C6050D
:1025200084FFFCCF8FB7F8941092C7058FBF10912E
:10253000C605112309F490C214FF23C081E08093E3
:10254000E505A4960FB6F894DEBF0FBECDBFDF91B0
:10255000CF911F910F91FF90EF90DF90CF90BF90A0
:10256000AF909F908F907F906F905F904F903F9033
:102570002F900895EFE9FFE03197F1F700C00000D8
:10258000BBCF10FFC0C08CE0EBECF5E0DE0159964C
:1025900001900D928A95E1F7BE01675E7F4FCE01F3
:1025A0000D960E94BE028CE30E947A038091E4059E
:1025B000883009F422C108F0FDC0813009F426C139
:1025C00008F416C1823009F424C1843009F41BC117
:1025D00080912606F82FF1709F2E80FF2FC18091E9
:1025E000F105882309F42AC188EA91E00E94B90420
:1025F000CE010D960E947B048091260681FF1DC0AE
:102600008CE991E00E94B9049091170580913602FF
:10261000981708F462C1815F891B0E9494048CE2C0
:102620000E947A038091090290910A02981708F497
:1026300056C18058891B0E94940488E991E00E9449
:10264000B9048091E4058C7709F44BC16091B00521
:102650007091B1058091B2059091B3050E945F041D
:102660000E94B908E82E0E94FA02F82E06B1007204
:102670008091CA0508278E2D8F29802B61F183E96F
:1026800091E00E94B904002319F080E50E947A03CA
:10269000EE2081F08E2D897019F088E50E947A0372
:1026A000E1FE03C089E50E947A03E2FE03C08AE5E9
:1026B0000E947A03FF2079F0F0FE03C082E50E94B9
:1026C0007A03F1FE03C088E40E947A03F2FE03C09D
:1026D00083E50E947A038091F105882309F405C1FE
:1026E00081508093F1050091F005002309F416C193
:1026F00001500093F0058EE30E947A030E94C70404
:1027000081E00E944C02812F887E09F455C180919E
:10271000E405982F937009F03EC18872A9F080916A
:10272000E605807C89F40E94070382E08093E80537
:102730008091E405803241F480E217FD0CC0809165
:10274000E60580688093E6058091E405811103C069
:1027500091E09093E60516FF07C085FD05C09091B6
:10276000E60590649093E60513FF05C0807E19F49A
:1027700080E18093E40515FF0EC180EE92E00E9497
:10278000B9048CE892E00E94B9040E941C06809172
:10279000E60587FDFBC09091E405903409F0F3C095
:1027A00083FF04C0837E82608093E60580E480938B
:1027B000E405ECC0803221F198F4803109F008CFB3
:1027C0008091E60587FD1CC080ED91E00E94B90470
:1027D0008091E60580FF2EC080E30E947A03F8CE48
:1027E0008034D1F0803809F0F3CE8FEA91E002C056
:1027F0008AED91E00E94B904EBCE86ED91E0FACF2C
:102800008CEC91E0F7CF87EC91E0F4CF81EC91E094
:10281000F1CF8BEB91E0EECF85EB91E00E94B90414
:102820008091E60583FF02C083E3D7CF82FF04C017
:1028300085FFD2CF81E3D1CF82E3CFCF4090830613
:102840005090840660908506709086065BE6A52E03
:1028500056E0B52E9E012F5F3F4F6901CE010D96C8
:102860007C0100E0F50161917191819191915F018D
:1028700020853185428553850E946A34F601619333
:102880007193819391936F01023041F4A3019201FE
:102890000E946A3469877A878B879C87911012C05F
:1028A000F60134972081318142815381F7016081A3
:1028B0007181828193810E946934F7016083718301
:1028C000828393830F5FF4E0EF0EF11C033051F627
:1028D00091108ACE81EA91E089CE81509DCE8150BF
:1028E000A9CE60E070E0CB01B9CE8091E4058C7791
:1028F00099F08DE18093F1058091F005811103C07D
:1029000081E08093F0058DE891E00E94B904CE014A
:1029100001960E947B04E7CE89E0ECCF8091E4052C
:102920008C7779F183E18093F00588E891E00E944B
:10293000B9048091EC050E9494048CE20E947A0311
:102940008091ED050E9494048CE20E947A038091AC
:10295000EE050E94940488B18870F82E449BBBC198
:1029600000E484E891E00E94B904FF2019F083E5B7
:102970000E947A03002309F4BECE86E40E947A0303
:10298000BACE89E0D0CF903809F010CF8091E6051B
:1029900080628093E60517FF0CC08091E4058130CA
:1029A00029F48091E60585608093E60580E88093B0
:1029B000E40588EE0E944C0211FF28C0812F887622
:1029C00011F58091E405803441F48091E60585FDA0
:1029D00004C084FFE2C01092E4058091E4058823DE
:1029E00009F4E1C084FF0FC09091E60590FF0BC091
:1029F000803109F0D8C08091EF05882309F4D3C055
:102A000088608093EF0582E00E944C0212FF24C090
:102A10009091E6058091E405807D09F4DDC0809108
:102A2000E7058111D9C097FDD9C00E9407038091A5
:102A30003602809335020E94F8068091E80581FFF6
:102A400005C09091E60591609093E605897F80939B
:102A5000E80584E00E944C029091C805992309F48E
:102A60004CC08FB7F8941092C8058FBF4091EC0509
:102A7000842F90FD84E691FD865F92FD8A5093FD40
:102A80008F5F94FD8150893C08F088EC8A3008F40F
:102A90008AE03091ED05232F95FD24E696FD22E393
:102AA00097FD29E1481302C0231739F18093EC0503
:102AB0002093ED051092F005709036026090170596
:102AC000172D89E9282E96E7392E26E9422E3EE772
:102AD000532E4EE2842E16119CC0C101D201809368
:102AE000190190931A01A0931B01B0931C010E943D
:102AF0000703709235020E94F8061091C905112350
:102B000009F443C08FB7F8941092C9058FBF909114
:102B1000EE05892F10FD84E611FD865F12FD8A50B7
:102B200013FD8F5F14FD8150893C08F088EC8A30DA
:102B300008F48AE0981761F09091E4058093EE051F
:102B40009111BDC0809150060E946B031092F00558
:102B50008091E40515FF09C0803139F49091EF05AB
:102B60009111B3C092E09093EF05107C71F088232F
:102B700011F0887351F010914F0616FFAAC01F7B09
:102B8000812F0E94A70910934F068091E4058C7F46
:102B900009F4D7CC0E94300AD4CC82FF1ECF8860C3
:102BA0008093E6051ACF1092E8050E94E006892B73
:102BB00071F08091E60586FD0AC01092E60588E076
:102BC0008093E4050E94300A0E9452031CCF1092A9
:102BD000E6051092E40517CF97FF0AC01092E805AA
:102BE0000E94B3090E94EE110E94EF080E944B065A
:102BF0008091E60585FF08C08F7781608093E605A8
:102C000080E48093E40525CF1092E6051092E40558
:102C100020CFA12EB12C189DC0011124895C9D4F9D
:102C20000E946D06962EC72ED82E092F9101A20163
:102C30000E9481378A9C70018B9CF00C11249701B3
:102C4000295C3D4F790118168CF59101A201B10163
:102C5000C2010E94C137F701668B778B808F918FFD
:102C60008A9CC0018B9C900D11249C01295C3D4FD6
:102C70007901F90122A033A044A055A0A20191013D
:102C800066897789808D918D0E94813718162CF482
:102C9000F701268A378A408E518E1F5F103109F462
:102CA00010E0292C3C2C4D2C502E15CF292D3C2DDD
:102CB0004D2D502F692D7C2D8D2D902FCACF8091B9
:102CC000E80588608093E80541CF90FF4ECF94607F
:102CD0004ACF106455CF811144CE0DCD1F93CF93B1
:102CE000DF93142F20E030E040EA51E40E94C13726
:102CF0000E9448350E94E235EB012097C9F080918F
:102D0000E505811115C011110DC00E949C162FEF11
:102D100080E792E0215080409040E1F700C0000041
:102D20002197EBCF0E9450128091E60581FFEFCFF3
:102D3000DF91CF911F9108951F93CF93DF930E944E
:102D400050128091E605882309F453C00E94E006E2
:102D5000009771F58091500690914F06892BD82FDE
:102D6000D07311E0C82FC07C8091E605882309F458
:102D700040C09091E50591113CC080FF16C0909134
:102D8000E405292F207C09F47BC082FD1AC0109233
:102D9000EF0580E00E946B0380E00E94A70980910C
:102DA000E6058D7F84608093E6050E945012DCCF9B
:102DB000FC0191899073449902C080E0CFCF80E4F8
:102DC000CDCF9038E9F480EE92E00E94B90489E416
:102DD00092E00E94B9040E941C0680E00E946B03EE
:102DE00080E00E94A7090E94BA118091E50588231E
:102DF00021F0DF91CF911F9108950E945012F5CFDD
:102E0000903419F48F7D8093E6058091E60583FF69
:102E1000CCCF90915006992359F081FD09C0809143
:102E2000370681FF22C08091E80588608093E8051D
:102E300080914F06882371F08091E60581FD0AC0DC
:102E40008C2F0E94A70941E060E070E080E89FE3DA
:102E50000E946E168091E60581FDA7CF8061809368
:102E6000E60582E00E945602A0CF8D2F0E946B03E0
:102E700041E060E070E080E890E40E946E16D8CFF8
:102E80008091EF058823A1F181FF0AC0809150064F
:102E9000882339F180E00E946B031093EF0585CF02
:102EA0008C7009F482CF80915006882399F080EECF
:102EB00092E00E94B90482E592E00E94B9040E9467
:102EC0001C068091370681FF0FC08091E80588605D
:102ED0008093E8058091EF0583FF03C082E00E94A4
:102EE00056021092EF0561CF8D2F0E946B03F2CF37
:102EF0008091E80583FF59CF8D2F0E946B0380914D
:102F0000E805877F8093E80550CF0E94F0060E9475
:102F10009C168091E505811108C00E94E006892B6E
:102F2000B1F78091E405883091F30895CF93DF9352
:102F300091E5899FE0011124DD5F40E550E0BE018D
:102F400081EC96E00E946509892B79F41092C10604
:102F50000E94851740E550E061EC76E0CE010E94CA
:102F6000150980E0DF91CF91089581E0FBCF0E94A9
:102F700085171092F1050895CF939091E405923052
:102F800039F0C82F0E9485178C2FCF910C946B03BA
:102F9000CF9108950F931F93CF93C82F8B010E9459
:102FA00085172DE0C29FC00111244CE050E0B8010C
:102FB0009E5FCF911F910F910C9415091F93CF9392
:102FC000DF93182FEB018DE0189FB00111247E5F75
:102FD0004CE050E0CE010E946509892B71F48CE031
:102FE000FE0111928A95E9F7BE01812F0E94CA174E
:102FF00080E0DF91CF911F91089581E0FACFEF92A9
:10300000FF920F931F93CF93DF93CDB7DEB72C972B
:103010000FB6F894DEBF0FBECDBF182F80FF0BC0D8
:1030200085E5EFEEF1E0A2EFB5E005900D928A950F
:10303000E1F70E94500911FF10C0CE0101967C01FA
:103040008CE0F70111928A95E9F700E0B701802F33
:103050000E94CA170F5F0830C9F712FF14C060E062
:1030600080E093E00E94F50860E081E093E00E9438
:10307000F50860E081E593E00E94F50860E082E5F4
:1030800093E00E94F50813FF0AC060E08EEA93E027
:103090000E94F50860E08FEA93E00E94F5082C9604
:1030A0000FB6F894DEBF0FBECDBFDF91CF911F9159
:1030B0000F91FF90EF9008952F923F924F925F9261
:1030C0006F927F928F929F92AF92BF92CF92DF9238
:1030D000EF92FF920F931F93CF93DF93CDB7DEB79D
:1030E000C254D1090FB6F894DEBF0FBECDBF3B016D
:1030F00000911705202E312C2EE2029FA0011124F1
:10310000BA01695C7D4F7AAF69AFFB0111922A95D4
:10311000E9F7F3012085FB01218B21FFF0C02CE0B2
:10312000EBECF5E0DE01599601900D922A95E1F75E
:1031300089AB9AAB22EF35E021963FAF2EAF2197B6
:10314000BE01635F7F4F7EAF6DAFCE0149969CAFEE
:103150008BAFE9ADFAADF8AFEFAB9E012B5D3F4F02
:103160003CAB2BAB3EAB2DAB10E08EE2829D200141
:10317000839D500C1124B201695C7D4F2B01CB0162
:103180000C9623969FAF8EAF239790E1490E511C6A
:10319000E9A9FAA96191719181919191FAABE9AB99
:1031A0002196EEADFFAD219781909190A190B190C5
:1031B0002196FFAFEEAF2197A50194010E94C13780
:1031C0000E948E37EDADFEAD619371938193919323
:1031D000FEAFEDAFEBADFCADC190D190E190F190C1
:1031E000FCAFEBAF6C197D098E099F099B01AC0107
:1031F00097FF07C022273327A901261B370B480B4F
:10320000590BEFA9F8AD2193319341935193F8AF46
:10321000EFAB2396EEADFFAD2397C080D180E28067
:10322000F380C216D306E406F50610F469017A01AC
:103230002396EEADFFAD2397C082D182E282F38266
:103240000E941336A50194010E946935EDA9FEA9DB
:103250006193719381939193FEABEDAB20E030E0ED
:10326000A9010E945F3587FF0BC090E2112321F076
:1032700090E8113009F490E4F2018081892B808379
:103280001F5F133009F084CF80E0CD28CE28CF28EF
:1032900009F4CBC0CE0185960E94C4094B015C01A4
:1032A0002EE2229DC001239D900D11249C01295CDA
:1032B0003D4F7901F901868E978EA0A2B1A2BE0181
:1032C0006B5D7F4F8AE096E00E946308F701628F92
:1032D000738F848F958FBE016B5D7F4F8EEF95E06E
:1032E0000E946308F70166A377A380A791A71189BD
:1032F00010FF09C062A773A784A795A710C02CE090
:10330000E1E0F1E00FCFF30120813181428153816F
:1033100013FDA5C0F70122A733A744A755A78091A5
:103320003602081711F011FFA0C08EE2829DF00155
:10333000839DF00D1124E95CFD4F128A138A148AD3
:10334000158A12A213A214A215A28EE2829D8001F8
:10335000839D100D1124095C1D4FF801818981FDA9
:1033600063C089AD9AAD0E946D066B017C018090AF
:10337000190190901A01A0901B01B0901C01AC01A2
:103380009B01C501B4010E945F3587FF36C1A501CD
:103390009401C501B4010E94C137F801668B778B97
:1033A000808F918F8EE2829D8001839D100D11246C
:1033B000095C1D4FF80182A093A0A4A0B5A0A501AF
:1033C000940166897789808D918D0E9481371816C6
:1033D0002CF4F801868A978AA08EB18EC0921901CA
:1033E000D0921A01E0921B01F0921C018CE0FE01C8
:1033F000B596ADE0B1E001900D928A95E1F78CE0D1
:10340000FE013D96A1E0B1E001900D928A95E1F7B1
:1034100080910001809317058F5F803109F480E06F
:10342000809300010E94F80681E0CE5BDF4F0FB66B
:10343000F894DEBF0FBECDBFDF91CF911F910F91EA
:10344000FF90EF90DF90CF90BF90AF909F908F90C4
:103450007F906F905F904F903F902F900895C5019F
:10346000B4010E94C137F70145CF2DE031E03AABFE
:1034700029AB8E010F5F1F4F6BA97CA9645F7F4F43
:103480007CAF6BAFC12CD12C76010DAB1FABE9A982
:10349000FAA981909190A190B190FAABE9ABEBA918
:1034A000FCA94190519061907190FCABEBABA301F2
:1034B0009201C501B4010E94C1379B01AC01C70153
:1034C000B6010E9469346B017C01A5019401C3011E
:1034D000B2010E946934F8016193719381939193D1
:1034E0008F012BAD3CAD6BA97CA92617370779F668
:1034F0002FEE3FEF4FE75FE3C701B6010E94813730
:1035000018164CF48EE2829DF001839DF00D11247B
:10351000E95CFD4F16CF2FEE3FEF4FE75FEBC701A2
:10352000B6010E945F3587FF11C08EE2829DF001D7
:10353000839DF00D1124E95CFD4F89E996E7A6E92A
:10354000BEE782A393A3A4A3B5A3FFCE8DA99FA991
:103550000E94C4096DA97FA98AE096E00E946308D1
:103560004B015C01A701960160E070E080E89FE3F9
:103570000E94693420E030E040E05FE30E94C13700
:103580000E9460386B017C0120912706309128064B
:103590004091290650912A06C501B4010E94C13705
:1035A000A70196010E94C1374B015C01A70196015A
:1035B00060E070E080E89FE30E9469349B01AC0109
:1035C000C501B4010E9469356B017C0120E030E047
:1035D000A9010E945F3587FF03C0C12CD12C760161
:1035E0008EE2829DF001839DF00D1124E95CFD4F78
:1035F000C2A2D3A2E4A2F5A2A8CEA7019601C70158
:10360000B601C9CEFF920F931F93CF93DF938C0126
:10361000EB018091370685FF23C0F090E40580E23E
:10362000F81611F1C8010E945F028823C9F081E0F9
:103630008093E70588E0F8120CC00E9456020E94B1
:103640009C168091E50581110BC08091E4058111E4
:10365000F6CF0E94301282E00E9446020E949C1621
:103660008091E405823021F10E949C168091E5054D
:1036700081111EC09091360280910001981303C001
:103680000E94F006F1CFBE01C8010E945C188111B2
:103690000FC08091370681FF0BC0888584FF08C06A
:1036A00080E1DF91CF911F910F91FF900C94BC1797
:1036B000DF91CF911F910F91FF9008952F923F922C
:1036C0004F925F926F927F928F929F92AF92BF9232
:1036D000CF92DF92EF92FF920F931F93CF93DF93DE
:1036E000CDB7DEB7CC54D1090FB6F894DEBF0FBE0C
:1036F000CDBFE7E8F6E08AE3DF011D928A95E9F79E
:103700008BE0E7E4F6E0A8E8B6E001900D928A9538
:10371000E1F78091C1068432A1F01A8E1BA2312CF0
:10372000212C1EA61DA610E01B8E1F8EEE24E394F6
:10373000F12CAAE0AA2EB12CB1E68B2EB3E09B2E81
:103740004EC181E0809388061092890683E08A8FBB
:10375000B1E0BBA3E4CF9FEB9D0D9A3110F00C9428
:10376000D5288F5F8A8FBE016A5E7F4FCE014A9651
:103770000E948701882311F40C94D8284E885F8812
:10378000688C798CC301B2010E94A4380E94E23592
:10379000062F70E090E080E00E9413369B01AC01A0
:1037A000C301B2010E94693420E030E048EC52E4E9
:1037B0000E94C1370E942E380E94E235CB01E7E417
:1037C000DE1629F1FDE4DF1609F465C1EAEBED0D23
:1037D000E53108F02CC00E2E000CFF0BEE50F44E1D
:1037E0000C940C39941D171C171CC11DCC1DD71D22
:1037F000E21D171CE61D171CF41D171CFE1D081EDC
:10380000121E171C171C171C221E2F1E3C1E0832CE
:1038100009F4DDC030F5043160F4013108F098C0DE
:10382000043009F474C0B0F00A3009F468C084E1CF
:1038300096C00C3109F463C040F40631C0F725E1AD
:10384000201B20938A0626E087C00E3109F457C05A
:10385000063269F74F8D41110C94DB28A2E0AF8F3F
:1038600028C00D3309F4AEC0E0F4053309F44FC0AD
:1038700088F40B3211F00133D1F6BF8DB1110C94E5
:10388000DB28013309F095C010928D06E3E0EF8F3D
:1038900028E04FC00C3358F6065300938E0629E0FB
:1038A0005BC00C3508F50A3508F073C0003509F027
:1038B000BECF0093880621E0063209F04DC0843166
:1038C000910551F08E31910539F08832910521F042
:1038D0008233910509F0ABCFB5010E94D638665707
:1038E0006093880621E025C00C3549F00F3508F0BB
:1038F0009ECF2EE5201B2093890625E02DC0009742
:1039000031F42F8D21110C94DB2831E03F8F00938F
:103910008706202F2D7F2C3119F020E00C35E1F4A3
:10392000009719F00A9709F082CF600F609387061D
:1039300020E0C70102C0880F991F2A95E2F72DA544
:103940003EA528233923232B09F443C085E107C072
:10395000015100938C0622E0892B59F387E1C45B67
:10396000DF4F0FB6F894DEBF0FBECDBFDF91CF9112
:103970001F910F91FF90EF90DF90CF90BF90AF908D
:103980009F908F907F906F905F904F903F902F907F
:103990000895892B29F40A5500938B0623E0C9CF9B
:1039A0006A30710509F043CF0A3509F440CF24E0AD
:1039B000C0CF0A9709F03BCFF1E0F0938D0623E0EA
:1039C0002F8F66CF892B09F032CF2AE0B2CF27E0C4
:1039D000C3CFADA5BEA5A82BB92BBEA7ADA78A8D19
:1039E000E82FF0E0EF53F94FD080D110B4CEBB8D6B
:1039F000BB2329F0EF8DE11102C0F2E0FF8F25FE1D
:103A00000FC08091A4069091A506A091A606B09142
:103A1000A70681389649A849B10514F00C94E72807
:103A20003BA1332309F435C120FE45C180918A06AC
:103A30008130B1F423E333E34BEC51E4609193061E
:103A40007091940680919506909196060E94C137D8
:103A500060939306709394068093950690939606D0
:103A600030FC10C08091520690915306A0915406EC
:103A7000B09155068093B0069093B106A093B2061C
:103A8000B093B30680918706843009F02FC126FCDD
:103A90002BC18CE164CF892B09F060CF063050F444
:103AA000033098F00430D9F080E10530C9F4109269
:103AB000910618C0083008F4BACE0A3048F10E3129
:103AC00009F0B5CE00938F0604C0002321F0013029
:103AD000C9F78BE008C0B3E0B0938F06FACF80E25D
:103AE000809391068CE0F70102C0EE0FFF1F8A95CC
:103AF000E2F7CF012DA53EA52E233923232B09F074
:103B000025CF2DA53EA52E2B392B3EA72DA767CF60
:103B1000093039F0809190068064809390068DE0A2
:103B2000E2CF10929006FBCF4092930650929406FB
:103B3000609295067092960680E06701082E02C09A
:103B4000CC0CDD1C0A94E2F7960122213321232BB1
:103B500011F00C94E128D40102C0B595A7958A957F
:103B6000E2F7A0FF0BC020E030E0A901C301B201E1
:103B70000E945F3587FF02C00C94E4282C283D2862
:103B80002ECF4092970650929806609299067092B6
:103B90009A06116081E0D1CF40929B0650929C061C
:103BA00060929D0670929E06126082E0C6CF40929F
:103BB0009F065092A0066092A1067092A206146021
:103BC00083E0BBCF0093A30684E0B7CFC301B2016B
:103BD0000E94DB356093A4067093A5068093A60629
:103BE0009093A70685E0A9CF4092A8065092A90617
:103BF0006092AA067092AB0686E09FCF4092AC0618
:103C00005092AD066092AE067092AF0687E095CFF7
:103C10004092B0065092B1066092B2067092B3061E
:103C200088E08BCF20E030E04FE753E4C301B201DE
:103C30000E948137181614F40C94DE280093B40601
:103C400089E07BCF4092B5065092B6066092B706E7
:103C50007092B8063B8D31603B8F8AE06ECF409208
:103C6000B9065092BA066092BB067092BC064B8DA4
:103C700042604B8F8BE061CF4092BD065092BE06F2
:103C80006092BF067092C0068B8D84608B8F8CE033
:103C900054CF80918906813081F44F8D423009F0F4
:103CA000DFCE80918806803509F4DACE882309F4C6
:103CB000D7CE20FCD5CE86E152CE80914806811128
:103CC000CFCE20FCB3CE8091560690915706A0919E
:103CD0005806B09159068093930690939406A0934A
:103CE0009506B0939606BCCEE89426F880918C0693
:103CF000882359F0813009F4BBC022961FAE229769
:103D0000A2E0ABAFB1E0B9AF07C082E022968FAFBF
:103D1000229791E09BAF19AE80918A06813071F5B0
:103D2000E7E8CE2EE6E0DE2EF12CE12C2B8DA22E44
:103D3000B12CC5010E2C02C0959587950A94E2F727
:103D400080FF12C023E333E34BEC51E4D6019E968F
:103D50006D917D918D919C91D1970E94C137F60113
:103D600066A777A780AB91ABFFEFEF1AFF0A24E0BD
:103D7000C20ED11C33E0E316F104D9F64F8D433067
:103D800049F480918D06813029F48B8D843011F0B7
:103D90000C94EA288CE0EBE6F6E0DE011196019047
:103DA0000D928A95E1F7ADA5BEA5B1FD69C0009160
:103DB00087060A3009F478C00C3509F419C19F8DC3
:103DC000933009F43FC0AB8DAA23E1F1B0918B068B
:103DD000BFA38091830690918406A0918506B0913F
:103DE000860689A79AA7ABA7BCA797E4A92E96E059
:103DF000B92E27E8C22E26E0D22EF12CE12C9B8D85
:103E0000892E912CC4010E2C02C0959587950A9499
:103E1000E2F780FD5DC1F501808D918DA28DB38D9E
:103E2000F60186A797A7A0ABB1ABFFEFEF1AFF0A89
:103E300024E0A20EB11C34E0C30ED11C43E0E41612
:103E4000F10401F70E3109F494C1053309F4B8C146
:103E500067E976E086E00C3109F02DC10E94DE179B
:103E6000882301F18B8D811188C119A61F8EA9C0ED
:103E7000E1E02296EFAF22971BAEF2E0F9AF4CCF14
:103E800080918E06873010F08DE169CD90914D06BE
:103E9000891709F48CCFBE016F5F7F4F0E94DE1738
:103EA000811185CF87E05BCDBB8DB11102C08AE166
:103EB00056CDC10180759927892B09F4EACD60910F
:103EC000A8067091A9068091AA069091AB060E945F
:103ED000A4380E94E2356730B8F68091A306843199
:103EE00029F0823009F0A3CC27FCA1CC662309F489
:103EF00074C0615069A767E976E089A50E94DE1762
:103F0000882381F20091A306409083065090840696
:103F1000609085067090860677E8C72E76E0D72EEB
:103F2000F12CE12C3B8D232F30E038A72FA38FA15C
:103F300098A50E2C02C0959587950A94E2F780FF0C
:103F400033C0D6019E968D909D90AD90BC90D19738
:103F5000043109F046C0F701EE0FFF1FEE0FFF1FFF
:103F6000E95BF94F20A931A942A953A9608D718D50
:103F7000828D938D0E946934A50194010E94693459
:103F8000F601608B718B828B938BF2E0EF120CC089
:103F9000A30192010E94693460939F067093A0066A
:103FA0008093A1069093A206BFEFEB1AFB0AE4E010
:103FB000CE0ED11CF3E0EF16F10409F0B8CF2FEAD2
:103FC0002222809188068FA3803509F000C19B8D45
:103FD000992309F406C18FE1C2CCE0918E06E9A7CE
:103FE0008ACF50968D929D92AD92BC925397DCCF22
:103FF0003B8D332309F45BCF4090830650908406B9
:10400000609085067090860647E4842E46E0942EE4
:10401000CE0101967C0157E8A52E56E0B52ED12C95
:10402000C12CA32FB0E0B8A7AFA38FA198A50C2CEB
:1040300002C0959587950A94E2F780FF3EC0F7018C
:104040002081318142815381D40158966D917D91B7
:104050008D919C915B970E946934F50126A537A547
:1040600040A951A90E946934D5019E966D937D9314
:104070008D939C93D197B2E0CB120CC0A301920117
:104080000E9469346093BD067093BE068093BF069C
:104090009093C006FFEFCF1ADF0A24E0820E911C36
:1040A00034E0E30EF11C44E0A40EB11C83E0C8161A
:1040B000D10409F0BACF19A684CFF40180A991A93F
:1040C000A2A9B3A9F50186A797A7A0ABB1ABE2CF90
:1040D000053309F4AACED6019E964D905D906D9061
:1040E0007C90D197BFA1B11133C0F701EE0FFF1F34
:1040F000EE0FFF1F21E030E02C0F3D1FE20FF31FFA
:10410000D501D0962D913D914D915C91D3976081D1
:104110007181828193810E946A34A30192010E947D
:104120006A34F60166A777A780AB91ABF2E0EF1295
:104130007CCE29A53AA54BA55CA50E946A34609364
:10414000BD067093BE068093BF069093C0066DCEE9
:10415000A3019201D50158966D917D918D919C910D
:104160005B970E946A34F60166A777A780AB91AB94
:104170005CCE67E976E087E071CEA7E4B6E0E7E8D9
:10418000F6E090E080E04B8D242F30E0A901082E6E
:1041900002C0559547950A94E2F740FD0AC058962B
:1041A0004D915D916D917C915B97408B518B628BB2
:1041B000738B0196149634968330910539F77BCF33
:1041C00080918806823008F476CF8EE1C8CBAF8D1F
:1041D000A23039F4BFA1B11171C0EB8DEE2309F407
:1041E0008BC02BA12170EBA1C101E0FFD6C28E7D57
:1041F000FF8DF111937E892B11F00C94F3288E0121
:10420000035F1F4F89E0D8011D928A95E9F72223A9
:1042100009F4C6C28DA59EA5867B892B09F0E6C749
:1042200080918706853311F08111E0C78091520695
:1042300090915306A0915406B0915506898B9A8BA4
:10424000AB8BBC8B8091500690914F06892B40918F
:1042500093065091940660919506709196064D874D
:104260005E876F87788B84608D8B8091370685FFA2
:1042700006C085EB96E00E945F028111BAC7B801C3
:1042800085EB96E00E94021B8091E40581110BC032
:104290000E94E006892B39F080E28093E4050E94B9
:1042A000300A0E9452038CE0E5EBF6E0AFE5B6E0A1
:1042B00001900D928A95E1F780E051CB20E030E04B
:1042C000A901609193067091940680919506909152
:1042D00096060E945F35882309F4EDCCFFA1FC38D7
:1042E000B9F060F4F23059F1F33061F1F13009F0D6
:1042F00078CF3B8D311175CF1F8E73CF2FA12E3804
:1043000039F018F02F3809F06CCF9BA190619BA376
:104310008FA18E58823018F4ABA1A860ABA3BB8DDF
:10432000BB2309F4C4CD4CE050E065EB76E08FE5AB
:1043300096E00E942C39892B09F053CF6DC04BA118
:1043400044604BA38B8D882309F4B1CDB9ADAB2F5D
:10435000B0E0BAABA9ABFBADEF2FF0E0FEABEDAB3D
:1043600081E090E07C0109AC02C0EE0CFF1C0A94D5
:10437000E2F70BAC02C0880F991F0A94E2F7E82A13
:10438000F92A2B8D822F90E08E219F21892B09F411
:1043900024C7FD01EE0FFF1FEE0FFF1FE957F94F76
:1043A000AA0FBB1FAA0FBB1FA15AB94F2D913D9158
:1043B0004D915C9166A577A580A991A90E94693469
:1043C0002B013C01EDA9FEA9EE0FFF1FEE0FFF1F11
:1043D000E957F94FADA9BEA9AA0FBB1FAA0FBB1F72
:1043E000A15AB94F2D913D914D915C9166A577A54C
:1043F00080A991A90E9469344B015C0127FEFFC08E
:10440000E89427F84CE050E065EB76E08FE596E025
:104410000E942C39892B11F481E2A1CA6091AC066B
:104420007091AD068091AE069091AF0620918A06FC
:10443000213071F423E333E34BEC51E40E94C137A4
:104440006093AC067093AD068093AE069093AF0672
:104450008091AC069091AD06A091AE06B091AF06EA
:1044600021968CAF9DAFAEAFBFAF2197A301920154
:10447000C301B2010E94C13729966CAF7DAF8EAFE8
:104480009FAF2997A5019401C501B4010E94C137CE
:104490002D966CAF7DAF8EAF9FAF2D9720E030E0B3
:1044A00040E850E421966CAD7DAD8EAD9FAD219777
:1044B0000E94C13721962CAD3DAD4EAD5FAD219729
:1044C0000E94C13729962CAD3DAD4EAD5FAD299709
:1044D0000E9469342D962CAD3DAD4EAD5FAD2D974C
:1044E0000E9469346B017C0120E030E0A9010E9448
:1044F0005F3587FD75C6C701B6010E9460386B0144
:104500007C012D962CAD3DAD4EAD5FAD2D9729961E
:104510006CAD7DAD8EAD9FAD29970E946A340E942F
:1045200060389B01AC01C701B60190580E94693503
:104530006B017C019FA1933021F4F7FAF094F7F816
:10454000F09420E030E0A90121966CAD7DAD8EADF8
:104550009FAD21970E945F3587FF13C0F7FAF09453
:10456000F7F8F09421968CAD9DADAEADBFAD21971F
:10457000B0588093AC069093AD06A093AE06B0936E
:10458000AF0609A91AA9000F111F000F111F095624
:10459000194FA7019601C501B4010E94C1379B01C3
:1045A000AC01C301B2010E94693420E030E040E078
:1045B0005FE30E94C137D8016D937D938D939C93E7
:1045C00013970DA91EA9000F111F000F111F0956E7
:1045D000194FA7019601C301B2010E94C137A5017D
:1045E00094010E946A3420E030E040E05FE30E94E2
:1045F000C137F8016083718382839383F2CDC12E2A
:10460000D12CE122FD2083E2EF2809F4A8C9F1EFC3
:104610002F2280918A06813041F507E816E0F12CBF
:10462000E12CC6010E2C02C0959587950A94E2F7FD
:1046300080FF12C023E333E34BEC51E4D8015096E2
:104640006D917D918D919C9153970E94C137F80196
:10465000608B718B828B938BFFEFEF1AFF0A0C5FDD
:104660001F4F23E0E216F104E1F6E9A9FAA9EE0FE3
:10467000FF1FEE0FFF1FE956F94FC080D180E28087
:10468000F380A7019601C301B2010E9469342B0196
:104690003C01EDA9FEA9EE0FFF1FEE0FFF1FE9562B
:1046A000F94F80819181A281B38189AB9AABABAB89
:1046B000BCAB9C01AD01C501B4010E9469344B0142
:1046C0005C01A3019201C301B2010E94C1372B0119
:1046D0003C01A5019401C501B4010E94C1379B01B1
:1046E000AC01C301B2010E946A340E9460384B01E0
:1046F0005C01A7019601C701B6010E94C1376B0199
:104700007C0129A93AA94BA95CA9CA01B9010E9457
:10471000C1379B01AC01C701B6010E946A340E94F7
:1047200060386B017C01C092AC06D092AD06E0927D
:10473000AE06F092AF06AC019B01C501B4010E9428
:1047400069344B015C01E894B7F82AE037ED43EA9D
:104750005BE3C501B4010E94813718160CF041CD0E
:1047600020E030E040E05FE3C501B4010E94813702
:1047700018160CF451CE2FE632E143E85AE3C70194
:10478000B6010E94C1379B01AC01C501B4010E9472
:10479000813718160CF025CD3FCE8E7D9C7F28CD1D
:1047A00080913706F090500681FF12C08FA1815092
:1047B000833018F0BBA1B064BBA3EB8DEE2309F4EA
:1047C00031C1FF8DF23009F02DC12BA120682BA340
:1047D0008091A4069091A506A091A606B091A70687
:1047E00080935B0690935C06A0935D06B0935E0693
:1047F0008091890680934806882311F088E08D8B8C
:104800008091930690919406A0919506B09196069A
:104810008093560690935706A0935806B093590676
:104820008D879E87AF87B88B2091B0063091B106F7
:104830004091B2065091B3066091520670915306B2
:1048400080915406909155060E945F35811103C0F6
:104850009BA195FF15C0FF2019F08F2D0E94BC175A
:104860008091B0069091B106A091B206B091B306C6
:104870008093520690935306A0935406B093550626
:10488000ABA1A6FD0CC08091520690915306A09159
:104890005406B0915506898B9A8BAB8BBC8B80915B
:1048A000B40680935A06809191069091500698170D
:1048B00031F00E94BC1780919106809350068D893B
:1048C00090915006892B8D8BF090900680914F0629
:1048D0008F1569F08091E405823029F00E948517D8
:1048E0008F2D0E94A7098091900680934F068D8995
:1048F00090914F06892B8D8B80918706843099F497
:104900008091E405823079F0C090A806D090A90685
:10491000E090AA06F090AB060E94851740E0C70120
:10492000B6010E946E1680918C0680934B06809192
:104930008A0680934906BF8DB33071F580918D064C
:1049400080934C06811108C01092BD061092BE06DD
:104950001092BF061092C006C090BD06D090BE0651
:10496000E090BF06F090C006A70196016091830613
:104970007091840680918506909186060E945F352D
:10498000882351F0C0928306D0928406E092850677
:10499000F09286060E94B71780918E0690914D0680
:1049A000981769F080934D068CE0FE013196ABE6D6
:1049B000B6E001900D928A95E1F70E94B7178091B9
:1049C0008B0680934A0680918706863209F47EC062
:1049D00008F03FC08C3109F45FC08E3109F45CC02F
:1049E0008A3009F443C08091880680934706803559
:1049F00009F449C3BF8DB23009F045C3813009F0D5
:104A000079C0BE01635F7F4F85EB96E00E94021B79
:104A10008CE0E5EBF6E0AFE5B6E001900D928A950B
:104A2000E1F731C330E1F312D3CE9BA190748091B2
:104A300047068150833038F4992309F4C9CE4BA13D
:104A400040624BA3C5CE9111C3CE8BA180628BA3D4
:104A5000BFCE8C3509F440C0863609F443C0883295
:104A600009F0C1CF6FE576E087E033C067E976E013
:104A700089A50E94CA1780914D06E9A5E813B3CF16
:104A80008CE0E7E9F6E0ABE6B6E001900D928A959E
:104A9000E1F70E94B717A7CF8D8981608D8BFF8DBD
:104AA000FF2329F0B80185EB96E00E94021BB801B4
:104AB00087E996E00E94021B8CE0E7E9F6E0AFE5AB
:104AC000B6E001900D928A95E1F78DCF6FE576E023
:104AD00086E00E94CA1787CF8CE0E5EBF6E0A7E7F7
:104AE000B6E0D3CFE7E7F6E08CE0DF011D928A95D0
:104AF000E9F7CFCF811105C08D8981608D8BB80119
:104B000083CF8250823008F097C28091AC0690919A
:104B1000AD06A091AE06B091AF068F8F98A3A9A362
:104B2000BAA3A9AD94E0A99F70011124F701E15A3D
:104B3000F94FF8A7EFA397012956394F3AA729A7AC
:104B4000D9014D905D906D907C90208131814281A2
:104B50005381C301B2010E946A346DA77EA78FA75B
:104B600098ABEBADB4E0EB9F800111249801215A82
:104B7000394F3AAF29AFC8018956994F9CAF8BAFD7
:104B8000DC018D909D90AD90BC90F9012081318128
:104B900042815381C501B4010E946A3469AB7AAB8A
:104BA0008BAB9CAB77FA709477F87094D501C40105
:104BB000B0588B8F9C8FAD8FBE8FF701EB54F94FA0
:104BC0002DA53EA54FA558A9608171818281938151
:104BD0000E9469346B017C01F801EB54F94F29A95B
:104BE0003AA94BA95CA960817181828193810E945D
:104BF00069344B015C01A7019601C301B2010E9417
:104C0000C1376DAB7EAB8FAB98AFA50194016B8DB7
:104C10007C8D8D8D9E8D0E94C1379B01AC016DA94D
:104C20007EA98FA998AD0E946A346DAB7EAB8FAB25
:104C300098AFA5019401C301B2010E94C1374B0195
:104C40005C01A70196016B8D7C8D8D8D9E8D0E94E0
:104C5000C1379B01AC01C501B4010E9469342DA983
:104C60003EA94FA958AD0E94E9346B017C019BA17C
:104C700092FF68C12DEB37E346E055EBC701B60163
:104C80000E94813787FD0AC02BED3FE049EC50E4DC
:104C9000C701B6010E9469346B017C0180902B062C
:104CA00090902C06A0902D06B0902E062F8D38A146
:104CB00049A15AA1CA01B9010E946A34A50194010F
:104CC0000E946934A50194010E94C1370E94603896
:104CD0004B015C0120E030E040E05FE3C701B6013A
:104CE0000E94C1372F8D38A149A15AA10E94C13716
:104CF0009F77A50194010E9469350E944E360E945B
:104D0000E2357EAB6DABDB01AB2B09F47ACE1D89AE
:104D100090E080E00E9411364B015C0113FF0EC051
:104D2000AC019B016D857E858F8598890E94C13776
:104D30006D877E878F87988B177F1D8BA5019401C8
:104D4000C701B6010E9469356BA37CA38DA39EA306
:104D50002296EFAD2297B4E0EB9FC00111248C01A5
:104D6000015A194F8B54994FD8012D913D914D9176
:104D70005C91FC0160817181828193810E94693420
:104D8000A50194010E94693529966CAF7DAF8EAF65
:104D90009FAF29972BA13CA14DA15EA1CA01B901EA
:104DA0000E94C1379B01AC0160E070E080E090E4BC
:104DB0000E9469346B017C012BEA3AEA4AE25EE325
:104DC0006BA17CA18DA19EA10E94C1374B015C010A
:104DD00020E030E040E850E4C701B6010E946A34A8
:104DE0009B01AC01C501B4010E94C13721966CAF93
:104DF0007DAF8EAF9FAF219720E030E040E05FE3D2
:104E0000C701B6010E94C13725966CAF7DAF8EAF4A
:104E10009FAF25971F8E22242394312CEDA9FEA944
:104E2000E215F30509F4EDCDFF8DFC3008F09EC0CE
:104E3000A301920121966CAD7DAD8EAD9FAD219702
:104E40000E94C1376B017C012B8D3C8D4D8D5E8D99
:104E500025966CAD7DAD8EAD9FAD25970E94C13777
:104E60009B01AC01C701B6010E946A347B016C0151
:104E7000A301920125966CAD7DAD8EAD9FAD2597BA
:104E80000E94C1374B015C012B8D3C8D4D8D5E8D99
:104E900021966CAD7DAD8EAD9FAD21970E94C1373F
:104EA0009B01AC01C501B4010E9469342B013C0196
:104EB0002F8D2F5F2F8F470156018B8E9C8EAD8ECD
:104EC000BE8EA30192016DA57EA58FA598A90E9413
:104ED0006A34EFA1F8A560837183828393832B8D5D
:104EE0003C8D4D8D5E8D69A97AA98BA99CA90E94E4
:104EF0006A34A9ADBAAD6D937D938D939C9313974E
:104F000029962CAD3DAD4EAD5FAD2997F80160817E
:104F10007181828193810E946A34D8016D937D935F
:104F20008D939C931397BE01635F7F4F8FE596E04F
:104F30000E94021B8091E50581116ACDBFEF2B1AFB
:104F40003B0A6CCF2DEB37E346E055E3C701B601D2
:104F50000E945F3518160CF4A1CE2BED3FE049EC12
:104F600050E4C701B6010E946A3496CEB10190E0C8
:104F700080E00E9411362BA13CA14DA15EA10E94B0
:104F8000C1376B017C010E9464356B8F7C8F8D8FE4
:104F90009E8FC701B6010E9452384B015C01A9A542
:104FA000BAA5CD90DD90ED90FC90F7FAF094F7F86B
:104FB000F094ABADBCAD8D919D910D90BC91A02DA9
:104FC0008F8F98A3A9A3BAA3A70196016B8D7C8D9F
:104FD0008D8D9E8D0E94C1372B013C012F8D38A1F4
:104FE00049A15AA1C501B4010E94C1379B01AC017E
:104FF000C301B2010E946A342B013C01A701960152
:10500000C501B4010E94C1376B017C012F8D38A10D
:1050100049A15AA16B8D7C8D8D8D9E8D0E94C137CB
:105020009B01AC01C701B6010E9469346B8F7C8F74
:105030008D8F9E8F1F8E45CF8D8984608D8B809143
:10504000E405823009F4E4CC0E9485178091E505DF
:10505000811119C0FBA1F071FF2E1092E9052BA15F
:1050600023FB882780F90E94A30386B18072909168
:10507000CA05891719F184E00E9446020E949C1615
:1050800080E00E94A30380918F0680934E068823C0
:1050900011F40C94AF1C0E94851780914E069091DC
:1050A000E405833009F04DC0923029F088E00E9479
:1050B00056020E949C1610924E06FEC8B80185EB5F
:1050C00096E00E94021B81E08093E30582E00E944B
:1050D00056020E949C168091E5058111D4CF8091E3
:1050E000E4058111F6CF8091E305813031F5FF2091
:1050F00001F18CE0EBECF5E0A7EDB5E001900D924D
:105100008A95E1F71092E30580E00E94A3030E94D4
:105110009C160E94EE110E94B3090E944B060E9449
:1051200021068091E905882309F472CC0E94EF08DA
:10513000AACF85E00E944602E5CF81E08093E90591
:10514000E1CF81E08093470610924B0610924A0609
:105150001092480610924D061092500610924F067B
:1051600084E68093EC058093ED058093EE05923004
:1051700089F06BE676E080E00E94DE17882311F468
:105180000C94521F0E94B71780E00E946B0380E0CE
:105190000E94A70980EE92E00E94B90487E792E09E
:1051A0000E94B9040E941C0686CF81E00C94AF1CBB
:1051B00082E00C94AF1C88E10C94AF1C86E20C9446
:1051C000AF1C89E10C94AF1C84E00C94AF1C8BE104
:1051D0000C94AF1C85E20C94AF1C80E20C94AF1CC5
:1051E00082E20C94AF1C84E20C94AF1C80E10C941E
:1051F000AF1C8FE00C94AF1CCF93DF93C0E08C2FDB
:105200000E949617811114C01092C1068EE30E946D
:105210007A030E9496038AE30E947A0387E00E9441
:10522000CB04C13019F4DF91CF910895C1E0E7CFED
:105230008091C1068823A9F30E945E1BD82F8EE3BC
:105240000E947A030E9496038AE30E947A038D2FBC
:105250000E94D704E6CF2F923F924F925F926F92B7
:105260007F928F929F92AF92BF92CF92DF92EF92F6
:10527000FF920F931F93CF93DF93CDB7DEB7A29723
:105280000FB6F894DEBF0FBECDBF9091E50591112A
:1052900077C18A8FFE013D9689E0DF011D928A95D4
:1052A000E9F786E08D8B2DEC3CEC4CE45DEB6091F6
:1052B0001A0670911B0680911C0690911D060E9493
:1052C000C1376B017C0120E030E048EC51E40E94E2
:1052D0005F3587FFA9C020E030E040E250E4C7011D
:1052E000B6010E94813718160CF0A5C02091F20576
:1052F0003091F3054091F4055091F505C701B601D1
:105300000E94C1370E94DB356D8F7E8F8F8F98A3EF
:1053100092EFA92E95E0B92EFE0176964F0110E08E
:1053200000E0C12CD12C7601FA8D2F2E312C802F4C
:1053300094E0002321F090E1013009F498E0D401D9
:105340009D934D01F10102C0F595E7958A95E2F72D
:10535000E0FF17C020E030E040EC5FEBD501949611
:105360006D917D918D919C9197970E94C1372B01F2
:105370003C01A70196010E945F3587FD02C06201D2
:1053800073010F5F1F4FB4E0AB0EB11C033011056A
:1053900071F680903D0690903E06A0903F06B0903A
:1053A0004006E4E0E98F01E06BEC75E0CE01019688
:1053B0000E94BE021092EB0580913806282F30E043
:1053C0003C8F2B8FFE0131968BEC682E85E0782E7A
:1053D0007AA269A230E020E010E0512C412CB70104
:1053E000A6017058C101042C02C0959587950A94B6
:1053F000E2F780FF39C02F5FA9A1BAA11D921D92CB
:105400001D921C9213978B8D9C8D042C02C0959538
:1054100087950A94E2F780FF15C00023A9F0408326
:1054200051836283738314C0C12CD12C38ECE32EDA
:1054300031E4F32E5BCFC12CD12C20E2E22E20E40C
:10544000F22E54CF002359F3C082D182E282F3823C
:1054500086E190E08C0F9D1F840D951DDC018C91E1
:10546000182B411001C030E1BFEF4B1A5B0A349694
:1054700089A19AA104969AA389A393E0491651049D
:1054800009F0B0CF3093EB05622F70E090E080E040
:105490000E9411360E9460381093EA05A50194011C
:1054A0000E94C1376D877E878F87988BBE01635FAF
:1054B0007F4FCE0101960E945C18A4E0A093E805FE
:1054C0000E94300A0E945203B12CC12CD12C7601CB
:1054D000002309F470C00E94B908FE01769630E0FE
:1054E00020E0482F50E09191692F612379F0BA01B3
:1054F000022E02C0759567950A94E2F760FF06C018
:1055000090951923211102C06894B1F82F5F3F4F85
:105510002330310541F71093EA059091EB0599236B
:1055200009F447C083FF45C01092EB056894B2F8B8
:10553000B0FEADC08B2D8670863009F4B3C080916B
:10554000CB059091CC05F601E81BF90BCF01F7FFD5
:1055500003C0919581959109092E000CAA0BBB0BF4
:105560002D8D3E8D4F8D58A1281739074A075B07AF
:1055700014F58AE00E9446020E9430120E949C1696
:10558000A2960FB6F894DEBF0FBECDBFDF91CF91CC
:105590001F910F91FF90EF90DF90CF90BF90AF9051
:1055A0009F908F907F906F905F904F903F902F9043
:1055B0000895B110BDCF0E94300A8091C605847352
:1055C00009F472C01091C60514FF03C086E00E9462
:1055D000460215FF03C087E00E94460201117DC00C
:1055E0000E94B9083A8D832319F088E00E94460290
:1055F0008091C7058111C0CF84E00E944C020E94B7
:10560000EE118091410690914206019708F055C035
:10561000E1E00E27C0904306D0904406E090450696
:10562000F0904606002309F44FC020E030E040EA45
:1056300050E4C701B6010E94C1376B017C01809024
:10564000390690903A06A0903B06B0903C06F98D42
:10565000F150F98FF111A8CE90E080E09101082E71
:1056600002C0359527950A94E2F720FF06C0D301C2
:105670001D921D921D921C9213970196B4E06B0E21
:10568000711C8330910551F71092E80579CF689429
:10569000B0F8C090CB05D090CC05E090CD05F0904F
:1056A000CE0589CFB12C87CF812F8C7109F010CF17
:1056B0008091EB0581110CCFA2CFAFE9BFE011972C
:1056C000F1F700C00000A1CF80903D0690903E060B
:1056D000A0903F06B0904006BACF12FF89CF89E074
:1056E00085CF1F920F920FB60F9211242F933F93E5
:1056F0004F935F936F937F938F939F93AF93BF93DA
:10570000CF93EF93FF930E94FA02C82F882389F06A
:1057100080FD0E943012C2FF05C08091C6058260E4
:105720008093C605C1FF05C08091C605886080933F
:10573000C605FF91EF91CF91BF91AF919F918F914E
:105740007F916F915F914F913F912F910F900FBE7D
:105750000F901F9018951F920F920FB60F92112461
:105760008F939F939BB180910D028C71937E892BB7
:105770008BB995B180910B0280719F7E892B85B981
:1057800015BC9F918F910F900FBE0F901F90189591
:105790001F920F920FB60F9211240F931F932F9306
:1057A0003F934F935F936F937F938F939F93AF93A9
:1057B000BF93EF93FF9380910F02811110C29BB1B1
:1057C00080911F02807E9F71892B8BB995B180914A
:1057D000210280729F7D892B85B98BB1837E909148
:1057E0001E02892B8BB985B18F7E90912002892B67
:1057F00085B980911D0286BD82E085BD81E08093E0
:105800000F0278948091330290913402892B09F031
:10581000A7C08091180590913E05981709F4DAC148
:10582000E09118052E2F30E086E0E89FF00111246A
:10583000E65EFA4FF0933402E09333028281938163
:1058400090938900809388008081918190932F02AA
:1058500080932E02E481809130028E1761F1E093F3
:10586000300282E1E89FF0011124E15CFA4FF093ED
:105870003202E093310284859585A685B785B69579
:10588000A795979587958093180290931902A093F6
:105890001A02B0931B028093140290931502A093F6
:1058A0001602B09317028093100290931102A093F6
:1058B0001202B0931302E0913102F091320280891A
:1058C00090910E02892780931F02818990910C028A
:1058D00089278093210286E0829FD001839FB00DAB
:1058E0001124A65EBA4F15962C9180819181A281D8
:1058F000B381022E04C0B695A795979587950A9413
:10590000D2F78093220290932302A0932402B093B3
:10591000250284819581A681B781022E04C0B695A7
:10592000A795979587950A94D2F78093260290932E
:105930002702A0932802B093290280859185A28531
:10594000B38504C0B695A795979587952A95D2F704
:1059500080932A0290932B02A0932C02B0932D02E5
:105960008091E3058130B1F486B180729091CA05CF
:10597000891781F01092E3058CE0EBECF5E0A7EDE0
:10598000B5E001900D928A95E1F78091C60580649B
:105990008093C60510921E02109220028091100280
:1059A00090911102A0911202B09113024091220233
:1059B000509123026091240270912502840F951F5B
:1059C000A61FB71F8093100290931102A09312029A
:1059D000B0931302E0913102F09132024485558573
:1059E00066857785481759076A077B0740F524E0E5
:1059F00020931E0220E120932002841B950BA60B0E
:105A0000B70B8093100290931102A0931202B093EF
:105A100013028091CB059091CC05A091CD05B0915A
:105A2000CE05208925FFEEC00197A109B109809319
:105A3000CB059093CC05A093CD05B093CE05809176
:105A4000140290911502A0911602B09117020091D4
:105A50002602109127022091280230912902800FFE
:105A6000911FA21FB31F8093140290931502A0935D
:105A70001602B0931702481759076A077B0738F5D3
:105A800020911E02286020931E02841B950BA60BFA
:105A9000B70B8093140290931502A0931602B09353
:105AA00017028091CF059091D005A091D105B091BA
:105AB000D205208926FFAAC00197A109B1098093C8
:105AC000CF059093D005A093D105B093D2058091D6
:105AD000180290911902A0911A02B0911B02009134
