:100000000C9485010C9497010C9497010C94A52DE8
:100010000C946B2A0C9497010C9497010C94970103
:100020000C9497010C9497010C9497010C94BB2AA3
:100030000C9497010C9497010C9497010C949701E0
:100040000C94A52A0C9497010C94DB2C0C947B2D1A
:100050000C9497010C9497010C9497010C949701C0
:100060000C9497010C949701084AD73B3BCE016E44
:1000700084BCBFFDC12F3D6C74319ABD56833DDAFF
:100080003D00C77F11BED9E4BB4C3E916BAAAABE0E
:10009000000000803F05A84CCDB2D44EB93836A937
:1000A000020C50B9918688083CA6AAAA2ABE000074
:1000B00000803F000D0A4772626C20312E316820AB
:1000C0005B27242720666F722068656C705D0D0ABF
:1000D000000D0A5B4D53473A4772626C5F5265767A
:1000E0006F6C7574696F6E5F426F6273434E435DF0
:1000F0000D0A5B4D53473A4178697320636F756E03
:100100007420345D0D0A00244E005B4F50543A00B9
:100110005B5645523A312E31682E32303231303111
:1001200030323A005B544C4F3A005B4739323A0068
:100130003330003238005B4700204700204D00205C
:10014000460020540033382E005B47433A47005B9B
:10015000484C503A2424202423202447202449209A
:10016000244E2024783D76616C20244E783D6C69C5
:100170006E6520244A3D6C696E652024534C5020E6
:100180002443202458202448207E2021203F20631F
:1001900074726C2D785D0D0A00414C41524D3A004D
:1001A0007C413A007C4F763A007C57434F3A007CC2
:1001B000506E3A007C463A007C42663A007C5750CA
:1001C0006F733A007C4D506F733A00536C656570E5
:1001D00000446F6F723A00436865636B00416C6165
:1001E000726D00486F6D65004A6F6700486F6C6400
:1001F0003A0052756E0049646C65000D0A002C309F
:100200002E3030302C005B5052423A006572726FD3
:10021000723A000000A042000010430000C84300F2
:10022000401C4600401C460000FA4400BADB49006E
:10023000BADB4900BADB49008018C4000061C50080
:1002400000AAC20A000019010AD7233C6F12033B1F
:1002500000007A4400000000700100007A430000B2
:10026000FA44FA000000A0406F6B0D0A00536C6561
:100270006570696E6700526573746F72696E67208E
:100280007370696E646C6500526573746F72696E29
:10029000672064656661756C74730050676D2045F6
:1002A0006E6400436865636B204C696D697473000C
:1002B000436865636B20446F6F72004469736162C9
:1002C0006C656400456E61626C65640043617574C1
:1002D000696F6E3A20556E6C6F636B6564002724FE
:1002E00048277C2724582720746F20756E6C6F6315
:1002F0006B00526573657420746F20636F6E746950
:100300006E7565005B4D53473A0011241FBECFEF59
:10031000D8E0DEBFCDBF27E0A0E0B1E001C01D9274
:10032000A730B207E1F70E94D42D0C9405380C9445
:1003300000008F929F92AF92BF92CF92DF92EF9286
:10034000FF920F931F93CF93DF937C016B01DC012E
:10035000EC91F0E0E954F94F8081EF018D3229F5FD
:100360002296818101E0912CF0E010E020E030E065
:10037000A9015E01E0EDE80FEA3018F5FF5FF93002
:10038000E0F491101150A5E0B0E00E94DE379B012F
:10039000AC01220F331F441F551F2E0F311D411D6D
:1003A000511D2196D5018C91E4CF8B3219F0219605
:1003B00000E0D9CF22968181FBCF9110F2CF1F5F51
:1003C000F0CFEE3F29F4911003C099249394E9CF24
:1003D000FF23F9F0CA01B9010E94DD344B015C0131
:1003E00020E030E0A9010E942B3481112BC00023B2
:1003F00009F445C0B7FAB094B7F8B094F60180821A
:100400009182A282B382C75BD640C150F701C083FC
:10041000F1E08F2FDF91CF911F910F91FF90EF901F
:10042000DF90CF90BF90AF909F908F9008952AE07B
:1004300037ED43E25CE3C501B4010E948D364B0108
:100440005C011E5F1F3F9CF31F3F59F42DEC3CECF9
:100450004CEC5DE3C501B4010E948D364B015C019B
:10046000C6CF112321F220E030E040E251E4C50183
:10047000B4010E948D364B015C011150F2CFD601C0
:100480008D929D92AD92BC921397BDCF2FB7F894E9
:100490009091C005892B8093C0052FBF08952FB779
:1004A000F8949091BF05892B8093BF052FBF0895C5
:1004B0009FB7F8948093BE059FBF08959FB7F894A7
:1004C0002091BD05809582238093BD059FBF08952F
:1004D0002FB7F8949091BD05892B8093BD052FBF50
:1004E00008958F929F92AF92BF92CF92DF92EF9238
:1004F000FF920F931F93CF93DF93C0902E06D12CC2
:1005000028EEE22E25E0F22E8C01D0E0C0E0C601FC
:100510000C2E02C0959587950A94E2F780FF1EC0C5
:10052000C130B9F1F80180809180A280B38020E0D1
:1005300030E0A901C501B4010E942B3487FD0CC035
:10054000F70124A135A146A157A15058C501B40116
:100550000E944D361816ECF481E026C0C130C9F077
:10056000F80180809180A280B38020E030E0A90172
:10057000C501B4010E944D36181674F3F70124A189
:1005800035A146A157A1C501B4010E942B3487FDB6
:10059000E3CF2196F4E0EF0EF11C0C5F1F4FC33048
:1005A000D10509F0B4CF80E0DF91CF911F910F9179
:1005B000FF90EF90DF90CF90BF90AF909F908F9083
:1005C00008958F929F92AF92BF92CF92DF92EF9257
:1005D000FF920F931F93CF93DF93EB0128EEE22E50
:1005E00025E0F22E8C016B018CE0C80ED11C6991C4
:1005F000799189919991F70181909190A190B19011
:100600007F010E94DF34A50194010E943534F80176
:1006100061937193819391938F01CC15DD0539F727
:10062000DF91CF911F910F91FF90EF90DF90CF90CE
:10063000BF90AF909F908F90089596B19095892F1D
:10064000877039F082E091FF80E090FD816092FD3B
:1006500084600895CF93DF93C091BB05D091BC0512
:100660002097C9F0809191058160809391056091F8
:10067000A7057091A8058091A9059091AA059B01F5
:10068000AC010E948D366A8B7B8B8C8B9D8B10927C
:10069000BC051092BB05DF91CF910895909119068A
:1006A000492F80911A06282F90FF11C094E080FFF7
:1006B00010C080E241FD986021FD806442FD9061A0
:1006C00022FD806890930B0280930C02089590E0C5
:1006D000EECF80E0EFCF80912D0682FF13C0289AE5
:1006E00080910B0280931C02809118068250990B16
:1006F000880F819580931B0280916F0082608093A8
:100700006F0008952898ECCF9091DC05911105C0F9
:10071000811104C02C981092E6050895803119F4D7
:100720002D982C9AF8CF2D9AFCCF249A259A2C98A4
:100730000895E0911D0191E09E0F993609F490E033
:1007400020918701291761F0F0E0E25EFE4F80837F
:1007500090931D018091C10080628093C10004C00C
:100760002091BD0524FFECCF0895CF93DF93C7EB15
:10077000D6E08991811103C0DF91CF9108950E9445
:100780009903F7CF1092C10590912D0697FD03C0F4
:1007900090E29093C105882331F08091C10590E2E9
:1007A00089278093C10508958F929F92AF92BF923F
:1007B000CF92DF92EF92FF920F931F93CF93DF932D
:1007C000CDB7DEB72D970FB6F894DEBF0FBECDBF05
:1007D0006B017C01042F20E030E0A9010E942B3442
:1007E00087FF07C08DE20E949903F7FAF094F7F8AB
:1007F000F094102F123008F054C000FF0AC020E01F
:1008000030E040E251E4C701B6010E948D366B0131
:100810007C0120E030E040E05FE3C701B6010E94C8
:1008200036330E94A73410E03AE0832E912CA12C9D
:10083000B12CE12FF0E06115710581059105E9F515
:1008400081E090E08C0F9D1FE80FF91F80E31017E7
:1008500008F445C0101309C0E1E0F0E0EC0FFD1F03
:10086000E10FF11D80E380831F5FEE24E394F12C00
:10087000EC0EFD1EE10EF11C111134C02D960FB6C9
:10088000F894DEBF0FBECDBFDF91CF911F910F91C6
:10089000FF90EF90DF90CF90BF90AF909F908F90A0
:1008A000089520E030E048EC52E4C701B6010E9410
:1008B0008D366B017C0112509DCFEE24E394F12C18
:1008C000EC0EFD1EEE0EFF1EA50194010E94B63730
:1008D000605DF7016083B901CA011F5FAACF1F5F86
:1008E0008193B5CF101303C08EE20E949903F701E4
:1008F00082917F010E9499031150BECF20912D0655
:1009000040E020FF07C02BE832E441E25DE30E94B3
:100910008D3641E00C94D40320912D0643E020FF56
:1009200007C02BE832E441E25DE30E948D3644E0EB
:100930000C94D403CF93DF93843658F06AE00E947E
:100940009637C0E3C90F6AE00E949637D0E3D90F0B
:1009500004C0C0E0D0E08A30B0F7805D0E94990307
:10096000DD2319F08D2F0E949903CC2329F08C2FC1
:10097000DF91CF910C949903DF91CF910895CF939C
:10098000DF93EC01FE0184912196811103C0DF9178
:10099000CF9108950E949903F5CFCF93DF93EC0197
:1009A000688179818A819B810E948C048EEF91E01D
:1009B0000E94BF04688579858A859B850E948C0486
:1009C0008CE20E9499036C817D818E819F81DF91F1
:1009D000CF910C948C048BEF91E00C94BF04CF93D7
:1009E000C82F8CE092E00E94BF048C2F0E949A04D2
:1009F000CF910C94EB04811104C088E692E00C9432
:100A0000BF040C94EF04CF92DF92EF92FF92CF934A
:100A1000DF93D82F6A017B01C22F84E20E949903E1
:100A20008D2F0E949A048DE30E9499034C2FC701D9
:100A3000B6010E94D403DF91CF91FF90EF90DF9039
:100A4000CF900C94EB04CF93DF93D82FC62F84E282
:100A50000E9499038D2F0E949A048DE30E949903AE
:100A60008C2F0E949A04DF91CF910C94EB04EF92AB
:100A7000FF920F931F93CF93DF936091180670E05E
:100A800080E00E94230560911B0670E081E00E94D7
:100A900023056091190670E082E00E9423056091B1
:100AA0001A0670E083E00E94230560912D0662FB28
:100AB000662760F970E084E00E94230560912D06AE
:100AC00066FB662760F970E085E00E94230580914F
:100AD0002D06082E000C990B692F661F6627661FCE
:100AE00070E086E00E94230560911C0670E08AE0B9
:100AF0000E94230540911D0650911E0660911F061D
:100B00007091200623E08BE00E94030540912106AE
:100B100050912206609123067091240623E08CE018
:100B20000E94030560912D06617070E08DE00E94C7
:100B3000230560912D0665FB662760F970E084E16E
:100B40000E94230560912D0663FB662760F970E023
:100B500085E10E94230560912D066295617070E029
:100B600086E10E94230560912E0670E087E10E94D5
:100B7000230540912F065091300660913106709107
:100B8000320623E088E10E9403054091330650912C
:100B90003406609135067091360623E089E10E94A3
:100BA000030560913706709138068AE10E9423059B
:100BB0004091390650913A0660913B0670913C068F
:100BC00023E08BE10E940305409125065091260603
:100BD000609127067091280620E08EE10E940305AF
:100BE0004091290650912A0660912B0670912C069F
:100BF00020E08FE10E94030570E060E080E20E9447
:100C0000230584E6F82E10E0C8EED5E000E0E02EE3
:100C1000EF0C123011F1133069F11130C9F0488135
:100C200059816A817B8123E08E2D0E9403050F5F2D
:100C30002496033061F78AE0F80E1F5F8CE8F81203
:100C4000E3CFDF91CF911F910F91FF90EF90089527
:100C50004C855D856E857F85E6CF20E030E041E6FE
:100C600055E4688D798D8A8D9B8D0E943534AB015A
:100C7000BC01D9CF4CA15DA16EA17FA17058D3CF8B
:100C80008DE50E9499030C94EB04CF93DF93CDB7CD
:100C9000DEB72C970FB6F894DEBF0FBECDBF86E04F
:100CA00092E00E94BF046EEC75E0CE0101960E94B6
:100CB000E102CE0101960E94CD048AE30E949903CD
:100CC0008091E0050E949A040E9440062C960FB67F
:100CD000F894DEBF0FBECDBFDF91CF910895E1E064
:100CE000F1E0A2ECB5E04D915D916D917C9113978F
:100CF000408351836283738314964D915D916D910E
:100D00007C911797448355836683778318968D91DA
:100D10009D910D90BC91A02D80879187A287B3876C
:100D20000895BF92CF92DF92EF92FF920F931F939D
:100D3000CF93DF937C01FC0102A513A5D4A5C5A523
:100D4000818980FF33C06091E30570E090E080E02E
:100D50000E94DF342AE037ED43E25CE30E948D36E7
:100D60009B01AC01B8018D2F9C2F0E948D368B0109
:100D7000D82FC92F20E030E040E85FE3B8018D2F85
:100D80009C2F0E944D36181624F000E010E0D0E8A9
:100D9000CFE3B8018D2F9C2FDF91CF911F910F9141
:100DA000FF90EF90DF90CF90BF90089582FD17C025
:100DB0006091E20570E090E080E00E94DF342AE07C
:100DC00037ED43E25CE30E948D369B01AC01B80134
:100DD0008D2F9C2F0E948D368B01D82FC92FF701A4
:100DE000B6A0C7A0D0A4F1A498014D2F5C2F6B2D05
:100DF0007C2D8D2D9F2D0E942B3487FFBBCF0B2D7B
:100E00001C2DDD2DCF2DB6CF809132029091130590
:100E1000981739F02EE2829FC00111248D5C9D4FFE
:100E2000089590E080E008950E940407892B19F04E
:100E300082E00C94680208952F923F924F925F9245
:100E40006F927F928F929F92AF92BF92CF92DF92DA
:100E5000EF92FF920F931F93CF93DF9300D000D0B8
:100E6000CDB7DEB700911305002309F486C00983CE
:100E700039813150398310913102131709F466C05A
:100E8000C32ED12CEEE23E9FC00111249C012D5CAB
:100E90003D4F7901F90176888788908CA18C628D0D
:100EA000738D848D958D9B01AC010E943633F701C3
:100EB000268D378D40A151A10E948D36B62EE72E8A
:100EC000F82E9B83262F372F482F592F672D782DEB
:100ED000892D9A2D0E942B3487FF03C0B72C7401F3
:100EE000AB828EE28C9DF0018D9DF00D1124ED5CA6
:100EF000FD4F8B2D9E2DAF2DBB81828B938BA48BB1
:100F0000B58BF9818F2FF11101C080E1FF24FA9494
:100F1000F80E309032021F1133C0131102C00E942C
:100F20002A03EEE21E9FC00111248D5C9D4F9A831F
:100F3000898333243394310EF0E13F1201C0312C08
:100F40008EE2282E031185C0109331020F900F906E
:100F50000F900F90DF91CF911F910F91FF90EF9025
:100F6000DF90CF90BF90AF909F908F907F906F90C9
:100F70005F904F903F902F90089520E1298378CF84
:100F800029818EE2289F900111242D5C3D4F3C83E6
:100F90002B832EE2E22E8F2C912CFE9CC00111247B
:100FA000FC01ED5CFD4FFA83E983F11002C090E192
:100FB000F92EFA94F31002C00E942A03E89CC001A3
:100FC000E99C900D11249C012D5C3D4F6901F901B4
:100FD00046885788608C718CA3019201628973895D
:100FE000848995890E942B34882339F1F601628D1A
:100FF000738D848D958D9B01AC010E943633F60173
:10100000268D378D40A151A10E948D36EB81FC8148
:1010100022893389448955890E9436334B015C010A
:10102000AC019B01C301B2010E944D36F6011816B6
:101030005CF4828A938AA48AB58A29813A813C83A6
:101040002B831F11A8CF6DCF428A538A648A758A79
:10105000F4CFC32CD12C329CC00111249C012D5CF7
:101060003D4F7901E981FA81428853886488758807
:10107000F90182889388A488B588A5019401C301E9
:10108000B2010E942B3487FF26C0E981FA81628D6C
:10109000738D848D958D9B01AC010E943633E9815F
:1010A000FA81268D378D40A151A10E948D36A30172
:1010B00092010E9436332B013C01AC019B01C5011A
:1010C000B4010E944D36181634F4F701428A538A4F
:1010D000648A758A132D2C9CF0012D9CF00D11242F
:1010E000ED5CFD4F26893789408D518D628973896A
:1010F000848995890E942B34811101C0132D33946A
:10110000F0E13F1201C0312CFA82E9821BCF6F92CD
:101110007F928F929F92AF92BF92CF92DF92EF9287
:10112000FF920F931F93CF93DF93EB018C015B0131
:101130008CE0A80EB11C89E9682E96E7792E26E985
:10114000822E3EE7932EC990D990E990F99020E045
:1011500030E0A901C701B6010E942B348823B9F001
:10116000A7019601F80160817181828193810E94BB
:1011700035346B017C01E894F7F89301A401C701B1
:10118000B6010E944D36181614F0360147010C5F67
:101190001F4FCA15DB05B9F6B301C401DF91CF912A
:1011A0001F910F91FF90EF90DF90CF90BF90AF9085
:1011B0009F908F907F906F90089593B180912D06AE
:1011C00086FF0BC09E7059F091FB882780F992FD35
:1011D0008260987029F0846008959095F3CF80E044
:1011E0000895EBE6F0E08081817F8083E8E6F0E01F
:1011F00080818E7F8083089584B1817F84B985B199
:101200008E6085B980912D0683FF0BC080916B00A5
:101210008E6080936B00809168008160809368008D
:1012200008950C94F10862EC75E085E596E00C9465
:10123000E102F894F999FECF92BD81BD81E08FBBA8
:1012400020B5862F8227082E000C990B50E08623AC
:101250009523892B49F084E16F3F11F060BD84E054
:101260008FBBF99A789408952617E1F360BD84E264
:10127000F7CF9F92AF92BF92CF92DF92EF92FF9201
:101280000F931F93CF93DF935C018A017B01E40EE0
:10129000F51EEB01912C6C01C61AD70ACE018C0DFC
:1012A0009D1D21E0911007C0292D990C330B232F90
:1012B000221F2227221F6991962E920E0E94190941
:1012C000CE15DF0559F7692DC501800F911FDF91FC
:1012D000CF911F910F91FF90EF90DF90CF90BF9033
:1012E000AF909F900C9419096AE090E080E00E9412
:1012F000190945E550E068EE75E081E090E00C9456
:101300003909F999FECF92BD81BD81E08FBB80B5CF
:1013100008959F92AF92BF92CF92DF92EF92FF9289
:101320000F931F93CF93DF935B018A017C01E40E3F
:10133000F51EEC01912C6B01C81AD90AC6018C0F5D
:101340009D1F0E94810921E0911007C0292D990C51
:10135000330B232F221F2227221F982E920E8993B0
:10136000CE15DF0559F7C501800F911F0E94810935
:1013700021E030E0891511F030E020E0C901DF9173
:10138000CF911F910F91FF90EF90DF90CF90BF9082
:10139000AF909F9008959091DC05911105C086FF54
:1013A00004C0439A1092E60508954398FBCFE1E00C
:1013B000F1E08CE1DF011D928A95E9F7109232028B
:1013C0001092130581E0809300011092310208957C
:1013D0004F925F926F927F92AF92BF92CF92DF92C5
:1013E000EF92FF920F931F93CF93DF93EC015C0179
:1013F0002CE0A20EB11C8C01C12CD12C7601F8017D
:1014000041905190619071908F0120E030E0A901EE
:10141000C301B2010E942B34882371F0A301920111
:10142000C301B2010E948D369B01AC01C701B60118
:101430000E9436336B017C010A151B0501F7C701B9
:10144000B6010E942C376B017C01AC019B0160E06E
:1014500070E080E89FE30E9435342B013C016991E4
:101460007991899199915E01F4E0AF1AB108A301D5
:1014700092010E948D36F50160837183828393838C
:10148000C017D10761F7C701B601DF91CF911F9156
:101490000F91FF90EF90DF90CF90BF90AF907F9033
:1014A0006F905F904F9008952F923F924F925F926E
:1014B0006F927F928F929F92AF92BF92CF92DF9264
:1014C000EF92FF920F931F93CF93DF93CDB7DEB7C9
:1014D000C654D1090FB6F894DEBF0FBECDBF209120
:1014E000DF052AA320FDE1C624702BAB3091130544
:1014F00039AF4EE2349FC0011124DC01AD5CBD4F19
:101500002396BFAFAEAF2397BAA1B270BCAB4091E8
:1015100032024AAF4F5F4D8F403109F458C74BAF8D
:101520005EE2ABAD5A9FC0011124FC01EB5BFD4FA5
:101530002596FFAFEEAF2597909114058091150584
:10154000981709F4B2C68091BB059091BC05892B10
:1015500009F079C0EBA9EE2309F40FC223962EAD52
:101560003FAD23973093BC052093BB054091BB054D
:101570005091BC055A874987452B09F496C61091AE
:10158000910510FF01C2109291051092A3051092CF
:10159000A4051092A5051092A605A985BA855A96AC
:1015A0002D913D914D915C915D9729833A834B83B9
:1015B0005C8360E070E080E09FE30E9435346D83DF
:1015C0007E838F839887E985FA85468C578C60A047
:1015D00071A082889388A488B588FCA9FF2309F4A8
:1015E000A1C222E02093A205A50194010E948D369C
:1015F0009B01AC01C301B2010E9435336B017C0138
:1016000020E030E0A9010E942B3487FF7AC22981B3
:101610003A814B815C81CA01B9010E943633A30132
:1016200092010E948D369B01AC01C501B4010E945C
:1016300035330E942C376093AF057093B0058093CB
:10164000B1059093B20580913A05482F50E05A8B2E
:10165000498B86E0849FF001859FF00D1124EA5E9E
:10166000FA4F809190058483A091BB05B091BC0591
:10167000BE87AD875E96BC91BFA3ED85FE85F78DD5
:10168000F8A7AD85BE859096BC91B9A7ED85FE857E
:10169000F1A1FAA720919E0530919F054091A005E8
:1016A0005091A1056FA178A58B2F9F2F0E943533F4
:1016B0006DAB7EAB8FAB98AF20E030E0A9010E940C
:1016C0002B3487FF04C01DAA1EAA1FAA18AE2091A2
:1016D000AB052D8B3091AC053E8B4091AD054F8B0A
:1016E0005091AE05588F8091B3058E8F9091B405BF
:1016F0009F8FA091B505A8A3B091B605B9A3E091BD
:10170000B705EBA7F091B805FCA72091B9052DA767
:101710003091BA053EA73090A7052090A8054091CA
:10172000A90527964FAF27975091AA0526965FAF38
:1017300026978091A20589879091A3059FA7A091E4
:10174000A405A8ABB091A505B9ABE091A605EAAB9D
:10175000F091AF05FDAF2091B0052EAF3091B105EE
:101760003FAF4091B20521964FAF21972BA53CA5E5
:101770004DA55EA56E8D7F8D88A199A10E942B3409
:10178000811159C352E05CAF9FA1998FA8A5AA8F80
:10179000B9A5BB8FEAA5EC8F8EE3C82E83ECD82EBB
:1017A0008EE2E82E89E3F82E412C512C3201A7015C
:1017B00096012BA33CA34DA35EA35985513009F498
:1017C000F7C3AD85BE85513008F46FC3533009F0BF
:1017D00025C45A962D913D914D915C915D97C7011D
:1017E000B6010E948D364B015C012D893E894F89DF
:1017F000588D632D722D27968FAD279726969FAD16
:1018000026970E9435339B01AC01C501B4010E94AB
:101810004D3687FD1AC32E8D3F8D48A159A16FA16A
:1018200078A589A59AA50E9435339B01AC010E9439
:1018300036336B017C012D893E894F89588D632D8C
:10184000722D27968FAD279726969FAD26970E94DB
:1018500036339B01AC01C701B6010E9435346B01E0
:101860007C013D882E88BF892796BFAF2797E88DDA
:101870002696EFAF26970E8D1F8DF8A1F98329A12B
:101880002D8331E03987A7019601C301B2010E947F
:1018900036332B013C012BA13CA14DA15EA10E943E
:1018A0002B3487FF3CC4A30192016BA17CA18DA1C5
:1018B0009EA10E9435336B017C01980149815D81B5
:1018C0006FA578A989A99AA90E942B3487FDB6C271
:1018D000832D922D2796AFAD27972696BFAD2697DD
:1018E0008093A7059093A805A093A905B093AA0596
:1018F00039853093A20520919A0530919B0540913E
:101900009C0550919D05B80189819D810E948D366D
:1019100069877A878B879C870E9414346B017C01CE
:101920006091960570919705809198059091990521
:101930000E9414344B015C01A70196010E943533CB
:101940000E94AE346D877E878F87988BA6E0898949
:101950009A89A89FF001A99FF00D1124EA5EFA4F21
:101960002D853E8531832083232B09F008C45CA993
:10197000552309F404C48AA195C40E9404079093D6
:10198000BC058093BB05F2CD809190058F5F8530BB
:1019900009F480E080939005482F50E091E1949FF6
:1019A000F001959FF00D1124E55CFA4FA985BA85E9
:1019B00050969C915097908BE1E18E9FC00111242D
:1019C00030E020E0CD90DD90ED90FD90FC01E20F45
:1019D000F31FE55CFA4F63E0CC0CDD1CEE1CFF1C32
:1019E0006A95D1F7C082D182E282F3822C5F3F4FA9
:1019F0002C30310539F7A985BA851C966D917D91FA
:101A00008D919C911F97B1E1B49F9001B59F300DCE
:101A10001124F901E55CFA4F6B017C0123E0CC0C49
:101A2000DD1CEE1CFF1C2A95D1F7C486D586E68600
:101A3000F7860E94DD346093960570939705809336
:101A4000980590939905E985FA85268D378D40A1F3
:101A500051A10E9435349B01AC0120939A0530932B
:101A60009B0540939C0550939D0560E070E080EAE3
:101A70009FE30E94353460939E0570939F05809389
:101A8000A0059093A10510929205109293051092D3
:101A9000940510929505FCA9F11102C013FF20C016
:101AA0006091AF057091B0058091B1059091B2053C
:101AB0006093A7057093A8058093A9059093AA0544
:101AC0009B01AC010E948D36A985BA8552966D9313
:101AD0007D938D939C935597177F1093910555CDCA
:101AE000E985FA8562897389848995890E942C37F2
:101AF0006093A7057093A8058093A9059093AA0504
:101B000044CDC092A305D092A405E092A505F09221
:101B1000A6051092AF051092B0051092B105109273
:101B2000B20591CD1092A2054092B3055092B40532
:101B30006092B5057092B6053BA9332309F46AC0DB
:101B40001092AF051092B0051092B1051092B20537
:101B5000C12CD12C760189859A850E9491066D87CA
:101B60007E878F87988B9B01AC010E948D36698799
:101B70007A878B879C87A50194010E942B3487FF6D
:101B80008BC029853A854B855C85C501B4010E94CF
:101B900035332D813E814F8158850E948D369B01C2
:101BA000AC01C301B2010E9435336093B305709359
:101BB000B4058093B5059093B60520E030E0A90107
:101BC0000E942B3418160CF441C0B2E0B093A20569
:101BD00029813A814B815C81CA01B9010E94363367
:101BE000A30192010E948D369B01AC01C501B40195
:101BF0000E9435330E942C376093AF057093B00577
:101C00008093B1059093B20580919105886080938F
:101C1000910519CD49AD5BADC12CD12C760145178D
:101C200041F02596AEADBFAD2597CD90DD90ED90FE
:101C3000FC90C701B6010E942C376093AF057093EA
:101C4000B0058093B1059093B20585CFA7019601A9
:101C500069857A858B859C850E9435332D813E81EF
:101C60004F8158850E948D366093B7057093B805F3
:101C70008093B9059093BA052D853E854F85588987
:101C80002093AB053093AC054093AD055093AE0562
:101C900033E03093A205D7CCA7019601C501B4016A
:101CA0000E9435332D813E814F8158850E948D36AB
:101CB000A30192010E94363320E030E040E05FE370
:101CC0000E948D36698B7A8B8B8B9C8B20E030E069
:101CD000A9010E944D3618160CF094C0A301920180
:101CE00069897A898B899C890E942B3487FF88C0F7
:101CF000A701960169857A858B859C850E9435337D
:101D00002D813E814F8158850E948D369B01AC010B
:101D10002093B7053093B8054093B9055093BA05A1
:101D200069897A898B899C890E944D361816BCF581
:101D30008D859E85AF85B8898093AB059093AC0562
:101D4000A093AD05B093AE05A501940169857A8590
:101D50008B859C850E942B34811104C091E0909367
:101D6000A20571CCA501940169857A858B859C8536
:101D70000E9435332D813E814F8158850E948D36DA
:101D80009B01AC01C301B2010E9435336093B305DE
:101D90007093B4058093B5059093B60554CC29890A
:101DA0003A894B895C892093B3053093B4054093FD
:101DB000B5055093B6052093B7053093B805409309
:101DC000B9055093BA0529813A814B815C81CA01DA
:101DD000B9010E94363329893A894B895C890E946E
:101DE0008D36A70196010E9436330E942C376093EE
:101DF000AB057093AC058093AD059093AE0523CCF5
:101E000032E047CF8091AF059091B005A091B10528
:101E1000B091B2051092B3051092B4051092B505B9
:101E20001092B6058093AB059093AC05A093AD05D9
:101E3000B093AE0508CC81E08CAFA6CC098F1A8F89
:101E400039813B8F4D814C8FB8CC20E030E040E0B1
:101E50005FE3C501B4010E948D369B01AC01632D87
:101E6000722D27968FAD279726969FAD26970E94B5
:101E70003533A70196010E948D369B01AC01698D17
:101E80007A8D8B8D9C8D0E9435338B0189839D8348
:101E9000A5019401632D722D27968FAD2797269665
:101EA0009FAD26970E9435337AC05A962D913D9169
:101EB0004D915C915D97C701B6010E948D364B0133
:101EC0005C0120E030E040E05FE30E948D36232D8E
:101ED000322D27964FAD279726965FAD26970E9405
:101EE0003633A70196010E948D369B01AC01698DA6
:101EF0007A8D8B8D9C8D0E9435338B0189839D83D8
:101F00009B01AC016E8D7F8D88A199A10E944D36F9
:101F10001816CCF52E8D3F8D48A159A16FA178A53B
:101F200089A59AA50E9435339B01AC010E943633E6
:101F30006B017C012D893E894F89588D632D722D4F
:101F400027968FAD279726969FAD26970E9436330A
:101F50009B01AC01C701B6010E9435346B017C01C5
:101F6000BCADB9873D882E88EF892796EFAF2797BC
:101F7000F88D2696FFAF26970E8D1F8D28A12983F9
:101F800039A13D8380CCA5019401632D722D279644
:101F90008FAD279726969FAD26970E943633362E13
:101FA000272E27968FAF279726969FAF26976BCC25
:101FB0002D893E894F89588DC701B6010E948D3603
:101FC0009B01AC01698D7A8D8B8D9C8D0E94353380
:101FD0008B0189839D832BA53CA54DA55EA50E9401
:101FE0002B3487FF50CC2BA53CA54DA55EA5698D54
:101FF0007A8D8B8D9C8D0E9435332D893E894F893A
:10200000588D0E9435346B017C010BA51CA54DA594
:1020100049835EA55D8382E0898735CC5A962D91F0
:102020003D914D915C915D97C701B6010E948D363F
:102030004B015C01AC019B01632D722D27968FAD86
:10204000279726969FAD26970E944D36181664F561
:1020500020E030E040E05FE3C501B4010E948D362E
:102060009B01AC01632D722D27968FAD2797269685
:102070009FAD26970E943533A70196010E948D36A9
:102080009B01AC01698D7A8D8B8D9C8D0E943533BF
:102090008B0189839D832FA538A949A95AA90E943C
:1020A0004D3618160CF4F4CE2FA538A949A95AA913
:1020B000698D7A8D8B8D9C8D0E9435339B01AC018F
:1020C0000E9436336B017C012DAD3EAD4FAD2196A4
:1020D0005FAD2197632D722D27968FAD279726969A
:1020E0009FAD26970E9436339B01AC01C701B60114
:1020F0000E9435346B017C013DAC2EACBFAD279600
:10210000BFAF27972196EFAD21972696EFAF269781
:102110000FA518A9F9A9F9832AA92D83B4CB2DA954
:102120003EA94FA958ADB80189819D810E944D36C5
:1021300018168CF42EE333EC4EE259E36BA17CA12C
:102140008DA19EA10E9436336BA37CA38DA39EA379
:10215000A3019201AECB832D922D2796AFAD279789
:102160002696BFAD26978093A7059093A805A093C8
:10217000A905B093AA0549854093A205BCCB20913F
:102180009205309193054091940550919505C301B6
:10219000B2010E9436332B013C0129853A854B85DB
:1021A0005C85C501B4010E9435339B01AC01C301BC
:1021B000B2010E9435344B015C0120EC31EE44E663
:1021C0005EE40E948D360E9414340E94AE34603D5D
:1021D000A7E07A078105910508F081C046E02989CA
:1021E0003A89429FF001439FF00D1124EA5EFA4FB5
:1021F000158246E029893A89429FF001439FF00DFC
:102200001124EA5EFA4F73836283809115058093EF
:102210003A058F5F863009F4BBC080931505E091C5
:10222000BB05F091BC05C801A981BD81868F978F40
:10223000A0A3B1A3C0929605D0929705E09298050D
:10224000F092990529853A854B855C85C701B601D1
:102250000E943533A50194010E948D36609392054A
:102260007093930580939405909395052091A30511
:102270003091A4054091A5055091A605B80189812A
:102280009D810E942B34811157C920E030E0A901C3
:10229000B80189819D810E944D3618160CF07BC0D3
:1022A0008091DF0581608093DF05CA5BDF4F0FB649
:1022B000F894DEBF0FBECDBFDF91CF911F910F917C
:1022C000FF90EF90DF90CF90BF90AF909F908F9056
:1022D0007F906F905F904F903F902F900895603A5D
:1022E0005FE0750781059105A0F526E0A989BA8907
:1022F0002A9FF0012B9FF00D1124EA5EFA4F31E086
:10230000358346E029893A89429FF001439FF00DC9
:102310001124EA5EFA4F2581022E04C09695879516
:10232000779567950A94D2F7AD85BE8502C0AA0F4E
:10233000BB1F2A95E2F7B183A08361157105B1E057
:102340008B07910508F455CF8FEF9FEF938382831E
:102350005CCF60344FE174078105910560F426E09D
:10236000A989BA892A9FF0012B9FF00D1124EA5EFA
:10237000FA4F32E0C5CFA6E049895A89A49FF001FF
:10238000A59FF00D1124EA5EFA4FB3E0B583B9CFF3
:102390001092150544CF9BA99111EDCA1092BC056E
:1023A0001092BB05A9ADBAADAB1709F4C5C8ED8D48
:1023B000E03109F41D8E80913102FAADF81303C0AB
:1023C0002D8D209331023D8D30933202A0C81BAE7B
:1023D000A7C880916F008D7F80936F0080918100EE
:1023E000887F81608093810010920D0280911B068E
:1023F0009091DB058F3FA1F42091BE05211110C003
:10240000903881F490E0019778F481E090912D0666
:1024100092FF02C091E08927882369F0289A0895E5
:10242000943081F780E0F2CFEFE9FFE03197F1F7E8
:1024300000C00000E8CF28980895CF93DF930E9452
:10244000E911E0E9F5E08BE2DF011D928A95E9F7F9
:10245000CEE0D2E083E2FE0111928A95E9F7109274
:10246000BC051092BB051092140510923A0581E04C
:102470008093150510920D020E944E0380910C026C
:102480008F878BB1837E90910B02892B8BB98BB197
:102490008F7190910C02892B8BB9DF91CF910895A8
:1024A0008091BD0584FD1BC080E10E9468022C98CC
:1024B00043989091DB05892F8C7221F48091DF0580
:1024C000867069F0943049F48091BE05811103C093
:1024D00086E00E9458020C94E91183E0FACF089537
:1024E0002F923F924F925F926F927F928F929F9224
:1024F000AF92BF92CF92DF92EF92FF920F931F9312
:10250000CF93DF93CDB7DEB7A4970FB6F894DEBFB5
:102510000FBECDBF1091BE05112349F181E080931C
:10252000DB0589E991E00E94BF04812F0E949A0493
:102530000E94EB0485EF91E00197E1F51150123014
:1025400088F484E093E00E94BF0482EF92E00E944E
:10255000BF040E94400680E10E945E028091BD059A
:1025600084FFFCCF8FB7F8941092BE058FBF1091F7
:10257000BD05112309F49AC214FF23C081E08093A2
:10258000DC05A4960FB6F894DEBF0FBECDBFDF9179
:10259000CF911F910F91FF90EF90DF90CF90BF9060
:1025A000AF909F908F907F906F905F904F903F90F3
:1025B0002F900895EFE9FFE03197F1F700C0000098
:1025C000BBCF10FFBFC08CE0E2ECF5E0DE01599616
:1025D00001900D928A95E1F7BE01675E7F4FCE01B3
:1025E0000D960E94E1028CE30E9499038091DB0525
:1025F000883009F421C108F0FCC0813009F425C1FC
:1026000008F415C1823009F423C1843009F41AC1D9
:1026100080911C06F82FF1709F2E80FF2EC18091B3
:10262000E705882309F429C184EC91E00E94BF04E6
:10263000CE010D960E94CD0480911C0681FF1DC025
:1026400088EB91E00E94BF049091130580913202C3
:10265000981708F461C1815F891B0E949A048CE27B
:102660000E9499038091090290910A02981708F438
:1026700055C18058891B0E949A0484EB91E00E9406
:10268000BF048091DB058C7709F44AC16091A705EE
:102690007091A8058091A9059091AA050E947E04D9
:1026A0000E94DD08E82E0E941D03F82E06B100727C
:1026B0008091C10508278E2D8F29802B59F18FEA33
:1026C00091E00E94BF04002319F080E50E94990365
:1026D000EE2079F0E0FE03C088E50E949903E1FE58
:1026E00003C081E40E949903E2FE03C08AE50E94D0
:1026F0009903FF2079F0F0FE03C082E50E94990360
:10270000F1FE03C088E40E949903F2FE03C083E552
:102710000E9499038091E705882309F405C181503F
:102720008093E7050091E605002309F416C10150E6
:102730000093E6058EE30E9499030E94EB0481E07A
:102740000E945E02812F887E09F460C18091DB05C2
:10275000982F937009F049C18872A9F08091DD0526
:10276000807C89F40E942A0382E08093DF058091B7
:10277000DB05803241F480E217FD0CC08091DD055D
:1027800080688093DD058091DB05811103C091E0B5
:102790009093DD0516FF07C085FD05C09091DD050E
:1027A00090649093DD0513FF05C0807E19F480E1ED
:1027B0008093DB0515FF19C184E093E00E94BF04FC
:1027C00080EB92E00E94BF040E9440068091DD05EC
:1027D00087FD06C19091DB05903409F0FEC083FFB0
:1027E00004C0837E82608093DD0580E48093DB05F6
:1027F000F7C0803221F198F4803109F009CF80913F
:10280000DD0587FD1CC08CEE91E00E94BF04809125
:10281000DD0580FF2EC080E30E949903F9CE80344D
:10282000D1F0803809F0F4CE8BEC91E002C086EF55
:1028300091E00E94BF04ECCE82EF91E0FACF88EEE7
:1028400091E0F7CF83EE91E0F4CF8DED91E0F1CF01
:1028500087ED91E0EECF81ED91E00E94BF04809181
:10286000DD0583FF02C083E3D7CF82FF04C085FF6D
:10287000D2CF81E3D1CF82E3CFCF40907906509081
:102880007A0660907B0670907C0661E6A62E66E074
:10289000B62E9E012F5F3F4F6901CE010D967C0140
:1028A00000E0F50161917191819191915F01208525
:1028B0003185428553850E943633F60161937193C9
:1028C000819391936F01023041F4A30192010E9420
:1028D000363369877A878B879C87911012C0F601FF
:1028E00034972081318142815381F7016081718168
:1028F000828193810E943533F701608371838283E3
:1029000093830F5FF4E0EF0EF11C033051F691104A
:102910008BCE8DEB91E08ACE81509ECE8150AACE97
:1029200060E070E0CB01BACE8091DB058C7799F046
:102930008DE18093E7058091E605811103C081E078
:102940008093E60589EA91E00E94BF04CE010196DA
:102950000E94CD04E7CE89E0ECCF8091DB058C7737
:10296000A9F183E18093E60584EA91E00E94BF0427
:102970008091E2050E949A048CE20E949903809162
:10298000E3050E949A048CE20E9499038091E40579
:102990000E949A042C9B1CC02D9B1CC052E0F52E5B
:1029A000439BC7C100E480EA91E00E94BF04FF207E
:1029B00031F021E083E5F21283E40E9499030023C1
:1029C00009F4B8CE86E40E949903B4CE89E0CACF58
:1029D000F12CE6CFFF24F394E3CF903809F005CF34
:1029E0008091DD0580628093DD0517FF0CC080912A
:1029F000DB05813029F48091DD0585608093DD055C
:102A000080E88093DB0588EE0E945E0211FF28C0FB
:102A1000812F887611F58091DB05803441F4809117
:102A2000DD0585FD04C084FFE2C01092DB058091C6
:102A3000DB05882309F4E1C084FF0FC09091DD0518
:102A400090FF0BC0803109F0D8C08091E505882344
:102A500009F4D3C088608093E50582E00E945E029D
:102A600012FF24C09091DD058091DB05807D09F483
:102A7000DDC08091DE058111D9C097FDD9C00E94CB
:102A80002A0380913202809331020E941C078091B8
:102A9000DF0581FF05C09091DD0591609093DD0514
:102AA000897F8093DF0584E00E945E029091BF05DC
:102AB000992309F44CC08FB7F8941092BF058FBFCB
:102AC0004091E205842F90FD84E691FD865F92FDA2
:102AD0008A5093FD8F5F94FD8150893C08F088EC0B
:102AE0008A3008F48AE03091E305232F95FD24E62F
:102AF00096FD22E397FD29E1481302C0231739F11F
:102B00008093E2052093E3051092E605709032026F
:102B100060901305172D89E9282E96E7392E26E9AE
:102B2000422E3EE7532E4EE2842E16119CC0C10168
:102B3000D2018093190190931A01A0931B01B093C5
:102B40001C010E942A03709231020E941C071091FE
:102B5000C005112309F443C08FB7F8941092C00543
:102B60008FBF9091E405892F10FD84E611FD865FEB
:102B700012FD8A5013FD8F5F14FD8150893C08F0CF
:102B800088EC8A3008F48AE0981761F09091DB05B0
:102B90008093E4059111C1C0809146060E94840390
:102BA0001092E6058091DB0515FF09C0803139F4EC
:102BB0009091E5059111B7C092E09093E505107CE6
:102BC00071F0882311F0887351F01091450616FFBB
:102BD000AEC01F7B812F0E94CB09109345068091C8
:102BE000DB058C7F09F4CDCC0E94540ACACC82FF4D
:102BF0001ECF88608093DD051ACF1092DF050E94FA
:102C00000407892B71F08091DD0586FD0AC01092C2
:102C1000DD0588E08093DB050E94540A0E946B0367
:102C20001CCF1092DD051092DB0517CF97FF0AC06D
:102C30001092DF050E94D7090E941D120E941309FD
:102C40000E946F068091DD0585FF08C08F77816047
:102C50008093DD0580E48093DB0525CF1092DD05B0
:102C60001092DB0520CFA12EB12C189DC00111249C
:102C70008D5C9D4F0E949106962EC72ED82E092F4F
:102C80009101A2010E944D368A9C70018B9CF00C30
:102C900011241816ACF5C7018D5C9D4F7C01910184
:102CA000A201B101C2010E948D36F701668B778BBC
:102CB000808F918F8A9CC0018B9C900D11249C0168
:102CC0002D5C3D4F7901F90122A033A044A055A00D
:102CD000A201910166897789808D918D0E944D3680
:102CE00018162CF4F701268A378A408E518E1F5F02
:102CF000103109F410E0292C3C2C4D2C502E15CF0E
:102D000097012D5C3D4F7901292D3C2D4D2D502FE4
:102D1000692D7C2D8D2D902FC6CF8091DF05886089
:102D20008093DF053DCF90FF4ACF946046CF10647B
:102D300051CFF11038CEFECC1F93CF93DF93142FD9
:102D400020E030E040EA51E40E948D360E941434C5
:102D50000E94AE34EB012097C9F08091DC0581110F
:102D600015C011110DC00E94CA162FEF80E792E026
:102D7000215080409040E1F700C000002197EBCF48
:102D80000E9470128091DD0581FFEFCFDF91CF911E
:102D90001F9108951F93CF93DF930E94701280912B
:102DA000DD05882309F453C00E940407009771F5DC
:102DB0008091460690914506892BD82FD07311E05B
:102DC000C82FC07C8091DD05882309F440C0909114
:102DD000DC0591113CC080FF16C09091DB05292FC6
:102DE000207C09F47BC082FD1AC01092E50580E0CA
:102DF0000E94840380E00E94CB098091DD058D7FD5
:102E000084608093DD050E947012DCCFFC01918903
:102E10009073439902C080E0CFCF80E4CDCF90384B
:102E2000E9F484E093E00E94BF048DE692E00E9402
:102E3000BF040E94400680E00E94840380E00E945C
:102E4000CB090E94E9118091DC05882321F0DF91F4
:102E5000CF911F9108950E947012F5CF903419F40C
:102E60008F7D8093DD058091DD0583FFCCCF909130
:102E70004606992359F081FD09C080912D0681FFF6
:102E800022C08091DF0588608093DF058091450630
:102E9000882371F08091DD0581FD0AC08C2F0E948E
:102EA000CB0941E060E070E080E89FE30E949C165F
:102EB0008091DD0581FDA7CF80618093DD0582E0F3
:102EC0000E946802A0CF8D2F0E94840341E060E041
:102ED00070E080E890E40E949C16D8CF8091E505D0
:102EE0008823A1F181FF0AC080914606882339F129
:102EF00080E00E9484031093E50585CF8C7009F46F
:102F000082CF80914606882399F084E093E00E9466
:102F1000BF0486E792E00E94BF040E9440068091B1
:102F20002D0681FF0FC08091DF0588608093DF054B
:102F30008091E50583FF03C082E00E946802109241
:102F4000E50561CF8D2F0E948403F2CF8091DF05CC
:102F500083FF59CF8D2F0E9484038091DF05877FE7
:102F60008093DF0550CF0E9414070E94CA168091FB
:102F7000DC05811108C00E940407892BB1F78091FC
:102F8000DB05883091F30895CF93DF9391E5899F16
:102F9000E0011124DD5F40E550E0BE0187EB96E0E3
:102FA0000E948909892B79F41092B7060E94B31701
:102FB00040E550E067EB76E0CE010E94390980E001
:102FC000DF91CF91089581E0FBCF0E94B31710925B
:102FD000E7050895CF939091DB05923039F0C82F23
:102FE0000E94B3178C2FCF910C948403CF91089536
:102FF0000F931F93CF93C82F8B010E94B3172DE01F
:10300000C29FC00111244CE050E0B8019E5FCF91F7
:103010001F910F910C9439091F93CF93DF93182FB1
:10302000EB018DE0189FB00111247E5F4CE050E071
:10303000CE010E948909892B71F48CE0FE01119266
:103040008A95E9F7BE01812F0E94F81780E0DF9191
:10305000CF911F91089581E0FACFEF92FF920F93E5
:103060001F93CF93DF93CDB7DEB72C970FB6F894AD
:10307000DEBF0FBECDBF182F80FF0BC085E5E3E19B
:10308000F2E0A8EEB5E005900D928A95E1F70E9476
:10309000740911FF10C0CE0101967C018CE0F7018C
:1030A00011928A95E9F700E0B701802F0E94F81786
:1030B0000F5F0830C9F712FF14C060E080E093E0B2
:1030C0000E94190960E081E093E00E94190960E024
:1030D00081E593E00E94190960E082E593E00E9497
:1030E000190913FF0AC060E08EEA93E00E941909F3
:1030F00060E08FEA93E00E9419092C960FB6F894CD
:10310000DEBF0FBECDBFDF91CF911F910F91FF901A
:10311000EF9008952F923F924F925F926F927F921D
:103120008F929F92AF92BF92CF92DF92EF92FF92D7
:103130000F931F93CF93DF93CDB7DEB7C254D1095E
:103140000FB6F894DEBF0FBECDBF3B010091130553
:10315000202E312C2EE2029FA0011124BA016D5CB9
:103160007D4F7AAF69AFFB0111922A95E9F7F30120
:103170002085FB01218B21FFF0C02CE0E2ECF5E083
:10318000DE01599601900D922A95E1F789AB9AAB31
:1031900028EE35E021963FAF2EAF2197BE01635F49
:1031A0007F4F7EAF6DAFCE0149969CAF8BAFE9AD3F
:1031B000FAADF8AFEFAB9E012B5D3F4F3CAB2BABB5
:1031C0003EAB2DAB10E08EE2829D2001839D500C22
:1031D0001124B2016D5C7D4F2B01CB010C9623961F
:1031E0009FAF8EAF239790E1490E511CE9A9FAA930
:1031F0006191719181919191FAABE9AB2196EEAD1C
:10320000FFAD219781909190A190B1902196FFAF51
:10321000EEAF2197A50194010E948D360E945A3687
:10322000EDADFEAD6193719381939193FEAFEDAFE0
:10323000EBADFCADC190D190E190F190FCAFEBAF64
:103240006C197D098E099F099B01AC0197FF07C08E
:1032500022273327A901261B370B480B590BEFA94F
:10326000F8AD2193319341935193F8AFEFAB23968F
:10327000EEADFFAD2397C080D180E280F380C2160F
:10328000D306E406F50610F469017A012396EEAD43
:10329000FFAD2397C082D182E282F3820E94DF34A5
:1032A000A50194010E943534EDA9FEA961937193A3
:1032B00081939193FEABEDAB20E030E0A9010E9439
:1032C0002B3487FF0BC090E2112321F090E81130DE
:1032D00009F490E4F2018081892B80831F5F133011
:1032E00009F084CF80E0CD28CE28CF2809F4CBC0C8
:1032F000CE0185960E94E8094B015C012EE2229DD9
:10330000C001239D900D11249C012D5C3D4F79013E
:10331000F901868E978EA0A2B1A2BE016B5D7F4F90
:1033200080E096E00E948708F701628F738F848F98
:10333000958FBE016B5D7F4F84EF95E00E948708FB
:10334000F70166A377A380A791A7118910FF09C091
:1033500062A773A784A795A710C02CE0E1E0F1E075
:103360000FCFF301208131814281538113FDA5C02C
:10337000F70122A733A744A755A780913202081767
:1033800011F011FFA0C08EE2829DF001839DF00D2F
:103390001124ED5CFD4F128A138A148A158A12A239
:1033A00013A214A215A28EE2829D8001839D100DAE
:1033B00011240D5C1D4FF801818981FD63C089AD29
:1033C0009AAD0E9491066B017C018090190190904A
:1033D0001A01A0901B01B0901C01AC019B01C5011A
:1033E000B4010E942B3487FF36C1A5019401C501A9
:1033F000B4010E948D36F801668B778B808F918F98
:103400008EE2829D8001839D100D11240D5C1D4F65
:10341000F80182A093A0A4A0B5A0A501940166899B
:103420007789808D918D0E944D3618162CF4F80105
:10343000868A978AA08EB18EC0921901D0921A0105
:10344000E0921B01F0921C018CE0FE01B596ADE00C
:10345000B1E001900D928A95E1F78CE0FE013D9676
:10346000A1E0B1E001900D928A95E1F78091000111
:10347000809313058F5F803109F480E08093000111
:103480000E941C0781E0CE5BDF4F0FB6F894DEBFD1
:103490000FBECDBFDF91CF911F910F91FF90EF90A5
:1034A000DF90CF90BF90AF909F908F907F906F9064
:1034B0005F904F903F902F900895C501B4010E94F6
:1034C0008D36F70145CF2DE031E03AAB29AB8E01C7
:1034D0000F5F1F4F6BA97CA9645F7F4F7CAF6BAF01
:1034E000C12CD12C76010DAB1FABE9A9FAA98190B3
:1034F0009190A190B190FAABE9ABEBA9FCA94190F6
:10350000519061907190FCABEBABA3019201C501AE
:10351000B4010E948D369B01AC01C701B6010E9427
:1035200035336B017C01A5019401C301B2010E94F6
:103530003533F80161937193819391938F012BAD92
:103540003CAD6BA97CA92617370779F62FEE3FEF24
:103550004FE75FE3C701B6010E944D3618164CF4E1
:103560008EE2829DF001839DF00D1124ED5CFD4FF4
:1035700016CF2FEE3FEF4FE75FEBC701B6010E947A
:103580002B3487FF11C08EE2829DF001839DF00DE8
:103590001124ED5CFD4F89E996E7A6E9BEE782A319
:1035A00093A3A4A3B5A3FFCE8DA99FA90E94E80968
:1035B0006DA97FA980E096E00E9487084B015C011D
:1035C000A701960160E070E080E89FE30E94353338
:1035D00020E030E040E05FE30E948D360E942C370F
:1035E0006B017C0120911D0630911E0640911F0643
:1035F00050912006C501B4010E948D36A7019601A5
:103600000E948D364B015C01A701960160E070E0DD
:1036100080E89FE30E9435339B01AC01C501B401F2
:103620000E9435346B017C0120E030E0A9010E944A
:103630002B3487FF03C0C12CD12C76018EE2829DF2
:10364000F001839DF00D1124ED5CFD4FC2A2D3A2C9
:10365000E4A2F5A2A8CEA7019601C701B601C9CE82
:10366000FF920F931F93CF93DF938C01EB01809117
:103670002D0685FF23C0F090DB0580E2F81611F1DE
:10368000C8010E9471028823C9F081E08093DE05A1
:1036900088E0F8120CC00E9468020E94CA1680914D
:1036A000DC0581110BC08091DB058111F6CF0E94F2
:1036B000501282E00E9458020E94CA168091DB05D7
:1036C000823021F10E94CA168091DC0581111EC052
:1036D0009091320280910001981303C00E94140758
:1036E000F1CFBE01C8010E948A1881110FC08091DC
:1036F0002D0681FF0BC0888584FF08C080E1DF9123
:10370000CF911F910F91FF900C94EA17DF91CF9109
:103710001F910F91FF9008952F923F924F925F92C9
:103720006F927F928F929F92AF92BF92CF92DF92D1
:10373000EF92FF920F931F93CF93DF93CDB7DEB736
:10374000EE970FB6F894DEBF0FBECDBFEDE7F6E003
:103750008AE3DF011D928A95E9F78BE0EDE3F6E05D
:10376000AEE7B6E001900D928A95E1F78091B70639
:103770008432A1F01A8E1F8E312C212C1CA61BA680
:1037800010E01B8E1BA2EE24E394F12CAAE04A2E3B
:10379000512CB1E66B2EB3E07B2E50C181E08093BB
:1037A0007E0610927F0683E08A8FB1E0BF8FE4CF60
:1037B0000FEBD02EDC0CE9E1ED1510F40C9465282C
:1037C0008F5F8A8FBE016A5E7F4FCE014A960E944C
:1037D0009901882311F40C9468288E889F88A88CFE
:1037E000B98CC501B4010E9470370E94AE34062F17
:1037F00070E090E080E00E94DF349B01AC01C501E5
:10380000B4010E94353320E030E048EC52E40E94DD
:103810008D360E94FA360E94AE34CB01F7E4CF1603
:1038200009F425C02DE4C21609F464C1ED2DDD0CA8
:10383000FF0BE35EF34E0C94D837C31D471C471CA7
:10384000471C471CF31D471C471CFD1D471C081E39
:10385000131E471C171E471C251E471C2F1E391EF2
:10386000431E471C471C471C531E471C601E083242
:1038700009F4DCC030F5043160F4013108F098C07F
:10388000043009F474C0B0F00A3009F468C084E16F
:1038900096C00C3109F463C040F40631C0F725E14D
:1038A000201B2093800626E087C00E3109F457C004
:1038B000063269F7ABA1A1110C946B28B2E0BBA34F
:1038C00028C00D3309F4ADC0E0F4053309F44FC04E
:1038D00088F40B3211F00133D1F6EBA1E1110C9415
:1038E0006B28013309F094C010928306F3E0FBA328
:1038F00028E04FC00C3358F606530093840629E0A5
:103900005BC00C3508F50A3508F072C0003509F0C7
:10391000BECF00937E0621E0063209F04DC084310F
:10392000910551F08E31910539F08832910521F0E1
:103930008233910509F0ABCFB2010E94A2376657DE
:1039400060937E0621E025C00C3549F00F3508F064
:103950009ECF2EE5201B20937F0625E02DC00097EB
:1039600031F43BA131110C946B2841E04BA300933F
:103970007D06202F2D7F2C3119F020E00C35E1F44D
:10398000009719F00A9709F082CF600F60937D06C7
:1039900020E0C70102C0880F991F2A95E2F72BA5E6
:1039A0003CA528233923232B09F442C085E107C015
:1039B00001510093820622E0892B59F387E1EE96AC
:1039C0000FB6F894DEBF0FBECDBFDF91CF911F9130
:1039D0000F91FF90EF90DF90CF90BF90AF909F90AE
:1039E0008F907F906F905F904F903F902F900895B1
:1039F000892B29F40A550093810623E0CACF6A3047
:103A0000710509F044CF0A3509F441CF24E0C1CF54
:103A10000A9709F03CCF21E02093830633E03BA3D3
:103A200067CF892B09F033CF2AE0B3CF27E0C4CF8B
:103A3000ABA5BCA5A82BB92BBCA7ABA78A8DE82F3B
:103A4000F0E0E954F94FC080C110B2CEBB8DBB236A
:103A500029F0EBA1E11102C0F2E0FBA325FE0FC0AB
:103A600080919A0690919B06A0919C06B0919D062C
:103A700081389649A849B10514F00C9477283F8DF8
:103A8000332309F42AC120FE3AC180918006813097
:103A9000B1F423E333E34BEC51E460918906709178
:103AA0008A0680918B0690918C060E948D366093D9
:103AB000890670938A0680938B0690938C0630FC5F
:103AC00010C08091480690914906A0914A06B09195
:103AD0004B068093A6069093A706A093A806B093E2
:103AE000A90680917D06843009F024C126FC20C1FE
:103AF0008CE165CF892B09F061CF063050F403309B
:103B000098F00430D9F080E10530C9F410928706AE
:103B100018C0083008F4BBCE0A3048F10E3109F065
:103B2000B6CE0093850604C0002321F00130C9F70A
:103B30008BE008C0B3E0B0938506FACF80E28093B3
:103B400087068CE0F70102C0EE0FFF1F8A95E2F7AF
:103B5000CF012BA53CA52E233923232B09F026CFFB
:103B60002BA53CA52E2B392B3CA72BA767CF0930C3
:103B700039F0809186068064809386068DE0E2CFDE
:103B800010928606FBCF8092AF069092B006A0926C
:103B9000B106B092B2063B8D32603B8F8DE067017B
:103BA000082E02C0CC0CDD1C0A94E2F796012221FB
:103BB0003321232B11F00C947128D30102C0B59549
:103BC000A7958A95E2F7A0FF0BC020E030E0A9019D
:103BD000C501B4010E942B3487FF02C00C947428E5
:103BE0002C283D282BCF8092890690928A06A0929D
:103BF0008B06B0928C0680E0D2CF80928D06909298
:103C00008E06A0928F06B0929006116081E0C7CF19
:103C10008092950690929606A0929706B09298068A
:103C2000146083E0BCCF0093990684E0B8CFC5014F
:103C3000B4010E94A73460939A0670939B06809308
:103C40009C0690939D0685E0AACF80929E06909256
:103C50009F06A092A006B092A10686E0A0CF809217
:103C6000A2069092A306A092A406B092A50687E0B1
:103C700096CF8092A6069092A706A092A806B09230
:103C8000A90688E08CCF20E030E04FE753E4C5017F
:103C9000B4010E944D36181614F40C946E2800934B
:103CA000AA0689E07CCF8092AB069092AC06A092E7
:103CB000AD06B092AE064B8D41604B8F8AE06FCF60
:103CC0008092B3069092B406A092B506B092B60662
:103CD0008B8D84608B8F8CE062CF80917F068130EA
:103CE00081F44BA1423009F0EACE80917E06803506
:103CF00009F4E5CE882309F4E2CE20FCE0CE86E18B
:103D00005ECE80913E068111DACE20FCBECE80913F
:103D10004C0690914D06A0914E06B0914F068093AF
:103D2000890690938A06A0938B06B0938C06C7CE23
:103D3000E89426F880918006813071F5EDE7CE2E6B
:103D4000E6E0DE2EF12CE12C8B8DA82EB12CC501E6
:103D50000E2C02C0959587950A94E2F780FF12C059
:103D600023E333E34BEC51E4D6019E966D917D91B4
:103D70008D919C91D1970E948D36F60166A777A709
:103D800080AB91ABFFEFEF1AFF0A24E0C20ED11C0B
:103D900033E0E316F104D9F64BA1433049F48091A6
:103DA0008306813029F48B8D843011F00C947A28AD
:103DB0008CE0E1E6F6E0DE01119601900D928A9525
:103DC000E1F7ABA5BCA5B1FD61C000917D060A304D
:103DD00009F470C00C3509F411C19BA1933009F4AA
:103DE0003FC0AB8DAA23E1F1B0918106BFA38091C2
:103DF000790690917A06A0917B06B0917C068FA7F8
:103E000098ABA9ABBAAB2DE3A22E26E0B22E3DE7CC
:103E1000C32E36E0D32EF12CE12C9B8D892E912CD4
:103E2000C4010E2C02C0959587950A94E2F780FD97
:103E300055C1F501808D918DA28DB38DF60186A7B8
:103E400097A7A0ABB1ABFFEFEF1AFF0A24E0A20ED9
:103E5000B11C34E0C30ED11C43E0E416F10401F7B9
:103E60000E3109F48CC1053309F4B0C16DE876E078
:103E700086E00C3109F025C10E940C188823C1F09E
:103E80008B8D811180C11FA61BA2A1C080918406C9
:103E9000873010F08DE193CD90914306891709F496
:103EA00094CFBE016F5F7F4F0E940C1881118DCFA0
:103EB00087E085CDBB8DB11102C08AE180CDC10103
:103EC00080759927892B09F413CE60919E06709115
:103ED0009F068091A0069091A1060E9470370E94D3
:103EE000AE346730B8F680919906843129F082307B
:103EF00009F0CDCC27FCCBCC662309F474C061500B
:103F00006FA76DE876E08FA50E940C18882381F2D8
:103F1000009199068090790690907A06A0907B0691
:103F2000B0907C067DE7C72E76E0D72EF12CE12CF1
:103F30003B8D232F30E038A72FA38FA198A50E2CFF
:103F400002C0959587950A94E2F780FF33C0D601A9
:103F50009E964D905D906D907C90D197043109F0C4
:103F600046C0F701EE0FFF1FEE0FFF1FE35CF94F96
:103F700020A931A942A953A9608D718D828D938D9D
:103F80000E943533A30192010E943533F601608B04
:103F9000718B828B938BF2E0EF120CC0A501940120
:103FA0000E9435336093950670939606809397062A
:103FB00090939806BFEFEB1AFB0AE4E0CE0ED11CFB
:103FC000F3E0EF16F10409F0B8CF2FEA2222809136
:103FD0007E068FA3803509F000C19B8D992309F4DB
:103FE00006C18FE1ECCCE0918406EFA78ACF509612
:103FF0004D925D926D927C925397DCCF3B8D332333
:1040000009F45BCF4090790650907A0660907B0669
:1040100070907C064DE3842E46E0942ECE010196EE
:104020007C015DE7A52E56E0B52ED12CC12CA32F27
:10403000B0E0B8A7AFA38FA198A50C2C02C09595AE
:1040400087950A94E2F780FF3EC0F7012081318115
:1040500042815381D40158966D917D918D919C91AF
:104060005B970E943533F50126A537A540A951A9D4
:104070000E943533D5019E966D937D938D939C93CD
:10408000D197B2E0CB120CC0A30192010E9435334C
:104090006093B3067093B4068093B5069093B6060A
:1040A000FFEFCF1ADF0A24E0820E911C34E0E30E0A
:1040B000F11C44E0A40EB11C83E0C816D10409F041
:1040C000BACF1FA684CFF40180A991A9A2A9B3A950
:1040D000F50186A797A7A0ABB1ABE2CF053309F4F2
:1040E000B2CED6019E964D905D906D907C90D1970A
:1040F000BFA1B11133C0F701EE0FFF1FEE0FFF1F7D
:1041000021E030E02C0F3D1FE20FF31FD501D096C8
:104110002D913D914D915C91D39760817181828108
:1041200093810E943633A30192010E943633F60137
:1041300066A777A780AB91ABF2E0EF1284CE2FA5F4
:1041400038A949A95AA90E9436336093B3067093DF
:10415000B4068093B5069093B60675CEA30192017E
:10416000D50158966D917D918D919C915B970E94A0
:104170003633F60166A777A780AB91AB64CE6DE8C6
:1041800076E087E079CEADE3B6E0EDE7F6E090E0EB
:1041900080E04B8D242F30E0A901082E02C05595F8
:1041A00047950A94E2F740FD0AC058964D915D91FB
:1041B0006D917C915B97408B518B628B738B0196D9
:1041C000149634968330910539F77BCF80917E0623
:1041D000823008F476CF8EE1F2CBABA1A23039F475
:1041E000BFA1B11170C0EB8DEE2309F48AC02F8DF1
:1041F0002170EF8DC101E0FF7BC28E7DFBA1F1112B
:104200009B7C892B09F07FC78E01035F1F4F89E0DC
:10421000D8011D928A95E9F7222309F46CC28BA577
:104220009CA5867B892B09F071C780917D0685331B
:1042300011F081116BC78091480690914906A091B9
:104240004A06B0914B06898B9A8BAB8BBC8B8091C5
:10425000460690914506892B4091890650918A0621
:1042600060918B0670918C064D875E876F87788B87
:1042700084608D8B80912D0685FF06C08BEA96E0C9
:104280000E947102811145C7B8018BEA96E00E9435
:10429000301B8091DB0581110BC00E940407892B24
:1042A00039F080E28093DB050E94540A0E946B0380
:1042B0008CE0EBEAF6E0A5E5B6E001900D928A9578
:1042C000E1F780E07CCB20E030E0A9016091890635
:1042D00070918A0680918B0690918C060E942B34F7
:1042E000882309F40CCDFFA1FC38B9F060F4F2305A
:1042F00059F1F33061F1F13009F079CF3B8D311193
:1043000076CF1BA274CF2FA12E3839F018F02F389A
:1043100009F06DCF9F8D90619F8F8FA18E58823055
:1043200018F4AF8DA860AF8FBB8DBB2309F4C5CD4A
:104330004CE050E06BEA76E085E596E00E94F837C5
:10434000892B09F054CF42C04F8D44604F8F8B8D25
:10435000882309F4B2CD837009F4CFC620915506A5
:104360003091560640915706509158066091AB0621
:104370007091AC068091AD069091AE060E943533E7
:104380004B015C012091590630915A0640915B0621
:1043900050915C066091AF067091B0068091B106B5
:1043A0009091B2060E9435336FAB78AF89AF9AAF68
:1043B00027FED8C0E89427F84CE050E06BEA76E09E
:1043C00085E596E00E94F837892B11F481E2F7CA5F
:1043D0006091A2067091A3068091A4069091A50613
:1043E00020918006213071F423E333E34BEC51E458
:1043F0000E948D366093A2067093A3068093A40654
:104400009093A5064090A2065090A3066090A40643
:104410007090A506A5019401C501B4010E948D36D6
:104420006BAB7CAB8DAB9EAB2FA938AD49AD5AAD14
:10443000CA01B9010E948D366BAF7CAF8DAF9EAFC4
:1044400020E030E040E850E4C301B2010E948D3624
:10445000A30192010E948D362BA93CA94DA95EA90A
:104460000E9435332BAD3CAD4DAD5EAD0E94353372
:104470006B017C0120E030E0A9010E942B3487FD14
:104480003FC6C701B6010E942C376B017C012BADE2
:104490003CAD4DAD5EAD6BA97CA98DA99EA90E94D6
:1044A00036330E942C379B01AC01C701B6019058EE
:1044B0000E9435346B017C019FA1933021F4F7FAFF
:1044C000F094F7F8F09420E030E0A901C301B201C4
:1044D0000E942B3487FF0FC0F7FAF094F7F8F0949E
:1044E000D301C201B0588093A2069093A306A09373
:1044F000A406B093A506A70196016FA978AD89AD72
:104500009AAD0E948D369B01AC01C501B4010E9499
:10451000353320E030E040E05FE30E948D36609369
:104520008D0670938E0680938F0690939006A70158
:104530009601C501B4010E948D362FA938AD49AD51
:104540005AAD0E94363320E030E040E05FE30E9445
:104550008D366093910670939206809393069093A4
:10456000940645CEC12ED12C137083E209F427CADC
:10457000A1EF2A2280918006813041F50DE716E0F7
:10458000F12CE12CC6010E2C02C0959587950A945A
:10459000E2F780FF12C023E333E34BEC51E4F80170
:1045A00060897189828993890E948D36D8015096DD
:1045B0006D937D938D939C935397BFEFEB1AFB0AFA
:1045C0000C5F1F4FE3E0EE16F104E1F6C0908D069C
:1045D000D0908E06E0908F06F0909006A70196018D
:1045E000C501B4010E9435332B013C018091910635
:1045F00090919206A0919306B09194068BAB9CABE0
:10460000ADABBEAB9C01AD016FA978AD89AD9AADE4
:104610000E9435334B015C01A3019201C301B20139
:104620000E948D362B013C01A5019401C501B40106
:104630000E948D369B01AC01C301B2010E9436334A
:104640000E942C374B015C01A7019601C701B601FE
:104650000E948D366B017C012BA93CA94DA95EA956
:10466000CA01B9010E948D369B01AC01C701B60198
:104670000E9436330E942C376B017C01C092A20647
:10468000D092A306E092A406F092A506AC019B018D
:10469000C501B4010E9435334B015C01E894B7F8C1
:1046A0002AE037ED43EA5BE3C501B4010E944D36D1
:1046B00018160CF09CCD20E030E040E05FE3C5012F
:1046C000B4010E944D3618160CF480CE2FE632E16C
:1046D00043E85AE3C701B6010E948D369B01AC0145
:1046E000C501B4010E944D3618160CF080CD6ECE77
:1046F0008E7D9C7F83CD80912D06F090460681FFB4
:1047000012C08FA18150833018F0BF8DB064BF8F6D
:10471000EB8DEE2309F431C1FBA1F23009F02DC17C
:104720002F8D20682F8F80919A0690919B06A091E3
:104730009C06B0919D068093510690935206A093DB
:104740005306B093540680917F0680933E068823DB
:1047500011F088E08D8B8091890690918A06A09156
:104760008B06B0918C0680934C0690934D06A093D7
:104770004E06B0934F068D879E87AF87B88B2091EA
:10478000A6063091A7064091A8065091A90660910F
:1047900048067091490680914A0690914B060E9406
:1047A0002B34811103C09F8D95FF15C0FF2019F098
:1047B0008F2D0E94EA178091A6069091A706A091DE
:1047C000A806B091A9068093480690934906A09345
:1047D0004A06B0934B06AF8DA6FD0CC080914806EB
:1047E00090914906A0914A06B0914B06898B9A8B0D
:1047F000AB8BBC8B8091AA06809350068091870674
:1048000090914606981731F00E94EA17809187062A
:10481000809346068D8990914606892B8D8BF0906A
:104820008606809145068F1569F08091DB05823000
:1048300029F00E94B3178F2D0E94CB098091860624
:10484000809345068D8990914506892B8D8B8091AB
:104850007D06843099F48091DB05823079F0C09038
:104860009E06D0909F06E090A006F090A1060E94C0
:10487000B31740E0C701B6010E949C1680918206E2
:10488000809341068091800680933F06BBA1B330A0
:1048900071F58091830680934206811108C01092C1
:1048A000B3061092B4061092B5061092B606C090E8
:1048B000B306D090B406E090B506F090B606A70116
:1048C00096016091790670917A0680917B069091AD
:1048D0007C060E942B34882351F0C0927906D09236
:1048E0007A06E0927B06F0927C060E94E5178091A2
:1048F000840690914306981769F0809343068CE0F4
:10490000FE013196A1E6B6E001900D928A95E1F79D
:104910000E94E517809181068093400680917D0674
:10492000863209F47EC008F03FC08C3109F45FC0C4
:104930008E3109F45CC08A3009F443C080917E0650
:1049400080933D06803509F42EC3BBA1B23009F037
:104950002AC3813009F079C0BE01635F7F4F8BEAC3
:1049600096E00E94301B8CE0EBEAF6E0A5E5B6E0AD
:1049700001900D928A95E1F716C330E1F312D3CE80
:104980009F8D907480913D068150833038F4992337
:1049900009F4C9CE4F8D40624F8FC5CE9111C3CE61
:1049A0008F8D80628F8FBFCE8C3509F440C08636E4
:1049B00009F443C0883209F0C1CF65E576E087E0AD
:1049C00033C06DE876E08FA50E94F817809143060A
:1049D000EFA5E813B3CF8CE0EDE8F6E0A1E6B6E092
:1049E00001900D928A95E1F70E94E517A7CF8D8976
:1049F00081608D8BFBA1FF2329F0B8018BEA96E043
:104A00000E94301BB8018DE896E00E94301B8CE0BC
:104A1000EDE8F6E0A5E5B6E001900D928A95E1F7A4
:104A20008DCF65E576E086E00E94F81787CF8CE0B1
:104A3000EBEAF6E0ADE6B6E0D3CFEDE6F6E08CE0EB
:104A4000DF011D928A95E9F7CFCF811105C08D89CD
:104A500081608D8BB80183CF8250823008F07CC298
:104A60008091A2069091A306A091A406B091A506FC
:104A70008BA39CA3ADA3BEA340908D0650908E0641
:104A800060908F06709090062091550630915606E2
:104A90004091570650915806C301B2010E94363327
:104AA0006FA378A789A79AA7C0909106D090920685
:104AB000E0909306F09094062091590630915A06A2
:104AC00040915B0650915C06C701B6010E943633E7
:104AD0006FA778AB89AB9AAB77FA709477F870943C
:104AE000D701C601B0588B8F9C8FAD8FBE8F2FA181
:104AF00038A549A55AA56091AB067091AC06809186
:104B0000AD069091AE060E9435336B017C012FA556
:104B100038A949A95AA96091AF067091B006809151
:104B2000B1069091B2060E9435334B015C01A7019A
:104B30009601C301B2010E948D366BA77CA78DA799
:104B40009EA7A50194016B8D7C8D8D8D9E8D0E94FD
:104B50008D369B01AC016BA57CA58DA59EA50E9401
:104B600036336BA77CA78DA79EA7A5019401C3012F
:104B7000B2010E948D364B015C01A70196016B8D3D
:104B80007C8D8D8D9E8D0E948D369B01AC01C50163
:104B9000B4010E9435332BA53CA54DA55EA50E940E
:104BA000B5336B017C019F8D92FF59C12DEB37E32B
:104BB00046E055EBC701B6010E944D3687FD0AC09D
:104BC0002BED3FE049EC50E4C701B6010E943533BC
:104BD0006B017C018090210690902206A090230614
:104BE000B09024062BA13CA14DA15EA1CA01B90140
:104BF0000E943633A50194010E943533A50194012A
:104C00000E948D360E942C374B015C0120E030E081
:104C100040E05FE3C701B6010E948D362BA13CA1A5
:104C20004DA15EA10E948D369F77A50194010E943F
:104C300035340E941A350E94AE347CA36BA3DB018D
:104C4000AB2B09F489CE1D8990E080E00E94DD3411
:104C50004B015C0113FF0EC0AC019B016D857E858D
:104C60008F8598890E948D366D877E878F87988B78
:104C7000177F1D8BA5019401C701B6010E94353431
:104C80006F8F78A389A39AA320915D0630915E0669
:104C900040915F06509160066091B3067091B40632
:104CA0008091B5069091B6060E943533A501940116
:104CB0000E9435346BAF7CAF8DAF9EAF2F8D38A186
:104CC00049A15AA1CA01B9010E948D369B01AC01CC
:104CD00060E070E080E090E40E9435336B017C017D
:104CE0002BEA3AEA4AE25EE36F8D78A189A19AA1A4
:104CF0000E948D364B015C0120E030E040E850E43A
:104D0000C701B6010E9436339B01AC01C501B40155
:104D10000E948D366BA77CA78DA79EA720E030E070
:104D200040E05FE3C701B6010E948D366FAB78AFFC
:104D300089AF9AAF10E022242394312CABA1BCA1FF
:104D4000A215B30509F408CE1C3008F09CC0A301DD
:104D500092016BA57CA58DA59EA50E948D366B0149
:104D60007C012B8D3C8D4D8D5E8D6FA978AD89AD0D
:104D70009AAD0E948D369B01AC01C701B6010E941D
:104D800036337B01082FD92EA30192016FA978AD8C
:104D900089AD9AAD0E948D364B015C012B8D3C8D07
:104DA0004D8D5E8D6BA57CA58DA59EA50E948D3633
:104DB0009B01AC01C501B4010E9435332B013C01BC
:104DC0001F5FC701A02FBD2D8B8F9C8FAD8FBE8F16
:104DD000A30192016FA178A589A59AA50E943633F7
:104DE0006093550670935606809357069093580625
:104DF0002B8D3C8D4D8D5E8D6FA578A989A99AA9C3
:104E00000E9436336093590670935A0680935B066E
:104E100090935C062BAD3CAD4DAD5EAD60915D06F3
:104E200070915E0680915F06909160060E94363315
:104E300060935D0670935E0680935F0690936006B4
:104E4000BE01635F7F4F85E596E00E94301B809135
:104E5000DC05811188CD9FEF291A390A6FCF2DEB20
:104E600037E346E055E3C701B6010E942B3418161C
:104E70000CF4B0CE2BED3FE049EC50E4C701B60195
:104E80000E943633A5CEB10190E080E00E94DD346F
:104E90002F8D38A149A15AA10E948D366B017C014A
:104EA0000E9430346B8F7C8F8D8F9E8FC701B6012F
:104EB0000E941E374B015C01C0908D06D0908E067B
:104EC000E0908F06F0909006F7FAF094F7F8F094DF
:104ED0008091910690919206A0919306B0919406CC
:104EE0008BAB9CABADABBEABA70196016B8D7C8D44
:104EF0008D8D9E8D0E948D362B013C012BA93CA9E6
:104F00004DA95EA9C501B4010E948D369B01AC017B
:104F1000C301B2010E9436332B013C01A701960167
:104F2000C501B4010E948D366B017C012BA93CA9FF
:104F30004DA95EA96B8D7C8D8D8D9E8D0E948D36C9
:104F40009B01AC01C701B6010E9435336B8F7C8F8A
:104F50008D8F9E8F10E03CCF8D8984608D8B8091EA
:104F6000DB05823009F4FFCC0E94B3178091DC0589
:104F7000811119C0BF8DB071FB2E1092E005EF8D2D
:104F8000E3FB882780F90E94C20386B1807290916A
:104F9000C105891719F184E00E9458020E94CA16BF
:104FA00080E00E94C2038091850680934406882396
:104FB00011F40C94DF1C0E94B31780914406909169
:104FC000DB05833009F04DC0923029F088E00E9463
:104FD00068020E94CA161092440673C9B8018BEA8F
:104FE00096E00E94301B81E08093DA0582E00E9407
:104FF00068020E94CA168091DC058111D4CF80918D
:10500000DB058111F6CF8091DA05813031F5FF2083
:1050100001F18CE0E2ECF5E0AEECB5E001900D9230
:105020008A95E1F71092DA0580E00E94C2030E949F
:10503000CA160E941D120E94D7090E946F060E9484
:1050400045068091E005882309F48DCC0E94130960
:10505000AACF85E00E945802E5CF81E08093E00569
:10506000E1CF81E080933D06109241061092400608
:1050700010923E0610924306109246061092450684
:1050800084E68093E2058093E3058093E405923003
:1050900089F061E676E080E00E940C18882311F424
:1050A0000C94581F0E94E51780E00E94840380E062
:1050B0000E94CB0984E093E00E94BF048BE992E058
:1050C0000E94BF040E94400686CF81E00C94DF1C42
:1050D00082E00C94DF1C88E10C94DF1C86E20C94C7
:1050E000DF1C89E10C94DF1C84E00C94DF1C8BE155
:1050F0000C94DF1C85E20C94DF1C80E20C94DF1C16
:1051000082E20C94DF1C84E20C94DF1C80E10C949E
:10511000DF1C8FE00C94DF1CCF93DF93C0E08C2F5B
:105120000E94C417811114C01092B7068EE30E942A
:1051300099030E94B5038AE30E94990387E00E94C5
:10514000EF04C13019F4DF91CF910895C1E0E7CFAA
:105150008091B7068823A9F30E948C1BD82F8EE379
:105160000E9499030E94B5038AE30E9499038D2F40
:105170000E94FB04E6CF2F923F924F925F926F9274
:105180007F928F929F92AF92BF92CF92DF92EF92D7
:10519000FF920F931F93CF93DF93CDB7DEB76F9737
:1051A0000FB6F894DEBF0FBECDBF9091DC05911114
:1051B00018C18B8F9E01235F3F4F3A8F298F89E063
:1051C000D9011D928A95E9F786E08D8B28EEA22EF3
:1051D00025E0B22EFE0176964F0110E000E0C12CD2
:1051E000D12C7601FB8D2F2E312C802F94E00023C3
:1051F00021F090E1013009F498E0D4019D934D0134
:10520000F10102C0F595E7958A95E2F7E0FF1BC032
:1052100020E030E040EC5FEBD50194966D917D91FC
:105220008D919C9197970E948D36762E472E582E01
:10523000692EA70196010E942B3487FD04C0C72C5C
:10524000D42CE52CF62C0F5F1F4FB4E0AB0EB11C35
:105250000330110551F68090330690903406A090EB
:105260003506B090360694E0692E01E062EC75E0F8
:10527000CE0101960E94E10280912E06E82FF0E017
:10528000FD8FEC8FFE01319682EC482E85E0582E82
:105290005F8E4E8E712C10E030E020E0B701A60149
:1052A0007058C101022E02C0959587950A94E2F7C5
:1052B00080FF28C07394AE8DBF8D1D921D921D92EC
:1052C0001C9213978C8D9D8D022E02C0959587950B
:1052D0000A94E2F780FF07C0002339F0408351832E
:1052E0006283738306C00023C9F3C082D182E28245
:1052F000F38286E190E08C0F9D1F820F931FDC01EB
:105300008C91182B2F5F3F4F34968E8D9F8D049676
:105310009F8F8E8F2330310521F6672D70E090E04E
:1053200080E00E94DD340E942C371093E105A50136
:1053300094010E948D366D877E878F87988BBE0182
:10534000635F7F4FCE0101960E948A1894E090938C
:10535000DF050E94540A0E946B030023E9F00E94BB
:10536000DD08FE01769630E020E090E06191462F66
:10537000412359F0AC01022E02C0559547950A947D
:10538000E2F740FF02C0609516232F5F3F4F2330A6
:10539000310561F71093E1050E94540A8091BD0523
:1053A000847309F47FC01091BD0514FF03C086E02B
:1053B0000E94580215FF03C087E00E9458020111A5
:1053C00086C00E94DD08AB8D8A2319F088E00E9418
:1053D00058028091BE058823E9F00E9450120E9475
:1053E000CA166F960FB6F894DEBF0FBECDBFDF9121
:1053F000CF911F910F91FF90EF90DF90CF90BF90D2
:10540000AF909F908F907F906F905F904F903F9064
:105410002F90089584E00E945E020E941D128091E8
:10542000370690913806019708F041C021E0022725
:10543000C0903906D0903A06E0903B06F0903C06CA
:105440000023E1F120E030E040EA50E4C701B6017A
:105450000E948D366B017C0180902F069090300663
:10546000A0903106B09032066A946110FFCE90E0B1
:1054700080E09101082E02C0359527950A94E2F745
:1054800020FF06C0D2011D921D921D921C921397FF
:105490000196B4E04B0E511C8330910551F71092E8
:1054A000DF059FCF812F8C7109F057CFB6CFEFE981
:1054B000FFE03197F1F700C00000B5CF80903306D0
:1054C00090903406A0903506B0903606CDCF12FFEE
:1054D00080CF89E07CCF1F920F920FB60F921124DC
:1054E0002F933F934F935F936F937F938F939F93EC
:1054F000AF93BF93CF93EF93FF930E941D03C82FE9
:10550000882389F080FD0E945012C2FF05C080915F
:10551000BD0582608093BD05C1FF05C08091BD05BA
:1055200088608093BD05FF91EF91CF91BF91AF91BE
:105530009F918F917F916F915F914F913F912F91AB
:105540000F900FBE0F901F9018951F920F920FB6DD
:105550000F9211248F939F939BB180910B028C71BA
:10556000937E892B8BB915BC9F918F910F900FBEA5
:105570000F901F9018951F920F920FB60F92112443
:105580000F931F932F933F934F935F936F937F934B
:105590008F939F93AF93BF93EF93FF9380910D02EF
:1055A0008111EAC19BB180911D02807E9F71892B80
:1055B0008BB98BB1837E90911C02892B8BB9809122
:1055C0001B0286BD82E085BD81E080930D02789448
:1055D00080912F0290913002892B09F0A1C0809117
:1055E000140590913A05981709F4C1C1E09114058A
:1055F0002E2F30E086E0E89FF0011124EA5EFA4F9A
:10560000F0933002E0932F0282819381909389007E
:10561000809388008081918190932B0280932A024D
:10562000E48180912C028E1761F1E0932C0281E1DC
:10563000E89FF0011124E55CFA4FF0932E02E0930D
:105640002D0284859585A685B785B695A7959795EE
:1056500087958093160290931702A0931802B09337
:1056600019028093120290931302A0931402B09334
:10567000150280930E0290930F02A0931002B09334
:105680001102E0912D02F0912E02808990910C027E
:10569000892780931D0286E0829FD001839FB00DF1
:1056A0001124AA5EBA4F15962C9180819181A28116
:1056B000B381022E04C0B695A795979587950A9455
:1056C000D2F780931E0290931F02A0932002B09302
:1056D000210284819581A681B781022E04C0B695EE
:1056E000A795979587950A94D2F780932202909375
:1056F0002302A0932402B093250280859185A28580
:10570000B38504C0B695A795979587952A95D2F746
:105710008093260290932702A0932802B093290237
:105720008091DA058130B1F486B180729091C10523
:10573000891781F01092DA058CE0E2ECF5E0AEEC2E
:10574000B5E001900D928A95E1F78091BD058064E6
:105750008093BD0510921C0280910E0290910F0261
:10576000A0911002B091110240911E0250911F02AF
:105770006091200270912102840F951FA61FB71F10
:1057800080930E0290930F02A0931002B093110227
:10579000E0912D02F0912E0244855585668577852E
:1057A000481759076A077B0728F524E020931C0255
:1057B000841B950BA60BB70B80930E0290930F02E0
:1057C000A0931002B09311028091C2059091C3057D
:1057D000A091C405B091C505208925FFE0C00197BF
:1057E000A109B1098093C2059093C305A093C40594
:1057F000B093C5058091120290911302A0911402FA
:10580000B0911502009122021091230220912402EE
:1058100030912502800F911FA21FB31F80931202A7
:1058200090931302A0931402B093150248175907DE
:105830006A077B0738F520911C02286020931C0220
:10584000841B950BA60BB70B809312029093130247
:10585000A0931402B09315028091C6059091C705DC
:10586000A091C805B091C905208926FF9CC0019769
:10587000A109B1098093C6059093C705A093C805F7
:10588000B093C9058091160290911702A091180259
:10589000B09119020091260210912702209128024E
:1058A00030912902800F911FA21FB31F809316020F
:1058B00090931702A0931802B09319024817590742
:1058C0006A077B0738F520911C02206120931C0297
:1058D000841B950BA60BB70B8093160290931702AF
:1058E000A0931802B09319028091CA059091CB053C
:1058F000A091CC05B091CD05208927FF58C0019714
:10590000A109B1098093CA059093CB05A093CC055A
:10591000B093CD058091DB05843039F48091E105A9
:1059200090911C02892380931C0280912A029091FD
:105930002B02019790932B0280932A02892B69F402
:105940001092300210922F02809114058F5F809385
:105950001405863011F41092140580911C02909168
:105960000B02892780931C0210920D0205C00E9431
:10597000E91184E00E946802FF91EF91BF91AF911D
:105980009F918F917F916F915F914F913F912F9157
:105990001F910F910F900FBE0F901F9018950196B9
:1059A000A11DB11D1FCF0196A11DB11D63CF019691
:1059B000A11DB11DA7CF1F920F920FB60F921124F8
:1059C0002F933F934F935F936F937F938F939F9307
:1059D000AF93BF93EF93FF93E091C600E13209F4D8
:1059E0004BC008F02BC0E83109F431C0E7FF70C0AC
:1059F000E458ED3108F02DC0F0E0EF5FF24D0C946B
:105A0000D8373E2D402D292D292D292D292D292D01
:105A1000292D292D292D292D292D462D4A2D4C2D75
:105A20004E2D502D522D542D562D292D582D5C2D97
:105A30005E2D602D622D642D292D662DEF33D1F062
:105A400082E0EE3709F0D2CF0E94680202C00E94C5
:105A50005012FF91EF91BF91AF919F918F917F91E4
:105A60006F915F914F913F912F910F900FBE0F90CB
:105A70001F90189581E0E8CF88E0E6CF80E2E4CF80
:105A80008091DB0585FFE5CF80E4DECF81E00E94D9
:105A90004F02DFCF82E0FBCF84E0F9CF88E0F7CF81
:105AA00080E1F5CF80E2F3CF80E4F1CF80E8EFCF63
:105AB00081E00E944602CDCF82E0FBCF84E0F9CFA7
:105AC00088E0F7CF80E1F5CF80E2F3CF80E4F1CF3B
:105AD000A0910A0281E08A0F813809F480E0909158
